{
  "contractName": "DaiMock",
  "abi": [
    {
      "anonymous": false,
      "inputs": [
        {
          "indexed": true,
          "internalType": "address",
          "name": "owner",
          "type": "address"
        },
        {
          "indexed": true,
          "internalType": "address",
          "name": "spender",
          "type": "address"
        },
        {
          "indexed": false,
          "internalType": "uint256",
          "name": "value",
          "type": "uint256"
        }
      ],
      "name": "Approval",
      "type": "event"
    },
    {
      "anonymous": false,
      "inputs": [
        {
          "indexed": true,
          "internalType": "address",
          "name": "from",
          "type": "address"
        },
        {
          "indexed": true,
          "internalType": "address",
          "name": "to",
          "type": "address"
        },
        {
          "indexed": false,
          "internalType": "uint256",
          "name": "value",
          "type": "uint256"
        }
      ],
      "name": "Transfer",
      "type": "event"
    },
    {
      "inputs": [
        {
          "internalType": "address",
          "name": "owner",
          "type": "address"
        },
        {
          "internalType": "address",
          "name": "spender",
          "type": "address"
        }
      ],
      "name": "allowance",
      "outputs": [
        {
          "internalType": "uint256",
          "name": "",
          "type": "uint256"
        }
      ],
      "stateMutability": "view",
      "type": "function",
      "constant": true
    },
    {
      "inputs": [
        {
          "internalType": "address",
          "name": "spender",
          "type": "address"
        },
        {
          "internalType": "uint256",
          "name": "amount",
          "type": "uint256"
        }
      ],
      "name": "approve",
      "outputs": [
        {
          "internalType": "bool",
          "name": "",
          "type": "bool"
        }
      ],
      "stateMutability": "nonpayable",
      "type": "function"
    },
    {
      "inputs": [
        {
          "internalType": "address",
          "name": "account",
          "type": "address"
        }
      ],
      "name": "balanceOf",
      "outputs": [
        {
          "internalType": "uint256",
          "name": "",
          "type": "uint256"
        }
      ],
      "stateMutability": "view",
      "type": "function",
      "constant": true
    },
    {
      "inputs": [],
      "name": "decimals",
      "outputs": [
        {
          "internalType": "uint8",
          "name": "",
          "type": "uint8"
        }
      ],
      "stateMutability": "view",
      "type": "function",
      "constant": true
    },
    {
      "inputs": [
        {
          "internalType": "address",
          "name": "spender",
          "type": "address"
        },
        {
          "internalType": "uint256",
          "name": "subtractedValue",
          "type": "uint256"
        }
      ],
      "name": "decreaseAllowance",
      "outputs": [
        {
          "internalType": "bool",
          "name": "",
          "type": "bool"
        }
      ],
      "stateMutability": "nonpayable",
      "type": "function"
    },
    {
      "inputs": [
        {
          "internalType": "address",
          "name": "spender",
          "type": "address"
        },
        {
          "internalType": "uint256",
          "name": "addedValue",
          "type": "uint256"
        }
      ],
      "name": "increaseAllowance",
      "outputs": [
        {
          "internalType": "bool",
          "name": "",
          "type": "bool"
        }
      ],
      "stateMutability": "nonpayable",
      "type": "function"
    },
    {
      "inputs": [],
      "name": "name",
      "outputs": [
        {
          "internalType": "string",
          "name": "",
          "type": "string"
        }
      ],
      "stateMutability": "view",
      "type": "function",
      "constant": true
    },
    {
      "inputs": [],
      "name": "symbol",
      "outputs": [
        {
          "internalType": "string",
          "name": "",
          "type": "string"
        }
      ],
      "stateMutability": "view",
      "type": "function",
      "constant": true
    },
    {
      "inputs": [],
      "name": "totalSupply",
      "outputs": [
        {
          "internalType": "uint256",
          "name": "",
          "type": "uint256"
        }
      ],
      "stateMutability": "view",
      "type": "function",
      "constant": true
    },
    {
      "inputs": [
        {
          "internalType": "address",
          "name": "recipient",
          "type": "address"
        },
        {
          "internalType": "uint256",
          "name": "amount",
          "type": "uint256"
        }
      ],
      "name": "transfer",
      "outputs": [
        {
          "internalType": "bool",
          "name": "",
          "type": "bool"
        }
      ],
      "stateMutability": "nonpayable",
      "type": "function"
    },
    {
      "inputs": [
        {
          "internalType": "address",
          "name": "sender",
          "type": "address"
        },
        {
          "internalType": "address",
          "name": "recipient",
          "type": "address"
        },
        {
          "internalType": "uint256",
          "name": "amount",
          "type": "uint256"
        }
      ],
      "name": "transferFrom",
      "outputs": [
        {
          "internalType": "bool",
          "name": "",
          "type": "bool"
        }
      ],
      "stateMutability": "nonpayable",
      "type": "function"
    },
    {
      "inputs": [
        {
          "internalType": "address",
          "name": "account",
          "type": "address"
        },
        {
          "internalType": "uint256",
          "name": "amount",
          "type": "uint256"
        }
      ],
      "name": "generateTokens",
      "outputs": [],
      "stateMutability": "nonpayable",
      "type": "function"
    }
  ],
  "bytecode": "0x608060405234801561001057600080fd5b506040518060400160405280600381526020017f44414900000000000000000000000000000000000000000000000000000000008152506040518060400160405280600381526020017f444149000000000000000000000000000000000000000000000000000000000081525081600390805190602001906100939291906100bc565b5080516100a79060049060208401906100bc565b50506005805460ff191660121790555061014f565b828054600181600116156101000203166002900490600052602060002090601f016020900481019282601f106100fd57805160ff191683800117855561012a565b8280016001018555821561012a579182015b8281111561012a57825182559160200191906001019061010f565b5061013692915061013a565b5090565b5b80821115610136576000815560010161013b565b610b5b8061015e6000396000f3fe608060405234801561001057600080fd5b50600436106100d1576000357c01000000000000000000000000000000000000000000000000000000009004806370a082311161008e57806370a082311461022d578063827f32c01461025357806395d89b4114610281578063a457c2d714610289578063a9059cbb146102b5578063dd62ed3e146102e1576100d1565b806306fdde03146100d6578063095ea7b31461015357806318160ddd1461019357806323b872dd146101ad578063313ce567146101e35780633950935114610201575b600080fd5b6100de61030f565b6040805160208082528351818301528351919283929083019185019080838360005b83811015610118578181015183820152602001610100565b50505050905090810190601f1680156101455780820380516001836020036101000a031916815260200191505b509250505060405180910390f35b61017f6004803603604081101561016957600080fd5b50600160a060020a0381351690602001356103a5565b604080519115158252519081900360200190f35b61019b6103c2565b60408051918252519081900360200190f35b61017f600480360360608110156101c357600080fd5b50600160a060020a038135811691602081013590911690604001356103c8565b6101eb61044f565b6040805160ff9092168252519081900360200190f35b61017f6004803603604081101561021757600080fd5b50600160a060020a038135169060200135610458565b61019b6004803603602081101561024357600080fd5b5035600160a060020a03166104a6565b61027f6004803603604081101561026957600080fd5b50600160a060020a0381351690602001356104c1565b005b6100de6104cf565b61017f6004803603604081101561029f57600080fd5b50600160a060020a038135169060200135610530565b61017f600480360360408110156102cb57600080fd5b50600160a060020a038135169060200135610598565b61019b600480360360408110156102f757600080fd5b50600160a060020a03813581169160200135166105ac565b60038054604080516020601f600260001961010060018816150201909516949094049384018190048102820181019092528281526060939092909183018282801561039b5780601f106103705761010080835404028352916020019161039b565b820191906000526020600020905b81548152906001019060200180831161037e57829003601f168201915b5050505050905090565b60006103b96103b26105d7565b84846105db565b50600192915050565b60025490565b60006103d58484846106cd565b610445846103e16105d7565b61044085604051806060016040528060288152602001610a9060289139600160a060020a038a1660009081526001602052604081209061041f6105d7565b600160a060020a03168152602081019190915260400160002054919061082e565b6105db565b5060019392505050565b60055460ff1690565b60006103b96104656105d7565b8461044085600160006104766105d7565b600160a060020a03908116825260208083019390935260409182016000908120918c1681529252902054906108c8565b600160a060020a031660009081526020819052604090205490565b6104cb828261092c565b5050565b60048054604080516020601f600260001961010060018816150201909516949094049384018190048102820181019092528281526060939092909183018282801561039b5780601f106103705761010080835404028352916020019161039b565b60006103b961053d6105d7565b8461044085604051806060016040528060258152602001610b0160259139600160006105676105d7565b600160a060020a03908116825260208083019390935260409182016000908120918d1681529252902054919061082e565b60006103b96105a56105d7565b84846106cd565b600160a060020a03918216600090815260016020908152604080832093909416825291909152205490565b3390565b600160a060020a0383166106235760405160e560020a62461bcd028152600401808060200182810382526024815260200180610add6024913960400191505060405180910390fd5b600160a060020a03821661066b5760405160e560020a62461bcd028152600401808060200182810382526022815260200180610a486022913960400191505060405180910390fd5b600160a060020a03808416600081815260016020908152604080832094871680845294825291829020859055815185815291517f8c5be1e5ebec7d5bd14f71427d1e84f3dd0314c0f7b2291e5b200ac8c7c3b9259281900390910190a3505050565b600160a060020a0383166107155760405160e560020a62461bcd028152600401808060200182810382526025815260200180610ab86025913960400191505060405180910390fd5b600160a060020a03821661075d5760405160e560020a62461bcd028152600401808060200182810382526023815260200180610a256023913960400191505060405180910390fd5b610768838383610a1f565b6107a581604051806060016040528060268152602001610a6a60269139600160a060020a038616600090815260208190526040902054919061082e565b600160a060020a0380851660009081526020819052604080822093909355908416815220546107d490826108c8565b600160a060020a038084166000818152602081815260409182902094909455805185815290519193928716927fddf252ad1be2c89b69c2b068fc378daa952ba7f163c4a11628f55a4df523b3ef92918290030190a3505050565b600081848411156108c05760405160e560020a62461bcd0281526004018080602001828103825283818151815260200191508051906020019080838360005b8381101561088557818101518382015260200161086d565b50505050905090810190601f1680156108b25780820380516001836020036101000a031916815260200191505b509250505060405180910390fd5b505050900390565b600082820183811015610925576040805160e560020a62461bcd02815260206004820152601b60248201527f536166654d6174683a206164646974696f6e206f766572666c6f770000000000604482015290519081900360640190fd5b9392505050565b600160a060020a03821661098a576040805160e560020a62461bcd02815260206004820152601f60248201527f45524332303a206d696e7420746f20746865207a65726f206164647265737300604482015290519081900360640190fd5b61099660008383610a1f565b6002546109a390826108c8565b600255600160a060020a0382166000908152602081905260409020546109c990826108c8565b600160a060020a0383166000818152602081815260408083209490945583518581529351929391927fddf252ad1be2c89b69c2b068fc378daa952ba7f163c4a11628f55a4df523b3ef9281900390910190a35050565b50505056fe45524332303a207472616e7366657220746f20746865207a65726f206164647265737345524332303a20617070726f766520746f20746865207a65726f206164647265737345524332303a207472616e7366657220616d6f756e7420657863656564732062616c616e636545524332303a207472616e7366657220616d6f756e74206578636565647320616c6c6f77616e636545524332303a207472616e736665722066726f6d20746865207a65726f206164647265737345524332303a20617070726f76652066726f6d20746865207a65726f206164647265737345524332303a2064656372656173656420616c6c6f77616e63652062656c6f77207a65726fa2646970667358221220dfc2da4bf0ca07bf02457fdcf6702589e564f76dca1b41a3c7633e839ab0690b64736f6c634300060c0033",
  "immutableReferences": {},
  "source": "// SPDX-License-Identifier: MIT\npragma solidity >=0.6.0 <0.8.0;\n\nimport \"@openzeppelin/contracts/token/ERC20/ERC20.sol\";\n\ninterface ERC20Mock {\n    function generateTokens(address account, uint256 amount) external;\n}\n\ncontract DaiMock is ERC20(\"DAI\", \"DAI\"), ERC20Mock {\n    function generateTokens(address account, uint256 amount) external override {\n        _mint(account, amount);\n    }\n}\n",
  "sourcePath": "/Users/mortimr/projects/kuko-finance/contracts/contracts/testing/DaiMock.sol",
  "compiler": {
    "name": "solc",
    "version": "0.6.12+commit.27d51765.Emscripten.clang"
  },
  "schemaVersion": "3.3.3",
  "updatedAt": "2021-02-06T22:10:59.632Z",
  "networkType": "ethereum",
  "devdoc": {
    "kind": "dev",
    "methods": {
      "allowance(address,address)": {
        "details": "See {IERC20-allowance}."
      },
      "approve(address,uint256)": {
        "details": "See {IERC20-approve}. Requirements: - `spender` cannot be the zero address."
      },
      "balanceOf(address)": {
        "details": "See {IERC20-balanceOf}."
      },
      "decimals()": {
        "details": "Returns the number of decimals used to get its user representation. For example, if `decimals` equals `2`, a balance of `505` tokens should be displayed to a user as `5,05` (`505 / 10 ** 2`). Tokens usually opt for a value of 18, imitating the relationship between Ether and Wei. This is the value {ERC20} uses, unless {_setupDecimals} is called. NOTE: This information is only used for _display_ purposes: it in no way affects any of the arithmetic of the contract, including {IERC20-balanceOf} and {IERC20-transfer}."
      },
      "decreaseAllowance(address,uint256)": {
        "details": "Atomically decreases the allowance granted to `spender` by the caller. This is an alternative to {approve} that can be used as a mitigation for problems described in {IERC20-approve}. Emits an {Approval} event indicating the updated allowance. Requirements: - `spender` cannot be the zero address. - `spender` must have allowance for the caller of at least `subtractedValue`."
      },
      "increaseAllowance(address,uint256)": {
        "details": "Atomically increases the allowance granted to `spender` by the caller. This is an alternative to {approve} that can be used as a mitigation for problems described in {IERC20-approve}. Emits an {Approval} event indicating the updated allowance. Requirements: - `spender` cannot be the zero address."
      },
      "name()": {
        "details": "Returns the name of the token."
      },
      "symbol()": {
        "details": "Returns the symbol of the token, usually a shorter version of the name."
      },
      "totalSupply()": {
        "details": "See {IERC20-totalSupply}."
      },
      "transfer(address,uint256)": {
        "details": "See {IERC20-transfer}. Requirements: - `recipient` cannot be the zero address. - the caller must have a balance of at least `amount`."
      },
      "transferFrom(address,address,uint256)": {
        "details": "See {IERC20-transferFrom}. Emits an {Approval} event indicating the updated allowance. This is not required by the EIP. See the note at the beginning of {ERC20}. Requirements: - `sender` and `recipient` cannot be the zero address. - `sender` must have a balance of at least `amount`. - the caller must have allowance for ``sender``'s tokens of at least `amount`."
      }
    },
    "version": 1
  },
  "userdoc": {
    "kind": "user",
    "methods": {},
    "version": 1
  }
}