{
  "contractName": "DaiMock",
  "abi": [
    {
      "anonymous": false,
      "inputs": [
        {
          "indexed": true,
          "internalType": "address",
          "name": "owner",
          "type": "address"
        },
        {
          "indexed": true,
          "internalType": "address",
          "name": "spender",
          "type": "address"
        },
        {
          "indexed": false,
          "internalType": "uint256",
          "name": "value",
          "type": "uint256"
        }
      ],
      "name": "Approval",
      "type": "event"
    },
    {
      "anonymous": false,
      "inputs": [
        {
          "indexed": true,
          "internalType": "address",
          "name": "from",
          "type": "address"
        },
        {
          "indexed": true,
          "internalType": "address",
          "name": "to",
          "type": "address"
        },
        {
          "indexed": false,
          "internalType": "uint256",
          "name": "value",
          "type": "uint256"
        }
      ],
      "name": "Transfer",
      "type": "event"
    },
    {
      "inputs": [
        {
          "internalType": "address",
          "name": "owner",
          "type": "address"
        },
        {
          "internalType": "address",
          "name": "spender",
          "type": "address"
        }
      ],
      "name": "allowance",
      "outputs": [
        {
          "internalType": "uint256",
          "name": "",
          "type": "uint256"
        }
      ],
      "stateMutability": "view",
      "type": "function",
      "constant": true
    },
    {
      "inputs": [
        {
          "internalType": "address",
          "name": "spender",
          "type": "address"
        },
        {
          "internalType": "uint256",
          "name": "amount",
          "type": "uint256"
        }
      ],
      "name": "approve",
      "outputs": [
        {
          "internalType": "bool",
          "name": "",
          "type": "bool"
        }
      ],
      "stateMutability": "nonpayable",
      "type": "function"
    },
    {
      "inputs": [
        {
          "internalType": "address",
          "name": "account",
          "type": "address"
        }
      ],
      "name": "balanceOf",
      "outputs": [
        {
          "internalType": "uint256",
          "name": "",
          "type": "uint256"
        }
      ],
      "stateMutability": "view",
      "type": "function",
      "constant": true
    },
    {
      "inputs": [],
      "name": "decimals",
      "outputs": [
        {
          "internalType": "uint8",
          "name": "",
          "type": "uint8"
        }
      ],
      "stateMutability": "view",
      "type": "function",
      "constant": true
    },
    {
      "inputs": [
        {
          "internalType": "address",
          "name": "spender",
          "type": "address"
        },
        {
          "internalType": "uint256",
          "name": "subtractedValue",
          "type": "uint256"
        }
      ],
      "name": "decreaseAllowance",
      "outputs": [
        {
          "internalType": "bool",
          "name": "",
          "type": "bool"
        }
      ],
      "stateMutability": "nonpayable",
      "type": "function"
    },
    {
      "inputs": [
        {
          "internalType": "address",
          "name": "spender",
          "type": "address"
        },
        {
          "internalType": "uint256",
          "name": "addedValue",
          "type": "uint256"
        }
      ],
      "name": "increaseAllowance",
      "outputs": [
        {
          "internalType": "bool",
          "name": "",
          "type": "bool"
        }
      ],
      "stateMutability": "nonpayable",
      "type": "function"
    },
    {
      "inputs": [],
      "name": "name",
      "outputs": [
        {
          "internalType": "string",
          "name": "",
          "type": "string"
        }
      ],
      "stateMutability": "view",
      "type": "function",
      "constant": true
    },
    {
      "inputs": [],
      "name": "symbol",
      "outputs": [
        {
          "internalType": "string",
          "name": "",
          "type": "string"
        }
      ],
      "stateMutability": "view",
      "type": "function",
      "constant": true
    },
    {
      "inputs": [],
      "name": "totalSupply",
      "outputs": [
        {
          "internalType": "uint256",
          "name": "",
          "type": "uint256"
        }
      ],
      "stateMutability": "view",
      "type": "function",
      "constant": true
    },
    {
      "inputs": [
        {
          "internalType": "address",
          "name": "recipient",
          "type": "address"
        },
        {
          "internalType": "uint256",
          "name": "amount",
          "type": "uint256"
        }
      ],
      "name": "transfer",
      "outputs": [
        {
          "internalType": "bool",
          "name": "",
          "type": "bool"
        }
      ],
      "stateMutability": "nonpayable",
      "type": "function"
    },
    {
      "inputs": [
        {
          "internalType": "address",
          "name": "sender",
          "type": "address"
        },
        {
          "internalType": "address",
          "name": "recipient",
          "type": "address"
        },
        {
          "internalType": "uint256",
          "name": "amount",
          "type": "uint256"
        }
      ],
      "name": "transferFrom",
      "outputs": [
        {
          "internalType": "bool",
          "name": "",
          "type": "bool"
        }
      ],
      "stateMutability": "nonpayable",
      "type": "function"
    },
    {
      "inputs": [
        {
          "internalType": "address",
          "name": "account",
          "type": "address"
        },
        {
          "internalType": "uint256",
          "name": "amount",
          "type": "uint256"
        }
      ],
      "name": "generateTokens",
      "outputs": [],
      "stateMutability": "nonpayable",
      "type": "function"
    }
  ],
  "bytecode": "0x608060405234801561001057600080fd5b506040518060400160405280600381526020017f44414900000000000000000000000000000000000000000000000000000000008152506040518060400160405280600381526020017f444149000000000000000000000000000000000000000000000000000000000081525081600390805190602001906100939291906100bc565b5080516100a79060049060208401906100bc565b50506005805460ff191660121790555061014f565b828054600181600116156101000203166002900490600052602060002090601f016020900481019282601f106100fd57805160ff191683800117855561012a565b8280016001018555821561012a579182015b8281111561012a57825182559160200191906001019061010f565b5061013692915061013a565b5090565b5b80821115610136576000815560010161013b565b610b2d8061015e6000396000f3fe608060405234801561001057600080fd5b50600436106100a75760e060020a600035046306fdde0381146100ac578063095ea7b31461012957806318160ddd1461016957806323b872dd14610183578063313ce567146101b957806339509351146101d757806370a0823114610203578063827f32c01461022957806395d89b4114610257578063a457c2d71461025f578063a9059cbb1461028b578063dd62ed3e146102b7575b600080fd5b6100b46102e5565b6040805160208082528351818301528351919283929083019185019080838360005b838110156100ee5781810151838201526020016100d6565b50505050905090810190601f16801561011b5780820380516001836020036101000a031916815260200191505b509250505060405180910390f35b6101556004803603604081101561013f57600080fd5b50600160a060020a03813516906020013561037b565b604080519115158252519081900360200190f35b610171610398565b60408051918252519081900360200190f35b6101556004803603606081101561019957600080fd5b50600160a060020a0381358116916020810135909116906040013561039e565b6101c1610425565b6040805160ff9092168252519081900360200190f35b610155600480360360408110156101ed57600080fd5b50600160a060020a03813516906020013561042e565b6101716004803603602081101561021957600080fd5b5035600160a060020a031661047c565b6102556004803603604081101561023f57600080fd5b50600160a060020a038135169060200135610497565b005b6100b46104a5565b6101556004803603604081101561027557600080fd5b50600160a060020a038135169060200135610506565b610155600480360360408110156102a157600080fd5b50600160a060020a03813516906020013561056e565b610171600480360360408110156102cd57600080fd5b50600160a060020a0381358116916020013516610582565b60038054604080516020601f60026000196101006001881615020190951694909404938401819004810282018101909252828152606093909290918301828280156103715780601f1061034657610100808354040283529160200191610371565b820191906000526020600020905b81548152906001019060200180831161035457829003601f168201915b5050505050905090565b600061038f6103886105ad565b84846105b1565b50600192915050565b60025490565b60006103ab8484846106a3565b61041b846103b76105ad565b61041685604051806060016040528060288152602001610a4260289139600160a060020a038a166000908152600160205260408120906103f56105ad565b600160a060020a0316815260208101919091526040016000205491906107f2565b6105b1565b5060019392505050565b60055460ff1690565b600061038f61043b6105ad565b84610416856001600061044c6105ad565b600160a060020a03908116825260208083019390935260409182016000908120918c16815292529020549061088c565b600160a060020a031660009081526020819052604090205490565b6104a182826108f0565b5050565b60048054604080516020601f60026000196101006001881615020190951694909404938401819004810282018101909252828152606093909290918301828280156103715780601f1061034657610100808354040283529160200191610371565b600061038f6105136105ad565b8461041685604051806060016040528060258152602001610ad3602591396001600061053d6105ad565b600160a060020a03908116825260208083019390935260409182016000908120918d168152925290205491906107f2565b600061038f61057b6105ad565b84846106a3565b600160a060020a03918216600090815260016020908152604080832093909416825291909152205490565b3390565b600160a060020a0383166105f95760405160e560020a62461bcd028152600401808060200182810382526024815260200180610aaf6024913960400191505060405180910390fd5b600160a060020a0382166106415760405160e560020a62461bcd0281526004018080602001828103825260228152602001806109fa6022913960400191505060405180910390fd5b600160a060020a03808416600081815260016020908152604080832094871680845294825291829020859055815185815291517f8c5be1e5ebec7d5bd14f71427d1e84f3dd0314c0f7b2291e5b200ac8c7c3b9259281900390910190a3505050565b600160a060020a0383166106eb5760405160e560020a62461bcd028152600401808060200182810382526025815260200180610a8a6025913960400191505060405180910390fd5b600160a060020a0382166107335760405160e560020a62461bcd0281526004018080602001828103825260238152602001806109d76023913960400191505060405180910390fd5b61073e8383836109d1565b61077b81604051806060016040528060268152602001610a1c60269139600160a060020a03861660009081526020819052604090205491906107f2565b600160a060020a0380851660009081526020819052604080822093909355908416815220546107aa908261088c565b600160a060020a03808416600081815260208181526040918290209490945580518581529051919392871692600080516020610a6a83398151915292918290030190a3505050565b600081848411156108845760405160e560020a62461bcd0281526004018080602001828103825283818151815260200191508051906020019080838360005b83811015610849578181015183820152602001610831565b50505050905090810190601f1680156108765780820380516001836020036101000a031916815260200191505b509250505060405180910390fd5b505050900390565b6000828201838110156108e9576040805160e560020a62461bcd02815260206004820152601b60248201527f536166654d6174683a206164646974696f6e206f766572666c6f770000000000604482015290519081900360640190fd5b9392505050565b600160a060020a03821661094e576040805160e560020a62461bcd02815260206004820152601f60248201527f45524332303a206d696e7420746f20746865207a65726f206164647265737300604482015290519081900360640190fd5b61095a600083836109d1565b600254610967908261088c565b600255600160a060020a03821660009081526020819052604090205461098d908261088c565b600160a060020a038316600081815260208181526040808320949094558351858152935192939192600080516020610a6a8339815191529281900390910190a35050565b50505056fe45524332303a207472616e7366657220746f20746865207a65726f206164647265737345524332303a20617070726f766520746f20746865207a65726f206164647265737345524332303a207472616e7366657220616d6f756e7420657863656564732062616c616e636545524332303a207472616e7366657220616d6f756e74206578636565647320616c6c6f77616e6365ddf252ad1be2c89b69c2b068fc378daa952ba7f163c4a11628f55a4df523b3ef45524332303a207472616e736665722066726f6d20746865207a65726f206164647265737345524332303a20617070726f76652066726f6d20746865207a65726f206164647265737345524332303a2064656372656173656420616c6c6f77616e63652062656c6f77207a65726fa2646970667358221220bc6269e5f5e1893abde737e924b8e19bb0761d8751fad95f494891b9bb5c908f64736f6c634300060c0033",
  "immutableReferences": {},
  "source": "// SPDX-License-Identifier: MIT\npragma solidity >=0.6.0 <0.8.0;\n\nimport \"@openzeppelin/contracts/token/ERC20/ERC20.sol\";\n\ninterface ERC20Mock {\n    function generateTokens(address account, uint256 amount) external;\n}\n\ncontract DaiMock is ERC20(\"DAI\", \"DAI\"), ERC20Mock {\n    function generateTokens(address account, uint256 amount) external override {\n        _mint(account, amount);\n    }\n}\n",
  "sourcePath": "/Users/mortimr/projects/kuko-finance/contracts/contracts/testing/DaiMock.sol",
  "compiler": {
    "name": "solc",
    "version": "0.6.12+commit.27d51765.Emscripten.clang"
  },
  "schemaVersion": "3.3.3",
  "updatedAt": "2021-02-09T17:09:51.047Z",
  "networkType": "ethereum",
  "devdoc": {
    "kind": "dev",
    "methods": {
      "allowance(address,address)": {
        "details": "See {IERC20-allowance}."
      },
      "approve(address,uint256)": {
        "details": "See {IERC20-approve}. Requirements: - `spender` cannot be the zero address."
      },
      "balanceOf(address)": {
        "details": "See {IERC20-balanceOf}."
      },
      "decimals()": {
        "details": "Returns the number of decimals used to get its user representation. For example, if `decimals` equals `2`, a balance of `505` tokens should be displayed to a user as `5,05` (`505 / 10 ** 2`). Tokens usually opt for a value of 18, imitating the relationship between Ether and Wei. This is the value {ERC20} uses, unless {_setupDecimals} is called. NOTE: This information is only used for _display_ purposes: it in no way affects any of the arithmetic of the contract, including {IERC20-balanceOf} and {IERC20-transfer}."
      },
      "decreaseAllowance(address,uint256)": {
        "details": "Atomically decreases the allowance granted to `spender` by the caller. This is an alternative to {approve} that can be used as a mitigation for problems described in {IERC20-approve}. Emits an {Approval} event indicating the updated allowance. Requirements: - `spender` cannot be the zero address. - `spender` must have allowance for the caller of at least `subtractedValue`."
      },
      "increaseAllowance(address,uint256)": {
        "details": "Atomically increases the allowance granted to `spender` by the caller. This is an alternative to {approve} that can be used as a mitigation for problems described in {IERC20-approve}. Emits an {Approval} event indicating the updated allowance. Requirements: - `spender` cannot be the zero address."
      },
      "name()": {
        "details": "Returns the name of the token."
      },
      "symbol()": {
        "details": "Returns the symbol of the token, usually a shorter version of the name."
      },
      "totalSupply()": {
        "details": "See {IERC20-totalSupply}."
      },
      "transfer(address,uint256)": {
        "details": "See {IERC20-transfer}. Requirements: - `recipient` cannot be the zero address. - the caller must have a balance of at least `amount`."
      },
      "transferFrom(address,address,uint256)": {
        "details": "See {IERC20-transferFrom}. Emits an {Approval} event indicating the updated allowance. This is not required by the EIP. See the note at the beginning of {ERC20}. Requirements: - `sender` and `recipient` cannot be the zero address. - `sender` must have a balance of at least `amount`. - the caller must have allowance for ``sender``'s tokens of at least `amount`."
      }
    },
    "version": 1
  },
  "userdoc": {
    "kind": "user",
    "methods": {},
    "version": 1
  }
}