{
  "contractName": "KuiriLeagueV1",
  "abi": [
    {
      "anonymous": false,
      "inputs": [
        {
          "indexed": true,
          "internalType": "address",
          "name": "owner",
          "type": "address"
        },
        {
          "indexed": true,
          "internalType": "address",
          "name": "spender",
          "type": "address"
        },
        {
          "indexed": false,
          "internalType": "uint256",
          "name": "value",
          "type": "uint256"
        }
      ],
      "name": "Approval",
      "type": "event"
    },
    {
      "anonymous": false,
      "inputs": [
        {
          "indexed": true,
          "internalType": "address",
          "name": "from",
          "type": "address"
        },
        {
          "indexed": true,
          "internalType": "address",
          "name": "to",
          "type": "address"
        },
        {
          "indexed": false,
          "internalType": "uint256",
          "name": "value",
          "type": "uint256"
        }
      ],
      "name": "Transfer",
      "type": "event"
    },
    {
      "inputs": [
        {
          "internalType": "address",
          "name": "owner",
          "type": "address"
        },
        {
          "internalType": "address",
          "name": "spender",
          "type": "address"
        }
      ],
      "name": "allowance",
      "outputs": [
        {
          "internalType": "uint256",
          "name": "",
          "type": "uint256"
        }
      ],
      "stateMutability": "view",
      "type": "function",
      "constant": true
    },
    {
      "inputs": [
        {
          "internalType": "address",
          "name": "spender",
          "type": "address"
        },
        {
          "internalType": "uint256",
          "name": "amount",
          "type": "uint256"
        }
      ],
      "name": "approve",
      "outputs": [
        {
          "internalType": "bool",
          "name": "",
          "type": "bool"
        }
      ],
      "stateMutability": "nonpayable",
      "type": "function"
    },
    {
      "inputs": [
        {
          "internalType": "address",
          "name": "account",
          "type": "address"
        }
      ],
      "name": "balanceOf",
      "outputs": [
        {
          "internalType": "uint256",
          "name": "",
          "type": "uint256"
        }
      ],
      "stateMutability": "view",
      "type": "function",
      "constant": true
    },
    {
      "inputs": [],
      "name": "decimals",
      "outputs": [
        {
          "internalType": "uint8",
          "name": "",
          "type": "uint8"
        }
      ],
      "stateMutability": "view",
      "type": "function",
      "constant": true
    },
    {
      "inputs": [
        {
          "internalType": "address",
          "name": "spender",
          "type": "address"
        },
        {
          "internalType": "uint256",
          "name": "subtractedValue",
          "type": "uint256"
        }
      ],
      "name": "decreaseAllowance",
      "outputs": [
        {
          "internalType": "bool",
          "name": "",
          "type": "bool"
        }
      ],
      "stateMutability": "nonpayable",
      "type": "function"
    },
    {
      "inputs": [
        {
          "internalType": "address",
          "name": "spender",
          "type": "address"
        },
        {
          "internalType": "uint256",
          "name": "addedValue",
          "type": "uint256"
        }
      ],
      "name": "increaseAllowance",
      "outputs": [
        {
          "internalType": "bool",
          "name": "",
          "type": "bool"
        }
      ],
      "stateMutability": "nonpayable",
      "type": "function"
    },
    {
      "inputs": [
        {
          "internalType": "string",
          "name": "",
          "type": "string"
        }
      ],
      "name": "kukoClasses",
      "outputs": [
        {
          "internalType": "bool",
          "name": "active",
          "type": "bool"
        },
        {
          "internalType": "bytes",
          "name": "constructionData",
          "type": "bytes"
        }
      ],
      "stateMutability": "view",
      "type": "function",
      "constant": true
    },
    {
      "inputs": [],
      "name": "name",
      "outputs": [
        {
          "internalType": "string",
          "name": "",
          "type": "string"
        }
      ],
      "stateMutability": "view",
      "type": "function",
      "constant": true
    },
    {
      "inputs": [],
      "name": "symbol",
      "outputs": [
        {
          "internalType": "string",
          "name": "",
          "type": "string"
        }
      ],
      "stateMutability": "view",
      "type": "function",
      "constant": true
    },
    {
      "inputs": [],
      "name": "totalSupply",
      "outputs": [
        {
          "internalType": "uint256",
          "name": "",
          "type": "uint256"
        }
      ],
      "stateMutability": "view",
      "type": "function",
      "constant": true
    },
    {
      "inputs": [
        {
          "internalType": "address",
          "name": "recipient",
          "type": "address"
        },
        {
          "internalType": "uint256",
          "name": "amount",
          "type": "uint256"
        }
      ],
      "name": "transfer",
      "outputs": [
        {
          "internalType": "bool",
          "name": "",
          "type": "bool"
        }
      ],
      "stateMutability": "nonpayable",
      "type": "function"
    },
    {
      "inputs": [
        {
          "internalType": "address",
          "name": "sender",
          "type": "address"
        },
        {
          "internalType": "address",
          "name": "recipient",
          "type": "address"
        },
        {
          "internalType": "uint256",
          "name": "amount",
          "type": "uint256"
        }
      ],
      "name": "transferFrom",
      "outputs": [
        {
          "internalType": "bool",
          "name": "",
          "type": "bool"
        }
      ],
      "stateMutability": "nonpayable",
      "type": "function"
    },
    {
      "inputs": [],
      "name": "__KuiriLeagueV1__init",
      "outputs": [],
      "stateMutability": "nonpayable",
      "type": "function"
    },
    {
      "inputs": [
        {
          "internalType": "string",
          "name": "signature",
          "type": "string"
        },
        {
          "internalType": "address",
          "name": "_implementation",
          "type": "address"
        },
        {
          "internalType": "bytes",
          "name": "_constructorData",
          "type": "bytes"
        },
        {
          "internalType": "bool",
          "name": "active",
          "type": "bool"
        }
      ],
      "name": "setKuko",
      "outputs": [],
      "stateMutability": "nonpayable",
      "type": "function"
    },
    {
      "inputs": [
        {
          "internalType": "string",
          "name": "signature",
          "type": "string"
        }
      ],
      "name": "openKukoRound",
      "outputs": [],
      "stateMutability": "nonpayable",
      "type": "function"
    }
  ],
  "bytecode": "0x608060405234801561001057600080fd5b50611ab9806100206000396000f3fe60806040523480156200001157600080fd5b506004361062000129576000357c01000000000000000000000000000000000000000000000000000000009004806370a0823111620000c2578063a457c2d7116200008c578063a457c2d71462000241578063a9059cbb1462000258578063dd62ed3e146200026f578063ea94094b14620002865762000129565b806370a0823114620001fd57806377ee81e614620002145780637d511f59146200022d57806395d89b4114620002375762000129565b806323b872dd116200010457806323b872dd146200018f578063313ce56714620001a65780633950935114620001bf578063410e469814620001d65762000129565b806306fdde03146200012e578063095ea7b3146200015057806318160ddd1462000176575b600080fd5b620001386200029d565b60405162000147919062001475565b60405180910390f35b620001676200016136600462001234565b62000337565b604051620001479190620013ab565b6200018062000359565b60405162000147919062001737565b62000167620001a0366004620011ef565b6200035f565b620001b0620003f2565b60405162000147919062001740565b62000167620001d036600462001234565b620003fb565b620001ed620001e736600462001280565b62000450565b60405162000147929190620013b6565b620001806200020e36600462001198565b6200050c565b6200022b6200022536600462001280565b62000527565b005b6200022b620007a9565b6200013862000839565b620001676200025236600462001234565b6200089d565b620001676200026936600462001234565b6200090d565b6200018062000280366004620011b6565b62000925565b6200022b62000297366004620012bf565b62000950565b60368054604080516020601f60026000196101006001881615020190951694909404938401819004810282018101909252828152606093909290918301828280156200032d5780601f1062000301576101008083540402835291602001916200032d565b820191906000526020600020905b8154815290600101906020018083116200030f57829003601f168201915b5050505050905090565b60006200034f6200034762000b21565b848462000b25565b5060015b92915050565b60355490565b60006200036e84848462000be7565b620003e7846200037d62000b21565b620003e18560405180606001604052806028815260200162001a3760289139600160a060020a038a16600090815260346020526040812090620003bf62000b21565b600160a060020a03168152602081019190915260400160002054919062000d11565b62000b25565b5060015b9392505050565b60385460ff1690565b60006200034f6200040b62000b21565b84620003e185603460006200041f62000b21565b600160a060020a03908116825260208083019390935260409182016000908120918c16815292529020549062000d43565b8051602081830181018051606582529282019382019390932091909252600180820154600280840180546040805161010096831615969096026000190190911692909204601f810187900487028501870190925281845260ff90921694830182828015620005025780601f10620004d65761010080835404028352916020019162000502565b820191906000526020600020905b815481529060010190602001808311620004e457829003601f168201915b5050505050905082565b600160a060020a031660009081526033602052604090205490565b6065816040516200053991906200138d565b90815260405190819003602001902060019081015460ff161515146200057f5760405160e560020a62461bcd02815260040162000576906200157b565b60405180910390fd5b60006065826040516200059391906200138d565b90815260200160405180910390206000016001606584604051620005b891906200138d565b908152604051908190036020019020548254919003908110620005d757fe5b60009182526020918290200154604080517f597e1fb50000000000000000000000000000000000000000000000000000000081529051600160a060020a039092169350839263597e1fb592600480840193829003018186803b1580156200063d57600080fd5b505afa15801562000652573d6000803e3d6000fd5b505050506040513d601f19601f8201168201806040525081019062000678919062001261565b15156001146200069f5760405160e560020a62461bcd02815260040162000576906200160f565b6000606583604051620006b391906200138d565b9081526020016040518091039020600201606584604051620006d691906200138d565b9081526020016040518091039020600001600081548110620006f457fe5b600091825260209091200154604051600160a060020a03909116906200071a9062001054565b62000727929190620013d3565b604051809103906000f08015801562000744573d6000803e3d6000fd5b5090506065836040516200075991906200138d565b908152604051602091819003820190208054600181018255600091825291902001805473ffffffffffffffffffffffffffffffffffffffff1916600160a060020a03929092169190911790555050565b6200081f6040518060400160405280600481526020017f4b756b6f000000000000000000000000000000000000000000000000000000008152506040518060400160405280600481526020017f4b554b4f0000000000000000000000000000000000000000000000000000000081525062000d6e565b62000837336b033b2e3c9fd0803ce800000062000e15565b565b60378054604080516020601f60026000196101006001881615020190951694909404938401819004810282018101909252828152606093909290918301828280156200032d5780601f1062000301576101008083540402835291602001916200032d565b60006200034f620008ad62000b21565b84620003e18560405180606001604052806025815260200162001a5f6025913960346000620008db62000b21565b600160a060020a03908116825260208083019390935260409182016000908120918d1681529252902054919062000d11565b60006200034f6200091d62000b21565b848462000be7565b600160a060020a03918216600090815260346020908152604080832093909416825291909152205490565b60006065856040516200096491906200138d565b90815260405190819003602001902054111562000a4b576065846040516200098d91906200138d565b9081526040516020918190038201812080546001810182556000918252929020909101805473ffffffffffffffffffffffffffffffffffffffff1916600160a060020a0386161790558290606590620009e89087906200138d565b9081526020016040518091039020600201908051906020019062000a0e92919062001062565b508060658560405162000a2291906200138d565b908152604051908190036020019020600101805491151560ff1990921691909117905562000b1b565b8260658560405162000a5e91906200138d565b908152602001604051809103902060000160008154811062000a7c57fe5b9060005260206000200160006101000a815481600160a060020a030219169083600160a060020a031602179055508160658560405162000abd91906200138d565b9081526020016040518091039020600201908051906020019062000ae392919062001062565b508060658560405162000af791906200138d565b908152604051908190036020019020600101805491151560ff199092169190911790555b50505050565b3390565b600160a060020a03831662000b515760405160e560020a62461bcd0281526004016200057690620016a3565b600160a060020a03821662000b7d5760405160e560020a62461bcd0281526004016200057690620014e7565b600160a060020a0380841660008181526034602090815260408083209487168084529490915290819020849055517f8c5be1e5ebec7d5bd14f71427d1e84f3dd0314c0f7b2291e5b200ac8c7c3b9259062000bda90859062001737565b60405180910390a3505050565b600160a060020a03831662000c135760405160e560020a62461bcd028152600401620005769062001646565b600160a060020a03821662000c3f5760405160e560020a62461bcd02815260040162000576906200148a565b62000c4c83838362000e10565b62000c8c8160405180606001604052806026815260200162001a1160269139600160a060020a038616600090815260336020526040902054919062000d11565b600160a060020a03808516600090815260336020526040808220939093559084168152205462000cbd908262000d43565b600160a060020a0380841660008181526033602052604090819020939093559151908516907fddf252ad1be2c89b69c2b068fc378daa952ba7f163c4a11628f55a4df523b3ef9062000bda90859062001737565b6000818484111562000d3b5760405160e560020a62461bcd02815260040162000576919062001475565b505050900390565b600082820183811015620003eb5760405160e560020a62461bcd028152600401620005769062001544565b600054610100900460ff168062000d8a575062000d8a62000ee3565b8062000d99575060005460ff16155b62000dbb5760405160e560020a62461bcd0281526004016200057690620015b2565b600054610100900460ff1615801562000de7576000805460ff1961ff0019909116610100171660011790555b62000df162000ef6565b62000dfd838362000f85565b801562000e10576000805461ff00191690555b505050565b600160a060020a03821662000e415760405160e560020a62461bcd028152600401620005769062001700565b62000e4f6000838362000e10565b60355462000e5e908262000d43565b603555600160a060020a03821660009081526033602052604090205462000e86908262000d43565b600160a060020a0383166000818152603360205260408082209390935591519091907fddf252ad1be2c89b69c2b068fc378daa952ba7f163c4a11628f55a4df523b3ef9062000ed790859062001737565b60405180910390a35050565b600062000ef0306200104e565b15905090565b600054610100900460ff168062000f12575062000f1262000ee3565b8062000f21575060005460ff16155b62000f435760405160e560020a62461bcd0281526004016200057690620015b2565b600054610100900460ff1615801562000f6f576000805460ff1961ff0019909116610100171660011790555b801562000f82576000805461ff00191690555b50565b600054610100900460ff168062000fa1575062000fa162000ee3565b8062000fb0575060005460ff16155b62000fd25760405160e560020a62461bcd0281526004016200057690620015b2565b600054610100900460ff1615801562000ffe576000805460ff1961ff0019909116610100171660011790555b82516200101390603690602086019062001062565b5081516200102990603790602085019062001062565b506038805460ff19166012179055801562000e10576000805461ff0019169055505050565b3b151590565b61026280620017af83390190565b828054600181600116156101000203166002900490600052602060002090601f016020900481019282601f10620010a557805160ff1916838001178555620010d5565b82800160010185558215620010d5579182015b82811115620010d5578251825591602001919060010190620010b8565b50620010e3929150620010e7565b5090565b5b80821115620010e35760008155600101620010e8565b8035600160a060020a03811681146200035357600080fd5b600082601f83011262001127578081fd5b813567ffffffffffffffff808211156200113f578283fd5b604051601f8301601f19168101602001828111828210171562001160578485fd5b6040528281529250828483016020018610156200117c57600080fd5b8260208601602083013760006020848301015250505092915050565b600060208284031215620011aa578081fd5b620003eb8383620010fe565b60008060408385031215620011c9578081fd5b620011d58484620010fe565b9150620011e68460208501620010fe565b90509250929050565b60008060006060848603121562001204578081fd5b8335620012118162001789565b92506020840135620012238162001789565b929592945050506040919091013590565b6000806040838503121562001247578182fd5b620012538484620010fe565b946020939093013593505050565b60006020828403121562001273578081fd5b8151620003eb816200179f565b60006020828403121562001292578081fd5b813567ffffffffffffffff811115620012a9578182fd5b620012b78482850162001116565b949350505050565b60008060008060808587031215620012d5578081fd5b843567ffffffffffffffff80821115620012ed578283fd5b620012fb8883890162001116565b9550602087013591506200130f8262001789565b9093506040860135908082111562001325578283fd5b50620013348782880162001116565b925050606085013562001347816200179f565b939692955090935050565b600160a060020a03169052565b60008151808452620013798160208601602086016200175a565b601f01601f19169290920160200192915050565b60008251620013a18184602087016200175a565b9190910192915050565b901515815260200190565b6000831515825260406020830152620012b760408301846200135f565b60006040820160408352818554600180821660008114620013fd57600181146200141c576200145e565b60028304607f16855260ff19831660608801526080870193506200145e565b600283046200142c818762001737565b620014378b6200174e565b885b8381101562001455578154838201529085019060200162001439565b91909101955050505b5050508092505050620003eb602083018462001352565b600060208252620003eb60208301846200135f565b60208082526023908201527f45524332303a207472616e7366657220746f20746865207a65726f206164647260408201527f6573730000000000000000000000000000000000000000000000000000000000606082015260800190565b60208082526022908201527f45524332303a20617070726f766520746f20746865207a65726f20616464726560408201527f7373000000000000000000000000000000000000000000000000000000000000606082015260800190565b6020808252601b908201527f536166654d6174683a206164646974696f6e206f766572666c6f770000000000604082015260600190565b6020808252600d908201527f696e6163746976655f6b756b6f00000000000000000000000000000000000000604082015260600190565b6020808252602e908201527f496e697469616c697a61626c653a20636f6e747261637420697320616c72656160408201527f647920696e697469616c697a6564000000000000000000000000000000000000606082015260800190565b60208082526015908201527f6c6173745f726f756e645f6e6f745f636c6f7365640000000000000000000000604082015260600190565b60208082526025908201527f45524332303a207472616e736665722066726f6d20746865207a65726f20616460408201527f6472657373000000000000000000000000000000000000000000000000000000606082015260800190565b60208082526024908201527f45524332303a20617070726f76652066726f6d20746865207a65726f2061646460408201527f7265737300000000000000000000000000000000000000000000000000000000606082015260800190565b6020808252601f908201527f45524332303a206d696e7420746f20746865207a65726f206164647265737300604082015260600190565b90815260200190565b60ff91909116815260200190565b60009081526020902090565b60005b83811015620017775781810151838201526020016200175d565b8381111562000b1b5750506000910152565b600160a060020a038116811462000f8257600080fd5b801515811462000f8257600080fdfe608060405234801561001057600080fd5b5060405161026238038061026283398101604081905261002f916100cb565b6000817fc5f16f0fcc639fa48a6947836d9850f504798523bf8c9a3a87d5876cf622bcf755600080845160208601856127105a03f49050806100a6576040517f08c379a000000000000000000000000000000000000000000000000000000000815260040161009d9061019a565b60405180910390fd5b5050506101d1565b8051600160a060020a03811681146100c557600080fd5b92915050565b600080604083850312156100dd578182fd5b825167ffffffffffffffff808211156100f4578384fd5b818501915085601f830112610107578384fd5b815181811115610115578485fd5b6040516020601f8301601f1916820181018481118382101715610136578788fd5b604052828252848301810189101561014c578687fd5b8693505b8284101561016d5784840181015182850182015292830192610150565b8284111561017d57868184840101525b81965061018c89828a016100ae565b955050505050509250929050565b60208082526012908201527f636f6e737472756374696f6e5f6572726f720000000000000000000000000000604082015260600190565b6083806101df6000396000f3fe60806040527fc5f16f0fcc639fa48a6947836d9850f504798523bf8c9a3a87d5876cf622bcf754600036818237808036818561270f195a01f491503d8082833e8280156049578183f35b8183fdfea2646970667358221220d9d8a362100ced6e2165a70cefaa1698bb44ee12297dd223c3941758fd0baa3f64736f6c634300060c003345524332303a207472616e7366657220616d6f756e7420657863656564732062616c616e636545524332303a207472616e7366657220616d6f756e74206578636565647320616c6c6f77616e636545524332303a2064656372656173656420616c6c6f77616e63652062656c6f77207a65726fa2646970667358221220cafd79c83c0eeae67b9d5503990bf67fddbe78265f81b1df8cc39b964fb1cad964736f6c634300060c0033",
  "immutableReferences": {},
  "source": "// SPDX-License-Identifier: MIT\n//   ___  __    ___  ___  ___  __    ________\n//  |\\  \\|\\  \\ |\\  \\|\\  \\|\\  \\|\\  \\ |\\   __  \\\n//  \\ \\  \\/  /|\\ \\  \\\\\\  \\ \\  \\/  /|\\ \\  \\|\\  \\\n//   \\ \\   ___  \\ \\  \\\\\\  \\ \\   ___  \\ \\  \\\\\\  \\\n//    \\ \\  \\\\ \\  \\ \\  \\\\\\  \\ \\  \\\\ \\  \\ \\  \\\\\\  \\\n//     \\ \\__\\\\ \\__\\ \\_______\\ \\__\\\\ \\__\\ \\_______\\\n//      \\|__| \\|__|\\|_______|\\|__| \\|__|\\|_______|\n//\npragma solidity >=0.6.0 <0.8.0;\npragma experimental ABIEncoderV2;\n\nimport \"@openzeppelin/contracts-upgradeable/proxy/Initializable.sol\";\nimport \"@openzeppelin/contracts-upgradeable/token/ERC20/ERC20Upgradeable.sol\";\nimport \"../kuko_v1/KukoStatusV1.sol\";\nimport \"../proxy/Proxy.sol\";\n\nstruct KukoClass {\n  address[] instances;\n  bool active;\n  bytes constructionData;\n}\n\ncontract KuiriLeagueV1 is Initializable, ERC20Upgradeable {\n    // solhint-disable-next-line\n    function __KuiriLeagueV1__init() public {\n        __ERC20_init(\"Kuko\", \"KUKO\");\n        _mint(msg.sender, 1000000000000000000000000000);\n    }\n\n    modifier onlyMember() {\n      require(balanceOf(msg.sender) > 0, \"address_has_no_shares\");\n      _;\n    }\n\n    mapping (string => KukoClass) public kukoClasses;\n\n    // protect this with votes\n    function setKuko(string memory signature, address _implementation, bytes memory _constructorData, bool active) public {\n      if (kukoClasses[signature].instances.length > 0) {\n        kukoClasses[signature].instances.push(_implementation);\n        kukoClasses[signature].constructionData = _constructorData;\n        kukoClasses[signature].active = active;\n      } else {\n        kukoClasses[signature].instances[0] = _implementation;\n        kukoClasses[signature].constructionData = _constructorData;\n        kukoClasses[signature].active = active;\n      }\n    }\n\n    function openKukoRound(string memory signature) public {\n      require(kukoClasses[signature].active == true, \"inactive_kuko\");\n      KukoStatusV1 lastInstance = KukoStatusV1(kukoClasses[signature].instances[kukoClasses[signature].instances.length - 1]);\n      require(lastInstance.closed() == true, \"last_round_not_closed\");\n\n      Proxy cheapInstanceThanksToProxies = new Proxy(kukoClasses[signature].constructionData, kukoClasses[signature].instances[0]);\n      kukoClasses[signature].instances.push(address(cheapInstanceThanksToProxies));\n    }\n\n}\n",
  "sourcePath": "/Users/mortimr/projects/kuko-finance/contracts/contracts/kuiri_league/KuiriLeagueV1.sol",
  "compiler": {
    "name": "solc",
    "version": "0.6.12+commit.27d51765.Emscripten.clang"
  },
  "schemaVersion": "3.3.3",
  "updatedAt": "2021-02-07T17:31:13.650Z",
  "networkType": "ethereum",
  "devdoc": {
    "kind": "dev",
    "methods": {
      "allowance(address,address)": {
        "details": "See {IERC20-allowance}."
      },
      "approve(address,uint256)": {
        "details": "See {IERC20-approve}. Requirements: - `spender` cannot be the zero address."
      },
      "balanceOf(address)": {
        "details": "See {IERC20-balanceOf}."
      },
      "decimals()": {
        "details": "Returns the number of decimals used to get its user representation. For example, if `decimals` equals `2`, a balance of `505` tokens should be displayed to a user as `5,05` (`505 / 10 ** 2`). Tokens usually opt for a value of 18, imitating the relationship between Ether and Wei. This is the value {ERC20} uses, unless {_setupDecimals} is called. NOTE: This information is only used for _display_ purposes: it in no way affects any of the arithmetic of the contract, including {IERC20-balanceOf} and {IERC20-transfer}."
      },
      "decreaseAllowance(address,uint256)": {
        "details": "Atomically decreases the allowance granted to `spender` by the caller. This is an alternative to {approve} that can be used as a mitigation for problems described in {IERC20-approve}. Emits an {Approval} event indicating the updated allowance. Requirements: - `spender` cannot be the zero address. - `spender` must have allowance for the caller of at least `subtractedValue`."
      },
      "increaseAllowance(address,uint256)": {
        "details": "Atomically increases the allowance granted to `spender` by the caller. This is an alternative to {approve} that can be used as a mitigation for problems described in {IERC20-approve}. Emits an {Approval} event indicating the updated allowance. Requirements: - `spender` cannot be the zero address."
      },
      "name()": {
        "details": "Returns the name of the token."
      },
      "symbol()": {
        "details": "Returns the symbol of the token, usually a shorter version of the name."
      },
      "totalSupply()": {
        "details": "See {IERC20-totalSupply}."
      },
      "transfer(address,uint256)": {
        "details": "See {IERC20-transfer}. Requirements: - `recipient` cannot be the zero address. - the caller must have a balance of at least `amount`."
      },
      "transferFrom(address,address,uint256)": {
        "details": "See {IERC20-transferFrom}. Emits an {Approval} event indicating the updated allowance. This is not required by the EIP. See the note at the beginning of {ERC20}. Requirements: - `sender` and `recipient` cannot be the zero address. - `sender` must have a balance of at least `amount`. - the caller must have allowance for ``sender``'s tokens of at least `amount`."
      }
    },
    "version": 1
  },
  "userdoc": {
    "kind": "user",
    "methods": {},
    "version": 1
  }
}