{
  "contractName": "KuiriLeagueV1",
  "abi": [
    {
      "anonymous": false,
      "inputs": [
        {
          "indexed": true,
          "internalType": "address",
          "name": "owner",
          "type": "address"
        },
        {
          "indexed": true,
          "internalType": "address",
          "name": "spender",
          "type": "address"
        },
        {
          "indexed": false,
          "internalType": "uint256",
          "name": "value",
          "type": "uint256"
        }
      ],
      "name": "Approval",
      "type": "event"
    },
    {
      "anonymous": false,
      "inputs": [
        {
          "indexed": false,
          "internalType": "uint256",
          "name": "attempt",
          "type": "uint256"
        }
      ],
      "name": "ImplementationUpdateVote",
      "type": "event"
    },
    {
      "anonymous": false,
      "inputs": [
        {
          "indexed": true,
          "internalType": "address",
          "name": "from",
          "type": "address"
        },
        {
          "indexed": true,
          "internalType": "address",
          "name": "to",
          "type": "address"
        },
        {
          "indexed": false,
          "internalType": "uint256",
          "name": "value",
          "type": "uint256"
        }
      ],
      "name": "Transfer",
      "type": "event"
    },
    {
      "inputs": [],
      "name": "IMPLEMENTATION_VOTE_PERIOD",
      "outputs": [
        {
          "internalType": "uint256",
          "name": "",
          "type": "uint256"
        }
      ],
      "stateMutability": "view",
      "type": "function",
      "constant": true
    },
    {
      "inputs": [
        {
          "internalType": "address",
          "name": "",
          "type": "address"
        }
      ],
      "name": "admins",
      "outputs": [
        {
          "internalType": "bool",
          "name": "",
          "type": "bool"
        }
      ],
      "stateMutability": "view",
      "type": "function",
      "constant": true
    },
    {
      "inputs": [
        {
          "internalType": "address",
          "name": "owner",
          "type": "address"
        },
        {
          "internalType": "address",
          "name": "spender",
          "type": "address"
        }
      ],
      "name": "allowance",
      "outputs": [
        {
          "internalType": "uint256",
          "name": "",
          "type": "uint256"
        }
      ],
      "stateMutability": "view",
      "type": "function",
      "constant": true
    },
    {
      "inputs": [
        {
          "internalType": "address",
          "name": "spender",
          "type": "address"
        },
        {
          "internalType": "uint256",
          "name": "amount",
          "type": "uint256"
        }
      ],
      "name": "approve",
      "outputs": [
        {
          "internalType": "bool",
          "name": "",
          "type": "bool"
        }
      ],
      "stateMutability": "nonpayable",
      "type": "function"
    },
    {
      "inputs": [
        {
          "internalType": "address",
          "name": "account",
          "type": "address"
        }
      ],
      "name": "balanceOf",
      "outputs": [
        {
          "internalType": "uint256",
          "name": "",
          "type": "uint256"
        }
      ],
      "stateMutability": "view",
      "type": "function",
      "constant": true
    },
    {
      "inputs": [],
      "name": "decimals",
      "outputs": [
        {
          "internalType": "uint8",
          "name": "",
          "type": "uint8"
        }
      ],
      "stateMutability": "view",
      "type": "function",
      "constant": true
    },
    {
      "inputs": [
        {
          "internalType": "address",
          "name": "spender",
          "type": "address"
        },
        {
          "internalType": "uint256",
          "name": "subtractedValue",
          "type": "uint256"
        }
      ],
      "name": "decreaseAllowance",
      "outputs": [
        {
          "internalType": "bool",
          "name": "",
          "type": "bool"
        }
      ],
      "stateMutability": "nonpayable",
      "type": "function"
    },
    {
      "inputs": [
        {
          "internalType": "address",
          "name": "",
          "type": "address"
        }
      ],
      "name": "fundLock",
      "outputs": [
        {
          "internalType": "uint256",
          "name": "",
          "type": "uint256"
        }
      ],
      "stateMutability": "view",
      "type": "function",
      "constant": true
    },
    {
      "inputs": [
        {
          "internalType": "uint256",
          "name": "",
          "type": "uint256"
        }
      ],
      "name": "implementationUpdateAttempts",
      "outputs": [
        {
          "internalType": "bool",
          "name": "consumed",
          "type": "bool"
        },
        {
          "internalType": "uint256",
          "name": "vote",
          "type": "uint256"
        },
        {
          "internalType": "address",
          "name": "newImplementation",
          "type": "address"
        }
      ],
      "stateMutability": "view",
      "type": "function",
      "constant": true
    },
    {
      "inputs": [
        {
          "internalType": "address",
          "name": "spender",
          "type": "address"
        },
        {
          "internalType": "uint256",
          "name": "addedValue",
          "type": "uint256"
        }
      ],
      "name": "increaseAllowance",
      "outputs": [
        {
          "internalType": "bool",
          "name": "",
          "type": "bool"
        }
      ],
      "stateMutability": "nonpayable",
      "type": "function"
    },
    {
      "inputs": [
        {
          "internalType": "string",
          "name": "",
          "type": "string"
        }
      ],
      "name": "kukoClasses",
      "outputs": [
        {
          "internalType": "bool",
          "name": "active",
          "type": "bool"
        },
        {
          "internalType": "bytes",
          "name": "constructionData",
          "type": "bytes"
        }
      ],
      "stateMutability": "view",
      "type": "function",
      "constant": true
    },
    {
      "inputs": [],
      "name": "maxSupply",
      "outputs": [
        {
          "internalType": "uint256",
          "name": "",
          "type": "uint256"
        }
      ],
      "stateMutability": "view",
      "type": "function",
      "constant": true
    },
    {
      "inputs": [],
      "name": "name",
      "outputs": [
        {
          "internalType": "string",
          "name": "",
          "type": "string"
        }
      ],
      "stateMutability": "view",
      "type": "function",
      "constant": true
    },
    {
      "inputs": [],
      "name": "symbol",
      "outputs": [
        {
          "internalType": "string",
          "name": "",
          "type": "string"
        }
      ],
      "stateMutability": "view",
      "type": "function",
      "constant": true
    },
    {
      "inputs": [],
      "name": "totalSupply",
      "outputs": [
        {
          "internalType": "uint256",
          "name": "",
          "type": "uint256"
        }
      ],
      "stateMutability": "view",
      "type": "function",
      "constant": true
    },
    {
      "inputs": [
        {
          "internalType": "uint256",
          "name": "",
          "type": "uint256"
        }
      ],
      "name": "votes",
      "outputs": [
        {
          "internalType": "address",
          "name": "token",
          "type": "address"
        },
        {
          "internalType": "uint256",
          "name": "votes",
          "type": "uint256"
        },
        {
          "internalType": "uint256",
          "name": "threshold",
          "type": "uint256"
        },
        {
          "internalType": "uint256",
          "name": "start",
          "type": "uint256"
        },
        {
          "internalType": "uint256",
          "name": "end",
          "type": "uint256"
        }
      ],
      "stateMutability": "view",
      "type": "function",
      "constant": true
    },
    {
      "inputs": [],
      "name": "__KuiriLeagueV1__init",
      "outputs": [],
      "stateMutability": "nonpayable",
      "type": "function"
    },
    {
      "inputs": [
        {
          "internalType": "address",
          "name": "_newImplementation",
          "type": "address"
        }
      ],
      "name": "updateImplementation",
      "outputs": [],
      "stateMutability": "nonpayable",
      "type": "function"
    },
    {
      "inputs": [
        {
          "internalType": "uint256",
          "name": "_newImplementationIdx",
          "type": "uint256"
        }
      ],
      "name": "runImplementationUpdate",
      "outputs": [],
      "stateMutability": "nonpayable",
      "type": "function"
    },
    {
      "inputs": [
        {
          "internalType": "address",
          "name": "recipient",
          "type": "address"
        },
        {
          "internalType": "uint256",
          "name": "amount",
          "type": "uint256"
        }
      ],
      "name": "transfer",
      "outputs": [
        {
          "internalType": "bool",
          "name": "",
          "type": "bool"
        }
      ],
      "stateMutability": "nonpayable",
      "type": "function"
    },
    {
      "inputs": [
        {
          "internalType": "address",
          "name": "sender",
          "type": "address"
        },
        {
          "internalType": "address",
          "name": "recipient",
          "type": "address"
        },
        {
          "internalType": "uint256",
          "name": "amount",
          "type": "uint256"
        }
      ],
      "name": "transferFrom",
      "outputs": [
        {
          "internalType": "bool",
          "name": "",
          "type": "bool"
        }
      ],
      "stateMutability": "nonpayable",
      "type": "function"
    },
    {
      "inputs": [
        {
          "internalType": "uint256",
          "name": "_voteIdx",
          "type": "uint256"
        }
      ],
      "name": "vote",
      "outputs": [],
      "stateMutability": "nonpayable",
      "type": "function"
    },
    {
      "inputs": [
        {
          "internalType": "string",
          "name": "signature",
          "type": "string"
        },
        {
          "internalType": "address",
          "name": "_implementation",
          "type": "address"
        },
        {
          "internalType": "bytes",
          "name": "_constructorData",
          "type": "bytes"
        },
        {
          "internalType": "bool",
          "name": "active",
          "type": "bool"
        }
      ],
      "name": "setKuko",
      "outputs": [],
      "stateMutability": "nonpayable",
      "type": "function"
    },
    {
      "inputs": [
        {
          "internalType": "string",
          "name": "signature",
          "type": "string"
        }
      ],
      "name": "openKukoRound",
      "outputs": [],
      "stateMutability": "nonpayable",
      "type": "function"
    }
  ],
  "bytecode": "0x608060405234801561001057600080fd5b506124e0806100206000396000f3fe60806040523480156200001157600080fd5b5060043610620001455760e060020a60003504630121b93f81146200014a578063025b22bc146200016357806306fdde03146200017a578063095ea7b3146200019c57806310eef4b914620001c257806318160ddd14620001d957806323b872dd14620001f2578063313ce5671462000209578063395093511462000222578063410e46981462000239578063429b62e514620002605780635009f79114620002775780635df81330146200028e57806370a0823114620002b857806377ee81e614620002cf5780637d511f5914620002e65780638b91a49714620002f057806395d89b4114620002fa578063a457c2d71462000304578063a9059cbb146200031b578063bbe76cda1462000332578063d5abeb01146200035a578063dd62ed3e1462000364578063ea94094b146200037b575b600080fd5b620001616200015b36600462001bbb565b62000392565b005b620001616200017436600462001a03565b62000652565b6200018462000838565b60405162000193919062001d73565b60405180910390f35b620001b3620001ad36600462001a9f565b620008d2565b60405162000193919062001c88565b62000161620001d336600462001bbb565b620008f4565b620001e362000a0e565b6040516200019391906200213e565b620001b36200020336600462001a5a565b62000a14565b6200021362000a68565b60405162000193919062002147565b620001b36200023336600462001a9f565b62000a71565b620002506200024a36600462001aeb565b62000acc565b6040516200019392919062001c93565b620001b36200027136600462001a03565b62000b88565b620001e36200028836600462001a03565b62000b9d565b620002a56200029f36600462001bbb565b62000baf565b6040516200019395949392919062001c5a565b620001e3620002c936600462001a03565b62000bf8565b62000161620002e036600462001aeb565b62000c13565b6200016162000ecf565b620001e362000f54565b6200018462000f5a565b620001b36200031536600462001a9f565b62000fbe565b620001b36200032c36600462001a9f565b6200102e565b620003496200034336600462001bbb565b6200106e565b604051620001939392919062001cb0565b620001e3620010ac565b620001e36200037536600462001a21565b620010b2565b620001616200038c36600462001b29565b620010dd565b6069548110620003c25760405160e560020a62461bcd028152600401620003b99062001f89565b60405180910390fd5b600060698281548110620003d257fe5b90600052602060002090600602019050806005015443106200040b5760405160e560020a62461bcd028152600401620003b99062001e7c565b805460405160e060020a6370a08231028152600091600160a060020a0316906370a08231906200044090339060040162001c46565b60206040518083038186803b1580156200045957600080fd5b505afa1580156200046e573d6000803e3d6000fd5b505050506040513d601f19601f8201168201806040525081019062000494919062001bd4565b11620004b75760405160e560020a62461bcd028152600401620003b990620020a3565b336000908152600180830160205260409091205460ff16151514156200058a5733600081815260018301602052604090819020805460ff191690558254905160e060020a6370a08231028152600160a060020a03909116916370a082319162000524919060040162001c46565b60206040518083038186803b1580156200053d57600080fd5b505afa15801562000552573d6000803e3d6000fd5b505050506040513d601f19601f8201168201806040525081019062000578919062001bd4565b6002820180549190910390556200063b565b3360008181526001838101602052604091829020805460ff191690911790558254905160e060020a6370a08231028152600160a060020a03909116916370a0823191620005db919060040162001c46565b60206040518083038186803b158015620005f457600080fd5b505afa15801562000609573d6000803e3d6000fd5b505050506040513d601f19601f820116820180604052508101906200062f919062001bd4565b60028201805490910190555b600501543360009081526068602052604090205550565b3360009081526067602052604090205460ff1615156001146200068c5760405160e560020a62461bcd028152600401620003b99062001fe6565b6069805460018101825560009182526006027f7fb4302e8e91f9110a6554c2c0a24601252c2a42c2220ca988efcfe39991430881018054600160a060020a031916301781557f7fb4302e8e91f9110a6554c2c0a24601252c2a42c2220ca988efcfe39991430a9091019190915560655460029004600382810191909155436004830181905561afc801600583015560695460408051606081018252600080825260001993840160208301818152600160a060020a03898116858701908152606a80546001810182559581905295517f116fea137db6e131133e7f2bab296045d8f41cc5607279db17b218cab0929a5195909902948501805460ff19169915159990991790985590517f116fea137db6e131133e7f2bab296045d8f41cc5607279db17b218cab0929a5284015595517f116fea137db6e131133e7f2bab296045d8f41cc5607279db17b218cab0929a539092018054600160a060020a03191692909616919091179094555490519101907f55c207a18ecc2252e67d25ff4586c5a0bb16ba0081d7c4b64d806094fb38818d906200082a9083906200213e565b60405180910390a150505050565b60368054604080516020601f6002600019610100600188161502019095169490940493840181900481028201810190925282815260609390929091830182828015620008c85780601f106200089c57610100808354040283529160200191620008c8565b820191906000526020600020905b815481529060010190602001808311620008aa57829003601f168201915b5050505050905090565b6000620008ea620008e2620012db565b8484620012df565b5060015b92915050565b3360009081526067602052604090205460ff1615156001146200092e5760405160e560020a62461bcd028152600401620003b99062001fe6565b606a548110620009555760405160e560020a62461bcd028152600401620003b990620020da565b6000606a82815481106200096557fe5b90600052602060002090600302019050600060698260010154815481106200098957fe5b906000526020600020906006020190508060050154431015620009c35760405160e560020a62461bcd028152600401620003b99062001e13565b8060030154816002015410620009f05760405160e560020a62461bcd028152600401620003b99062001fb5565b600282015462000a0990600160a060020a0316620013a1565b505050565b60355490565b600160a060020a038316600090815260686020526040812054431162000a515760405160e560020a62461bcd028152600401620003b99062001eaa565b62000a5e848484620013d1565b90505b9392505050565b60385460ff1690565b6000620008ea62000a81620012db565b8462000ac6856034600062000a95620012db565b600160a060020a03908116825260208083019390935260409182016000908120918c1681529252902054906200145d565b620012df565b8051602081830181018051606682529282019382019390932091909252600180820154600280840180546040805161010096831615969096026000190190911692909204601f810187900487028501870190925281845260ff9092169483018282801562000b7e5780601f1062000b525761010080835404028352916020019162000b7e565b820191906000526020600020905b81548152906001019060200180831162000b6057829003601f168201915b5050505050905082565b60676020526000908152604090205460ff1681565b60686020526000908152604090205481565b6069818154811062000bbd57fe5b600091825260209091206006909102018054600282015460038301546004840154600590940154600160a060020a0390931694509092909185565b600160a060020a031660009081526033602052604090205490565b60668160405162000c25919062001c28565b90815260405190819003602001902060019081015460ff1615151462000c625760405160e560020a62461bcd028152600401620003b99062001edc565b600060668260405162000c76919062001c28565b9081526020016040518091039020600001600160668460405162000c9b919062001c28565b90815260405190819003602001902054825491900390811062000cba57fe5b600091825260209182902001546040805160e060020a63597e1fb50281529051600160a060020a039092169350839263597e1fb592600480840193829003018186803b15801562000d0a57600080fd5b505afa15801562000d1f573d6000803e3d6000fd5b505050506040513d601f19601f8201168201806040525081019062000d45919062001acc565b151560011462000d6c5760405160e560020a62461bcd028152600401620003b99062001f57565b600060668360405162000d80919062001c28565b908152602001604051809103902060020160668460405162000da3919062001c28565b908152602001604051809103902060000160008154811062000dc157fe5b600091825260209091200154604051600160a060020a039091169062000de790620018c0565b62000df492919062001cd1565b604051809103906000f08015801562000e11573d6000803e3d6000fd5b5060405160e360020a631e981299028152909150600160a060020a0382169063f4c094c89062000e4690339060040162001c46565b600060405180830381600087803b15801562000e6157600080fd5b505af115801562000e76573d6000803e3d6000fd5b5050505060668360405162000e8c919062001c28565b9081526040516020918190038201902080546001810182556000918252919020018054600160a060020a031916600160a060020a03929092169190911790555050565b62000f1960405180604001604052806004815260200160e060020a634b756b6f0281525060405180604001604052806004815260200160e060020a634b554b4f0281525062001488565b6b033b2e3c9fd0803ce8000000606581905562000f389033906200152e565b336000908152606760205260409020805460ff19166001179055565b61afc881565b60378054604080516020601f6002600019610100600188161502019095169490940493840181900481028201810190925282815260609390929091830182828015620008c85780601f106200089c57610100808354040283529160200191620008c8565b6000620008ea62000fce620012db565b8462000ac68560405180606001604052806025815260200162002486602591396034600062000ffc620012db565b600160a060020a03908116825260208083019390935260409182016000908120918d16815292529020549190620015eb565b336000908152606860205260408120544311620010625760405160e560020a62461bcd028152600401620003b99062001eaa565b62000a6183836200161d565b606a81815481106200107c57fe5b600091825260209091206003909102018054600182015460029092015460ff9091169250600160a060020a031683565b60655481565b600160a060020a03918216600090815260346020908152604080832093909416825291909152205490565b3360009081526067602052604090205460ff161515600114620011175760405160e560020a62461bcd028152600401620003b99062001fe6565b60006066856040516200112b919062001c28565b908152604051908190036020019020541115620012055760668460405162001154919062001c28565b90815260405160209181900382018120805460018101825560009182529290209091018054600160a060020a031916600160a060020a0386161790558290606690620011a290879062001c28565b90815260200160405180910390206002019080519060200190620011c8929190620018ce565b5080606685604051620011dc919062001c28565b908152604051908190036020019020600101805491151560ff19909216919091179055620012d5565b8260668560405162001218919062001c28565b90815260200160405180910390206000016000815481106200123657fe5b9060005260206000200160006101000a815481600160a060020a030219169083600160a060020a031602179055508160668560405162001277919062001c28565b908152602001604051809103902060020190805190602001906200129d929190620018ce565b5080606685604051620012b1919062001c28565b908152604051908190036020019020600101805491151560ff199092169190911790555b50505050565b3390565b600160a060020a0383166200130b5760405160e560020a62461bcd028152600401620003b9906200205c565b600160a060020a038216620013375760405160e560020a62461bcd028152600401620003b99062001dce565b600160a060020a0380841660008181526034602090815260408083209487168084529490915290819020849055517f8c5be1e5ebec7d5bd14f71427d1e84f3dd0314c0f7b2291e5b200ac8c7c3b92590620013949085906200213e565b60405180910390a3505050565b807fc5f16f0fcc639fa48a6947836d9850f504798523bf8c9a3a87d5876cf622bcf755620013ce62001635565b50565b6000620013e084848462001637565b6200145384620013ef620012db565b62000ac6856040518060600160405280602881526020016200243e60289139600160a060020a038a1660009081526034602052604081209062001431620012db565b600160a060020a031681526020810191909152604001600020549190620015eb565b5060019392505050565b60008282018381101562000a615760405160e560020a62461bcd028152600401620003b99062001e45565b600054610100900460ff1680620014a45750620014a462001750565b80620014b3575060005460ff16155b620014d55760405160e560020a62461bcd028152600401620003b99062001f06565b600054610100900460ff1615801562001501576000805460ff1961ff0019909116610100171660011790555b6200150b62001763565b620015178383620017f1565b801562000a09576000805461ff0019169055505050565b600160a060020a0382166200155a5760405160e560020a62461bcd028152600401620003b99062002107565b620015686000838362000a09565b6035546200157790826200145d565b603555600160a060020a0382166000908152603360205260409020546200159f90826200145d565b600160a060020a0383166000818152603360205260408082209390935591519091906000805160206200246683398151915290620015df9085906200213e565b60405180910390a35050565b60008184841115620016155760405160e560020a62461bcd028152600401620003b9919062001d73565b505050900390565b6000620008ea6200162d620012db565b848462001637565b565b600160a060020a038316620016635760405160e560020a62461bcd028152600401620003b99062002014565b600160a060020a0382166200168f5760405160e560020a62461bcd028152600401620003b99062001d88565b6200169c83838362000a09565b620016dc816040518060600160405280602681526020016200241860269139600160a060020a0386166000908152603360205260409020549190620015eb565b600160a060020a0380851660009081526033602052604080822093909355908416815220546200170d90826200145d565b600160a060020a0380841660008181526033602052604090819020939093559151908516906000805160206200246683398151915290620013949085906200213e565b60006200175d30620018ba565b15905090565b600054610100900460ff16806200177f57506200177f62001750565b806200178e575060005460ff16155b620017b05760405160e560020a62461bcd028152600401620003b99062001f06565b600054610100900460ff16158015620017dc576000805460ff1961ff0019909116610100171660011790555b8015620013ce576000805461ff001916905550565b600054610100900460ff16806200180d57506200180d62001750565b806200181c575060005460ff16155b6200183e5760405160e560020a62461bcd028152600401620003b99062001f06565b600054610100900460ff161580156200186a576000805460ff1961ff0019909116610100171660011790555b82516200187f906036906020860190620018ce565b50815162001895906037906020850190620018ce565b506038805460ff19166012179055801562000a09576000805461ff0019169055505050565b3b151590565b61026280620021b683390190565b828054600181600116156101000203166002900490600052602060002090601f016020900481019282601f106200191157805160ff191683800117855562001941565b8280016001018555821562001941579182015b828111156200194157825182559160200191906001019062001924565b506200194f92915062001953565b5090565b5b808211156200194f576000815560010162001954565b8035600160a060020a0381168114620008ee57600080fd5b600082601f83011262001993578081fd5b81356001604060020a0380821115620019aa578283fd5b604051601f8301601f191681016020018281118282101715620019cb578485fd5b604052828152925082848301602001861015620019e757600080fd5b8260208601602083013760006020848301015250505092915050565b60006020828403121562001a15578081fd5b62000a6183836200196a565b6000806040838503121562001a34578081fd5b62001a4084846200196a565b915062001a5184602085016200196a565b90509250929050565b60008060006060848603121562001a6f578081fd5b833562001a7c8162002190565b9250602084013562001a8e8162002190565b929592945050506040919091013590565b6000806040838503121562001ab2578182fd5b62001abe84846200196a565b946020939093013593505050565b60006020828403121562001ade578081fd5b815162000a6181620021a6565b60006020828403121562001afd578081fd5b81356001604060020a0381111562001b13578182fd5b62001b218482850162001982565b949350505050565b6000806000806080858703121562001b3f578081fd5b84356001604060020a038082111562001b56578283fd5b62001b648883890162001982565b95506020870135915062001b788262002190565b9093506040860135908082111562001b8e578283fd5b5062001b9d8782880162001982565b925050606085013562001bb081620021a6565b939692955090935050565b60006020828403121562001bcd578081fd5b5035919050565b60006020828403121562001be6578081fd5b5051919050565b600160a060020a03169052565b6000815180845262001c1481602086016020860162002161565b601f01601f19169290920160200192915050565b6000825162001c3c81846020870162002161565b9190910192915050565b600160a060020a0391909116815260200190565b600160a060020a03959095168552602085019390935260408401919091526060830152608082015260a00190565b901515815260200190565b600083151582526040602083015262000a5e604083018462001bfa565b92151583526020830191909152600160a060020a0316604082015260600190565b6000604082016040835281855460018082166000811462001cfb576001811462001d1a5762001d5c565b60028304607f16855260ff198316606088015260808701935062001d5c565b6002830462001d2a81876200213e565b62001d358b62002155565b885b8381101562001d53578154838201529085019060200162001d37565b91909101955050505b505050809250505062000a61602083018462001bed565b60006020825262000a61602083018462001bfa565b60208082526023908201527f45524332303a207472616e7366657220746f20746865207a65726f2061646472604082015260e860020a6265737302606082015260800190565b60208082526022908201527f45524332303a20617070726f766520746f20746865207a65726f206164647265604082015260f060020a61737302606082015260800190565b6020808252601590820152605a60020a741d9bdd1957dc195c9a5bd917db9bdd17d95b99195902604082015260600190565b6020808252601b908201527f536166654d6174683a206164646974696f6e206f766572666c6f770000000000604082015260600190565b6020808252601190820152607a60020a701d9bdd1957dc195c9a5bd917d95b99195902604082015260600190565b6020808252601590820152605860020a7466756e645f6c6f636b5f6475655f746f5f766f746502604082015260600190565b6020808252600d90820152609860020a6c696e6163746976655f6b756b6f02604082015260600190565b6020808252602e908201527f496e697469616c697a61626c653a20636f6e747261637420697320616c7265616040820152609260020a6d191e481a5b9a5d1a585b1a5e995902606082015260800190565b6020808252601590820152605a60020a741b185cdd17dc9bdd5b9917db9bdd17d8db1bdcd95902604082015260600190565b6020808252600f90820152608a60020a6e1a5b9d985b1a5917dd9bdd1957da5902604082015260600190565b6020808252601490820152606060020a73766f74655f70726576656e74735f75706461746502604082015260600190565b6020808252601190820152607960020a7030b2323932b9b9afb737ba2fb0b236b4b702604082015260600190565b60208082526025908201527f45524332303a207472616e736665722066726f6d20746865207a65726f206164604082015260d860020a64647265737302606082015260800190565b60208082526024908201527f45524332303a20617070726f76652066726f6d20746865207a65726f20616464604082015260e060020a637265737302606082015260800190565b6020808252601a908201527f63616e6e6f745f766f74655f776974685f6e6f5f736861726573000000000000604082015260600190565b6020808252601090820152608360020a6f0d2dcecc2d8d2c8beecdee8cabed2c8f02604082015260600190565b6020808252601f908201527f45524332303a206d696e7420746f20746865207a65726f206164647265737300604082015260600190565b90815260200190565b60ff91909116815260200190565b60009081526020902090565b60005b838110156200217e57818101518382015260200162002164565b83811115620012d55750506000910152565b600160a060020a0381168114620013ce57600080fd5b8015158114620013ce57600080fdfe608060405234801561001057600080fd5b5060405161026238038061026283398101604081905261002f916100cb565b6000817fc5f16f0fcc639fa48a6947836d9850f504798523bf8c9a3a87d5876cf622bcf755600080845160208601856127105a03f49050806100a6576040517f08c379a000000000000000000000000000000000000000000000000000000000815260040161009d9061019a565b60405180910390fd5b5050506101d1565b8051600160a060020a03811681146100c557600080fd5b92915050565b600080604083850312156100dd578182fd5b825167ffffffffffffffff808211156100f4578384fd5b818501915085601f830112610107578384fd5b815181811115610115578485fd5b6040516020601f8301601f1916820181018481118382101715610136578788fd5b604052828252848301810189101561014c578687fd5b8693505b8284101561016d5784840181015182850182015292830192610150565b8284111561017d57868184840101525b81965061018c89828a016100ae565b955050505050509250929050565b60208082526012908201527f636f6e737472756374696f6e5f6572726f720000000000000000000000000000604082015260600190565b6083806101df6000396000f3fe60806040527fc5f16f0fcc639fa48a6947836d9850f504798523bf8c9a3a87d5876cf622bcf754600036818237808036818561270f195a01f491503d8082833e8280156049578183f35b8183fdfea2646970667358221220d96a60889bb46c0778eccd2c77ad02775a931133f070e7e729096f879bc4701864736f6c634300060c003345524332303a207472616e7366657220616d6f756e7420657863656564732062616c616e636545524332303a207472616e7366657220616d6f756e74206578636565647320616c6c6f77616e6365ddf252ad1be2c89b69c2b068fc378daa952ba7f163c4a11628f55a4df523b3ef45524332303a2064656372656173656420616c6c6f77616e63652062656c6f77207a65726fa264697066735822122056f9b3a8fa7a29343bf0d8c8f17c3264fcd41ddf3bd883a2cf7ab8254736464c64736f6c634300060c0033",
  "immutableReferences": {},
  "source": "// SPDX-License-Identifier: MIT\n//   ___  __    ___  ___  ___  __    ________\n//  |\\  \\|\\  \\ |\\  \\|\\  \\|\\  \\|\\  \\ |\\   __  \\\n//  \\ \\  \\/  /|\\ \\  \\\\\\  \\ \\  \\/  /|\\ \\  \\|\\  \\\n//   \\ \\   ___  \\ \\  \\\\\\  \\ \\   ___  \\ \\  \\\\\\  \\\n//    \\ \\  \\\\ \\  \\ \\  \\\\\\  \\ \\  \\\\ \\  \\ \\  \\\\\\  \\\n//     \\ \\__\\\\ \\__\\ \\_______\\ \\__\\\\ \\__\\ \\_______\\\n//      \\|__| \\|__|\\|_______|\\|__| \\|__|\\|_______|\n//\npragma solidity >=0.6.0 <0.8.0;\npragma experimental ABIEncoderV2;\n\nimport \"@openzeppelin/contracts-upgradeable/proxy/Initializable.sol\";\nimport \"@openzeppelin/contracts-upgradeable/token/ERC20/ERC20Upgradeable.sol\";\nimport \"../kuko_v1/KukoStatusV1.sol\";\nimport \"../kuko_v1/KukoActorsV1.sol\";\nimport \"../proxy/Proxy.sol\";\n\nstruct KukoClass {\n    address[] instances;\n    bool active;\n    bytes constructionData;\n}\n\nstruct Vote {\n  address token;\n  mapping (address => bool) voters;\n  uint256 votes;\n  uint256 threshold;\n  uint256 start;\n  uint256 end;\n}\n\nstruct ImplementationUpdateAttempt {\n  bool consumed;\n  uint256 vote;\n  address newImplementation;\n}\n\ncontract KuiriLeagueV1 is Initializable, ERC20Upgradeable {\nevent ImplementationUpdateVote(uint256 attempt);\n\n    uint256 constant public IMPLEMENTATION_VOTE_PERIOD = 45000; // approx 1 week with 13 sec block time\n\n    uint256 public maxSupply;\n    mapping(string => KukoClass) public kukoClasses;\n    mapping(address => bool) public admins;\n    mapping(address => uint256) public fundLock;\n    Vote[] public votes;\n    ImplementationUpdateAttempt[] public implementationUpdateAttempts;\n\n    // solhint-disable-next-line\n    function __KuiriLeagueV1__init() public {\n        __ERC20_init(\"Kuko\", \"KUKO\");\n        maxSupply = 1000000000000000000000000000;\n        _mint(msg.sender, maxSupply);\n        admins[msg.sender] = true;\n\n    }\n\n    function _upgrade() internal {\n      // this function is called after all implementation upgrades\n    }\n\n    modifier onlyMember() {\n        require(balanceOf(msg.sender) > 0, \"address_has_no_shares\");\n        _;\n    }\n\n    modifier onlyAdmin() {\n      require(admins[msg.sender] == true, \"address_not_admin\");\n      _;\n    }\n\n    function updateImplementation(address _newImplementation) public onlyAdmin {\n      Vote storage newVote = votes.push();\n      newVote.token = address(this);\n      newVote.votes = 0;\n      newVote.threshold = maxSupply / 2;\n      newVote.start = block.number;\n      newVote.end = block.number + IMPLEMENTATION_VOTE_PERIOD;\n      uint256 newVoteIdx = votes.length - 1;\n\n      implementationUpdateAttempts.push(ImplementationUpdateAttempt({\n        consumed: false,\n        vote: newVoteIdx,\n        newImplementation: _newImplementation\n      }));\n      uint256 implementationUpdateIdx = implementationUpdateAttempts.length - 1;\n\n      emit ImplementationUpdateVote(implementationUpdateIdx);\n    }\n\n    function _updateImplementation(address _newImplementation) internal {\n        // solhint-disable-next-line\n        assembly {\n            // solium-disable-line\n            sstore(0xc5f16f0fcc639fa48a6947836d9850f504798523bf8c9a3a87d5876cf622bcf7, _newImplementation) // this changes the current implementation\n        }\n        _upgrade();\n    }\n\n    function runImplementationUpdate(uint256 _newImplementationIdx) public onlyAdmin {\n      require(implementationUpdateAttempts.length > _newImplementationIdx, \"invalid_vote_idx\");\n      ImplementationUpdateAttempt storage attempt = implementationUpdateAttempts[_newImplementationIdx];\n      Vote storage _vote = votes[attempt.vote];\n      require(block.number >= _vote.end, \"vote_period_not_ended\");\n      require(_vote.votes < _vote.threshold, \"vote_prevents_update\");\n      _updateImplementation(attempt.newImplementation);\n    }\n\n    function transfer(address recipient, uint256 amount) public virtual override returns (bool) {\n        require(block.number > fundLock[msg.sender], \"fund_lock_due_to_vote\");\n        return ERC20Upgradeable.transfer(recipient, amount);\n    }\n\n    function transferFrom(address sender, address recipient, uint256 amount) public virtual override returns (bool) {\n        require(block.number > fundLock[sender], \"fund_lock_due_to_vote\");\n        return ERC20Upgradeable.transferFrom(sender, recipient, amount);\n    }\n\n    function vote(uint256 _voteIdx) public {\n      require(_voteIdx < votes.length, \"invalid_vote_id\");\n      Vote storage _vote = votes[_voteIdx];\n      require(block.number < _vote.end, \"vote_period_ended\");\n      require(IERC20Upgradeable(_vote.token).balanceOf(msg.sender) > 0, \"cannot_vote_with_no_shares\");\n      if (_vote.voters[msg.sender] == true) {\n        _vote.voters[msg.sender] = false;\n        _vote.votes -= IERC20Upgradeable(_vote.token).balanceOf(msg.sender);\n      } else {\n        _vote.voters[msg.sender] = true;\n        _vote.votes += IERC20Upgradeable(_vote.token).balanceOf(msg.sender);\n      }\n      fundLock[msg.sender] = _vote.end;\n    }\n\n    function setKuko(\n        string memory signature,\n        address _implementation,\n        bytes memory _constructorData,\n        bool active\n    ) public onlyAdmin {\n        if (kukoClasses[signature].instances.length > 0) {\n            kukoClasses[signature].instances.push(_implementation);\n            kukoClasses[signature].constructionData = _constructorData;\n            kukoClasses[signature].active = active;\n        } else {\n            kukoClasses[signature].instances[0] = _implementation;\n            kukoClasses[signature].constructionData = _constructorData;\n            kukoClasses[signature].active = active;\n        }\n    }\n\n    function openKukoRound(string memory signature) public {\n        require(kukoClasses[signature].active == true, \"inactive_kuko\");\n        KukoStatusV1 lastInstance =\n            KukoStatusV1(kukoClasses[signature].instances[kukoClasses[signature].instances.length - 1]);\n        require(lastInstance.closed() == true, \"last_round_not_closed\");\n\n        Proxy cheapInstanceThanksToProxies =\n            new Proxy(kukoClasses[signature].constructionData, kukoClasses[signature].instances[0]);\n        KukoActorsV1(address(cheapInstanceThanksToProxies)).setLauncher(msg.sender);\n\n        kukoClasses[signature].instances.push(address(cheapInstanceThanksToProxies));\n    }\n}\n",
  "sourcePath": "/Users/mortimr/projects/kuko-finance/contracts/contracts/kuiri_league/KuiriLeagueV1.sol",
  "compiler": {
    "name": "solc",
    "version": "0.6.12+commit.27d51765.Emscripten.clang"
  },
  "schemaVersion": "3.3.3",
  "updatedAt": "2021-02-09T17:09:51.139Z",
  "networkType": "ethereum",
  "devdoc": {
    "kind": "dev",
    "methods": {
      "allowance(address,address)": {
        "details": "See {IERC20-allowance}."
      },
      "approve(address,uint256)": {
        "details": "See {IERC20-approve}. Requirements: - `spender` cannot be the zero address."
      },
      "balanceOf(address)": {
        "details": "See {IERC20-balanceOf}."
      },
      "decimals()": {
        "details": "Returns the number of decimals used to get its user representation. For example, if `decimals` equals `2`, a balance of `505` tokens should be displayed to a user as `5,05` (`505 / 10 ** 2`). Tokens usually opt for a value of 18, imitating the relationship between Ether and Wei. This is the value {ERC20} uses, unless {_setupDecimals} is called. NOTE: This information is only used for _display_ purposes: it in no way affects any of the arithmetic of the contract, including {IERC20-balanceOf} and {IERC20-transfer}."
      },
      "decreaseAllowance(address,uint256)": {
        "details": "Atomically decreases the allowance granted to `spender` by the caller. This is an alternative to {approve} that can be used as a mitigation for problems described in {IERC20-approve}. Emits an {Approval} event indicating the updated allowance. Requirements: - `spender` cannot be the zero address. - `spender` must have allowance for the caller of at least `subtractedValue`."
      },
      "increaseAllowance(address,uint256)": {
        "details": "Atomically increases the allowance granted to `spender` by the caller. This is an alternative to {approve} that can be used as a mitigation for problems described in {IERC20-approve}. Emits an {Approval} event indicating the updated allowance. Requirements: - `spender` cannot be the zero address."
      },
      "name()": {
        "details": "Returns the name of the token."
      },
      "symbol()": {
        "details": "Returns the symbol of the token, usually a shorter version of the name."
      },
      "totalSupply()": {
        "details": "See {IERC20-totalSupply}."
      },
      "transfer(address,uint256)": {
        "details": "See {IERC20-transfer}. Requirements: - `recipient` cannot be the zero address. - the caller must have a balance of at least `amount`."
      },
      "transferFrom(address,address,uint256)": {
        "details": "See {IERC20-transferFrom}. Emits an {Approval} event indicating the updated allowance. This is not required by the EIP. See the note at the beginning of {ERC20}. Requirements: - `sender` and `recipient` cannot be the zero address. - `sender` must have a balance of at least `amount`. - the caller must have allowance for ``sender``'s tokens of at least `amount`."
      }
    },
    "version": 1
  },
  "userdoc": {
    "kind": "user",
    "methods": {},
    "version": 1
  }
}