{
  "contractName": "KukoEthPriceGamble",
  "abi": [
    {
      "anonymous": false,
      "inputs": [
        {
          "indexed": true,
          "internalType": "address",
          "name": "account",
          "type": "address"
        },
        {
          "indexed": true,
          "internalType": "address",
          "name": "operator",
          "type": "address"
        },
        {
          "indexed": false,
          "internalType": "bool",
          "name": "approved",
          "type": "bool"
        }
      ],
      "name": "ApprovalForAll",
      "type": "event"
    },
    {
      "anonymous": false,
      "inputs": [
        {
          "indexed": true,
          "internalType": "address",
          "name": "operator",
          "type": "address"
        },
        {
          "indexed": true,
          "internalType": "address",
          "name": "from",
          "type": "address"
        },
        {
          "indexed": true,
          "internalType": "address",
          "name": "to",
          "type": "address"
        },
        {
          "indexed": false,
          "internalType": "uint256[]",
          "name": "ids",
          "type": "uint256[]"
        },
        {
          "indexed": false,
          "internalType": "uint256[]",
          "name": "values",
          "type": "uint256[]"
        }
      ],
      "name": "TransferBatch",
      "type": "event"
    },
    {
      "anonymous": false,
      "inputs": [
        {
          "indexed": true,
          "internalType": "address",
          "name": "operator",
          "type": "address"
        },
        {
          "indexed": true,
          "internalType": "address",
          "name": "from",
          "type": "address"
        },
        {
          "indexed": true,
          "internalType": "address",
          "name": "to",
          "type": "address"
        },
        {
          "indexed": false,
          "internalType": "uint256",
          "name": "id",
          "type": "uint256"
        },
        {
          "indexed": false,
          "internalType": "uint256",
          "name": "value",
          "type": "uint256"
        }
      ],
      "name": "TransferSingle",
      "type": "event"
    },
    {
      "anonymous": false,
      "inputs": [
        {
          "indexed": false,
          "internalType": "string",
          "name": "value",
          "type": "string"
        },
        {
          "indexed": true,
          "internalType": "uint256",
          "name": "id",
          "type": "uint256"
        }
      ],
      "name": "URI",
      "type": "event"
    },
    {
      "inputs": [],
      "name": "HIGHER_BID_ID",
      "outputs": [
        {
          "internalType": "uint256",
          "name": "",
          "type": "uint256"
        }
      ],
      "stateMutability": "view",
      "type": "function",
      "constant": true
    },
    {
      "inputs": [],
      "name": "LOWER_BID_ID",
      "outputs": [
        {
          "internalType": "uint256",
          "name": "",
          "type": "uint256"
        }
      ],
      "stateMutability": "view",
      "type": "function",
      "constant": true
    },
    {
      "inputs": [],
      "name": "asset",
      "outputs": [
        {
          "internalType": "uint8",
          "name": "",
          "type": "uint8"
        }
      ],
      "stateMutability": "view",
      "type": "function",
      "constant": true
    },
    {
      "inputs": [
        {
          "internalType": "address",
          "name": "account",
          "type": "address"
        },
        {
          "internalType": "uint256",
          "name": "id",
          "type": "uint256"
        }
      ],
      "name": "balanceOf",
      "outputs": [
        {
          "internalType": "uint256",
          "name": "",
          "type": "uint256"
        }
      ],
      "stateMutability": "view",
      "type": "function",
      "constant": true
    },
    {
      "inputs": [
        {
          "internalType": "address[]",
          "name": "accounts",
          "type": "address[]"
        },
        {
          "internalType": "uint256[]",
          "name": "ids",
          "type": "uint256[]"
        }
      ],
      "name": "balanceOfBatch",
      "outputs": [
        {
          "internalType": "uint256[]",
          "name": "",
          "type": "uint256[]"
        }
      ],
      "stateMutability": "view",
      "type": "function",
      "constant": true
    },
    {
      "inputs": [],
      "name": "cancel",
      "outputs": [],
      "stateMutability": "nonpayable",
      "type": "function"
    },
    {
      "inputs": [],
      "name": "cancelled",
      "outputs": [
        {
          "internalType": "bool",
          "name": "",
          "type": "bool"
        }
      ],
      "stateMutability": "view",
      "type": "function",
      "constant": true
    },
    {
      "inputs": [],
      "name": "close",
      "outputs": [],
      "stateMutability": "nonpayable",
      "type": "function"
    },
    {
      "inputs": [],
      "name": "closePrice",
      "outputs": [
        {
          "internalType": "uint256",
          "name": "",
          "type": "uint256"
        }
      ],
      "stateMutability": "view",
      "type": "function",
      "constant": true
    },
    {
      "inputs": [],
      "name": "closed",
      "outputs": [
        {
          "internalType": "bool",
          "name": "",
          "type": "bool"
        }
      ],
      "stateMutability": "view",
      "type": "function",
      "constant": true
    },
    {
      "inputs": [],
      "name": "closer",
      "outputs": [
        {
          "internalType": "address",
          "name": "",
          "type": "address"
        }
      ],
      "stateMutability": "view",
      "type": "function",
      "constant": true
    },
    {
      "inputs": [],
      "name": "closerShare",
      "outputs": [
        {
          "internalType": "uint256",
          "name": "",
          "type": "uint256"
        }
      ],
      "stateMutability": "view",
      "type": "function",
      "constant": true
    },
    {
      "inputs": [],
      "name": "fundingPhaseBlockLength",
      "outputs": [
        {
          "internalType": "uint256",
          "name": "",
          "type": "uint256"
        }
      ],
      "stateMutability": "view",
      "type": "function",
      "constant": true
    },
    {
      "inputs": [],
      "name": "getInputToken",
      "outputs": [
        {
          "internalType": "address",
          "name": "",
          "type": "address"
        }
      ],
      "stateMutability": "view",
      "type": "function",
      "constant": true
    },
    {
      "inputs": [],
      "name": "getOptions",
      "outputs": [
        {
          "internalType": "uint256[]",
          "name": "",
          "type": "uint256[]"
        },
        {
          "internalType": "string[]",
          "name": "",
          "type": "string[]"
        },
        {
          "internalType": "uint256[]",
          "name": "",
          "type": "uint256[]"
        },
        {
          "internalType": "int8[]",
          "name": "",
          "type": "int8[]"
        },
        {
          "internalType": "uint256[]",
          "name": "",
          "type": "uint256[]"
        }
      ],
      "stateMutability": "view",
      "type": "function",
      "constant": true
    },
    {
      "inputs": [],
      "name": "getOutputTokens",
      "outputs": [
        {
          "internalType": "address[]",
          "name": "",
          "type": "address[]"
        }
      ],
      "stateMutability": "view",
      "type": "function",
      "constant": true
    },
    {
      "inputs": [],
      "name": "getYieldTokens",
      "outputs": [
        {
          "internalType": "address[]",
          "name": "",
          "type": "address[]"
        }
      ],
      "stateMutability": "view",
      "type": "function",
      "constant": true
    },
    {
      "inputs": [],
      "name": "higherRealId",
      "outputs": [
        {
          "internalType": "uint256",
          "name": "",
          "type": "uint256"
        }
      ],
      "stateMutability": "view",
      "type": "function",
      "constant": true
    },
    {
      "inputs": [
        {
          "internalType": "address",
          "name": "account",
          "type": "address"
        },
        {
          "internalType": "address",
          "name": "operator",
          "type": "address"
        }
      ],
      "name": "isApprovedForAll",
      "outputs": [
        {
          "internalType": "bool",
          "name": "",
          "type": "bool"
        }
      ],
      "stateMutability": "view",
      "type": "function",
      "constant": true
    },
    {
      "inputs": [],
      "name": "launcher",
      "outputs": [
        {
          "internalType": "address",
          "name": "",
          "type": "address"
        }
      ],
      "stateMutability": "view",
      "type": "function",
      "constant": true
    },
    {
      "inputs": [],
      "name": "launcherShare",
      "outputs": [
        {
          "internalType": "uint256",
          "name": "",
          "type": "uint256"
        }
      ],
      "stateMutability": "view",
      "type": "function",
      "constant": true
    },
    {
      "inputs": [],
      "name": "loserShare",
      "outputs": [
        {
          "internalType": "uint256",
          "name": "",
          "type": "uint256"
        }
      ],
      "stateMutability": "view",
      "type": "function",
      "constant": true
    },
    {
      "inputs": [],
      "name": "lowerRealId",
      "outputs": [
        {
          "internalType": "uint256",
          "name": "",
          "type": "uint256"
        }
      ],
      "stateMutability": "view",
      "type": "function",
      "constant": true
    },
    {
      "inputs": [],
      "name": "name",
      "outputs": [
        {
          "internalType": "string",
          "name": "",
          "type": "string"
        }
      ],
      "stateMutability": "view",
      "type": "function",
      "constant": true
    },
    {
      "inputs": [
        {
          "internalType": "uint256",
          "name": "",
          "type": "uint256"
        }
      ],
      "name": "options",
      "outputs": [
        {
          "internalType": "uint256",
          "name": "id",
          "type": "uint256"
        },
        {
          "internalType": "string",
          "name": "name",
          "type": "string"
        },
        {
          "internalType": "uint256",
          "name": "keyValue",
          "type": "uint256"
        },
        {
          "internalType": "int8",
          "name": "finalized",
          "type": "int8"
        },
        {
          "internalType": "uint256",
          "name": "shares",
          "type": "uint256"
        }
      ],
      "stateMutability": "view",
      "type": "function",
      "constant": true
    },
    {
      "inputs": [],
      "name": "owner",
      "outputs": [
        {
          "internalType": "address",
          "name": "",
          "type": "address"
        }
      ],
      "stateMutability": "view",
      "type": "function",
      "constant": true
    },
    {
      "inputs": [],
      "name": "ownerShare",
      "outputs": [
        {
          "internalType": "uint256",
          "name": "",
          "type": "uint256"
        }
      ],
      "stateMutability": "view",
      "type": "function",
      "constant": true
    },
    {
      "inputs": [],
      "name": "postFundingPhaseBlockLength",
      "outputs": [
        {
          "internalType": "uint256",
          "name": "",
          "type": "uint256"
        }
      ],
      "stateMutability": "view",
      "type": "function",
      "constant": true
    },
    {
      "inputs": [],
      "name": "resolved",
      "outputs": [
        {
          "internalType": "bool",
          "name": "",
          "type": "bool"
        }
      ],
      "stateMutability": "view",
      "type": "function",
      "constant": true
    },
    {
      "inputs": [],
      "name": "runBlock",
      "outputs": [
        {
          "internalType": "uint256",
          "name": "",
          "type": "uint256"
        }
      ],
      "stateMutability": "view",
      "type": "function",
      "constant": true
    },
    {
      "inputs": [],
      "name": "runner",
      "outputs": [
        {
          "internalType": "address",
          "name": "",
          "type": "address"
        }
      ],
      "stateMutability": "view",
      "type": "function",
      "constant": true
    },
    {
      "inputs": [],
      "name": "runnerShare",
      "outputs": [
        {
          "internalType": "uint256",
          "name": "",
          "type": "uint256"
        }
      ],
      "stateMutability": "view",
      "type": "function",
      "constant": true
    },
    {
      "inputs": [],
      "name": "running",
      "outputs": [
        {
          "internalType": "bool",
          "name": "",
          "type": "bool"
        }
      ],
      "stateMutability": "view",
      "type": "function",
      "constant": true
    },
    {
      "inputs": [],
      "name": "runningPhaseBlockLength",
      "outputs": [
        {
          "internalType": "uint256",
          "name": "",
          "type": "uint256"
        }
      ],
      "stateMutability": "view",
      "type": "function",
      "constant": true
    },
    {
      "inputs": [
        {
          "internalType": "address",
          "name": "from",
          "type": "address"
        },
        {
          "internalType": "address",
          "name": "to",
          "type": "address"
        },
        {
          "internalType": "uint256[]",
          "name": "ids",
          "type": "uint256[]"
        },
        {
          "internalType": "uint256[]",
          "name": "amounts",
          "type": "uint256[]"
        },
        {
          "internalType": "bytes",
          "name": "data",
          "type": "bytes"
        }
      ],
      "name": "safeBatchTransferFrom",
      "outputs": [],
      "stateMutability": "nonpayable",
      "type": "function"
    },
    {
      "inputs": [
        {
          "internalType": "address",
          "name": "from",
          "type": "address"
        },
        {
          "internalType": "address",
          "name": "to",
          "type": "address"
        },
        {
          "internalType": "uint256",
          "name": "id",
          "type": "uint256"
        },
        {
          "internalType": "uint256",
          "name": "amount",
          "type": "uint256"
        },
        {
          "internalType": "bytes",
          "name": "data",
          "type": "bytes"
        }
      ],
      "name": "safeTransferFrom",
      "outputs": [],
      "stateMutability": "nonpayable",
      "type": "function"
    },
    {
      "inputs": [
        {
          "internalType": "address",
          "name": "operator",
          "type": "address"
        },
        {
          "internalType": "bool",
          "name": "approved",
          "type": "bool"
        }
      ],
      "name": "setApprovalForAll",
      "outputs": [],
      "stateMutability": "nonpayable",
      "type": "function"
    },
    {
      "inputs": [
        {
          "internalType": "address",
          "name": "_launcher",
          "type": "address"
        }
      ],
      "name": "setLauncher",
      "outputs": [],
      "stateMutability": "nonpayable",
      "type": "function"
    },
    {
      "inputs": [],
      "name": "start",
      "outputs": [],
      "stateMutability": "nonpayable",
      "type": "function"
    },
    {
      "inputs": [],
      "name": "startBlock",
      "outputs": [
        {
          "internalType": "uint256",
          "name": "",
          "type": "uint256"
        }
      ],
      "stateMutability": "view",
      "type": "function",
      "constant": true
    },
    {
      "inputs": [
        {
          "internalType": "bytes4",
          "name": "interfaceId",
          "type": "bytes4"
        }
      ],
      "name": "supportsInterface",
      "outputs": [
        {
          "internalType": "bool",
          "name": "",
          "type": "bool"
        }
      ],
      "stateMutability": "view",
      "type": "function",
      "constant": true
    },
    {
      "inputs": [],
      "name": "token",
      "outputs": [
        {
          "internalType": "contract IERC20",
          "name": "",
          "type": "address"
        }
      ],
      "stateMutability": "view",
      "type": "function",
      "constant": true
    },
    {
      "inputs": [
        {
          "internalType": "uint256",
          "name": "",
          "type": "uint256"
        }
      ],
      "name": "uri",
      "outputs": [
        {
          "internalType": "string",
          "name": "",
          "type": "string"
        }
      ],
      "stateMutability": "view",
      "type": "function",
      "constant": true
    },
    {
      "inputs": [
        {
          "internalType": "string",
          "name": "name",
          "type": "string"
        },
        {
          "internalType": "address",
          "name": "inputToken",
          "type": "address"
        },
        {
          "internalType": "address",
          "name": "vaultAddress",
          "type": "address"
        },
        {
          "internalType": "address",
          "name": "uniswapPairAddress",
          "type": "address"
        },
        {
          "internalType": "uint256",
          "name": "fundingPeriod",
          "type": "uint256"
        },
        {
          "internalType": "uint256",
          "name": "runningPeriod",
          "type": "uint256"
        },
        {
          "internalType": "uint256",
          "name": "weightedFundingPeriod",
          "type": "uint256"
        }
      ],
      "name": "__KukoEthPriceGamble__init",
      "outputs": [],
      "stateMutability": "nonpayable",
      "type": "function"
    },
    {
      "inputs": [
        {
          "internalType": "uint256",
          "name": "_option",
          "type": "uint256"
        },
        {
          "internalType": "uint256",
          "name": "_amount",
          "type": "uint256"
        }
      ],
      "name": "deposit",
      "outputs": [],
      "stateMutability": "nonpayable",
      "type": "function"
    },
    {
      "inputs": [
        {
          "internalType": "uint256",
          "name": "_option",
          "type": "uint256"
        },
        {
          "internalType": "uint256",
          "name": "amount",
          "type": "uint256"
        }
      ],
      "name": "withdraw",
      "outputs": [],
      "stateMutability": "nonpayable",
      "type": "function"
    },
    {
      "inputs": [
        {
          "internalType": "uint256[]",
          "name": "options",
          "type": "uint256[]"
        },
        {
          "internalType": "bool",
          "name": "withDeposit",
          "type": "bool"
        }
      ],
      "name": "withdrawBatch",
      "outputs": [],
      "stateMutability": "nonpayable",
      "type": "function"
    },
    {
      "inputs": [
        {
          "internalType": "uint256",
          "name": "amount",
          "type": "uint256"
        }
      ],
      "name": "withdrawDeposit",
      "outputs": [],
      "stateMutability": "nonpayable",
      "type": "function"
    },
    {
      "inputs": [
        {
          "internalType": "address",
          "name": "owner",
          "type": "address"
        }
      ],
      "name": "depositOf",
      "outputs": [
        {
          "internalType": "uint256",
          "name": "",
          "type": "uint256"
        }
      ],
      "stateMutability": "view",
      "type": "function",
      "constant": true
    },
    {
      "inputs": [
        {
          "internalType": "address",
          "name": "owner",
          "type": "address"
        }
      ],
      "name": "sharesOf",
      "outputs": [
        {
          "internalType": "uint256",
          "name": "",
          "type": "uint256"
        }
      ],
      "stateMutability": "view",
      "type": "function",
      "constant": true
    },
    {
      "inputs": [],
      "name": "totalDeposit",
      "outputs": [
        {
          "internalType": "uint256",
          "name": "",
          "type": "uint256"
        }
      ],
      "stateMutability": "view",
      "type": "function",
      "constant": true
    },
    {
      "inputs": [],
      "name": "totalFunds",
      "outputs": [
        {
          "internalType": "uint256",
          "name": "",
          "type": "uint256"
        }
      ],
      "stateMutability": "view",
      "type": "function",
      "constant": true
    },
    {
      "inputs": [],
      "name": "totalShares",
      "outputs": [
        {
          "internalType": "uint256",
          "name": "",
          "type": "uint256"
        }
      ],
      "stateMutability": "view",
      "type": "function",
      "constant": true
    }
  ],
  "bytecode": "0x60806040526007805460ff1916905534801561001a57600080fd5b50614c178061002a6000396000f3fe608060405234801561001057600080fd5b50600436106102695760e060020a6000350462fdd58e811461026e57806301ffc9a71461029757806306fdde03146102b75780630b01f25c146102cc5780630e89341c146102d45780631456bed1146102e757806316eebd1e146102ef57806323e3fbd5146103045780632bf732df146103175780632eb2c2d61461032c57806330b55c5a1461033f57806333289a461461034757806333d945351461035a57806338d52e0f146103625780633a98ef39146103775780633e7954f91461037f5780633f6fa65514610387578063409e22051461038f57806343d726d6146103b3578063441a3e70146103bb578063454dcb45146103ce57806348cd4cb1146103e35780634e1273f4146103eb578063597e1fb51461040b57806369208dcb146104135780637044f2821461041b578063709df63c146104235780637a8ca6151461042b57806389006dc0146104335780638da5cb5b1461043b5780638f1c315114610443578063968ed6001461044b5780639a82a09a14610453578063a22cb4651461045b578063b30e26f71461046e578063be9a655514610476578063cc2ee1961461047e578063ccd5ce4b14610497578063ccdf42991461049f578063cfa92858146104a7578063d85bd526146104af578063e2bbb158146104b7578063e52e43da146104ca578063e985e9c5146104d2578063ea8a1af0146104e5578063f242432a146104ed578063f4c094c814610500578063f5eb42dc14610513578063f6153ccd14610526578063f68ec35f1461052e578063f799f5e314610536578063fc0c546a14610549578063fc21291314610551575b600080fd5b61028161027c366004613bc9565b610559565b60405161028e91906149cc565b60405180910390f35b6102aa6102a5366004613d14565b6105b8565b60405161028e9190614161565b6102bf6105db565b60405161028e919061416c565b610281610669565b6102bf6102e2366004613e2a565b61066f565b610281610707565b6102f761070c565b60405161028e9190613f2e565b610281610312366004613a36565b61071b565b61032a610325366004613cb4565b610736565b005b61032a61033a366004613a85565b6107c7565b6102816109ef565b61032a610355366004613e2a565b6109f5565b610281610acd565b61036a610ad3565b60405161028e9190614a1c565b610281610ae3565b610281610aea565b6102aa610af0565b6103a261039d366004613e2a565b610af9565b60405161028e9594939291906149d5565b61032a610bdb565b61032a6103c9366004613e5a565b610c76565b6103d6610f81565b60405161028e9190614031565b610281610fe3565b6103fe6103f9366004613bf3565b610fe9565b60405161028e919061407e565b6102aa6110ab565b6102816110b9565b6102f76110bf565b6103d66110ce565b6102f761112e565b61028161113d565b6102f7611143565b610281611152565b610281611158565b6102aa611167565b61032a610469366004613b92565b611176565b610281611247565b61032a61124d565b610486611296565b60405161028e959493929190614091565b6102816115e3565b6102816115e8565b6102816115ee565b6102aa6115f4565b61032a6104c5366004613e5a565b6115fd565b6102f761179e565b6102aa6104e0366004613a51565b6117ad565b61032a6117db565b61032a6104fb366004613b2e565b61181c565b61032a61050e366004613a36565b6119a4565b610281610521366004613a36565b6119dd565b610281611a27565b610281611a2d565b61032a610544366004613d4c565b611a33565b6102f7611cf6565b610281611d05565b6000600160a060020a03831661058d5760405160e560020a62461bcd028152600401610584906142e6565b60405180910390fd5b506000818152606e60209081526040808320600160a060020a03861684529091529020545b92915050565b600160e060020a031981166000908152603c602052604090205460ff165b919050565b60b1805460408051602060026001851615610100026000190190941693909304601f810184900484028201840190925281815292918301828280156106615780601f1061063657610100808354040283529160200191610661565b820191906000526020600020905b81548152906001019060200180831161064457829003601f168201915b505050505081565b60a55481565b60708054604080516020601f60026000196101006001881615020190951694909404938401819004810282018101909252828152606093909290918301828280156106fb5780601f106106d0576101008083540402835291602001916106fb565b820191906000526020600020905b8154815290600101906020018083116106de57829003601f168201915b50505050509050919050565b600181565b60a054600160a060020a031681565b600160a060020a0316600090815260b3602052604090205490565b60005b82518110156107895760006107613385848151811061075457fe5b6020026020010151610559565b905061078084838151811061077257fe5b602002602001015182610c76565b50600101610739565b508080156107a5575033600090815260b3602052604090205415155b156107c35733600090815260b360205260409020546107c3906109f5565b5050565b81518351146107eb5760405160e560020a62461bcd028152600401610584906148b6565b600160a060020a0384166108145760405160e560020a62461bcd02815260040161058490614560565b61081c611d0b565b600160a060020a031685600160a060020a031614806108425750610842856104e0611d0b565b6108615760405160e560020a62461bcd028152600401610584906145a8565b600061086b611d0b565b905061087b8187878787876109e7565b60005b845181101561098157600085828151811061089557fe5b6020026020010151905060008583815181106108ad57fe5b6020026020010151905061091a816040518060600160405280602a8152602001614bb8602a9139606e600086815260200190815260200160002060008d600160a060020a0316600160a060020a0316815260200190815260200160002054611d0f9092919063ffffffff16565b6000838152606e60209081526040808320600160a060020a038e811685529252808320939093558a16815220546109519082611d43565b6000928352606e60209081526040808520600160a060020a038c168652909152909220919091555060010161087e565b5084600160a060020a031686600160a060020a031682600160a060020a03167f4a39dc06d4c0dbc64b70af90fd698a233a518aa5d07e595d983b8c0526c8f7fb87876040516109d1929190614133565b60405180910390a46109e7818787878787611d6b565b505050505050565b60a85481565b60ae5460ff610100909104161515600114610a255760405160e560020a62461bcd028152600401610584906145fd565b60008111610a485760405160e560020a62461bcd0281526004016105849061417f565b33600090815260b36020526040902054811115610a7a5760405160e560020a62461bcd028152600401610584906143d0565b610ab43360b45460b5541015610a9f578260b45460b55481610a9857fe5b0402610aa1565b825b60b254600160a060020a03169190611e91565b33600090815260b3602052604090208054919091039055565b60ab5481565b60055460a060020a900460ff1681565b60b8545b90565b60aa5481565b60075460ff1681565b60af8181548110610b0657fe5b9060005260206000209060050201600091509050806000015490806001018054600181600116156101000203166002900480601f016020809104026020016040519081016040528092919081815260200182805460018160011615610100020316600290048015610bb85780601f10610b8d57610100808354040283529160200191610bb8565b820191906000526020600020905b815481529060010190602001808311610b9b57829003601f168201915b50505050600283015460038401546004909401549293909260009190910b915085565b60ae5460ff161515600114610c055760405160e560020a62461bcd0281526004016105849061499e565b60ae54610100900460ff1615610c305760405160e560020a62461bcd028152600401610584906145fd565b60ac5460aa5401431015610c595760405160e560020a62461bcd02815260040161058490614471565b610c6233611eea565b610c6c6001611f0c565b610c74611f26565b565b60ae5460ff610100909104161515600114610ca65760405160e560020a62461bcd028152600401610584906145fd565b60b45460b55411610ccc5760405160e560020a62461bcd02815260040161058490614538565b600082815260b06020526040902054610cfa5760405160e560020a62461bcd0281526004016105849061467b565b80610d053384610559565b1015610d265760405160e560020a62461bcd02815260040161058490614407565b610d2e613885565b600083815260b0602052604090205460af8054909160001901908110610d5057fe5b90600052602060002090600502016040518060a001604052908160008201548152602001600182018054600181600116156101000203166002900480601f016020809104026020016040519081016040528092919081815260200182805460018160011615610100020316600290048015610e0c5780601f10610de157610100808354040283529160200191610e0c565b820191906000526020600020905b815481529060010190602001808311610def57829003601f168201915b5050509183525050600282015460208201526003820154600090810b810b810b60408301526004909201546060918201528201519192500b610e635760405160e560020a62461bcd02815260040161058490614253565b806060015160000b60011415610f0c57600060b65460b7540160b75481610e8657fe5b0460b45460b554030290506000620f424060a854620f42400381610ea657fe5b0460b6548581610eb257fe5b048302029050600060b65460b7540160b65481610ecb57fe5b0460b45460b55403029050600060b6548681610ee357fe5b60b25491900483029150610f0390600160a060020a031633858401611e91565b50505050610f7c565b806060015160000b6000191415610f7c57600060b65460b7540160b75481610f3057fe5b0460b45460b554030290506000620f424060a85481610f4b57fe5b0460b7548581610f5757fe5b60b2549190048402919091029150610f7990600160a060020a03163383611e91565b50505b505050565b60606002805480602002602001604051908101604052809291908181526020018280548015610fd957602002820191906000526020600020905b8154600160a060020a03168152600190910190602001808311610fbb575b5050505050905090565b60a95481565b6060815183511461100f5760405160e560020a62461bcd02815260040161058490614839565b606083516001604060020a038111801561102857600080fd5b50604051908082528060200260200182016040528015611052578160200160208202803683370190505b50905060005b84518110156110a35761108485828151811061107057fe5b602002602001015185838151811061075457fe5b82828151811061109057fe5b6020908102919091010152600101611058565b509392505050565b60ae54610100900460ff1681565b60a65481565b60a254600160a060020a031681565b60606001805480602002602001604051908101604052809291908181526020018280548015610fd957602002820191906000526020600020908154600160a060020a03168152600190910190602001808311610fbb575050505050905090565b60a154600160a060020a031681565b60ac5481565b60a354600160a060020a031681565b60a75481565b6000611162612510565b905090565b60ae5462010000900460ff1681565b81600160a060020a0316611188611d0b565b600160a060020a031614156111b25760405160e560020a62461bcd028152600401610584906147a0565b80606f60006111bf611d0b565b600160a060020a03908116825260208083019390935260409182016000908120918716808252919093529120805460ff191692151592909217909155611203611d0b565b600160a060020a03167f17307eab39ab6107e8899845ad3d59bd9653f200f220920489ca2b5937696c318360405161123b9190614161565b60405180910390a35050565b60ad5481565b60ae5460ff16156112735760405160e560020a62461bcd0281526004016105849061499e565b61127d6001612629565b6112863361263c565b61128e61265e565b610c74612664565b60af54606090819081908190819081816001604060020a03811180156112bb57600080fd5b506040519080825280602002602001820160405280156112e5578160200160208202803683370190505b5090506060826001604060020a038111801561130057600080fd5b5060405190808252806020026020018201604052801561133457816020015b606081526020019060019003908161131f5790505b5090506060836001604060020a038111801561134f57600080fd5b50604051908082528060200260200182016040528015611379578160200160208202803683370190505b5090506060846001604060020a038111801561139457600080fd5b506040519080825280602002602001820160405280156113be578160200160208202803683370190505b5090506060856001604060020a03811180156113d957600080fd5b50604051908082528060200260200182016040528015611403578160200160208202803683370190505b50905060005b868110156115d05760af818154811061141e57fe5b90600052602060002090600502016000015486828151811061143c57fe5b60200260200101818152505060af818154811061145557fe5b90600052602060002090600502016001018054600181600116156101000203166002900480601f0160208091040260200160405190810160405280929190818152602001828054600181600116156101000203166002900480156114fa5780601f106114cf576101008083540402835291602001916114fa565b820191906000526020600020905b8154815290600101906020018083116114dd57829003601f168201915b505050505085828151811061150b57fe5b602002602001018190525060af818154811061152357fe5b90600052602060002090600502016002015484828151811061154157fe5b60200260200101818152505060af818154811061155a57fe5b600091825260208220600360059092020101548451910b9084908390811061157e57fe5b602002602001019060000b908160000b8152505060af818154811061159f57fe5b9060005260206000209060050201600401548282815181106115bd57fe5b6020908102919091010152600101611409565b50939a9299509097509550909350915050565b600081565b60065481565b60a45481565b60ae5460ff1681565b60ad5460aa540143106116255760405160e560020a62461bcd02815260040161058490614284565b600082815260b060205260409020546116535760405160e560020a62461bcd0281526004016105849061467b565b60b25461166b90600160a060020a031633308461266c565b60ae5460ff161561171d5761167e612696565b600060aa54430390506116b1338460ac548486028161169957fe5b048503604051806020016040528060008152506127a7565b60ac54818302816116be57fe5b04820360af60b0600086815260200190815260200160002054815481106116e157fe5b600091825260209091206004600590920201018054909101905560ac548282028161170857fe5b60b8805492909104840390910190555061177d565b611738338383604051806020016040528060008152506127a7565b600082815260b0602052604090205460af805483926000190190811061175a57fe5b600091825260209091206004600590920201018054909101905560b88054820190555b33600090815260b36020526040902080548201905560b48054909101905550565b600054600160a060020a031690565b600160a060020a039182166000908152606f6020908152604080832093909416825291909152205460ff1690565b60a354600160a060020a031633146118085760405160e560020a62461bcd02815260040161058490614746565b611812600161287c565b610c746001611f0c565b600160a060020a0384166118455760405160e560020a62461bcd02815260040161058490614560565b61184d611d0b565b600160a060020a031685600160a060020a031614806118735750611873856104e0611d0b565b6118925760405160e560020a62461bcd028152600401610584906144a3565b600061189c611d0b565b90506118bc8187876118ad88612898565b6118b688612898565b876109e7565b611903836040518060600160405280602a8152602001614bb8602a91396000878152606e60209081526040808320600160a060020a038d1684529091529020549190611d0f565b6000858152606e60209081526040808320600160a060020a038b8116855292528083209390935587168152205461193a9084611d43565b6000858152606e60209081526040808320600160a060020a03808b16808652919093529281902093909355915190918881169190841690600080516020614b988339815191529061198e9089908990614a0e565b60405180910390a46109e78187878787876128dc565b60a354600160a060020a031633146119d15760405160e560020a62461bcd02815260040161058490614746565b6119da816129b6565b50565b600080805b60af54811015611a2057611a148460af83815481106119fd57fe5b906000526020600020906005020160000154610559565b909101906001016119e2565b5092915050565b60b45490565b60095481565b600354610100900460ff1680611a4c5750611a4c6129d8565b80611a5a575060035460ff16155b611a795760405160e560020a62461bcd0281526004016105849061462a565b600354610100900460ff16158015611aa4576003805460ff1961ff0019909116610100171660011790555b611aaf8560016129e9565b611ab98787612ac6565b611aec6040518060400160405280600f8152602001608860020a6e68747470733a2f2f7572692e636f6d02815250612ba9565b611af588612c48565b611afe33612c5b565b611b09614e20612c7d565b611b14610ce4612ca7565b611b1f610ce4612cd1565b611b2a610ce4612cfb565b611b3662030d40612d25565b611b3f84612d4a565b611b4883612d4f565b611b5182612d54565b611b5a87612d7d565b6060611b666000612d9f565b905060af81600081518110611b7757fe5b602090810291909101810151825460018181018555600094855293839020825160059092020190815581830151805192949193611bba93928501929101906138b6565b5060408201516002820155606082015160038201805460ff191660ff600093840b16179055608090920151600490910155815160019160b09184908290611bfd57fe5b60200260200101516000015181526020019081526020016000208190555060af81600181518110611c2a57fe5b602090810291909101810151825460018181018555600094855293839020825160059092020190815581830151805192949193611c6d93928501929101906138b6565b506040820151816002015560608201518160030160006101000a81548160ff021916908360000b60ff160217905550608082015181600401555050600260b0600083600181518110611cbb57fe5b602002602001015160000151815260200190815260200160002081905550508015611cec576003805461ff00191690555b5050505050505050565b60b254600160a060020a031681565b60085481565b3390565b60008184841115611d365760405160e560020a62461bcd028152600401610584919061416c565b50508183035b9392505050565b600082820183811015611d3c5760405160e560020a62461bcd0281526004016105849061443a565b611d7d84600160a060020a0316612fb4565b156109e75760405160e060020a63bc197c81028152600160a060020a0385169063bc197c8190611db99089908990889088908890600401613f5c565b602060405180830381600087803b158015611dd357600080fd5b505af1925050508015611e03575060408051601f3d908101601f19168201909252611e0091810190613d30565b60015b611e5257611e0f614aa5565b80611e1a5750611e37565b8060405160e560020a62461bcd028152600401610584919061416c565b60405160e560020a62461bcd028152600401610584906141b1565b600160e060020a0319811660e060020a63bc197c810214611e885760405160e560020a62461bcd02815260040161058490614208565b50505050505050565b610f7c8363a9059cbb60e060020a028484604051602401611eb3929190614018565b60408051601f19818403018152919052602081018051600160e060020a0316600160e060020a031990931692909217909152612fba565b60a28054600160a060020a031916600160a060020a0392909216919091179055565b60ae80549115156101000261ff0019909216919091179055565b611f2e61304c565b60b25460405160e060020a6370a08231028152600160a060020a03909116906370a0823190611f61903090600401613f2e565b60206040518083038186803b158015611f7957600080fd5b505afa158015611f8d573d6000803e3d6000fd5b505050506040513d601f19601f82011682018060405250810190611fb19190613e42565b60a75460a45460a55460a654620f4240908502819004918502819004938502819004928502048281018401820190940360b55560af8054929493926120ec9190600090611ffa57fe5b90600052602060002090600502016040518060a001604052908160008201548152602001600182018054600181600116156101000203166002900480601f0160208091040260200160405190810160405280929190818152602001828054600181600116156101000203166002900480156120b65780601f1061208b576101008083540402835291602001916120b6565b820191906000526020600020905b81548152906001019060200180831161209957829003601f168201915b5050509183525050600282015460208201526003820154600090810b810b900b6040820152600490910154606090910152613110565b60af6000815481106120fa57fe5b906000526020600020906005020160030160006101000a81548160ff021916908360000b60ff16021790555061213760af600181548110611ffa57fe5b60af60018154811061214557fe5b906000526020600020906005020160030160006101000a81548160ff021916908360000b60ff16021790555060af60008154811061217f57fe5b60009182526020822060036005909202010154810b900b600114156121ce5760af6000815481106121ac57fe5b600091825260209091206004600590920201015460b680549091019055612229565b60af6000815481106121dc57fe5b6000918252602082206005919091020160030154810b900b60001914156122295760af60008154811061220b57fe5b600091825260209091206004600590920201015460b7805490910190555b60af60018154811061223757fe5b60009182526020822060036005909202010154810b900b600114156122865760af60018154811061226457fe5b600091825260209091206004600590920201015460b6805490910190556122e1565b60af60018154811061229457fe5b6000918252602082206005919091020160030154810b900b60001914156122e15760af6001815481106122c357fe5b600091825260209091206004600590920201015460b7805490910190555b60b25460a35460405160e060020a63a9059cbb028152600160a060020a039283169263a9059cbb9261231a929116908890600401614018565b602060405180830381600087803b15801561233457600080fd5b505af1158015612348573d6000803e3d6000fd5b505050506040513d601f19601f8201168201806040525081019061236c9190613cf8565b5060b25460a05460405160e060020a63a9059cbb028152600160a060020a039283169263a9059cbb926123a6929116908790600401614018565b602060405180830381600087803b1580156123c057600080fd5b505af11580156123d4573d6000803e3d6000fd5b505050506040513d601f19601f820116820180604052508101906123f89190613cf8565b5060b25460a15460405160e060020a63a9059cbb028152600160a060020a039283169263a9059cbb92612432929116908690600401614018565b602060405180830381600087803b15801561244c57600080fd5b505af1158015612460573d6000803e3d6000fd5b505050506040513d601f19601f820116820180604052508101906124849190613cf8565b5060b25460a25460405160e060020a63a9059cbb028152600160a060020a039283169263a9059cbb926124be929116908590600401614018565b602060405180830381600087803b1580156124d857600080fd5b505af11580156124ec573d6000803e3d6000fd5b505050506040513d601f19601f82011682018060405250810190610f799190613cf8565b6000600360029054906101000a9004600160a060020a0316600160a060020a03166377c7b8fc6040518163ffffffff1660e060020a02815260040160206040518083038186803b15801561256357600080fd5b505afa158015612577573d6000803e3d6000fd5b505050506040513d601f19601f8201168201806040525081019061259b9190613e42565b60035460405160e060020a6370a0823102815262010000909104600160a060020a0316906370a08231906125d3903090600401613f2e565b60206040518083038186803b1580156125eb57600080fd5b505afa1580156125ff573d6000803e3d6000fd5b505050506040513d601f19601f820116820180604052508101906126239190613e42565b02905090565b60ae805460ff1916911515919091179055565b60a18054600160a060020a031916600160a060020a0392909216919091179055565b4360aa55565b610c74612696565b612690846323b872dd60e060020a02858585604051602401611eb393929190613fba565b50505050565b6004805460405160e060020a6370a08231028152600092600160a060020a03909216916370a08231916126cb91309101613f2e565b60206040518083038186803b1580156126e357600080fd5b505afa1580156126f7573d6000803e3d6000fd5b505050506040513d601f19601f8201168201806040525081019061271b9190613e42565b60035460045491925061274191600160a060020a03908116916201000090041683613279565b60035460405160e060020a63b6b55f2502815262010000909104600160a060020a03169063b6b55f25906127799084906004016149cc565b600060405180830381600087803b15801561279357600080fd5b505af1158015610f79573d6000803e3d6000fd5b600160a060020a0384166127d05760405160e560020a62461bcd02815260040161058490614901565b60006127da611d0b565b90506127ec816000876118ad88612898565b6000848152606e60209081526040808320600160a060020a03891684529091529020546128199084611d43565b6000858152606e60209081526040808320600160a060020a03808b1680865291909352818420949094555190841690600080516020614b98833981519152906128659089908990614a0e565b60405180910390a4610f79816000878787876128dc565b60ae8054911515620100000262ff000019909216919091179055565b6040805160018082528183019092526060918291906020808301908036833701905050905082816000815181106128cb57fe5b602090810291909101015292915050565b6128ee84600160a060020a0316612fb4565b156109e75760405160e060020a63f23a6e61028152600160a060020a0385169063f23a6e619061292a9089908990889088908890600401613fde565b602060405180830381600087803b15801561294457600080fd5b505af1925050508015612974575060408051601f3d908101601f1916820190925261297191810190613d30565b60015b61298057611e0f614aa5565b600160e060020a0319811660e060020a63f23a6e610214611e885760405160e560020a62461bcd02815260040161058490614208565b60a08054600160a060020a031916600160a060020a0392909216919091179055565b60006129e330612fb4565b15905090565b600354610100900460ff1680612a025750612a026129d8565b80612a10575060035460ff16155b612a2f5760405160e560020a62461bcd0281526004016105849061462a565b600354610100900460ff16158015612a5a576003805460ff1961ff0019909116610100171660011790555b60028260ff1610612a805760405160e560020a62461bcd02815260040161058490614334565b60058054600160a060020a031916600160a060020a0385161760a060020a60ff02191660a060020a60ff8516021790558015610f7c576003805461ff0019169055505050565b600354610100900460ff1680612adf5750612adf6129d8565b80612aed575060035460ff16155b612b0c5760405160e560020a62461bcd0281526004016105849061462a565b600354610100900460ff16158015612b37576003805460ff1961ff0019909116610100171660011790555b612b4083613345565b612b4982613367565b612b5283613367565b600380546201000060b060020a03191662010000600160a060020a03858116919091029190911790915560048054600160a060020a0319169185169190911790558015610f7c576003805461ff0019169055505050565b600354610100900460ff1680612bc25750612bc26129d8565b80612bd0575060035460ff16155b612bef5760405160e560020a62461bcd0281526004016105849061462a565b600354610100900460ff16158015612c1a576003805460ff1961ff0019909116610100171660011790555b612c23826133b8565b612c2b613442565b612c336134cb565b80156107c3576003805461ff00191690555050565b80516107c39060b19060208401906138b6565b60a38054600160a060020a031916600160a060020a0392909216919091179055565b620f42408110612ca25760405160e560020a62461bcd02815260040161058490614885565b60a755565b620f42408110612ccc5760405160e560020a62461bcd0281526004016105849061476c565b60a455565b620f42408110612cf65760405160e560020a62461bcd02815260040161058490614714565b60a555565b620f42408110612d205760405160e560020a62461bcd02815260040161058490614367565b60a655565b620f42408110612d205760405160e560020a62461bcd028152600401610584906142b5565b60ab55565b60ac55565b60ac548110612d785760405160e560020a62461bcd028152600401610584906146a6565b60ad55565b60b28054600160a060020a031916600160a060020a0392909216919091179055565b6060600080600560009054906101000a9004600160a060020a0316600160a060020a0316630902f1ac6040518163ffffffff1660e060020a02815260040160606040518083038186803b158015612df557600080fd5b505afa158015612e09573d6000803e3d6000fd5b505050506040513d601f19601f82011682018060405250810190612e2d9190613dd6565b50915091506000826001607060020a0316826001607060020a031681612e4f57fe5b046001607060020a0316905060606002604051908082528060200260200182016040528015612e9857816020015b612e85613885565b815260200190600190039081612e7d5790505b5090506040518060a001604052806000880181526020016040518060400160405280600a815260200160b260020a691a1a59da195c97d89a590281525081526020018381526020016000800b8152602001600081525081600081518110612efb57fe5b602002602001018190525080600081518110612f1357fe5b6020026020010151600001516008819055506040518060a0016040528060018801815260200160405180604001604052806009815260200160ba60020a681b1bddd95c97d89a590281525081526020018381526020016000800b8152602001600081525081600181518110612f8457fe5b602002602001018190525080600081518110612f9c57fe5b60209081029190910101515160095595945050505050565b3b151590565b606061300f826040518060400160405280602081526020017f5361666545524332303a206c6f772d6c6576656c2063616c6c206661696c656481525085600160a060020a031661355c9092919063ffffffff16565b805190915015610f7c578080602001905181019061302d9190613cf8565b610f7c5760405160e560020a62461bcd028152600401610584906147ec565b60035460405160e060020a6370a08231028152600091620100009004600160a060020a0316906370a0823190613086903090600401613f2e565b60206040518083038186803b15801561309e57600080fd5b505afa1580156130b2573d6000803e3d6000fd5b505050506040513d601f19601f820116820180604052508101906130d69190613e42565b60035460405160e060020a632e1a7d4d028152919250620100009004600160a060020a031690632e1a7d4d906127799084906004016149cc565b60075460009060ff1661322657600080600560009054906101000a9004600160a060020a0316600160a060020a0316630902f1ac6040518163ffffffff1660e060020a02815260040160606040518083038186803b15801561317157600080fd5b505afa158015613185573d6000803e3d6000fd5b505050506040513d601f19601f820116820180604052508101906131a99190613dd6565b50600554919350915060a060020a900460ff166131ed57816001607060020a0316816001607060020a0316816131db57fe5b046001607060020a0316600655613216565b806001607060020a0316826001607060020a03168161320857fe5b046001607060020a03166006555b50506007805460ff191660011790555b600954825114156132505760065482604001511161324657600019613249565b60015b90506105d6565b60085482511415613271576006548260400151111561324657600019613249565b506000919050565b801580613304575060405160e160020a636eb1769f028152600160a060020a0384169063dd62ed3e906132b29030908690600401613f42565b60206040518083038186803b1580156132ca57600080fd5b505afa1580156132de573d6000803e3d6000fd5b505050506040513d601f19601f820116820180604052508101906133029190613e42565b155b6133235760405160e560020a62461bcd02815260040161058490614945565b610f7c8363095ea7b360e060020a028484604051602401611eb3929190614018565b60008054600160a060020a031916600160a060020a0392909216919091179055565b6001805480820182556000919091527fb10e2d527612073b26eecdfd717e6a320cf44b4afac2b0732d9fcbe2b7fa0cf6018054600160a060020a031916600160a060020a0392909216919091179055565b600354610100900460ff16806133d157506133d16129d8565b806133df575060035460ff16155b6133fe5760405160e560020a62461bcd0281526004016105849061462a565b600354610100900460ff16158015613429576003805460ff1961ff0019909116610100171660011790555b613431613573565b6134396135f8565b612c338261367c565b600354610100900460ff168061345b575061345b6129d8565b80613469575060035460ff16155b6134885760405160e560020a62461bcd0281526004016105849061462a565b600354610100900460ff161580156134b3576003805460ff1961ff0019909116610100171660011790555b4360a95580156119da576003805461ff001916905550565b600354610100900460ff16806134e457506134e46129d8565b806134f2575060035460ff16155b6135115760405160e560020a62461bcd0281526004016105849061462a565b600354610100900460ff1615801561353c576003805460ff1961ff0019909116610100171660011790555b60ae805462ffffff1916905580156119da576003805461ff001916905550565b606061356b848460008561371c565b949350505050565b600354610100900460ff168061358c575061358c6129d8565b8061359a575060035460ff16155b6135b95760405160e560020a62461bcd0281526004016105849061462a565b600354610100900460ff161580156135e4576003805460ff1961ff0019909116610100171660011790555b80156119da576003805461ff001916905550565b600354610100900460ff168061361157506136116129d8565b8061361f575060035460ff16155b61363e5760405160e560020a62461bcd0281526004016105849061462a565b600354610100900460ff16158015613669576003805460ff1961ff0019909116610100171660011790555b6135e460e060020a6301ffc9a7026137e4565b600354610100900460ff168061369557506136956129d8565b806136a3575060035460ff16155b6136c25760405160e560020a62461bcd0281526004016105849061462a565b600354610100900460ff161580156136ed576003805460ff1961ff0019909116610100171660011790555b6136f682613836565b61370960e160020a636cdb3d13026137e4565b612c3360e260020a6303a24d07026137e4565b606030318311156137425760405160e560020a62461bcd028152600401610584906144ef565b61374b85612fb4565b61376a5760405160e560020a62461bcd028152600401610584906146dd565b6000606086600160a060020a031685876040516137879190613f12565b60006040518083038185875af1925050503d80600081146137c4576040519150601f19603f3d011682016040523d82523d6000602084013e6137c9565b606091505b50915091506137d9828286613849565b979650505050505050565b600160e060020a031980821614156138115760405160e560020a62461bcd02815260040161058490614399565b600160e060020a0319166000908152603c60205260409020805460ff19166001179055565b80516107c39060709060208401906138b6565b60608315613858575081611d3c565b8251156138685782518084602001fd5b8160405160e560020a62461bcd028152600401610584919061416c565b6040518060a001604052806000815260200160608152602001600081526020016000800b8152602001600081525090565b828054600181600116156101000203166002900490600052602060002090601f016020900481019282601f106138f757805160ff1916838001178555613924565b82800160010185558215613924579182015b82811115613924578251825591602001919060010190613909565b50613930929150613934565b5090565b5b808211156139305760008155600101613935565b8035600160a060020a03811681146105b257600080fd5b600082601f830112613970578081fd5b813561398361397e82614a50565b614a2a565b8181529150602080830190848101818402860182018710156139a457600080fd5b60005b848110156139c3578135845292820192908201906001016139a7565b505050505092915050565b600082601f8301126139de578081fd5b81356001604060020a038111156139f3578182fd5b613a06601f8201601f1916602001614a2a565b9150808252836020828501011115613a1d57600080fd5b8060208401602084013760009082016020015292915050565b600060208284031215613a47578081fd5b611d3c8383613949565b60008060408385031215613a63578081fd5b613a6d8484613949565b9150613a7c8460208501613949565b90509250929050565b600080600080600060a08688031215613a9c578081fd5b8535613aa781614b49565b94506020860135613ab781614b49565b935060408601356001604060020a0380821115613ad2578283fd5b613ade89838a01613960565b94506060880135915080821115613af3578283fd5b613aff89838a01613960565b93506080880135915080821115613b14578283fd5b50613b21888289016139ce565b9150509295509295909350565b600080600080600060a08688031215613b45578081fd5b613b4f8787613949565b9450613b5e8760208801613949565b9350604086013592506060860135915060808601356001604060020a03811115613b86578182fd5b613b21888289016139ce565b60008060408385031215613ba4578182fd5b613bae8484613949565b91506020830135613bbe81614b5e565b809150509250929050565b60008060408385031215613bdb578182fd5b613be58484613949565b946020939093013593505050565b60008060408385031215613c05578182fd5b82356001604060020a0380821115613c1b578384fd5b818501915085601f830112613c2e578384fd5b8135613c3c61397e82614a50565b80828252602080830192508086018a828387028901011115613c5c578889fd5b8896505b84871015613c8657613c728b82613949565b845260019690960195928101928101613c60565b509096508701359350505080821115613c9d578283fd5b50613caa85828601613960565b9150509250929050565b60008060408385031215613cc6578182fd5b82356001604060020a03811115613cdb578283fd5b613ce785828601613960565b9250506020830135613bbe81614b5e565b600060208284031215613d09578081fd5b8151611d3c81614b5e565b600060208284031215613d25578081fd5b8135611d3c81614b6c565b600060208284031215613d41578081fd5b8151611d3c81614b6c565b600080600080600080600060e0888a031215613d66578485fd5b87356001604060020a03811115613d7b578586fd5b613d878a828b016139ce565b975050613d978960208a01613949565b9550613da68960408a01613949565b9450613db58960608a01613949565b9699959850939660808101359560a0820135955060c0909101359350915050565b600080600060608486031215613dea578081fd5b8351613df581614b82565b6020850151909350613e0681614b82565b604085015190925063ffffffff81168114613e1f578182fd5b809150509250925092565b600060208284031215613e3b578081fd5b5035919050565b600060208284031215613e53578081fd5b5051919050565b60008060408385031215613e6c578182fd5b50508035926020909101359150565b6000815180845260208085019450808401835b83811015613eac578151850b87529582019590820190600101613e8e565b509495945050505050565b6000815180845260208085019450808401835b83811015613eac57815187529582019590820190600101613eca565b60008151808452613efe816020860160208601614a6f565b601f01601f19169290920160200192915050565b60008251613f24818460208701614a6f565b9190910192915050565b600160a060020a0391909116815260200190565b600160a060020a0392831681529116602082015260400190565b600160a060020a0386811682528516602082015260a060408201819052600090613f8890830186613eb7565b8281036060840152613f9a8186613eb7565b90508281036080840152613fae8185613ee6565b98975050505050505050565b600160a060020a039384168152919092166020820152604081019190915260600190565b600160a060020a03868116825285166020820152604081018490526060810183905260a0608082018190526000906137d990830184613ee6565b600160a060020a03929092168252602082015260400190565b6020808252825182820181905260009190848201906040850190845b81811015614072578351600160a060020a03168352928401929184019160010161404d565b50909695505050505050565b600060208252611d3c6020830184613eb7565b600060a082526140a460a0830188613eb7565b6020838203818501528188516140ba81856149cc565b91508193508281028201838b01865b838110156140f35786830385526140e1838351613ee6565b948601949250908501906001016140c9565b50508681036040880152614107818b613eb7565b945050505050828103606084015261411f8186613e7b565b90508281036080840152613fae8185613eb7565b6000604082526141466040830185613eb7565b82810360208401526141588185613eb7565b95945050505050565b901515815260200190565b600060208252611d3c6020830184613ee6565b6020808252601590820152605860020a747573656c6573735f7a65726f5f776974686472617702604082015260600190565b60208082526034908201527f455243313135353a207472616e7366657220746f206e6f6e20455243313135356040820152606160020a732932b1b2b4bb32b91034b6b83632b6b2b73a32b902606082015260800190565b60208082526028908201527f455243313135353a204552433131353552656365697665722072656a65637465604082015260c060020a676420746f6b656e7302606082015260800190565b6020808252601490820152606260020a731bdc1d1a5bdb97db9bdd17d99a5b985b1a5e995902604082015260600190565b6020808252601490820152606260020a7318d85b9b9bdd17d99d5b9917d8dbdb9d1c9858dd02604082015260600190565b6020808252601490820152606360020a730d8dee6cae4bee6d0c2e4cabee8dedebed0d2ced02604082015260600190565b6020808252602b908201527f455243313135353a2062616c616e636520717565727920666f7220746865207a604082015260a860020a6a65726f206164647265737302606082015260800190565b6020808252601690820152605160020a7534b73b30b634b22fb0b9b9b2ba2fb837b9b4ba34b7b702604082015260600190565b6020808252601590820152605b60020a740c6d8dee6cae4bee6d0c2e4cabee8dedebed0d2ced02604082015260600190565b6020808252601c908201527f4552433136353a20696e76616c696420696e7465726661636520696400000000604082015260600190565b6020808252601a908201527f616d6f756e745f6869676865725f7468616e5f6465706f736974000000000000604082015260600190565b6020808252601690820152605060020a756f7074696f6e5f62616c616e63655f746f6f5f6c6f7702604082015260600190565b6020808252601b908201527f536166654d6174683a206164646974696f6e206f766572666c6f770000000000604082015260600190565b6020808252601590820152605a60020a7418d85b9b9bdd17d8db1bdcd957d8dbdb9d1c9858dd02604082015260600190565b60208082526029908201527f455243313135353a2063616c6c6572206973206e6f74206f776e6572206e6f72604082015260ba60020a6808185c1c1c9bdd995902606082015260800190565b60208082526026908201527f416464726573733a20696e73756666696369656e742062616c616e636520666f604082015260d260020a651c8818d85b1b02606082015260800190565b6020808252600b9082015260a860020a6a6e6f5f6561726e696e677302604082015260600190565b60208082526025908201527f455243313135353a207472616e7366657220746f20746865207a65726f206164604082015260d860020a64647265737302606082015260800190565b60208082526032908201527f455243313135353a207472616e736665722063616c6c6572206973206e6f74206040820152607260020a711bdddb995c881b9bdc88185c1c1c9bdd995902606082015260800190565b6020808252601090820152608260020a6f1c9bdd5b9917db9bdd17d8db1bdcd95902604082015260600190565b6020808252602e908201527f496e697469616c697a61626c653a20636f6e747261637420697320616c7265616040820152609260020a6d191e481a5b9a5d1a585b1a5e995902606082015260800190565b6020808252600e90820152609160020a6d3ab735b737bbb72fb7b83a34b7b702604082015260600190565b6020808252601c908201527f706f73745f66756e64696e675f657863656564735f72756e74696d6500000000604082015260600190565b6020808252601d908201527f416464726573733a2063616c6c20746f206e6f6e2d636f6e7472616374000000604082015260600190565b6020808252601590820152605b60020a740e4eadcdccae4bee6d0c2e4cabee8dedebed0d2ced02604082015260600190565b602080825260099082015260b960020a683737ba2fb7bbb732b902604082015260600190565b6020808252601790820152604b60020a760d8c2eadcc6d0cae4bee6d0c2e4cabee8dedebed0d2ced02604082015260600190565b60208082526029908201527f455243313135353a2073657474696e6720617070726f76616c20737461747573604082015260b960020a68103337b91039b2b63302606082015260800190565b6020808252602a908201527f5361666545524332303a204552433230206f7065726174696f6e20646964206e604082015260b260020a691bdd081cdd58d8d9595902606082015260800190565b60208082526029908201527f455243313135353a206163636f756e747320616e6420696473206c656e677468604082015260bb60020a68040dad2e6dac2e8c6d02606082015260800190565b6020808252601490820152606360020a730deeedccae4bee6d0c2e4cabee8dedebed0d2ced02604082015260600190565b60208082526028908201527f455243313135353a2069647320616e6420616d6f756e7473206c656e67746820604082015260c360020a670dad2e6dac2e8c6d02606082015260800190565b60208082526021908201527f455243313135353a206d696e7420746f20746865207a65726f20616464726573604082015260f860020a607302606082015260800190565b60208082526036908201527f5361666545524332303a20617070726f76652066726f6d206e6f6e2d7a65726f6040820152605060020a7520746f206e6f6e2d7a65726f20616c6c6f77616e636502606082015260800190565b6020808252601190820152607a60020a701c9bdd5b9917db9bdd17dcdd185c9d195902604082015260600190565b90815260200190565b600086825260a060208301526149ee60a0830187613ee6565b60408301959095525060009290920b606083015260809091015292915050565b918252602082015260400190565b60ff91909116815260200190565b6040518181016001604060020a0381118282101715614a4857600080fd5b604052919050565b60006001604060020a03821115614a65578081fd5b5060209081020190565b60005b83811015614a8a578181015183820152602001614a72565b838111156126905750506000910152565b60e060020a900490565b600060443d1015614ab557610ae7565b600481823e6308c379a0614ac98251614a9b565b14614ad357610ae7565b6040513d600319016004823e80513d6001604060020a038083116024840183101715614b025750505050610ae7565b82840192508251915080821115614b1c5750505050610ae7565b503d83016020828401011115614b3457505050610ae7565b601f01601f1916810160200160405291505090565b600160a060020a03811681146119da57600080fd5b80151581146119da57600080fd5b600160e060020a0319811681146119da57600080fd5b6001607060020a03811681146119da57600080fdfec3d58168c5ae7397731d063d5bbf3d657854427343f4c083240f7aacaa2d0f62455243313135353a20696e73756666696369656e742062616c616e636520666f72207472616e73666572a2646970667358221220b15c36ed393a4f8ad0d4a786e56bca5a7ffa6350f0cbbb25d75af21080463cfe64736f6c634300060c0033",
  "immutableReferences": {},
  "source": "// SPDX-License-Identifier: MIT\npragma solidity >=0.6.0 <0.8.0;\npragma experimental ABIEncoderV2;\n\nimport \"@openzeppelin/contracts/token/ERC20/ERC20.sol\";\nimport \"@openzeppelin/contracts/math/Math.sol\";\nimport \"@openzeppelin/contracts/math/SafeMath.sol\";\nimport \"@openzeppelin/contracts/token/ERC20/SafeERC20.sol\";\nimport \"@openzeppelin/contracts-upgradeable/proxy/Initializable.sol\";\n\nimport \"../yield/YDaiYieldProvider.sol\";\nimport \"../result/BinaryUniswapPrice.sol\";\nimport \"../kuko_v1/KukoV1.sol\";\n\ncontract KukoEthPriceGamble is Initializable, YDaiYieldProvider, BinaryUniswapPrice, KukoV1 {\n    using SafeERC20 for IERC20;\n    using Address for address;\n    using SafeMath for uint256;\n\n    mapping(address => uint256) private deposits;\n    uint256 private totalDeposits;\n    uint256 private finalEarnings;\n    uint256 private winnerShares;\n    uint256 private loserShares;\n    uint256 private _totalShares;\n\n    ///@notice Hi test\n    ///@param name Name of the contract\n    // solhint-disable-next-line\n    function __KukoEthPriceGamble__init(\n        string memory name,\n        address inputToken,\n        address vaultAddress,\n        address uniswapPairAddress,\n        uint256 fundingPeriod,\n        uint256 runningPeriod,\n        uint256 weightedFundingPeriod\n    ) public initializer {\n        __BinaryUniswapPrice__init(uniswapPairAddress, 1);\n        __YDaiYieldProvider__init(inputToken, vaultAddress);\n        __KukoV1_init(\"https://uri.com\");\n        _setName(name);\n\n        _setOwner(msg.sender);\n\n        _setOwnerShare(20000);\n        _setLauncherShare(3300);\n        _setRunnerShare(3300);\n        _setCloserShare(3300);\n        _setLoserShare(200000);\n\n        _setFundingPhaseBlockLength(fundingPeriod);\n        _setRunningPhaseBlockLength(runningPeriod);\n        _setPostFundingPhaseBlockLength(weightedFundingPeriod);\n\n        _setToken(inputToken);\n\n        KukoOptionV1[] memory generatedOptions = _initialize(0);\n        options.push(generatedOptions[0]);\n        optionIds[generatedOptions[0].id] = 1;\n        options.push(generatedOptions[1]);\n        optionIds[generatedOptions[1].id] = 2;\n    }\n\n    function _onStart() internal override {\n        _invest();\n    }\n\n    function _onClose() internal override {\n        _retrieve();\n\n        finalEarnings = token.balanceOf(address(this));\n\n        uint256 ownerReward = (finalEarnings * ownerShare) / 1000000;\n        uint256 launcherReward = (finalEarnings * launcherShare) / 1000000;\n        uint256 runnerReward = (finalEarnings * runnerShare) / 1000000;\n        uint256 closerReward = (finalEarnings * closerShare) / 1000000;\n\n        finalEarnings -= (ownerReward + launcherReward + runnerReward + closerReward);\n\n        options[0].finalized = _resolve(options[0]);\n        options[1].finalized = _resolve(options[1]);\n\n        if (options[0].finalized == 1) {\n            winnerShares += options[0].shares;\n        } else if (options[0].finalized == -1) {\n            loserShares += options[0].shares;\n        }\n\n        if (options[1].finalized == 1) {\n            winnerShares += options[1].shares;\n        } else if (options[1].finalized == -1) {\n            loserShares += options[1].shares;\n        }\n\n        token.transfer(owner, ownerReward);\n        token.transfer(launcher, launcherReward);\n        token.transfer(runner, runnerReward);\n        token.transfer(closer, closerReward);\n\n    }\n\n    function deposit(uint256 _option, uint256 _amount) public override isDepositable {\n        require(optionIds[_option] != 0, \"unknown_option\");\n        token.safeTransferFrom(msg.sender, address(this), _amount);\n        if (running) {\n            _invest();\n            uint256 progress = block.number - runBlock;\n            _mint(msg.sender, _option, _amount - ((_amount * progress) / runningPhaseBlockLength), \"\");\n            options[optionIds[_option]].shares += _amount - ((_amount * progress) / runningPhaseBlockLength);\n            _totalShares += _amount - ((_amount * progress) / runningPhaseBlockLength);\n        } else {\n            _mint(msg.sender, _option, _amount, \"\");\n            options[optionIds[_option] - 1].shares += _amount;\n            _totalShares += _amount;\n        }\n        deposits[msg.sender] += _amount;\n        totalDeposits += _amount;\n    }\n\n    function withdraw(uint256 _option, uint256 amount) public override isClosed {\n        require(finalEarnings > totalDeposits, \"no_earnings\");\n        require(optionIds[_option] != 0, \"unknown_option\");\n        require(balanceOf(msg.sender, _option) >= amount, \"option_balance_too_low\");\n        KukoOptionV1 memory option = options[optionIds[_option] - 1];\n        require(option.finalized != 0, \"option_not_finalized\");\n\n        if (option.finalized == 1) {\n            uint256 loserBenefits = (finalEarnings - totalDeposits) * (loserShares / (loserShares + winnerShares));\n            uint256 loserTax = loserBenefits * (amount / winnerShares) * ((1000000 - loserShare) / 1000000);\n\n            uint256 benefits = (finalEarnings - totalDeposits) * (winnerShares / (loserShares + winnerShares));\n            uint256 winnerCut = benefits * (amount / winnerShares);\n            token.safeTransfer(msg.sender, winnerCut + loserTax);\n        } else if (option.finalized == -1) {\n            uint256 benefits = (finalEarnings - totalDeposits) * (loserShares / (loserShares + winnerShares));\n            uint256 withdrawAmount = benefits * (amount / loserShares) * (loserShare / 1000000);\n            token.safeTransfer(msg.sender, withdrawAmount);\n        }\n    }\n\n    function withdrawBatch(uint256[] memory options, bool withDeposit) public override {\n        for (uint256 idx = 0; idx < options.length; ++idx) {\n            uint256 optionBalance = balanceOf(msg.sender, options[idx]);\n            withdraw(options[idx], optionBalance);\n        }\n        if (withDeposit && deposits[msg.sender] > 0) {\n            withdrawDeposit(deposits[msg.sender]);\n        }\n    }\n\n    function withdrawDeposit(uint256 amount) public override isClosed {\n        require(amount > 0, \"useless_zero_withdraw\");\n        require(deposits[msg.sender] >= amount, \"amount_higher_than_deposit\");\n        token.safeTransfer(\n            msg.sender,\n            finalEarnings >= totalDeposits ? amount : (finalEarnings / totalDeposits) * amount\n        );\n        deposits[msg.sender] -= amount;\n    }\n\n    function depositOf(address owner) external view override returns (uint256) {\n        return deposits[owner];\n    }\n\n    function sharesOf(address owner) external view override returns (uint256) {\n        uint256 sharesCount = 0;\n        for (uint256 idx = 0; idx < options.length; ++idx) {\n            sharesCount += balanceOf(owner, options[idx].id);\n        }\n        return sharesCount;\n    }\n\n    function totalDeposit() external view override returns (uint256) {\n        return totalDeposits;\n    }\n\n    function totalFunds() external view override returns (uint256) {\n        return _totalFunds();\n    }\n\n    function totalShares() external view override returns (uint256) {\n        return _totalShares;\n    }\n}\n",
  "sourcePath": "/Users/mortimr/projects/kuko-finance/contracts/contracts/kuko_instances/KukoEthPriceGamble.sol",
  "compiler": {
    "name": "solc",
    "version": "0.6.12+commit.27d51765.Emscripten.clang"
  },
  "schemaVersion": "3.3.3",
  "updatedAt": "2021-02-09T17:09:51.065Z",
  "networkType": "ethereum",
  "devdoc": {
    "kind": "dev",
    "methods": {
      "__KukoEthPriceGamble__init(string,address,address,address,uint256,uint256,uint256)": {
        "params": {
          "name": "Name of the contract"
        }
      },
      "balanceOf(address,uint256)": {
        "details": "See {IERC1155-balanceOf}. Requirements: - `account` cannot be the zero address."
      },
      "balanceOfBatch(address[],uint256[])": {
        "details": "See {IERC1155-balanceOfBatch}. Requirements: - `accounts` and `ids` must have the same length."
      },
      "getOptions()": {
        "returns": {
          "_0": "Serialized options"
        }
      },
      "isApprovedForAll(address,address)": {
        "details": "See {IERC1155-isApprovedForAll}."
      },
      "safeBatchTransferFrom(address,address,uint256[],uint256[],bytes)": {
        "details": "See {IERC1155-safeBatchTransferFrom}."
      },
      "safeTransferFrom(address,address,uint256,uint256,bytes)": {
        "details": "See {IERC1155-safeTransferFrom}."
      },
      "setApprovalForAll(address,bool)": {
        "details": "See {IERC1155-setApprovalForAll}."
      },
      "supportsInterface(bytes4)": {
        "details": "See {IERC165-supportsInterface}. Time complexity O(1), guaranteed to always use less than 30 000 gas."
      },
      "uri(uint256)": {
        "details": "See {IERC1155MetadataURI-uri}. This implementation returns the same URI for *all* token types. It relies on the token type ID substitution mechanism https://eips.ethereum.org/EIPS/eip-1155#metadata[defined in the EIP]. Clients calling this function must replace the `\\{id\\}` substring with the actual token type ID."
      }
    },
    "version": 1
  },
  "userdoc": {
    "kind": "user",
    "methods": {
      "__KukoEthPriceGamble__init(string,address,address,address,uint256,uint256,uint256)": {
        "notice": "Hi test"
      },
      "getInputToken()": {
        "notice": "Retrieve input token address"
      },
      "getOutputTokens()": {
        "notice": "Retrieve output token addresses"
      },
      "getYieldTokens()": {
        "notice": "Retrieve yield token addresses"
      }
    },
    "version": 1
  }
}