{
  "contractName": "KukoEthPriceGamble",
  "abi": [
    {
      "anonymous": false,
      "inputs": [
        {
          "indexed": true,
          "internalType": "address",
          "name": "account",
          "type": "address"
        },
        {
          "indexed": true,
          "internalType": "address",
          "name": "operator",
          "type": "address"
        },
        {
          "indexed": false,
          "internalType": "bool",
          "name": "approved",
          "type": "bool"
        }
      ],
      "name": "ApprovalForAll",
      "type": "event"
    },
    {
      "anonymous": false,
      "inputs": [
        {
          "indexed": true,
          "internalType": "address",
          "name": "operator",
          "type": "address"
        },
        {
          "indexed": true,
          "internalType": "address",
          "name": "from",
          "type": "address"
        },
        {
          "indexed": true,
          "internalType": "address",
          "name": "to",
          "type": "address"
        },
        {
          "indexed": false,
          "internalType": "uint256[]",
          "name": "ids",
          "type": "uint256[]"
        },
        {
          "indexed": false,
          "internalType": "uint256[]",
          "name": "values",
          "type": "uint256[]"
        }
      ],
      "name": "TransferBatch",
      "type": "event"
    },
    {
      "anonymous": false,
      "inputs": [
        {
          "indexed": true,
          "internalType": "address",
          "name": "operator",
          "type": "address"
        },
        {
          "indexed": true,
          "internalType": "address",
          "name": "from",
          "type": "address"
        },
        {
          "indexed": true,
          "internalType": "address",
          "name": "to",
          "type": "address"
        },
        {
          "indexed": false,
          "internalType": "uint256",
          "name": "id",
          "type": "uint256"
        },
        {
          "indexed": false,
          "internalType": "uint256",
          "name": "value",
          "type": "uint256"
        }
      ],
      "name": "TransferSingle",
      "type": "event"
    },
    {
      "anonymous": false,
      "inputs": [
        {
          "indexed": false,
          "internalType": "string",
          "name": "value",
          "type": "string"
        },
        {
          "indexed": true,
          "internalType": "uint256",
          "name": "id",
          "type": "uint256"
        }
      ],
      "name": "URI",
      "type": "event"
    },
    {
      "inputs": [],
      "name": "HIGHER_BID_ID",
      "outputs": [
        {
          "internalType": "uint256",
          "name": "",
          "type": "uint256"
        }
      ],
      "stateMutability": "view",
      "type": "function",
      "constant": true
    },
    {
      "inputs": [],
      "name": "LOWER_BID_ID",
      "outputs": [
        {
          "internalType": "uint256",
          "name": "",
          "type": "uint256"
        }
      ],
      "stateMutability": "view",
      "type": "function",
      "constant": true
    },
    {
      "inputs": [],
      "name": "asset",
      "outputs": [
        {
          "internalType": "uint8",
          "name": "",
          "type": "uint8"
        }
      ],
      "stateMutability": "view",
      "type": "function",
      "constant": true
    },
    {
      "inputs": [
        {
          "internalType": "address",
          "name": "account",
          "type": "address"
        },
        {
          "internalType": "uint256",
          "name": "id",
          "type": "uint256"
        }
      ],
      "name": "balanceOf",
      "outputs": [
        {
          "internalType": "uint256",
          "name": "",
          "type": "uint256"
        }
      ],
      "stateMutability": "view",
      "type": "function",
      "constant": true
    },
    {
      "inputs": [
        {
          "internalType": "address[]",
          "name": "accounts",
          "type": "address[]"
        },
        {
          "internalType": "uint256[]",
          "name": "ids",
          "type": "uint256[]"
        }
      ],
      "name": "balanceOfBatch",
      "outputs": [
        {
          "internalType": "uint256[]",
          "name": "",
          "type": "uint256[]"
        }
      ],
      "stateMutability": "view",
      "type": "function",
      "constant": true
    },
    {
      "inputs": [],
      "name": "cancel",
      "outputs": [],
      "stateMutability": "nonpayable",
      "type": "function"
    },
    {
      "inputs": [],
      "name": "cancelled",
      "outputs": [
        {
          "internalType": "bool",
          "name": "",
          "type": "bool"
        }
      ],
      "stateMutability": "view",
      "type": "function",
      "constant": true
    },
    {
      "inputs": [],
      "name": "close",
      "outputs": [],
      "stateMutability": "nonpayable",
      "type": "function"
    },
    {
      "inputs": [],
      "name": "closePrice",
      "outputs": [
        {
          "internalType": "uint256",
          "name": "",
          "type": "uint256"
        }
      ],
      "stateMutability": "view",
      "type": "function",
      "constant": true
    },
    {
      "inputs": [],
      "name": "closed",
      "outputs": [
        {
          "internalType": "bool",
          "name": "",
          "type": "bool"
        }
      ],
      "stateMutability": "view",
      "type": "function",
      "constant": true
    },
    {
      "inputs": [],
      "name": "closer",
      "outputs": [
        {
          "internalType": "address",
          "name": "",
          "type": "address"
        }
      ],
      "stateMutability": "view",
      "type": "function",
      "constant": true
    },
    {
      "inputs": [],
      "name": "closerShare",
      "outputs": [
        {
          "internalType": "uint256",
          "name": "",
          "type": "uint256"
        }
      ],
      "stateMutability": "view",
      "type": "function",
      "constant": true
    },
    {
      "inputs": [],
      "name": "fundingPhaseBlockLength",
      "outputs": [
        {
          "internalType": "uint256",
          "name": "",
          "type": "uint256"
        }
      ],
      "stateMutability": "view",
      "type": "function",
      "constant": true
    },
    {
      "inputs": [],
      "name": "getInputToken",
      "outputs": [
        {
          "internalType": "address",
          "name": "",
          "type": "address"
        }
      ],
      "stateMutability": "view",
      "type": "function",
      "constant": true
    },
    {
      "inputs": [],
      "name": "getOptions",
      "outputs": [
        {
          "internalType": "uint256[]",
          "name": "",
          "type": "uint256[]"
        },
        {
          "internalType": "string[]",
          "name": "",
          "type": "string[]"
        },
        {
          "internalType": "uint256[]",
          "name": "",
          "type": "uint256[]"
        },
        {
          "internalType": "int8[]",
          "name": "",
          "type": "int8[]"
        },
        {
          "internalType": "uint256[]",
          "name": "",
          "type": "uint256[]"
        }
      ],
      "stateMutability": "view",
      "type": "function",
      "constant": true
    },
    {
      "inputs": [],
      "name": "getOutputTokens",
      "outputs": [
        {
          "internalType": "address[]",
          "name": "",
          "type": "address[]"
        }
      ],
      "stateMutability": "view",
      "type": "function",
      "constant": true
    },
    {
      "inputs": [],
      "name": "getYieldTokens",
      "outputs": [
        {
          "internalType": "address[]",
          "name": "",
          "type": "address[]"
        }
      ],
      "stateMutability": "view",
      "type": "function",
      "constant": true
    },
    {
      "inputs": [],
      "name": "higherRealId",
      "outputs": [
        {
          "internalType": "uint256",
          "name": "",
          "type": "uint256"
        }
      ],
      "stateMutability": "view",
      "type": "function",
      "constant": true
    },
    {
      "inputs": [
        {
          "internalType": "address",
          "name": "account",
          "type": "address"
        },
        {
          "internalType": "address",
          "name": "operator",
          "type": "address"
        }
      ],
      "name": "isApprovedForAll",
      "outputs": [
        {
          "internalType": "bool",
          "name": "",
          "type": "bool"
        }
      ],
      "stateMutability": "view",
      "type": "function",
      "constant": true
    },
    {
      "inputs": [],
      "name": "launcher",
      "outputs": [
        {
          "internalType": "address",
          "name": "",
          "type": "address"
        }
      ],
      "stateMutability": "view",
      "type": "function",
      "constant": true
    },
    {
      "inputs": [],
      "name": "launcherShare",
      "outputs": [
        {
          "internalType": "uint256",
          "name": "",
          "type": "uint256"
        }
      ],
      "stateMutability": "view",
      "type": "function",
      "constant": true
    },
    {
      "inputs": [],
      "name": "loserShare",
      "outputs": [
        {
          "internalType": "uint256",
          "name": "",
          "type": "uint256"
        }
      ],
      "stateMutability": "view",
      "type": "function",
      "constant": true
    },
    {
      "inputs": [],
      "name": "lowerRealId",
      "outputs": [
        {
          "internalType": "uint256",
          "name": "",
          "type": "uint256"
        }
      ],
      "stateMutability": "view",
      "type": "function",
      "constant": true
    },
    {
      "inputs": [],
      "name": "name",
      "outputs": [
        {
          "internalType": "string",
          "name": "",
          "type": "string"
        }
      ],
      "stateMutability": "view",
      "type": "function",
      "constant": true
    },
    {
      "inputs": [
        {
          "internalType": "uint256",
          "name": "",
          "type": "uint256"
        }
      ],
      "name": "options",
      "outputs": [
        {
          "internalType": "uint256",
          "name": "id",
          "type": "uint256"
        },
        {
          "internalType": "string",
          "name": "name",
          "type": "string"
        },
        {
          "internalType": "uint256",
          "name": "keyValue",
          "type": "uint256"
        },
        {
          "internalType": "int8",
          "name": "finalized",
          "type": "int8"
        },
        {
          "internalType": "uint256",
          "name": "shares",
          "type": "uint256"
        }
      ],
      "stateMutability": "view",
      "type": "function",
      "constant": true
    },
    {
      "inputs": [],
      "name": "owner",
      "outputs": [
        {
          "internalType": "address",
          "name": "",
          "type": "address"
        }
      ],
      "stateMutability": "view",
      "type": "function",
      "constant": true
    },
    {
      "inputs": [],
      "name": "ownerShare",
      "outputs": [
        {
          "internalType": "uint256",
          "name": "",
          "type": "uint256"
        }
      ],
      "stateMutability": "view",
      "type": "function",
      "constant": true
    },
    {
      "inputs": [],
      "name": "postFundingPhaseBlockLength",
      "outputs": [
        {
          "internalType": "uint256",
          "name": "",
          "type": "uint256"
        }
      ],
      "stateMutability": "view",
      "type": "function",
      "constant": true
    },
    {
      "inputs": [],
      "name": "resolved",
      "outputs": [
        {
          "internalType": "bool",
          "name": "",
          "type": "bool"
        }
      ],
      "stateMutability": "view",
      "type": "function",
      "constant": true
    },
    {
      "inputs": [],
      "name": "runBlock",
      "outputs": [
        {
          "internalType": "uint256",
          "name": "",
          "type": "uint256"
        }
      ],
      "stateMutability": "view",
      "type": "function",
      "constant": true
    },
    {
      "inputs": [],
      "name": "runner",
      "outputs": [
        {
          "internalType": "address",
          "name": "",
          "type": "address"
        }
      ],
      "stateMutability": "view",
      "type": "function",
      "constant": true
    },
    {
      "inputs": [],
      "name": "runnerShare",
      "outputs": [
        {
          "internalType": "uint256",
          "name": "",
          "type": "uint256"
        }
      ],
      "stateMutability": "view",
      "type": "function",
      "constant": true
    },
    {
      "inputs": [],
      "name": "running",
      "outputs": [
        {
          "internalType": "bool",
          "name": "",
          "type": "bool"
        }
      ],
      "stateMutability": "view",
      "type": "function",
      "constant": true
    },
    {
      "inputs": [],
      "name": "runningPhaseBlockLength",
      "outputs": [
        {
          "internalType": "uint256",
          "name": "",
          "type": "uint256"
        }
      ],
      "stateMutability": "view",
      "type": "function",
      "constant": true
    },
    {
      "inputs": [
        {
          "internalType": "address",
          "name": "from",
          "type": "address"
        },
        {
          "internalType": "address",
          "name": "to",
          "type": "address"
        },
        {
          "internalType": "uint256[]",
          "name": "ids",
          "type": "uint256[]"
        },
        {
          "internalType": "uint256[]",
          "name": "amounts",
          "type": "uint256[]"
        },
        {
          "internalType": "bytes",
          "name": "data",
          "type": "bytes"
        }
      ],
      "name": "safeBatchTransferFrom",
      "outputs": [],
      "stateMutability": "nonpayable",
      "type": "function"
    },
    {
      "inputs": [
        {
          "internalType": "address",
          "name": "from",
          "type": "address"
        },
        {
          "internalType": "address",
          "name": "to",
          "type": "address"
        },
        {
          "internalType": "uint256",
          "name": "id",
          "type": "uint256"
        },
        {
          "internalType": "uint256",
          "name": "amount",
          "type": "uint256"
        },
        {
          "internalType": "bytes",
          "name": "data",
          "type": "bytes"
        }
      ],
      "name": "safeTransferFrom",
      "outputs": [],
      "stateMutability": "nonpayable",
      "type": "function"
    },
    {
      "inputs": [
        {
          "internalType": "address",
          "name": "operator",
          "type": "address"
        },
        {
          "internalType": "bool",
          "name": "approved",
          "type": "bool"
        }
      ],
      "name": "setApprovalForAll",
      "outputs": [],
      "stateMutability": "nonpayable",
      "type": "function"
    },
    {
      "inputs": [],
      "name": "start",
      "outputs": [],
      "stateMutability": "nonpayable",
      "type": "function"
    },
    {
      "inputs": [],
      "name": "startBlock",
      "outputs": [
        {
          "internalType": "uint256",
          "name": "",
          "type": "uint256"
        }
      ],
      "stateMutability": "view",
      "type": "function",
      "constant": true
    },
    {
      "inputs": [
        {
          "internalType": "bytes4",
          "name": "interfaceId",
          "type": "bytes4"
        }
      ],
      "name": "supportsInterface",
      "outputs": [
        {
          "internalType": "bool",
          "name": "",
          "type": "bool"
        }
      ],
      "stateMutability": "view",
      "type": "function",
      "constant": true
    },
    {
      "inputs": [],
      "name": "token",
      "outputs": [
        {
          "internalType": "contract IERC20",
          "name": "",
          "type": "address"
        }
      ],
      "stateMutability": "view",
      "type": "function",
      "constant": true
    },
    {
      "inputs": [
        {
          "internalType": "uint256",
          "name": "",
          "type": "uint256"
        }
      ],
      "name": "uri",
      "outputs": [
        {
          "internalType": "string",
          "name": "",
          "type": "string"
        }
      ],
      "stateMutability": "view",
      "type": "function",
      "constant": true
    },
    {
      "inputs": [
        {
          "internalType": "string",
          "name": "name",
          "type": "string"
        },
        {
          "internalType": "address",
          "name": "inputToken",
          "type": "address"
        },
        {
          "internalType": "address",
          "name": "vaultAddress",
          "type": "address"
        },
        {
          "internalType": "address",
          "name": "uniswapPairAddress",
          "type": "address"
        },
        {
          "internalType": "uint256",
          "name": "fundingPeriod",
          "type": "uint256"
        },
        {
          "internalType": "uint256",
          "name": "runningPeriod",
          "type": "uint256"
        },
        {
          "internalType": "uint256",
          "name": "weightedFundingPeriod",
          "type": "uint256"
        }
      ],
      "name": "__KukoEthPriceGamble__init",
      "outputs": [],
      "stateMutability": "nonpayable",
      "type": "function"
    },
    {
      "inputs": [
        {
          "internalType": "uint256",
          "name": "_option",
          "type": "uint256"
        },
        {
          "internalType": "uint256",
          "name": "_amount",
          "type": "uint256"
        }
      ],
      "name": "deposit",
      "outputs": [],
      "stateMutability": "nonpayable",
      "type": "function"
    },
    {
      "inputs": [
        {
          "internalType": "uint256",
          "name": "_option",
          "type": "uint256"
        },
        {
          "internalType": "uint256",
          "name": "amount",
          "type": "uint256"
        }
      ],
      "name": "withdraw",
      "outputs": [],
      "stateMutability": "nonpayable",
      "type": "function"
    },
    {
      "inputs": [
        {
          "internalType": "uint256[]",
          "name": "options",
          "type": "uint256[]"
        },
        {
          "internalType": "bool",
          "name": "withDeposit",
          "type": "bool"
        }
      ],
      "name": "withdrawBatch",
      "outputs": [],
      "stateMutability": "nonpayable",
      "type": "function"
    },
    {
      "inputs": [
        {
          "internalType": "uint256",
          "name": "amount",
          "type": "uint256"
        }
      ],
      "name": "withdrawDeposit",
      "outputs": [],
      "stateMutability": "nonpayable",
      "type": "function"
    },
    {
      "inputs": [
        {
          "internalType": "address",
          "name": "owner",
          "type": "address"
        }
      ],
      "name": "depositOf",
      "outputs": [
        {
          "internalType": "uint256",
          "name": "",
          "type": "uint256"
        }
      ],
      "stateMutability": "view",
      "type": "function",
      "constant": true
    },
    {
      "inputs": [
        {
          "internalType": "address",
          "name": "owner",
          "type": "address"
        }
      ],
      "name": "sharesOf",
      "outputs": [
        {
          "internalType": "uint256",
          "name": "",
          "type": "uint256"
        }
      ],
      "stateMutability": "view",
      "type": "function",
      "constant": true
    },
    {
      "inputs": [],
      "name": "totalDeposit",
      "outputs": [
        {
          "internalType": "uint256",
          "name": "",
          "type": "uint256"
        }
      ],
      "stateMutability": "view",
      "type": "function",
      "constant": true
    },
    {
      "inputs": [],
      "name": "totalFunds",
      "outputs": [
        {
          "internalType": "uint256",
          "name": "",
          "type": "uint256"
        }
      ],
      "stateMutability": "view",
      "type": "function",
      "constant": true
    }
  ],
  "bytecode": "0x60806040526007805460ff1916905534801561001a57600080fd5b50614cd28061002a6000396000f3fe608060405234801561001057600080fd5b50600436106102f45760003560e060020a90048063709df63c116101a1578063cfa92858116100ed578063f242432a116100a6578063f68ec35f11610080578063f68ec35f1461059e578063f799f5e3146105a6578063fc0c546a146105b9578063fc212913146105c1576102f4565b8063f242432a14610570578063f5eb42dc14610583578063f6153ccd14610596576102f4565b8063cfa928581461052a578063d85bd52614610532578063e2bbb1581461053a578063e52e43da1461054d578063e985e9c514610555578063ea8a1af014610568576102f4565b80639a82a09a1161015a578063be9a655511610134578063be9a6555146104f9578063cc2ee19614610501578063ccd5ce4b1461051a578063ccdf429914610522576102f4565b80639a82a09a146104d6578063a22cb465146104de578063b30e26f7146104f1576102f4565b8063709df63c146104a65780637a8ca615146104ae57806389006dc0146104b65780638da5cb5b146104be5780638f1c3151146104c6578063968ed600146104ce576102f4565b806333d9453511610260578063441a3e70116102195780634e1273f4116101f35780634e1273f41461046e578063597e1fb51461048e57806369208dcb146104965780637044f2821461049e576102f4565b8063441a3e701461043e578063454dcb451461045157806348cd4cb114610466576102f4565b806333d94535146103e557806338d52e0f146103ed5780633e7954f9146104025780633f6fa6551461040a578063409e22051461041257806343d726d614610436576102f4565b806316eebd1e116102b257806316eebd1e1461037a57806323e3fbd51461038f5780632bf732df146103a25780632eb2c2d6146103b757806330b55c5a146103ca57806333289a46146103d2576102f4565b8062fdd58e146102f957806301ffc9a71461032257806306fdde03146103425780630b01f25c146103575780630e89341c1461035f5780631456bed114610372575b600080fd5b61030c610307366004613b4d565b6105c9565b6040516103199190614a9d565b60405180910390f35b610335610330366004613c9a565b610628565b60405161031991906140e6565b61034a61064b565b60405161031991906140f1565b61030c6106d9565b61034a61036d366004613db1565b6106df565b61030c610777565b61038261077c565b6040516103199190613eb5565b61030c61039d3660046139b8565b61078b565b6103b56103b0366004613c39565b6107a6565b005b6103b56103c5366004613a07565b610837565b61030c610a5f565b6103b56103e0366004613db1565b610a65565b61030c610b3d565b6103f5610b43565b6040516103199190614aed565b61030c610b64565b610335610b6a565b610425610420366004613db1565b610b73565b604051610319959493929190614aa6565b6103b5610c55565b6103b561044c366004613de1565b610cf0565b610459610ffb565b6040516103199190613fb6565b61030c61105e565b61048161047c366004613b77565b611064565b6040516103199190614003565b610335611127565b61030c611135565b61038261113b565b61045961114a565b6103826111aa565b61030c6111b9565b6103826111bf565b61030c6111ce565b61030c6111d4565b6103356111e3565b6103b56104ec366004613b16565b6111f2565b61030c6112c3565b6103b56112c9565b610509611312565b604051610319959493929190614016565b61030c611664565b61030c611669565b61030c61166f565b610335611675565b6103b5610548366004613de1565b61167e565b6103826117fb565b6103356105633660046139d3565b61180a565b6103b5611838565b6103b561057e366004613ab1565b61186f565b61030c6105913660046139b8565b611a09565b61030c611a53565b61030c611a59565b6103b56105b4366004613cd2565b611a5f565b610382611d36565b61030c611d45565b6000600160a060020a0383166105fd5760405160e560020a62461bcd0281526004016105f49061429a565b60405180910390fd5b506000818152606e60209081526040808320600160a060020a03861684529091529020545b92915050565b600160e060020a031981166000908152603c602052604090205460ff165b919050565b60b1805460408051602060026001851615610100026000190190941693909304601f810184900484028201840190925281815292918301828280156106d15780601f106106a6576101008083540402835291602001916106d1565b820191906000526020600020905b8154815290600101906020018083116106b457829003601f168201915b505050505081565b60a55481565b60708054604080516020601f600260001961010060018816150201909516949094049384018190048102820181019092528281526060939092909183018282801561076b5780601f106107405761010080835404028352916020019161076b565b820191906000526020600020905b81548152906001019060200180831161074e57829003601f168201915b50505050509050919050565b600181565b60a054600160a060020a031681565b600160a060020a0316600090815260b3602052604090205490565b60005b82518110156107f95760006107d1338584815181106107c457fe5b60200260200101516105c9565b90506107f08483815181106107e257fe5b602002602001015182610cf0565b506001016107a9565b50808015610815575033600090815260b3602052604090205415155b156108335733600090815260b3602052604090205461083390610a65565b5050565b815183511461085b5760405160e560020a62461bcd0281526004016105f49061494f565b600160a060020a0384166108845760405160e560020a62461bcd0281526004016105f490614569565b61088c611d4b565b600160a060020a031685600160a060020a031614806108b257506108b285610563611d4b565b6108d15760405160e560020a62461bcd0281526004016105f4906145c6565b60006108db611d4b565b90506108eb818787878787610a57565b60005b84518110156109f157600085828151811061090557fe5b60200260200101519050600085838151811061091d57fe5b6020026020010151905061098a816040518060600160405280602a8152602001614c73602a9139606e600086815260200190815260200160002060008d600160a060020a0316600160a060020a0316815260200190815260200160002054611d4f9092919063ffffffff16565b6000838152606e60209081526040808320600160a060020a038e811685529252808320939093558a16815220546109c19082611d83565b6000928352606e60209081526040808520600160a060020a038c16865290915290922091909155506001016108ee565b5084600160a060020a031686600160a060020a031682600160a060020a03167f4a39dc06d4c0dbc64b70af90fd698a233a518aa5d07e595d983b8c0526c8f7fb8787604051610a419291906140b8565b60405180910390a4610a57818787878787611dab565b505050505050565b60a85481565b60ae5460ff610100909104161515600114610a955760405160e560020a62461bcd0281526004016105f490614623565b60008111610ab85760405160e560020a62461bcd0281526004016105f490614104565b33600090815260b36020526040902054811115610aea5760405160e560020a62461bcd0281526004016105f49061439c565b610b243360b45460b5541015610b0f578260b45460b55481610b0857fe5b0402610b11565b825b60b254600160a060020a03169190611efd565b33600090815260b3602052604090208054919091039055565b60ab5481565b60055474010000000000000000000000000000000000000000900460ff1681565b60aa5481565b60075460ff1681565b60af8181548110610b8057fe5b9060005260206000209060050201600091509050806000015490806001018054600181600116156101000203166002900480601f016020809104026020016040519081016040528092919081815260200182805460018160011615610100020316600290048015610c325780601f10610c0757610100808354040283529160200191610c32565b820191906000526020600020905b815481529060010190602001808311610c1557829003601f168201915b50505050600283015460038401546004909401549293909260009190910b915085565b60ae5460ff161515600114610c7f5760405160e560020a62461bcd0281526004016105f490614a66565b60ae54610100900460ff1615610caa5760405160e560020a62461bcd0281526004016105f490614623565b60ac5460aa5401431015610cd35760405160e560020a62461bcd0281526004016105f490614441565b610cdc33611f6b565b610ce66001611f8d565b610cee611fa7565b565b60ae5460ff610100909104161515600114610d205760405160e560020a62461bcd0281526004016105f490614623565b60b45460b55411610d465760405160e560020a62461bcd0281526004016105f490614532565b600082815260b06020526040902054610d745760405160e560020a62461bcd0281526004016105f4906146b7565b80610d7f33846105c9565b1015610da05760405160e560020a62461bcd0281526004016105f4906143d3565b610da8613806565b600083815260b0602052604090205460af8054909160001901908110610dca57fe5b90600052602060002090600502016040518060a001604052908160008201548152602001600182018054600181600116156101000203166002900480601f016020809104026020016040519081016040528092919081815260200182805460018160011615610100020316600290048015610e865780601f10610e5b57610100808354040283529160200191610e86565b820191906000526020600020905b815481529060010190602001808311610e6957829003601f168201915b5050509183525050600282015460208201526003820154600090810b810b810b60408301526004909201546060918201528201519192500b610edd5760405160e560020a62461bcd0281526004016105f4906141f5565b806060015160000b60011415610f8657600060b65460b7540160b75481610f0057fe5b0460b45460b554030290506000620f424060a854620f42400381610f2057fe5b0460b6548581610f2c57fe5b048302029050600060b65460b7540160b65481610f4557fe5b0460b45460b55403029050600060b6548681610f5d57fe5b60b25491900483029150610f7d90600160a060020a031633858401611efd565b50505050610ff6565b806060015160000b6000191415610ff657600060b65460b7540160b75481610faa57fe5b0460b45460b554030290506000620f424060a85481610fc557fe5b0460b7548581610fd157fe5b60b2549190048402919091029150610ff390600160a060020a03163383611efd565b50505b505050565b6060600280548060200260200160405190810160405280929190818152602001828054801561105357602002820191906000526020600020905b8154600160a060020a03168152600190910190602001808311611035575b505050505090505b90565b60a95481565b6060815183511461108a5760405160e560020a62461bcd0281526004016105f4906148bb565b6060835167ffffffffffffffff811180156110a457600080fd5b506040519080825280602002602001820160405280156110ce578160200160208202803683370190505b50905060005b845181101561111f576111008582815181106110ec57fe5b60200260200101518583815181106107c457fe5b82828151811061110c57fe5b60209081029190910101526001016110d4565b509392505050565b60ae54610100900460ff1681565b60a65481565b60a254600160a060020a031681565b6060600180548060200260200160405190810160405280929190818152602001828054801561105357602002820191906000526020600020908154600160a060020a03168152600190910190602001808311611035575050505050905090565b60a154600160a060020a031681565b60ac5481565b60a354600160a060020a031681565b60a75481565b60006111de612331565b905090565b60ae5462010000900460ff1681565b81600160a060020a0316611204611d4b565b600160a060020a0316141561122e5760405160e560020a62461bcd0281526004016105f490614801565b80606f600061123b611d4b565b600160a060020a03908116825260208083019390935260409182016000908120918716808252919093529120805460ff19169215159290921790915561127f611d4b565b600160a060020a03167f17307eab39ab6107e8899845ad3d59bd9653f200f220920489ca2b5937696c31836040516112b791906140e6565b60405180910390a35050565b60ad5481565b60ae5460ff16156112ef5760405160e560020a62461bcd0281526004016105f490614a66565b6112f9600161244a565b6113023361245d565b61130a61247f565b610cee612485565b60af546060908190819081908190818167ffffffffffffffff8111801561133857600080fd5b50604051908082528060200260200182016040528015611362578160200160208202803683370190505b50905060608267ffffffffffffffff8111801561137e57600080fd5b506040519080825280602002602001820160405280156113b257816020015b606081526020019060019003908161139d5790505b50905060608367ffffffffffffffff811180156113ce57600080fd5b506040519080825280602002602001820160405280156113f8578160200160208202803683370190505b50905060608467ffffffffffffffff8111801561141457600080fd5b5060405190808252806020026020018201604052801561143e578160200160208202803683370190505b50905060608567ffffffffffffffff8111801561145a57600080fd5b50604051908082528060200260200182016040528015611484578160200160208202803683370190505b50905060005b868110156116515760af818154811061149f57fe5b9060005260206000209060050201600001548682815181106114bd57fe5b60200260200101818152505060af81815481106114d657fe5b90600052602060002090600502016001018054600181600116156101000203166002900480601f01602080910402602001604051908101604052809291908181526020018280546001816001161561010002031660029004801561157b5780601f106115505761010080835404028352916020019161157b565b820191906000526020600020905b81548152906001019060200180831161155e57829003601f168201915b505050505085828151811061158c57fe5b602002602001018190525060af81815481106115a457fe5b9060005260206000209060050201600201548482815181106115c257fe5b60200260200101818152505060af81815481106115db57fe5b600091825260208220600360059092020101548451910b908490839081106115ff57fe5b602002602001019060000b908160000b8152505060af818154811061162057fe5b90600052602060002090600502016004015482828151811061163e57fe5b602090810291909101015260010161148a565b50939a9299509097509550909350915050565b600081565b60065481565b60a45481565b60ae5460ff1681565b60ad5460aa540143106116a65760405160e560020a62461bcd0281526004016105f49061422c565b600082815260b060205260409020546116d45760405160e560020a62461bcd0281526004016105f4906146b7565b60b2546116ec90600160a060020a031633308461248d565b60ae5460ff1615611782576116ff6124b7565b600060aa5443039050611732338460ac548486028161171a57fe5b048503604051806020016040528060008152506125de565b60ac548183028161173f57fe5b04820360af60b06000868152602001908152602001600020548154811061176257fe5b6000918252602090912060046005909202010180549091019055506117da565b61179d338383604051806020016040528060008152506125de565b600082815260b0602052604090205460af80548392600019019081106117bf57fe5b60009182526020909120600460059092020101805490910190555b33600090815260b36020526040902080548201905560b48054909101905550565b600054600160a060020a031690565b600160a060020a039182166000908152606f6020908152604080832093909416825291909152205460ff1690565b60a354600160a060020a031633146118655760405160e560020a62461bcd0281526004016105f490614793565b610cee60016126c5565b600160a060020a0384166118985760405160e560020a62461bcd0281526004016105f490614569565b6118a0611d4b565b600160a060020a031685600160a060020a031614806118c657506118c685610563611d4b565b6118e55760405160e560020a62461bcd0281526004016105f490614478565b60006118ef611d4b565b905061190f818787611900886126e1565b611909886126e1565b87610a57565b611956836040518060600160405280602a8152602001614c73602a91396000878152606e60209081526040808320600160a060020a038d1684529091529020549190611d4f565b6000858152606e60209081526040808320600160a060020a038b8116855292528083209390935587168152205461198d9084611d83565b6000858152606e60209081526040808320600160a060020a03808b168086529190935292819020939093559151909188811691908416907fc3d58168c5ae7397731d063d5bbf3d657854427343f4c083240f7aacaa2d0f62906119f39089908990614adf565b60405180910390a4610a57818787878787612725565b600080805b60af54811015611a4c57611a408460af8381548110611a2957fe5b9060005260206000209060050201600001546105c9565b90910190600101611a0e565b5092915050565b60b45490565b60095481565b600354610100900460ff1680611a785750611a7861282b565b80611a86575060035460ff16155b611aa55760405160e560020a62461bcd0281526004016105f49061465a565b600354610100900460ff16158015611ad0576003805460ff1961ff0019909116610100171660011790555b611adb85600161283c565b611ae58787612938565b611b236040518060400160405280600f81526020017f68747470733a2f2f7572692e636f6d0000000000000000000000000000000000815250612a28565b611b2c88612ac7565b611b3533612ada565b611b3e33612afc565b611b49614e20612b1e565b611b54610ce4612b48565b611b5f610ce4612b72565b611b6a610ce4612b9c565b611b7662030d40612bc6565b611b7f84612beb565b611b8883612bf0565b611b9182612bf5565b611b9a87612c1e565b6060611ba66000612c40565b905060af81600081518110611bb757fe5b602090810291909101810151825460018181018555600094855293839020825160059092020190815581830151805192949193611bfa9392850192910190613837565b5060408201516002820155606082015160038201805460ff191660ff600093840b16179055608090920151600490910155815160019160b09184908290611c3d57fe5b60200260200101516000015181526020019081526020016000208190555060af81600181518110611c6a57fe5b602090810291909101810151825460018181018555600094855293839020825160059092020190815581830151805192949193611cad9392850192910190613837565b506040820151816002015560608201518160030160006101000a81548160ff021916908360000b60ff160217905550608082015181600401555050600260b0600083600181518110611cfb57fe5b602002602001015160000151815260200190815260200160002081905550508015611d2c576003805461ff00191690555b5050505050505050565b60b254600160a060020a031681565b60085481565b3390565b60008184841115611d765760405160e560020a62461bcd0281526004016105f491906140f1565b50508183035b9392505050565b600082820183811015611d7c5760405160e560020a62461bcd0281526004016105f49061440a565b611dbd84600160a060020a0316612e8b565b15610a57576040517fbc197c81000000000000000000000000000000000000000000000000000000008152600160a060020a0385169063bc197c8190611e0f9089908990889088908890600401613ee3565b602060405180830381600087803b158015611e2957600080fd5b505af1925050508015611e59575060408051601f3d908101601f19168201909252611e5691810190613cb6565b60015b611ea857611e65614b78565b80611e705750611e8d565b8060405160e560020a62461bcd0281526004016105f491906140f1565b60405160e560020a62461bcd0281526004016105f49061413b565b600160e060020a031981167fbc197c810000000000000000000000000000000000000000000000000000000014611ef45760405160e560020a62461bcd0281526004016105f490614198565b50505050505050565b610ff68363a9059cbb60e060020a028484604051602401611f1f929190613f9d565b60408051601f198184030181529190526020810180517bffffffffffffffffffffffffffffffffffffffffffffffffffffffff16600160e060020a031990931692909217909152612e91565b60a28054600160a060020a031916600160a060020a0392909216919091179055565b60ae80549115156101000261ff0019909216919091179055565b611faf612f23565b60b25460405160e060020a6370a08231028152600160a060020a03909116906370a0823190611fe2903090600401613eb5565b60206040518083038186803b158015611ffa57600080fd5b505afa15801561200e573d6000803e3d6000fd5b505050506040513d601f19601f820116820180604052508101906120329190613dc9565b60b58190555061213b60af60008154811061204957fe5b90600052602060002090600502016040518060a001604052908160008201548152602001600182018054600181600116156101000203166002900480601f0160208091040260200160405190810160405280929190818152602001828054600181600116156101000203166002900480156121055780601f106120da57610100808354040283529160200191612105565b820191906000526020600020905b8154815290600101906020018083116120e857829003601f168201915b5050509183525050600282015460208201526003820154600090810b810b900b6040820152600490910154606090910152612ffd565b60af60008154811061214957fe5b906000526020600020906005020160030160006101000a81548160ff021916908360000b60ff16021790555061218660af60018154811061204957fe5b60af60018154811061219457fe5b906000526020600020906005020160030160006101000a81548160ff021916908360000b60ff16021790555060af6000815481106121ce57fe5b60009182526020822060036005909202010154810b900b6001141561221d5760af6000815481106121fb57fe5b600091825260209091206004600590920201015460b680549091019055612278565b60af60008154811061222b57fe5b6000918252602082206005919091020160030154810b900b60001914156122785760af60008154811061225a57fe5b600091825260209091206004600590920201015460b7805490910190555b60af60018154811061228657fe5b60009182526020822060036005909202010154810b900b600114156122d55760af6001815481106122b357fe5b600091825260209091206004600590920201015460b680549091019055610cee565b60af6001815481106122e357fe5b6000918252602082206005919091020160030154810b900b6000191415610cee5760af60018154811061231257fe5b600091825260209091206004600590920201015460b780549091019055565b6000600360029054906101000a9004600160a060020a0316600160a060020a03166377c7b8fc6040518163ffffffff1660e060020a02815260040160206040518083038186803b15801561238457600080fd5b505afa158015612398573d6000803e3d6000fd5b505050506040513d601f19601f820116820180604052508101906123bc9190613dc9565b60035460405160e060020a6370a0823102815262010000909104600160a060020a0316906370a08231906123f4903090600401613eb5565b60206040518083038186803b15801561240c57600080fd5b505afa158015612420573d6000803e3d6000fd5b505050506040513d601f19601f820116820180604052508101906124449190613dc9565b02905090565b60ae805460ff1916911515919091179055565b60a18054600160a060020a031916600160a060020a0392909216919091179055565b4360aa55565b610cee6124b7565b6124b1846323b872dd60e060020a02858585604051602401611f1f93929190613f41565b50505050565b6004805460405160e060020a6370a08231028152600092600160a060020a03909216916370a08231916124ec91309101613eb5565b60206040518083038186803b15801561250457600080fd5b505afa158015612518573d6000803e3d6000fd5b505050506040513d601f19601f8201168201806040525081019061253c9190613dc9565b60035460045491925061256291600160a060020a039081169162010000900416836131a1565b6003546040517fb6b55f2500000000000000000000000000000000000000000000000000000000815262010000909104600160a060020a03169063b6b55f25906125b0908490600401614a9d565b600060405180830381600087803b1580156125ca57600080fd5b505af1158015610ff3573d6000803e3d6000fd5b600160a060020a0384166126075760405160e560020a62461bcd0281526004016105f4906149ac565b6000612611611d4b565b905061262381600087611900886126e1565b6000848152606e60209081526040808320600160a060020a03891684529091529020546126509084611d83565b6000858152606e60209081526040808320600160a060020a03808b16808652919093528184209490945551908416907fc3d58168c5ae7397731d063d5bbf3d657854427343f4c083240f7aacaa2d0f62906126ae9089908990614adf565b60405180910390a4610ff381600087878787612725565b60ae8054911515620100000262ff000019909216919091179055565b60408051600180825281830190925260609182919060208083019080368337019050509050828160008151811061271457fe5b602090810291909101015292915050565b61273784600160a060020a0316612e8b565b15610a57576040517ff23a6e61000000000000000000000000000000000000000000000000000000008152600160a060020a0385169063f23a6e61906127899089908990889088908890600401613f65565b602060405180830381600087803b1580156127a357600080fd5b505af19250505080156127d3575060408051601f3d908101601f191682019092526127d091810190613cb6565b60015b6127df57611e65614b78565b600160e060020a031981167ff23a6e610000000000000000000000000000000000000000000000000000000014611ef45760405160e560020a62461bcd0281526004016105f490614198565b600061283630612e8b565b15905090565b600354610100900460ff1680612855575061285561282b565b80612863575060035460ff16155b6128825760405160e560020a62461bcd0281526004016105f49061465a565b600354610100900460ff161580156128ad576003805460ff1961ff0019909116610100171660011790555b60028260ff16106128d35760405160e560020a62461bcd0281526004016105f4906142f7565b60058054600160a060020a031916600160a060020a0385161774ff000000000000000000000000000000000000000019167401000000000000000000000000000000000000000060ff8516021790558015610ff6576003805461ff0019169055505050565b600354610100900460ff1680612951575061295161282b565b8061295f575060035460ff16155b61297e5760405160e560020a62461bcd0281526004016105f49061465a565b600354610100900460ff161580156129a9576003805460ff1961ff0019909116610100171660011790555b6129b283613283565b6129bb826132a5565b6129c4836132a5565b6003805475ffffffffffffffffffffffffffffffffffffffff0000191662010000600160a060020a03858116919091029190911790915560048054600160a060020a0319169185169190911790558015610ff6576003805461ff0019169055505050565b600354610100900460ff1680612a415750612a4161282b565b80612a4f575060035460ff16155b612a6e5760405160e560020a62461bcd0281526004016105f49061465a565b600354610100900460ff16158015612a99576003805460ff1961ff0019909116610100171660011790555b612aa2826132f6565b612aaa613380565b612ab261340a565b8015610833576003805461ff00191690555050565b80516108339060b1906020840190613837565b60a38054600160a060020a031916600160a060020a0392909216919091179055565b60a08054600160a060020a031916600160a060020a0392909216919091179055565b620f42408110612b435760405160e560020a62461bcd0281526004016105f490614918565b60a755565b620f42408110612b6d5760405160e560020a62461bcd0281526004016105f4906147ca565b60a455565b620f42408110612b975760405160e560020a62461bcd0281526004016105f49061475c565b60a555565b620f42408110612bc15760405160e560020a62461bcd0281526004016105f49061432e565b60a655565b620f42408110612bc15760405160e560020a62461bcd0281526004016105f490614263565b60ab55565b60ac55565b60ac548110612c195760405160e560020a62461bcd0281526004016105f4906146ee565b60ad55565b60b28054600160a060020a031916600160a060020a0392909216919091179055565b6060600080600560009054906101000a9004600160a060020a0316600160a060020a0316630902f1ac6040518163ffffffff1660e060020a02815260040160606040518083038186803b158015612c9657600080fd5b505afa158015612caa573d6000803e3d6000fd5b505050506040513d601f19601f82011682018060405250810190612cce9190613d5d565b50915091506000826dffffffffffffffffffffffffffff16826dffffffffffffffffffffffffffff1681612cfe57fe5b046dffffffffffffffffffffffffffff16905060606002604051908082528060200260200182016040528015612d4e57816020015b612d3b613806565b815260200190600190039081612d335790505b5090506040518060a001604052806000880181526020016040518060400160405280600a81526020017f6869676865725f6269640000000000000000000000000000000000000000000081525081526020018381526020016000800b8152602001600081525081600081518110612dc157fe5b602002602001018190525080600081518110612dd957fe5b6020026020010151600001516008819055506040518060a001604052806001880181526020016040518060400160405280600981526020017f6c6f7765725f626964000000000000000000000000000000000000000000000081525081526020018381526020016000800b8152602001600081525081600181518110612e5b57fe5b602002602001018190525080600081518110612e7357fe5b60209081029190910101515160095595945050505050565b3b151590565b6060612ee6826040518060400160405280602081526020017f5361666545524332303a206c6f772d6c6576656c2063616c6c206661696c656481525085600160a060020a031661349b9092919063ffffffff16565b805190915015610ff65780806020019051810190612f049190613c7e565b610ff65760405160e560020a62461bcd0281526004016105f49061485e565b60035460405160e060020a6370a08231028152600091620100009004600160a060020a0316906370a0823190612f5d903090600401613eb5565b60206040518083038186803b158015612f7557600080fd5b505afa158015612f89573d6000803e3d6000fd5b505050506040513d601f19601f82011682018060405250810190612fad9190613dc9565b6003546040517f2e1a7d4d000000000000000000000000000000000000000000000000000000008152919250620100009004600160a060020a031690632e1a7d4d906125b0908490600401614a9d565b60075460009060ff1661314e57600080600560009054906101000a9004600160a060020a0316600160a060020a0316630902f1ac6040518163ffffffff1660e060020a02815260040160606040518083038186803b15801561305e57600080fd5b505afa158015613072573d6000803e3d6000fd5b505050506040513d601f19601f820116820180604052508101906130969190613d5d565b50600554919350915074010000000000000000000000000000000000000000900460ff1661310057816dffffffffffffffffffffffffffff16816dffffffffffffffffffffffffffff16816130e757fe5b046dffffffffffffffffffffffffffff1660065561313e565b806dffffffffffffffffffffffffffff16826dffffffffffffffffffffffffffff168161312957fe5b046dffffffffffffffffffffffffffff166006555b50506007805460ff191660011790555b600954825114156131785760065482604001511161316e57600019613171565b60015b9050610646565b60085482511415613199576006548260400151111561316e57600019613171565b506000919050565b80158061324257506040517fdd62ed3e000000000000000000000000000000000000000000000000000000008152600160a060020a0384169063dd62ed3e906131f09030908690600401613ec9565b60206040518083038186803b15801561320857600080fd5b505afa15801561321c573d6000803e3d6000fd5b505050506040513d601f19601f820116820180604052508101906132409190613dc9565b155b6132615760405160e560020a62461bcd0281526004016105f490614a09565b610ff68363095ea7b360e060020a028484604051602401611f1f929190613f9d565b60008054600160a060020a031916600160a060020a0392909216919091179055565b6001805480820182556000919091527fb10e2d527612073b26eecdfd717e6a320cf44b4afac2b0732d9fcbe2b7fa0cf6018054600160a060020a031916600160a060020a0392909216919091179055565b600354610100900460ff168061330f575061330f61282b565b8061331d575060035460ff16155b61333c5760405160e560020a62461bcd0281526004016105f49061465a565b600354610100900460ff16158015613367576003805460ff1961ff0019909116610100171660011790555b61336f6134b2565b613377613537565b612ab2826135d1565b600354610100900460ff1680613399575061339961282b565b806133a7575060035460ff16155b6133c65760405160e560020a62461bcd0281526004016105f49061465a565b600354610100900460ff161580156133f1576003805460ff1961ff0019909116610100171660011790555b4360a9558015613407576003805461ff00191690555b50565b600354610100900460ff1680613423575061342361282b565b80613431575060035460ff16155b6134505760405160e560020a62461bcd0281526004016105f49061465a565b600354610100900460ff1615801561347b576003805460ff1961ff0019909116610100171660011790555b60ae805462ffffff191690558015613407576003805461ff001916905550565b60606134aa848460008561369d565b949350505050565b600354610100900460ff16806134cb57506134cb61282b565b806134d9575060035460ff16155b6134f85760405160e560020a62461bcd0281526004016105f49061465a565b600354610100900460ff16158015613523576003805460ff1961ff0019909116610100171660011790555b8015613407576003805461ff001916905550565b600354610100900460ff1680613550575061355061282b565b8061355e575060035460ff16155b61357d5760405160e560020a62461bcd0281526004016105f49061465a565b600354610100900460ff161580156135a8576003805460ff1961ff0019909116610100171660011790555b6135237f01ffc9a700000000000000000000000000000000000000000000000000000000613765565b600354610100900460ff16806135ea57506135ea61282b565b806135f8575060035460ff16155b6136175760405160e560020a62461bcd0281526004016105f49061465a565b600354610100900460ff16158015613642576003805460ff1961ff0019909116610100171660011790555b61364b826137b7565b6136747fd9b67a2600000000000000000000000000000000000000000000000000000000613765565b612ab27f0e89341c00000000000000000000000000000000000000000000000000000000613765565b606030318311156136c35760405160e560020a62461bcd0281526004016105f4906144d5565b6136cc85612e8b565b6136eb5760405160e560020a62461bcd0281526004016105f490614725565b6000606086600160a060020a031685876040516137089190613e99565b60006040518083038185875af1925050503d8060008114613745576040519150601f19603f3d011682016040523d82523d6000602084013e61374a565b606091505b509150915061375a8282866137ca565b979650505050505050565b600160e060020a031980821614156137925760405160e560020a62461bcd0281526004016105f490614365565b600160e060020a0319166000908152603c60205260409020805460ff19166001179055565b8051610833906070906020840190613837565b606083156137d9575081611d7c565b8251156137e95782518084602001fd5b8160405160e560020a62461bcd0281526004016105f491906140f1565b6040518060a001604052806000815260200160608152602001600081526020016000800b8152602001600081525090565b828054600181600116156101000203166002900490600052602060002090601f016020900481019282601f1061387857805160ff19168380011785556138a5565b828001600101855582156138a5579182015b828111156138a557825182559160200191906001019061388a565b506138b19291506138b5565b5090565b5b808211156138b157600081556001016138b6565b8035600160a060020a038116811461062257600080fd5b600082601f8301126138f1578081fd5b81356139046138ff82614b22565b614afb565b81815291506020808301908481018184028601820187101561392557600080fd5b60005b8481101561394457813584529282019290820190600101613928565b505050505092915050565b600082601f83011261395f578081fd5b813567ffffffffffffffff811115613975578182fd5b613988601f8201601f1916602001614afb565b915080825283602082850101111561399f57600080fd5b8060208401602084013760009082016020015292915050565b6000602082840312156139c9578081fd5b611d7c83836138ca565b600080604083850312156139e5578081fd5b6139ef84846138ca565b91506139fe84602085016138ca565b90509250929050565b600080600080600060a08688031215613a1e578081fd5b8535613a2981614c1d565b94506020860135613a3981614c1d565b9350604086013567ffffffffffffffff80821115613a55578283fd5b613a6189838a016138e1565b94506060880135915080821115613a76578283fd5b613a8289838a016138e1565b93506080880135915080821115613a97578283fd5b50613aa48882890161394f565b9150509295509295909350565b600080600080600060a08688031215613ac8578081fd5b613ad287876138ca565b9450613ae187602088016138ca565b93506040860135925060608601359150608086013567ffffffffffffffff811115613b0a578182fd5b613aa48882890161394f565b60008060408385031215613b28578182fd5b613b3284846138ca565b91506020830135613b4281614c32565b809150509250929050565b60008060408385031215613b5f578182fd5b613b6984846138ca565b946020939093013593505050565b60008060408385031215613b89578182fd5b823567ffffffffffffffff80821115613ba0578384fd5b818501915085601f830112613bb3578384fd5b8135613bc16138ff82614b22565b80828252602080830192508086018a828387028901011115613be1578889fd5b8896505b84871015613c0b57613bf78b826138ca565b845260019690960195928101928101613be5565b509096508701359350505080821115613c22578283fd5b50613c2f858286016138e1565b9150509250929050565b60008060408385031215613c4b578182fd5b823567ffffffffffffffff811115613c61578283fd5b613c6d858286016138e1565b9250506020830135613b4281614c32565b600060208284031215613c8f578081fd5b8151611d7c81614c32565b600060208284031215613cab578081fd5b8135611d7c81614c40565b600060208284031215613cc7578081fd5b8151611d7c81614c40565b600080600080600080600060e0888a031215613cec578485fd5b873567ffffffffffffffff811115613d02578586fd5b613d0e8a828b0161394f565b975050613d1e8960208a016138ca565b9550613d2d8960408a016138ca565b9450613d3c8960608a016138ca565b9699959850939660808101359560a0820135955060c0909101359350915050565b600080600060608486031215613d71578081fd5b8351613d7c81614c56565b6020850151909350613d8d81614c56565b604085015190925063ffffffff81168114613da6578182fd5b809150509250925092565b600060208284031215613dc2578081fd5b5035919050565b600060208284031215613dda578081fd5b5051919050565b60008060408385031215613df3578182fd5b50508035926020909101359150565b6000815180845260208085019450808401835b83811015613e33578151850b87529582019590820190600101613e15565b509495945050505050565b6000815180845260208085019450808401835b83811015613e3357815187529582019590820190600101613e51565b60008151808452613e85816020860160208601614b42565b601f01601f19169290920160200192915050565b60008251613eab818460208701614b42565b9190910192915050565b600160a060020a0391909116815260200190565b600160a060020a0392831681529116602082015260400190565b6000600160a060020a03808816835280871660208401525060a06040830152613f0f60a0830186613e3e565b8281036060840152613f218186613e3e565b90508281036080840152613f358185613e6d565b98975050505050505050565b600160a060020a039384168152919092166020820152604081019190915260600190565b6000600160a060020a03808816835280871660208401525084604083015283606083015260a0608083015261375a60a0830184613e6d565b600160a060020a03929092168252602082015260400190565b6020808252825182820181905260009190848201906040850190845b81811015613ff7578351600160a060020a031683529284019291840191600101613fd2565b50909695505050505050565b600060208252611d7c6020830184613e3e565b600060a0825261402960a0830188613e3e565b60208382038185015281885161403f8185614a9d565b91508193508281028201838b01865b83811015614078578683038552614066838351613e6d565b9486019492509085019060010161404e565b5050868103604088015261408c818b613e3e565b94505050505082810360608401526140a48186613e02565b90508281036080840152613f358185613e3e565b6000604082526140cb6040830185613e3e565b82810360208401526140dd8185613e3e565b95945050505050565b901515815260200190565b600060208252611d7c6020830184613e6d565b60208082526015908201527f7573656c6573735f7a65726f5f77697468647261770000000000000000000000604082015260600190565b60208082526034908201527f455243313135353a207472616e7366657220746f206e6f6e204552433131353560408201527f526563656976657220696d706c656d656e746572000000000000000000000000606082015260800190565b60208082526028908201527f455243313135353a204552433131353552656365697665722072656a6563746560408201527f6420746f6b656e73000000000000000000000000000000000000000000000000606082015260800190565b60208082526014908201527f6f7074696f6e5f6e6f745f66696e616c697a6564000000000000000000000000604082015260600190565b60208082526014908201527f63616e6e6f745f66756e645f636f6e7472616374000000000000000000000000604082015260600190565b60208082526014908201527f6c6f7365725f73686172655f746f6f5f68696768000000000000000000000000604082015260600190565b6020808252602b908201527f455243313135353a2062616c616e636520717565727920666f7220746865207a60408201527f65726f2061646472657373000000000000000000000000000000000000000000606082015260800190565b60208082526016908201527f696e76616c69645f61737365745f706f736974696f6e00000000000000000000604082015260600190565b60208082526015908201527f636c6f7365725f73686172655f746f6f5f686967680000000000000000000000604082015260600190565b6020808252601c908201527f4552433136353a20696e76616c696420696e7465726661636520696400000000604082015260600190565b6020808252601a908201527f616d6f756e745f6869676865725f7468616e5f6465706f736974000000000000604082015260600190565b60208082526016908201527f6f7074696f6e5f62616c616e63655f746f6f5f6c6f7700000000000000000000604082015260600190565b6020808252601b908201527f536166654d6174683a206164646974696f6e206f766572666c6f770000000000604082015260600190565b60208082526015908201527f63616e6e6f745f636c6f73655f636f6e74726163740000000000000000000000604082015260600190565b60208082526029908201527f455243313135353a2063616c6c6572206973206e6f74206f776e6572206e6f7260408201527f20617070726f7665640000000000000000000000000000000000000000000000606082015260800190565b60208082526026908201527f416464726573733a20696e73756666696369656e742062616c616e636520666f60408201527f722063616c6c0000000000000000000000000000000000000000000000000000606082015260800190565b6020808252600b908201527f6e6f5f6561726e696e6773000000000000000000000000000000000000000000604082015260600190565b60208082526025908201527f455243313135353a207472616e7366657220746f20746865207a65726f20616460408201527f6472657373000000000000000000000000000000000000000000000000000000606082015260800190565b60208082526032908201527f455243313135353a207472616e736665722063616c6c6572206973206e6f742060408201527f6f776e6572206e6f7220617070726f7665640000000000000000000000000000606082015260800190565b60208082526010908201527f726f756e645f6e6f745f636c6f73656400000000000000000000000000000000604082015260600190565b6020808252602e908201527f496e697469616c697a61626c653a20636f6e747261637420697320616c72656160408201527f647920696e697469616c697a6564000000000000000000000000000000000000606082015260800190565b6020808252600e908201527f756e6b6e6f776e5f6f7074696f6e000000000000000000000000000000000000604082015260600190565b6020808252601c908201527f706f73745f66756e64696e675f657863656564735f72756e74696d6500000000604082015260600190565b6020808252601d908201527f416464726573733a2063616c6c20746f206e6f6e2d636f6e7472616374000000604082015260600190565b60208082526015908201527f72756e6e65725f73686172655f746f6f5f686967680000000000000000000000604082015260600190565b60208082526009908201527f6e6f745f6f776e65720000000000000000000000000000000000000000000000604082015260600190565b60208082526017908201527f6c61756e636865725f73686172655f746f6f5f68696768000000000000000000604082015260600190565b60208082526029908201527f455243313135353a2073657474696e6720617070726f76616c2073746174757360408201527f20666f722073656c660000000000000000000000000000000000000000000000606082015260800190565b6020808252602a908201527f5361666545524332303a204552433230206f7065726174696f6e20646964206e60408201527f6f74207375636365656400000000000000000000000000000000000000000000606082015260800190565b60208082526029908201527f455243313135353a206163636f756e747320616e6420696473206c656e67746860408201527f206d69736d617463680000000000000000000000000000000000000000000000606082015260800190565b60208082526014908201527f6f776e65725f73686172655f746f6f5f68696768000000000000000000000000604082015260600190565b60208082526028908201527f455243313135353a2069647320616e6420616d6f756e7473206c656e6774682060408201527f6d69736d61746368000000000000000000000000000000000000000000000000606082015260800190565b60208082526021908201527f455243313135353a206d696e7420746f20746865207a65726f2061646472657360408201527f7300000000000000000000000000000000000000000000000000000000000000606082015260800190565b60208082526036908201527f5361666545524332303a20617070726f76652066726f6d206e6f6e2d7a65726f60408201527f20746f206e6f6e2d7a65726f20616c6c6f77616e636500000000000000000000606082015260800190565b60208082526011908201527f726f756e645f6e6f745f73746172746564000000000000000000000000000000604082015260600190565b90815260200190565b600086825260a06020830152614abf60a0830187613e6d565b60408301959095525060009290920b606083015260809091015292915050565b918252602082015260400190565b60ff91909116815260200190565b60405181810167ffffffffffffffff81118282101715614b1a57600080fd5b604052919050565b600067ffffffffffffffff821115614b38578081fd5b5060209081020190565b60005b83811015614b5d578181015183820152602001614b45565b838111156124b15750506000910152565b60e060020a900490565b600060443d1015614b885761105b565b600481823e6308c379a0614b9c8251614b6e565b14614ba65761105b565b6040513d600319016004823e80513d67ffffffffffffffff8160248401118184111715614bd6575050505061105b565b82840192508251915080821115614bf0575050505061105b565b503d83016020828401011115614c085750505061105b565b601f01601f1916810160200160405291505090565b600160a060020a038116811461340757600080fd5b801515811461340757600080fd5b600160e060020a03198116811461340757600080fd5b6dffffffffffffffffffffffffffff8116811461340757600080fdfe455243313135353a20696e73756666696369656e742062616c616e636520666f72207472616e73666572a264697066735822122064f934a85ed73d16774bc24e5e842d60bee59c679e48db3d954e30d3528939f764736f6c634300060c0033",
  "immutableReferences": {},
  "source": "// SPDX-License-Identifier: MIT\npragma solidity >=0.6.0 <0.8.0;\npragma experimental ABIEncoderV2;\n\nimport \"@openzeppelin/contracts/token/ERC20/ERC20.sol\";\nimport \"@openzeppelin/contracts/math/Math.sol\";\nimport \"@openzeppelin/contracts/math/SafeMath.sol\";\nimport \"@openzeppelin/contracts/token/ERC20/SafeERC20.sol\";\nimport \"@openzeppelin/contracts-upgradeable/proxy/Initializable.sol\";\n\nimport \"../yield/YDaiYieldProvider.sol\";\nimport \"../result/BinaryUniswapPrice.sol\";\nimport \"../kuko_v1/KukoV1.sol\";\n\ncontract KukoEthPriceGamble is Initializable, YDaiYieldProvider, BinaryUniswapPrice, KukoV1 {\n    using SafeERC20 for IERC20;\n    using Address for address;\n    using SafeMath for uint256;\n\n    ///@notice Hi test\n    ///@param name Name of the contract\n    // solhint-disable-next-line\n    function __KukoEthPriceGamble__init(\n        string memory name,\n        address inputToken,\n        address vaultAddress,\n        address uniswapPairAddress,\n        uint256 fundingPeriod,\n        uint256 runningPeriod,\n        uint256 weightedFundingPeriod\n    )\n        public\n        initializer\n    {\n        __BinaryUniswapPrice__init(uniswapPairAddress, 1);\n        __YDaiYieldProvider__init(inputToken, vaultAddress);\n        __KukoV1_init(\"https://uri.com\");\n        _setName(name);\n\n        _setOwner(msg.sender);\n        _setLauncher(msg.sender);\n\n        _setOwnerShare(20000);\n        _setLauncherShare(3300);\n        _setRunnerShare(3300);\n        _setCloserShare(3300);\n        _setLoserShare(200000);\n\n        _setFundingPhaseBlockLength(fundingPeriod);\n        _setRunningPhaseBlockLength(runningPeriod);\n        _setPostFundingPhaseBlockLength(weightedFundingPeriod);\n\n        _setToken(inputToken);\n\n        KukoOptionV1[] memory generatedOptions = _initialize(0);\n        options.push(generatedOptions[0]);\n        optionIds[generatedOptions[0].id] = 1;\n        options.push(generatedOptions[1]);\n        optionIds[generatedOptions[1].id] = 2;\n    }\n\n    function _onStart() internal override {\n        _invest();\n    }\n\n    function _onClose() internal override {\n        _retrieve();\n        finalEarnings = token.balanceOf(address(this));\n\n        options[0].finalized = _resolve(options[0]);\n        options[1].finalized = _resolve(options[1]);\n\n        if (options[0].finalized == 1) {\n            winnerShares += options[0].shares;\n        } else if (options[0].finalized == -1) {\n            loserShares += options[0].shares;\n        }\n\n        if (options[1].finalized == 1) {\n            winnerShares += options[1].shares;\n        } else if (options[1].finalized == -1) {\n            loserShares += options[1].shares;\n        }\n    }\n\n    mapping(address => uint256) private deposits;\n    uint256 private totalDeposits;\n    uint256 private finalEarnings;\n    uint256 private winnerShares;\n    uint256 private loserShares;\n\n    function deposit(uint256 _option, uint256 _amount) public override isDepositable {\n        require(optionIds[_option] != 0, \"unknown_option\");\n        token.safeTransferFrom(msg.sender, address(this), _amount);\n        if (running) {\n            _invest();\n            uint256 progress = block.number - runBlock;\n            _mint(msg.sender, _option, _amount - ((_amount * progress) / runningPhaseBlockLength), \"\");\n            options[optionIds[_option]].shares += _amount - ((_amount * progress) / runningPhaseBlockLength);\n        } else {\n            _mint(msg.sender, _option, _amount, \"\");\n            options[optionIds[_option] - 1].shares += _amount;\n        }\n        deposits[msg.sender] += _amount;\n        totalDeposits += _amount;\n    }\n\n    function withdraw(uint256 _option, uint256 amount) public override isClosed {\n        require(finalEarnings > totalDeposits, \"no_earnings\");\n        require(optionIds[_option] != 0, \"unknown_option\");\n        require(balanceOf(msg.sender, _option) >= amount, \"option_balance_too_low\");\n        KukoOptionV1 memory option = options[optionIds[_option] - 1];\n        require(option.finalized != 0, \"option_not_finalized\");\n\n        if (option.finalized == 1) {\n            uint256 loserBenefits = (finalEarnings - totalDeposits) * (loserShares / (loserShares + winnerShares));\n            uint256 loserTax = loserBenefits * (amount / winnerShares) * ((1000000 - loserShare) / 1000000);\n\n            uint256 benefits = (finalEarnings - totalDeposits) * (winnerShares / (loserShares + winnerShares));\n            uint256 winnerCut = benefits * (amount / winnerShares);\n            token.safeTransfer(msg.sender, winnerCut + loserTax);\n        } else if (option.finalized == -1) {\n            uint256 benefits = (finalEarnings - totalDeposits) * (loserShares / (loserShares + winnerShares));\n            uint256 withdrawAmount = benefits * (amount / loserShares) * (loserShare / 1000000);\n            token.safeTransfer(msg.sender, withdrawAmount);\n        }\n    }\n\n    function withdrawBatch(uint256[] memory options, bool withDeposit) public override {\n        for (uint256 idx = 0; idx < options.length; ++idx) {\n            uint256 optionBalance = balanceOf(msg.sender, options[idx]);\n            withdraw(options[idx], optionBalance);\n        }\n        if (withDeposit && deposits[msg.sender] > 0) {\n            withdrawDeposit(deposits[msg.sender]);\n        }\n    }\n\n    function withdrawDeposit(uint256 amount) public override isClosed {\n        require(amount > 0, \"useless_zero_withdraw\");\n        require(deposits[msg.sender] >= amount, \"amount_higher_than_deposit\");\n        token.safeTransfer(\n            msg.sender,\n            finalEarnings >= totalDeposits ? amount : (finalEarnings / totalDeposits) * amount\n        );\n        deposits[msg.sender] -= amount;\n    }\n\n    function depositOf(address owner) external view override returns (uint256) {\n        return deposits[owner];\n    }\n\n    function sharesOf(address owner) external view override returns (uint256) {\n        uint256 sharesCount = 0;\n        for (uint256 idx = 0; idx < options.length; ++idx) {\n            sharesCount += balanceOf(owner, options[idx].id);\n        }\n        return sharesCount;\n    }\n\n    function totalDeposit() external view override returns (uint256) {\n        return totalDeposits;\n    }\n\n    function totalFunds() external view override returns (uint256) {\n        return _totalFunds();\n    }\n\n    // How to you list outputs in a generic manner\n}\n",
  "sourcePath": "/Users/mortimr/projects/kuko-finance/contracts/contracts/kuko_instances/KukoEthPriceGamble.sol",
  "compiler": {
    "name": "solc",
    "version": "0.6.12+commit.27d51765.Emscripten.clang"
  },
  "schemaVersion": "3.3.3",
  "updatedAt": "2021-02-06T22:10:59.646Z",
  "networkType": "ethereum",
  "devdoc": {
    "kind": "dev",
    "methods": {
      "__KukoEthPriceGamble__init(string,address,address,address,uint256,uint256,uint256)": {
        "params": {
          "name": "Name of the contract"
        }
      },
      "balanceOf(address,uint256)": {
        "details": "See {IERC1155-balanceOf}. Requirements: - `account` cannot be the zero address."
      },
      "balanceOfBatch(address[],uint256[])": {
        "details": "See {IERC1155-balanceOfBatch}. Requirements: - `accounts` and `ids` must have the same length."
      },
      "getOptions()": {
        "returns": {
          "_0": "Serialized options"
        }
      },
      "isApprovedForAll(address,address)": {
        "details": "See {IERC1155-isApprovedForAll}."
      },
      "safeBatchTransferFrom(address,address,uint256[],uint256[],bytes)": {
        "details": "See {IERC1155-safeBatchTransferFrom}."
      },
      "safeTransferFrom(address,address,uint256,uint256,bytes)": {
        "details": "See {IERC1155-safeTransferFrom}."
      },
      "setApprovalForAll(address,bool)": {
        "details": "See {IERC1155-setApprovalForAll}."
      },
      "supportsInterface(bytes4)": {
        "details": "See {IERC165-supportsInterface}. Time complexity O(1), guaranteed to always use less than 30 000 gas."
      },
      "uri(uint256)": {
        "details": "See {IERC1155MetadataURI-uri}. This implementation returns the same URI for *all* token types. It relies on the token type ID substitution mechanism https://eips.ethereum.org/EIPS/eip-1155#metadata[defined in the EIP]. Clients calling this function must replace the `\\{id\\}` substring with the actual token type ID."
      }
    },
    "version": 1
  },
  "userdoc": {
    "kind": "user",
    "methods": {
      "__KukoEthPriceGamble__init(string,address,address,address,uint256,uint256,uint256)": {
        "notice": "Hi test"
      },
      "getInputToken()": {
        "notice": "Retrieve input token address"
      },
      "getOutputTokens()": {
        "notice": "Retrieve output token addresses"
      },
      "getYieldTokens()": {
        "notice": "Retrieve yield token addresses"
      }
    },
    "version": 1
  }
}