{
  "contractName": "KukoEthPrice10000BlocksDaiHF",
  "abi": [
    {
      "inputs": [
        {
          "internalType": "string",
          "name": "name",
          "type": "string"
        },
        {
          "internalType": "address",
          "name": "inputToken",
          "type": "address"
        },
        {
          "internalType": "address",
          "name": "vaultAddress",
          "type": "address"
        }
      ],
      "stateMutability": "nonpayable",
      "type": "constructor"
    },
    {
      "anonymous": false,
      "inputs": [
        {
          "indexed": true,
          "internalType": "address",
          "name": "account",
          "type": "address"
        },
        {
          "indexed": true,
          "internalType": "address",
          "name": "operator",
          "type": "address"
        },
        {
          "indexed": false,
          "internalType": "bool",
          "name": "approved",
          "type": "bool"
        }
      ],
      "name": "ApprovalForAll",
      "type": "event"
    },
    {
      "anonymous": false,
      "inputs": [
        {
          "indexed": true,
          "internalType": "address",
          "name": "operator",
          "type": "address"
        },
        {
          "indexed": true,
          "internalType": "address",
          "name": "from",
          "type": "address"
        },
        {
          "indexed": true,
          "internalType": "address",
          "name": "to",
          "type": "address"
        },
        {
          "indexed": false,
          "internalType": "uint256[]",
          "name": "ids",
          "type": "uint256[]"
        },
        {
          "indexed": false,
          "internalType": "uint256[]",
          "name": "values",
          "type": "uint256[]"
        }
      ],
      "name": "TransferBatch",
      "type": "event"
    },
    {
      "anonymous": false,
      "inputs": [
        {
          "indexed": true,
          "internalType": "address",
          "name": "operator",
          "type": "address"
        },
        {
          "indexed": true,
          "internalType": "address",
          "name": "from",
          "type": "address"
        },
        {
          "indexed": true,
          "internalType": "address",
          "name": "to",
          "type": "address"
        },
        {
          "indexed": false,
          "internalType": "uint256",
          "name": "id",
          "type": "uint256"
        },
        {
          "indexed": false,
          "internalType": "uint256",
          "name": "value",
          "type": "uint256"
        }
      ],
      "name": "TransferSingle",
      "type": "event"
    },
    {
      "anonymous": false,
      "inputs": [
        {
          "indexed": false,
          "internalType": "string",
          "name": "value",
          "type": "string"
        },
        {
          "indexed": true,
          "internalType": "uint256",
          "name": "id",
          "type": "uint256"
        }
      ],
      "name": "URI",
      "type": "event"
    },
    {
      "inputs": [
        {
          "internalType": "address",
          "name": "account",
          "type": "address"
        },
        {
          "internalType": "uint256",
          "name": "id",
          "type": "uint256"
        }
      ],
      "name": "balanceOf",
      "outputs": [
        {
          "internalType": "uint256",
          "name": "",
          "type": "uint256"
        }
      ],
      "stateMutability": "view",
      "type": "function"
    },
    {
      "inputs": [
        {
          "internalType": "address[]",
          "name": "accounts",
          "type": "address[]"
        },
        {
          "internalType": "uint256[]",
          "name": "ids",
          "type": "uint256[]"
        }
      ],
      "name": "balanceOfBatch",
      "outputs": [
        {
          "internalType": "uint256[]",
          "name": "",
          "type": "uint256[]"
        }
      ],
      "stateMutability": "view",
      "type": "function"
    },
    {
      "inputs": [],
      "name": "cancel",
      "outputs": [],
      "stateMutability": "nonpayable",
      "type": "function"
    },
    {
      "inputs": [],
      "name": "cancelled",
      "outputs": [
        {
          "internalType": "bool",
          "name": "",
          "type": "bool"
        }
      ],
      "stateMutability": "view",
      "type": "function"
    },
    {
      "inputs": [],
      "name": "close",
      "outputs": [],
      "stateMutability": "nonpayable",
      "type": "function"
    },
    {
      "inputs": [],
      "name": "closed",
      "outputs": [
        {
          "internalType": "bool",
          "name": "",
          "type": "bool"
        }
      ],
      "stateMutability": "view",
      "type": "function"
    },
    {
      "inputs": [],
      "name": "closer",
      "outputs": [
        {
          "internalType": "address",
          "name": "",
          "type": "address"
        }
      ],
      "stateMutability": "view",
      "type": "function"
    },
    {
      "inputs": [],
      "name": "closerShare",
      "outputs": [
        {
          "internalType": "uint256",
          "name": "",
          "type": "uint256"
        }
      ],
      "stateMutability": "view",
      "type": "function"
    },
    {
      "inputs": [],
      "name": "fundingPhaseBlockLength",
      "outputs": [
        {
          "internalType": "uint256",
          "name": "",
          "type": "uint256"
        }
      ],
      "stateMutability": "view",
      "type": "function"
    },
    {
      "inputs": [],
      "name": "getInputTokens",
      "outputs": [
        {
          "internalType": "address[]",
          "name": "",
          "type": "address[]"
        }
      ],
      "stateMutability": "view",
      "type": "function"
    },
    {
      "inputs": [],
      "name": "getOptions",
      "outputs": [
        {
          "internalType": "uint256[]",
          "name": "",
          "type": "uint256[]"
        },
        {
          "internalType": "string[]",
          "name": "",
          "type": "string[]"
        },
        {
          "internalType": "string[]",
          "name": "",
          "type": "string[]"
        },
        {
          "internalType": "uint256[]",
          "name": "",
          "type": "uint256[]"
        },
        {
          "internalType": "int8[]",
          "name": "",
          "type": "int8[]"
        },
        {
          "internalType": "uint256[]",
          "name": "",
          "type": "uint256[]"
        }
      ],
      "stateMutability": "view",
      "type": "function"
    },
    {
      "inputs": [],
      "name": "getOutputTokens",
      "outputs": [
        {
          "internalType": "address[]",
          "name": "",
          "type": "address[]"
        }
      ],
      "stateMutability": "view",
      "type": "function"
    },
    {
      "inputs": [],
      "name": "getYieldTokens",
      "outputs": [
        {
          "internalType": "address[]",
          "name": "",
          "type": "address[]"
        }
      ],
      "stateMutability": "view",
      "type": "function"
    },
    {
      "inputs": [
        {
          "internalType": "address",
          "name": "account",
          "type": "address"
        },
        {
          "internalType": "address",
          "name": "operator",
          "type": "address"
        }
      ],
      "name": "isApprovedForAll",
      "outputs": [
        {
          "internalType": "bool",
          "name": "",
          "type": "bool"
        }
      ],
      "stateMutability": "view",
      "type": "function"
    },
    {
      "inputs": [],
      "name": "launcher",
      "outputs": [
        {
          "internalType": "address",
          "name": "",
          "type": "address"
        }
      ],
      "stateMutability": "view",
      "type": "function"
    },
    {
      "inputs": [],
      "name": "launcherShare",
      "outputs": [
        {
          "internalType": "uint256",
          "name": "",
          "type": "uint256"
        }
      ],
      "stateMutability": "view",
      "type": "function"
    },
    {
      "inputs": [],
      "name": "loserShare",
      "outputs": [
        {
          "internalType": "uint256",
          "name": "",
          "type": "uint256"
        }
      ],
      "stateMutability": "view",
      "type": "function"
    },
    {
      "inputs": [],
      "name": "name",
      "outputs": [
        {
          "internalType": "string",
          "name": "",
          "type": "string"
        }
      ],
      "stateMutability": "view",
      "type": "function"
    },
    {
      "inputs": [],
      "name": "owner",
      "outputs": [
        {
          "internalType": "address",
          "name": "",
          "type": "address"
        }
      ],
      "stateMutability": "view",
      "type": "function"
    },
    {
      "inputs": [],
      "name": "ownerShare",
      "outputs": [
        {
          "internalType": "uint256",
          "name": "",
          "type": "uint256"
        }
      ],
      "stateMutability": "view",
      "type": "function"
    },
    {
      "inputs": [],
      "name": "postFundingPhaseBlockLength",
      "outputs": [
        {
          "internalType": "uint256",
          "name": "",
          "type": "uint256"
        }
      ],
      "stateMutability": "view",
      "type": "function"
    },
    {
      "inputs": [],
      "name": "runBlock",
      "outputs": [
        {
          "internalType": "uint256",
          "name": "",
          "type": "uint256"
        }
      ],
      "stateMutability": "view",
      "type": "function"
    },
    {
      "inputs": [],
      "name": "runner",
      "outputs": [
        {
          "internalType": "address",
          "name": "",
          "type": "address"
        }
      ],
      "stateMutability": "view",
      "type": "function"
    },
    {
      "inputs": [],
      "name": "runnerShare",
      "outputs": [
        {
          "internalType": "uint256",
          "name": "",
          "type": "uint256"
        }
      ],
      "stateMutability": "view",
      "type": "function"
    },
    {
      "inputs": [],
      "name": "running",
      "outputs": [
        {
          "internalType": "bool",
          "name": "",
          "type": "bool"
        }
      ],
      "stateMutability": "view",
      "type": "function"
    },
    {
      "inputs": [],
      "name": "runningPhaseBlockLength",
      "outputs": [
        {
          "internalType": "uint256",
          "name": "",
          "type": "uint256"
        }
      ],
      "stateMutability": "view",
      "type": "function"
    },
    {
      "inputs": [
        {
          "internalType": "address",
          "name": "from",
          "type": "address"
        },
        {
          "internalType": "address",
          "name": "to",
          "type": "address"
        },
        {
          "internalType": "uint256[]",
          "name": "ids",
          "type": "uint256[]"
        },
        {
          "internalType": "uint256[]",
          "name": "amounts",
          "type": "uint256[]"
        },
        {
          "internalType": "bytes",
          "name": "data",
          "type": "bytes"
        }
      ],
      "name": "safeBatchTransferFrom",
      "outputs": [],
      "stateMutability": "nonpayable",
      "type": "function"
    },
    {
      "inputs": [
        {
          "internalType": "address",
          "name": "from",
          "type": "address"
        },
        {
          "internalType": "address",
          "name": "to",
          "type": "address"
        },
        {
          "internalType": "uint256",
          "name": "id",
          "type": "uint256"
        },
        {
          "internalType": "uint256",
          "name": "amount",
          "type": "uint256"
        },
        {
          "internalType": "bytes",
          "name": "data",
          "type": "bytes"
        }
      ],
      "name": "safeTransferFrom",
      "outputs": [],
      "stateMutability": "nonpayable",
      "type": "function"
    },
    {
      "inputs": [
        {
          "internalType": "address",
          "name": "operator",
          "type": "address"
        },
        {
          "internalType": "bool",
          "name": "approved",
          "type": "bool"
        }
      ],
      "name": "setApprovalForAll",
      "outputs": [],
      "stateMutability": "nonpayable",
      "type": "function"
    },
    {
      "inputs": [],
      "name": "start",
      "outputs": [],
      "stateMutability": "nonpayable",
      "type": "function"
    },
    {
      "inputs": [],
      "name": "startBlock",
      "outputs": [
        {
          "internalType": "uint256",
          "name": "",
          "type": "uint256"
        }
      ],
      "stateMutability": "view",
      "type": "function"
    },
    {
      "inputs": [
        {
          "internalType": "bytes4",
          "name": "interfaceId",
          "type": "bytes4"
        }
      ],
      "name": "supportsInterface",
      "outputs": [
        {
          "internalType": "bool",
          "name": "",
          "type": "bool"
        }
      ],
      "stateMutability": "view",
      "type": "function"
    },
    {
      "inputs": [],
      "name": "token",
      "outputs": [
        {
          "internalType": "contract IERC20",
          "name": "",
          "type": "address"
        }
      ],
      "stateMutability": "view",
      "type": "function"
    },
    {
      "inputs": [
        {
          "internalType": "uint256",
          "name": "",
          "type": "uint256"
        }
      ],
      "name": "uri",
      "outputs": [
        {
          "internalType": "string",
          "name": "",
          "type": "string"
        }
      ],
      "stateMutability": "view",
      "type": "function"
    },
    {
      "inputs": [
        {
          "internalType": "uint256",
          "name": "amount",
          "type": "uint256"
        }
      ],
      "name": "deposit",
      "outputs": [],
      "stateMutability": "nonpayable",
      "type": "function"
    },
    {
      "inputs": [
        {
          "internalType": "uint256",
          "name": "amount",
          "type": "uint256"
        }
      ],
      "name": "withdraw",
      "outputs": [],
      "stateMutability": "nonpayable",
      "type": "function"
    }
  ],
  "bytecode": "0x60806040526000601160006101000a81548160ff0219169083151502179055506000601160016101000a81548160ff0219169083151502179055506000601160026101000a81548160ff0219169083151502179055503480156200006257600080fd5b50604051620042fd380380620042fd833981810160405281019062000088919062000867565b6040518060400160405280600f81526020017f68747470733a2f2f7572692e636f6d0000000000000000000000000000000000815250808383620000d2826200024060201b60201c565b620000e381620002a660201b60201c565b620000f4826200030c60201b60201c565b505043600c81905550620001156301ffc9a760e01b6200037260201b60201c565b62000126816200044b60201b60201c565b6200013e63d9b67a2660e01b6200037260201b60201c565b62000156630e89341c60e01b6200037260201b60201c565b505062000169836200046760201b60201c565b6200017a336200048360201b60201c565b6200018b33620004c760201b60201c565b6200019e614e206200050b60201b60201c565b620001b1610ce46200055d60201b60201c565b620001c4610ce4620005af60201b60201c565b620001d7610ce46200060160201b60201c565b620001eb62030d406200065360201b60201c565b620001fe614e20620006a560201b60201c565b6200021262030d40620006af60201b60201c565b620002266202bf20620006b960201b60201c565b62000237826200070a60201b60201c565b50505062000c82565b6000819080600181540180825580915050600190039060005260206000200160009091909190916101000a81548173ffffffffffffffffffffffffffffffffffffffff021916908373ffffffffffffffffffffffffffffffffffffffff16021790555050565b6001819080600181540180825580915050600190039060005260206000200160009091909190916101000a81548173ffffffffffffffffffffffffffffffffffffffff021916908373ffffffffffffffffffffffffffffffffffffffff16021790555050565b6001819080600181540180825580915050600190039060005260206000200160009091909190916101000a81548173ffffffffffffffffffffffffffffffffffffffff021916908373ffffffffffffffffffffffffffffffffffffffff16021790555050565b63ffffffff60e01b817bffffffffffffffffffffffffffffffffffffffffffffffffffffffff19161415620003de576040517f08c379a0000000000000000000000000000000000000000000000000000000008152600401620003d59062000ae8565b60405180910390fd5b600160126000837bffffffffffffffffffffffffffffffffffffffffffffffffffffffff19167bffffffffffffffffffffffffffffffffffffffffffffffffffffffff1916815260200190815260200160002060006101000a81548160ff02191690831515021790555050565b8060159080519060200190620004639291906200074e565b5050565b80601690805190602001906200047f9291906200074e565b5050565b80600660006101000a81548173ffffffffffffffffffffffffffffffffffffffff021916908373ffffffffffffffffffffffffffffffffffffffff16021790555050565b80600360006101000a81548173ffffffffffffffffffffffffffffffffffffffff021916908373ffffffffffffffffffffffffffffffffffffffff16021790555050565b620f4240811062000553576040517f08c379a00000000000000000000000000000000000000000000000000000000081526004016200054a9062000b70565b60405180910390fd5b80600a8190555050565b620f42408110620005a5576040517f08c379a00000000000000000000000000000000000000000000000000000000081526004016200059c9062000b4e565b60405180910390fd5b8060078190555050565b620f42408110620005f7576040517f08c379a0000000000000000000000000000000000000000000000000000000008152600401620005ee9062000b2c565b60405180910390fd5b8060088190555050565b620f4240811062000649576040517f08c379a0000000000000000000000000000000000000000000000000000000008152600401620006409062000ac6565b60405180910390fd5b8060098190555050565b620f424081106200069b576040517f08c379a0000000000000000000000000000000000000000000000000000000008152600401620006929062000aa4565b60405180910390fd5b8060098190555050565b80600e8190555050565b80600f8190555050565b600f54811062000700576040517f08c379a0000000000000000000000000000000000000000000000000000000008152600401620006f79062000b0a565b60405180910390fd5b8060108190555050565b80601760006101000a81548173ffffffffffffffffffffffffffffffffffffffff021916908373ffffffffffffffffffffffffffffffffffffffff16021790555050565b828054600181600116156101000203166002900490600052602060002090601f016020900481019282601f106200079157805160ff1916838001178555620007c2565b82800160010185558215620007c2579182015b82811115620007c1578251825591602001919060010190620007a4565b5b509050620007d19190620007d5565b5090565b5b80821115620007f0576000816000905550600101620007d6565b5090565b600081519050620008058162000c68565b92915050565b600082601f8301126200081d57600080fd5b8151620008346200082e8262000bc0565b62000b92565b915080825260208301602083018583830111156200085157600080fd5b6200085e83828462000c32565b50505092915050565b6000806000606084860312156200087d57600080fd5b600084015167ffffffffffffffff8111156200089857600080fd5b620008a6868287016200080b565b9350506020620008b986828701620007f4565b9250506040620008cc86828701620007f4565b9150509250925092565b6000620008e560148362000bed565b91507f6c6f7365725f73686172655f746f6f5f686967680000000000000000000000006000830152602082019050919050565b60006200092760158362000bed565b91507f636c6f7365725f73686172655f746f6f5f6869676800000000000000000000006000830152602082019050919050565b600062000969601c8362000bed565b91507f4552433136353a20696e76616c696420696e74657266616365206964000000006000830152602082019050919050565b6000620009ab601c8362000bed565b91507f706f73745f66756e64696e675f657863656564735f72756e74696d65000000006000830152602082019050919050565b6000620009ed60158362000bed565b91507f72756e6e65725f73686172655f746f6f5f6869676800000000000000000000006000830152602082019050919050565b600062000a2f60178362000bed565b91507f6c61756e636865725f73686172655f746f6f5f686967680000000000000000006000830152602082019050919050565b600062000a7160148362000bed565b91507f6f776e65725f73686172655f746f6f5f686967680000000000000000000000006000830152602082019050919050565b6000602082019050818103600083015262000abf81620008d6565b9050919050565b6000602082019050818103600083015262000ae18162000918565b9050919050565b6000602082019050818103600083015262000b03816200095a565b9050919050565b6000602082019050818103600083015262000b25816200099c565b9050919050565b6000602082019050818103600083015262000b4781620009de565b9050919050565b6000602082019050818103600083015262000b698162000a20565b9050919050565b6000602082019050818103600083015262000b8b8162000a62565b9050919050565b6000604051905081810181811067ffffffffffffffff8211171562000bb657600080fd5b8060405250919050565b600067ffffffffffffffff82111562000bd857600080fd5b601f19601f8301169050602081019050919050565b600082825260208201905092915050565b600062000c0b8262000c12565b9050919050565b600073ffffffffffffffffffffffffffffffffffffffff82169050919050565b60005b8381101562000c5257808201518184015260208101905062000c35565b8381111562000c62576000848401525b50505050565b62000c738162000bfe565b811462000c7f57600080fd5b50565b61366b8062000c926000396000f3fe608060405234801561001057600080fd5b506004361061021b5760003560e01c8063709df63c11610125578063be9a6555116100ad578063db11e4721161007c578063db11e472146105df578063e985e9c5146105fd578063ea8a1af01461062d578063f242432a14610637578063fc0c546a146106535761021b565b8063be9a655514610576578063cc2ee19614610580578063cfa92858146105a3578063d85bd526146105c15761021b565b80638f1c3151116100f45780638f1c3151146104e45780639a82a09a14610502578063a22cb46514610520578063b30e26f71461053c578063b6b55f251461055a5761021b565b8063709df63c1461046c5780637a8ca6151461048a57806389006dc0146104a85780638da5cb5b146104c65761021b565b806333d94535116101a857806348cd4cb11161017757806348cd4cb1146103c45780634e1273f4146103e2578063597e1fb51461041257806369208dcb146104305780637044f2821461044e5761021b565b806333d94535146103605780633e7954f91461037e57806343d726d61461039c578063454dcb45146103a65761021b565b80630e89341c116101ef5780630e89341c146102bc57806316eebd1e146102ec5780632e1a7d4d1461030a5780632eb2c2d61461032657806330b55c5a146103425761021b565b8062fdd58e1461022057806301ffc9a71461025057806306fdde03146102805780630b01f25c1461029e575b600080fd5b61023a60048036038101906102359190612581565b610671565b60405161024791906131da565b60405180910390f35b61026a60048036038101906102659190612629565b61073b565b6040516102779190613002565b60405180910390f35b6102886107a3565b6040516102959190613038565b60405180910390f35b6102a6610841565b6040516102b391906131da565b60405180910390f35b6102d660048036038101906102d1919061267b565b610847565b6040516102e39190613038565b60405180910390f35b6102f46108eb565b6040516103019190612e1f565b60405180910390f35b610324600480360381019061031f919061267b565b610911565b005b610340600480360381019061033b91906123f7565b610914565b005b61034a610cd5565b60405161035791906131da565b60405180910390f35b610368610cdb565b60405161037591906131da565b60405180910390f35b610386610ce1565b60405161039391906131da565b60405180910390f35b6103a4610ce7565b005b6103ae610d04565b6040516103bb9190612efc565b60405180910390f35b6103cc610d92565b6040516103d991906131da565b60405180910390f35b6103fc60048036038101906103f791906125bd565b610d98565b6040516104099190612f1e565b60405180910390f35b61041a610f5e565b6040516104279190613002565b60405180910390f35b610438610f71565b60405161044591906131da565b60405180910390f35b610456610f77565b6040516104639190612e1f565b60405180910390f35b610474610f9d565b6040516104819190612efc565b60405180910390f35b61049261102b565b60405161049f9190612e1f565b60405180910390f35b6104b0611051565b6040516104bd91906131da565b60405180910390f35b6104ce611057565b6040516104db9190612e1f565b60405180910390f35b6104ec61107d565b6040516104f991906131da565b60405180910390f35b61050a611083565b6040516105179190613002565b60405180910390f35b61053a60048036038101906105359190612545565b611096565b005b610544611217565b60405161055191906131da565b60405180910390f35b610574600480360381019061056f919061267b565b61121d565b005b61057e611220565b005b610588611245565b60405161059a96959493929190612f40565b60405180910390f35b6105ab6116e9565b6040516105b891906131da565b60405180910390f35b6105c96116ef565b6040516105d69190613002565b60405180910390f35b6105e7611702565b6040516105f49190612efc565b60405180910390f35b610617600480360381019061061291906123bb565b611790565b6040516106249190613002565b60405180910390f35b610635611824565b005b610651600480360381019061064c91906124b6565b6118c0565b005b61065b611c03565b604051610668919061301d565b60405180910390f35b60008073ffffffffffffffffffffffffffffffffffffffff168373ffffffffffffffffffffffffffffffffffffffff1614156106e2576040517f08c379a00000000000000000000000000000000000000000000000000000000081526004016106d99061309a565b60405180910390fd5b6013600083815260200190815260200160002060008473ffffffffffffffffffffffffffffffffffffffff1673ffffffffffffffffffffffffffffffffffffffff16815260200190815260200160002054905092915050565b600060126000837bffffffffffffffffffffffffffffffffffffffffffffffffffffffff19167bffffffffffffffffffffffffffffffffffffffffffffffffffffffff1916815260200190815260200160002060009054906101000a900460ff169050919050565b60168054600181600116156101000203166002900480601f0160208091040260200160405190810160405280929190818152602001828054600181600116156101000203166002900480156108395780601f1061080e57610100808354040283529160200191610839565b820191906000526020600020905b81548152906001019060200180831161081c57829003601f168201915b505050505081565b60085481565b606060158054600181600116156101000203166002900480601f0160208091040260200160405190810160405280929190818152602001828054600181600116156101000203166002900480156108df5780601f106108b4576101008083540402835291602001916108df565b820191906000526020600020905b8154815290600101906020018083116108c257829003601f168201915b50505050509050919050565b600360009054906101000a900473ffffffffffffffffffffffffffffffffffffffff1681565b50565b8151835114610958576040517f08c379a000000000000000000000000000000000000000000000000000000000815260040161094f906131ba565b60405180910390fd5b600073ffffffffffffffffffffffffffffffffffffffff168473ffffffffffffffffffffffffffffffffffffffff1614156109c8576040517f08c379a00000000000000000000000000000000000000000000000000000000081526004016109bf9061311a565b60405180910390fd5b6109d0611c29565b73ffffffffffffffffffffffffffffffffffffffff168573ffffffffffffffffffffffffffffffffffffffff161480610a165750610a1585610a10611c29565b611790565b5b610a55576040517f08c379a0000000000000000000000000000000000000000000000000000000008152600401610a4c9061313a565b60405180910390fd5b6000610a5f611c29565b9050610a6f818787878787611c31565b60005b8451811015610c40576000858281518110610a8957fe5b602002602001015190506000858381518110610aa157fe5b60200260200101519050610b28816040518060600160405280602a815260200161360c602a91396013600086815260200190815260200160002060008d73ffffffffffffffffffffffffffffffffffffffff1673ffffffffffffffffffffffffffffffffffffffff16815260200190815260200160002054611c399092919063ffffffff16565b6013600084815260200190815260200160002060008b73ffffffffffffffffffffffffffffffffffffffff1673ffffffffffffffffffffffffffffffffffffffff16815260200190815260200160002081905550610bdf816013600085815260200190815260200160002060008b73ffffffffffffffffffffffffffffffffffffffff1673ffffffffffffffffffffffffffffffffffffffff16815260200190815260200160002054611c9490919063ffffffff16565b6013600084815260200190815260200160002060008a73ffffffffffffffffffffffffffffffffffffffff1673ffffffffffffffffffffffffffffffffffffffff168152602001908152602001600020819055505050806001019050610a72565b508473ffffffffffffffffffffffffffffffffffffffff168673ffffffffffffffffffffffffffffffffffffffff168273ffffffffffffffffffffffffffffffffffffffff167f4a39dc06d4c0dbc64b70af90fd698a233a518aa5d07e595d983b8c0526c8f7fb8787604051610cb7929190612fcb565b60405180910390a4610ccd818787878787611ce9565b505050505050565b600b5481565b600e5481565b600d5481565b610cf033611eb9565b610cfa6001611efd565b610d02611f1a565b565b60606002805480602002602001604051908101604052809291908181526020018280548015610d8857602002820191906000526020600020905b8160009054906101000a900473ffffffffffffffffffffffffffffffffffffffff1673ffffffffffffffffffffffffffffffffffffffff1681526020019060010190808311610d3e575b5050505050905090565b600c5481565b60608151835114610dde576040517f08c379a0000000000000000000000000000000000000000000000000000000008152600401610dd59061319a565b60405180910390fd5b6060835167ffffffffffffffff81118015610df857600080fd5b50604051908082528060200260200182016040528015610e275781602001602082028036833780820191505090505b50905060005b8451811015610f5357600073ffffffffffffffffffffffffffffffffffffffff16858281518110610e5a57fe5b602002602001015173ffffffffffffffffffffffffffffffffffffffff161415610eb9576040517f08c379a0000000000000000000000000000000000000000000000000000000008152600401610eb0906130ba565b60405180910390fd5b60136000858381518110610ec957fe5b602002602001015181526020019081526020016000206000868381518110610eed57fe5b602002602001015173ffffffffffffffffffffffffffffffffffffffff1673ffffffffffffffffffffffffffffffffffffffff16815260200190815260200160002054828281518110610f3c57fe5b602002602001018181525050806001019050610e2d565b508091505092915050565b601160019054906101000a900460ff1681565b60095481565b600560009054906101000a900473ffffffffffffffffffffffffffffffffffffffff1681565b6060600180548060200260200160405190810160405280929190818152602001828054801561102157602002820191906000526020600020905b8160009054906101000a900473ffffffffffffffffffffffffffffffffffffffff1673ffffffffffffffffffffffffffffffffffffffff1681526020019060010190808311610fd7575b5050505050905090565b600460009054906101000a900473ffffffffffffffffffffffffffffffffffffffff1681565b600f5481565b600660009054906101000a900473ffffffffffffffffffffffffffffffffffffffff1681565b600a5481565b601160029054906101000a900460ff1681565b8173ffffffffffffffffffffffffffffffffffffffff166110b5611c29565b73ffffffffffffffffffffffffffffffffffffffff16141561110c576040517f08c379a00000000000000000000000000000000000000000000000000000000081526004016111039061317a565b60405180910390fd5b8060146000611119611c29565b73ffffffffffffffffffffffffffffffffffffffff1673ffffffffffffffffffffffffffffffffffffffff16815260200190815260200160002060008473ffffffffffffffffffffffffffffffffffffffff1673ffffffffffffffffffffffffffffffffffffffff16815260200190815260200160002060006101000a81548160ff0219169083151502179055508173ffffffffffffffffffffffffffffffffffffffff166111c6611c29565b73ffffffffffffffffffffffffffffffffffffffff167f17307eab39ab6107e8899845ad3d59bd9653f200f220920489ca2b5937696c318360405161120b9190613002565b60405180910390a35050565b60105481565b50565b61122a6001611f1c565b61123333611f39565b61123b611f7d565b611243611f86565b565b6060806060806060806000601880549050905060608167ffffffffffffffff8111801561127157600080fd5b506040519080825280602002602001820160405280156112a05781602001602082028036833780820191505090505b50905060608267ffffffffffffffff811180156112bc57600080fd5b506040519080825280602002602001820160405280156112f057816020015b60608152602001906001900390816112db5790505b50905060608367ffffffffffffffff8111801561130c57600080fd5b5060405190808252806020026020018201604052801561134057816020015b606081526020019060019003908161132b5790505b50905060608467ffffffffffffffff8111801561135c57600080fd5b5060405190808252806020026020018201604052801561138b5781602001602082028036833780820191505090505b50905060608567ffffffffffffffff811180156113a757600080fd5b506040519080825280602002602001820160405280156113d65781602001602082028036833780820191505090505b50905060608667ffffffffffffffff811180156113f257600080fd5b506040519080825280602002602001820160405280156114215781602001602082028036833780820191505090505b50905060005b878110156116c7576018818154811061143c57fe5b90600052602060002090600602016000015487828151811061145a57fe5b6020026020010181815250506018818154811061147357fe5b90600052602060002090600602016001018054600181600116156101000203166002900480601f0160208091040260200160405190810160405280929190818152602001828054600181600116156101000203166002900480156115185780601f106114ed57610100808354040283529160200191611518565b820191906000526020600020905b8154815290600101906020018083116114fb57829003601f168201915b505050505086828151811061152957fe5b60200260200101819052506018818154811061154157fe5b90600052602060002090600602016002018054600181600116156101000203166002900480601f0160208091040260200160405190810160405280929190818152602001828054600181600116156101000203166002900480156115e65780601f106115bb576101008083540402835291602001916115e6565b820191906000526020600020905b8154815290600101906020018083116115c957829003601f168201915b50505050508582815181106115f757fe5b60200260200101819052506018818154811061160f57fe5b90600052602060002090600602016003015484828151811061162d57fe5b6020026020010181815250506018818154811061164657fe5b906000526020600020906006020160040160009054906101000a900460000b83828151811061167157fe5b602002602001019060000b908160000b815250506018818154811061169257fe5b9060005260206000209060060201600501548282815181106116b057fe5b602002602001018181525050806001019050611427565b508585858585859c509c509c509c509c509c5050505050505050909192939495565b60075481565b601160009054906101000a900460ff1681565b6060600080548060200260200160405190810160405280929190818152602001828054801561178657602002820191906000526020600020905b8160009054906101000a900473ffffffffffffffffffffffffffffffffffffffff1673ffffffffffffffffffffffffffffffffffffffff168152602001906001019080831161173c575b5050505050905090565b6000601460008473ffffffffffffffffffffffffffffffffffffffff1673ffffffffffffffffffffffffffffffffffffffff16815260200190815260200160002060008373ffffffffffffffffffffffffffffffffffffffff1673ffffffffffffffffffffffffffffffffffffffff16815260200190815260200160002060009054906101000a900460ff16905092915050565b600660009054906101000a900473ffffffffffffffffffffffffffffffffffffffff1673ffffffffffffffffffffffffffffffffffffffff163373ffffffffffffffffffffffffffffffffffffffff16146118b4576040517f08c379a00000000000000000000000000000000000000000000000000000000081526004016118ab9061315a565b60405180910390fd5b6118be6001611f88565b565b600073ffffffffffffffffffffffffffffffffffffffff168473ffffffffffffffffffffffffffffffffffffffff161415611930576040517f08c379a00000000000000000000000000000000000000000000000000000000081526004016119279061311a565b60405180910390fd5b611938611c29565b73ffffffffffffffffffffffffffffffffffffffff168573ffffffffffffffffffffffffffffffffffffffff16148061197e575061197d85611978611c29565b611790565b5b6119bd576040517f08c379a00000000000000000000000000000000000000000000000000000000081526004016119b4906130fa565b60405180910390fd5b60006119c7611c29565b90506119e78187876119d888611fa5565b6119e188611fa5565b87611c31565b611a64836040518060600160405280602a815260200161360c602a91396013600088815260200190815260200160002060008a73ffffffffffffffffffffffffffffffffffffffff1673ffffffffffffffffffffffffffffffffffffffff16815260200190815260200160002054611c399092919063ffffffff16565b6013600086815260200190815260200160002060008873ffffffffffffffffffffffffffffffffffffffff1673ffffffffffffffffffffffffffffffffffffffff16815260200190815260200160002081905550611b1b836013600087815260200190815260200160002060008873ffffffffffffffffffffffffffffffffffffffff1673ffffffffffffffffffffffffffffffffffffffff16815260200190815260200160002054611c9490919063ffffffff16565b6013600086815260200190815260200160002060008773ffffffffffffffffffffffffffffffffffffffff1673ffffffffffffffffffffffffffffffffffffffff168152602001908152602001600020819055508473ffffffffffffffffffffffffffffffffffffffff168673ffffffffffffffffffffffffffffffffffffffff168273ffffffffffffffffffffffffffffffffffffffff167fc3d58168c5ae7397731d063d5bbf3d657854427343f4c083240f7aacaa2d0f628787604051611be59291906131f5565b60405180910390a4611bfb818787878787612015565b505050505050565b601760009054906101000a900473ffffffffffffffffffffffffffffffffffffffff1681565b600033905090565b505050505050565b6000838311158290611c81576040517f08c379a0000000000000000000000000000000000000000000000000000000008152600401611c789190613038565b60405180910390fd5b5060008385039050809150509392505050565b600080828401905083811015611cdf576040517f08c379a0000000000000000000000000000000000000000000000000000000008152600401611cd6906130da565b60405180910390fd5b8091505092915050565b611d088473ffffffffffffffffffffffffffffffffffffffff166121e5565b15611eb1578373ffffffffffffffffffffffffffffffffffffffff1663bc197c8187878686866040518663ffffffff1660e01b8152600401611d4e959493929190612e3a565b602060405180830381600087803b158015611d6857600080fd5b505af1925050508015611d9957506040513d601f19601f82011682018060405250810190611d969190612652565b60015b611e2857611da56134f9565b80611db05750611ded565b806040517f08c379a0000000000000000000000000000000000000000000000000000000008152600401611de49190613038565b60405180910390fd5b6040517f08c379a0000000000000000000000000000000000000000000000000000000008152600401611e1f9061305a565b60405180910390fd5b63bc197c8160e01b7bffffffffffffffffffffffffffffffffffffffffffffffffffffffff1916817bffffffffffffffffffffffffffffffffffffffffffffffffffffffff191614611eaf576040517f08c379a0000000000000000000000000000000000000000000000000000000008152600401611ea69061307a565b60405180910390fd5b505b505050505050565b80600560006101000a81548173ffffffffffffffffffffffffffffffffffffffff021916908373ffffffffffffffffffffffffffffffffffffffff16021790555050565b80601160016101000a81548160ff02191690831515021790555050565b565b80601160006101000a81548160ff02191690831515021790555050565b80600460006101000a81548173ffffffffffffffffffffffffffffffffffffffff021916908373ffffffffffffffffffffffffffffffffffffffff16021790555050565b43600d81905550565b565b80601160026101000a81548160ff02191690831515021790555050565b606080600167ffffffffffffffff81118015611fc057600080fd5b50604051908082528060200260200182016040528015611fef5781602001602082028036833780820191505090505b509050828160008151811061200057fe5b60200260200101818152505080915050919050565b6120348473ffffffffffffffffffffffffffffffffffffffff166121e5565b156121dd578373ffffffffffffffffffffffffffffffffffffffff1663f23a6e6187878686866040518663ffffffff1660e01b815260040161207a959493929190612ea2565b602060405180830381600087803b15801561209457600080fd5b505af19250505080156120c557506040513d601f19601f820116820180604052508101906120c29190612652565b60015b612154576120d16134f9565b806120dc5750612119565b806040517f08c379a00000000000000000000000000000000000000000000000000000000081526004016121109190613038565b60405180910390fd5b6040517f08c379a000000000000000000000000000000000000000000000000000000000815260040161214b9061305a565b60405180910390fd5b63f23a6e6160e01b7bffffffffffffffffffffffffffffffffffffffffffffffffffffffff1916817bffffffffffffffffffffffffffffffffffffffffffffffffffffffff1916146121db576040517f08c379a00000000000000000000000000000000000000000000000000000000081526004016121d29061307a565b60405180910390fd5b505b505050505050565b600080823b905060008111915050919050565b600081359050612207816135af565b92915050565b600082601f83011261221e57600080fd5b813561223161222c8261324b565b61321e565b9150818183526020840193506020810190508385602084028201111561225657600080fd5b60005b83811015612286578161226c88826121f8565b845260208401935060208301925050600181019050612259565b5050505092915050565b600082601f8301126122a157600080fd5b81356122b46122af82613273565b61321e565b915081818352602084019350602081019050838560208402820111156122d957600080fd5b60005b8381101561230957816122ef88826123a6565b8452602084019350602083019250506001810190506122dc565b5050505092915050565b600081359050612322816135c6565b92915050565b600081359050612337816135dd565b92915050565b60008151905061234c816135dd565b92915050565b600082601f83011261236357600080fd5b81356123766123718261329b565b61321e565b9150808252602083016020830185838301111561239257600080fd5b61239d838284613499565b50505092915050565b6000813590506123b5816135f4565b92915050565b600080604083850312156123ce57600080fd5b60006123dc858286016121f8565b92505060206123ed858286016121f8565b9150509250929050565b600080600080600060a0868803121561240f57600080fd5b600061241d888289016121f8565b955050602061242e888289016121f8565b945050604086013567ffffffffffffffff81111561244b57600080fd5b61245788828901612290565b935050606086013567ffffffffffffffff81111561247457600080fd5b61248088828901612290565b925050608086013567ffffffffffffffff81111561249d57600080fd5b6124a988828901612352565b9150509295509295909350565b600080600080600060a086880312156124ce57600080fd5b60006124dc888289016121f8565b95505060206124ed888289016121f8565b94505060406124fe888289016123a6565b935050606061250f888289016123a6565b925050608086013567ffffffffffffffff81111561252c57600080fd5b61253888828901612352565b9150509295509295909350565b6000806040838503121561255857600080fd5b6000612566858286016121f8565b925050602061257785828601612313565b9150509250929050565b6000806040838503121561259457600080fd5b60006125a2858286016121f8565b92505060206125b3858286016123a6565b9150509250929050565b600080604083850312156125d057600080fd5b600083013567ffffffffffffffff8111156125ea57600080fd5b6125f68582860161220d565b925050602083013567ffffffffffffffff81111561261357600080fd5b61261f85828601612290565b9150509250929050565b60006020828403121561263b57600080fd5b600061264984828501612328565b91505092915050565b60006020828403121561266457600080fd5b60006126728482850161233d565b91505092915050565b60006020828403121561268d57600080fd5b600061269b848285016123a6565b91505092915050565b60006126b08383612700565b60208301905092915050565b60006126c88383612904565b60208301905092915050565b60006126e08383612913565b905092915050565b60006126f48383612e01565b60208301905092915050565b612709816133f4565b82525050565b612718816133f4565b82525050565b600061272982613307565b612733818561337d565b935061273e836132c7565b8060005b8381101561276f57815161275688826126a4565b975061276183613349565b925050600181019050612742565b5085935050505092915050565b600061278782613312565b612791818561338e565b935061279c836132d7565b8060005b838110156127cd5781516127b488826126bc565b97506127bf83613356565b9250506001810190506127a0565b5085935050505092915050565b60006127e58261331d565b6127ef818561339f565b935083602082028501612801856132e7565b8060005b8581101561283d578484038952815161281e85826126d4565b945061282983613363565b925060208a01995050600181019050612805565b50829750879550505050505092915050565b600061285a82613328565b61286481856133b0565b935061286f836132f7565b8060005b838110156128a057815161288788826126e8565b975061289283613370565b925050600181019050612873565b5085935050505092915050565b6128b681613406565b82525050565b60006128c782613333565b6128d181856133c1565b93506128e18185602086016134a8565b6128ea816134db565b840191505092915050565b6128fe81613475565b82525050565b61290d8161343e565b82525050565b600061291e8261333e565b61292881856133d2565b93506129388185602086016134a8565b612941816134db565b840191505092915050565b60006129578261333e565b61296181856133e3565b93506129718185602086016134a8565b61297a816134db565b840191505092915050565b60006129926034836133e3565b91507f455243313135353a207472616e7366657220746f206e6f6e204552433131353560008301527f526563656976657220696d706c656d656e7465720000000000000000000000006020830152604082019050919050565b60006129f86028836133e3565b91507f455243313135353a204552433131353552656365697665722072656a6563746560008301527f6420746f6b656e730000000000000000000000000000000000000000000000006020830152604082019050919050565b6000612a5e602b836133e3565b91507f455243313135353a2062616c616e636520717565727920666f7220746865207a60008301527f65726f20616464726573730000000000000000000000000000000000000000006020830152604082019050919050565b6000612ac46031836133e3565b91507f455243313135353a2062617463682062616c616e636520717565727920666f7260008301527f20746865207a65726f20616464726573730000000000000000000000000000006020830152604082019050919050565b6000612b2a601b836133e3565b91507f536166654d6174683a206164646974696f6e206f766572666c6f7700000000006000830152602082019050919050565b6000612b6a6029836133e3565b91507f455243313135353a2063616c6c6572206973206e6f74206f776e6572206e6f7260008301527f20617070726f76656400000000000000000000000000000000000000000000006020830152604082019050919050565b6000612bd06025836133e3565b91507f455243313135353a207472616e7366657220746f20746865207a65726f20616460008301527f64726573730000000000000000000000000000000000000000000000000000006020830152604082019050919050565b6000612c366032836133e3565b91507f455243313135353a207472616e736665722063616c6c6572206973206e6f742060008301527f6f776e6572206e6f7220617070726f76656400000000000000000000000000006020830152604082019050919050565b6000612c9c6009836133e3565b91507f6e6f745f6f776e657200000000000000000000000000000000000000000000006000830152602082019050919050565b6000612cdc6029836133e3565b91507f455243313135353a2073657474696e6720617070726f76616c2073746174757360008301527f20666f722073656c6600000000000000000000000000000000000000000000006020830152604082019050919050565b6000612d426029836133e3565b91507f455243313135353a206163636f756e747320616e6420696473206c656e67746860008301527f206d69736d6174636800000000000000000000000000000000000000000000006020830152604082019050919050565b6000612da86028836133e3565b91507f455243313135353a2069647320616e6420616d6f756e7473206c656e6774682060008301527f6d69736d617463680000000000000000000000000000000000000000000000006020830152604082019050919050565b612e0a8161346b565b82525050565b612e198161346b565b82525050565b6000602082019050612e34600083018461270f565b92915050565b600060a082019050612e4f600083018861270f565b612e5c602083018761270f565b8181036040830152612e6e818661284f565b90508181036060830152612e82818561284f565b90508181036080830152612e9681846128bc565b90509695505050505050565b600060a082019050612eb7600083018861270f565b612ec4602083018761270f565b612ed16040830186612e10565b612ede6060830185612e10565b8181036080830152612ef081846128bc565b90509695505050505050565b60006020820190508181036000830152612f16818461271e565b905092915050565b60006020820190508181036000830152612f38818461284f565b905092915050565b600060c0820190508181036000830152612f5a818961284f565b90508181036020830152612f6e81886127da565b90508181036040830152612f8281876127da565b90508181036060830152612f96818661284f565b90508181036080830152612faa818561277c565b905081810360a0830152612fbe818461284f565b9050979650505050505050565b60006040820190508181036000830152612fe5818561284f565b90508181036020830152612ff9818461284f565b90509392505050565b600060208201905061301760008301846128ad565b92915050565b600060208201905061303260008301846128f5565b92915050565b60006020820190508181036000830152613052818461294c565b905092915050565b6000602082019050818103600083015261307381612985565b9050919050565b60006020820190508181036000830152613093816129eb565b9050919050565b600060208201905081810360008301526130b381612a51565b9050919050565b600060208201905081810360008301526130d381612ab7565b9050919050565b600060208201905081810360008301526130f381612b1d565b9050919050565b6000602082019050818103600083015261311381612b5d565b9050919050565b6000602082019050818103600083015261313381612bc3565b9050919050565b6000602082019050818103600083015261315381612c29565b9050919050565b6000602082019050818103600083015261317381612c8f565b9050919050565b6000602082019050818103600083015261319381612ccf565b9050919050565b600060208201905081810360008301526131b381612d35565b9050919050565b600060208201905081810360008301526131d381612d9b565b9050919050565b60006020820190506131ef6000830184612e10565b92915050565b600060408201905061320a6000830185612e10565b6132176020830184612e10565b9392505050565b6000604051905081810181811067ffffffffffffffff8211171561324157600080fd5b8060405250919050565b600067ffffffffffffffff82111561326257600080fd5b602082029050602081019050919050565b600067ffffffffffffffff82111561328a57600080fd5b602082029050602081019050919050565b600067ffffffffffffffff8211156132b257600080fd5b601f19601f8301169050602081019050919050565b6000819050602082019050919050565b6000819050602082019050919050565b6000819050602082019050919050565b6000819050602082019050919050565b600081519050919050565b600081519050919050565b600081519050919050565b600081519050919050565b600081519050919050565b600081519050919050565b6000602082019050919050565b6000602082019050919050565b6000602082019050919050565b6000602082019050919050565b600082825260208201905092915050565b600082825260208201905092915050565b600082825260208201905092915050565b600082825260208201905092915050565b600082825260208201905092915050565b600082825260208201905092915050565b600082825260208201905092915050565b60006133ff8261344b565b9050919050565b60008115159050919050565b60007fffffffff0000000000000000000000000000000000000000000000000000000082169050919050565b60008160000b9050919050565b600073ffffffffffffffffffffffffffffffffffffffff82169050919050565b6000819050919050565b600061348082613487565b9050919050565b60006134928261344b565b9050919050565b82818337600083830152505050565b60005b838110156134c65780820151818401526020810190506134ab565b838111156134d5576000848401525b50505050565b6000601f19601f8301169050919050565b60008160e01c9050919050565b600060443d1015613509576135ac565b60046000803e61351a6000516134ec565b6308c379a0811461352b57506135ac565b60405160043d036004823e80513d602482011167ffffffffffffffff82111715613557575050506135ac565b808201805167ffffffffffffffff8111156135765750505050506135ac565b8060208301013d8501811115613591575050505050506135ac565b61359a826134db565b60208401016040528296505050505050505b90565b6135b8816133f4565b81146135c357600080fd5b50565b6135cf81613406565b81146135da57600080fd5b50565b6135e681613412565b81146135f157600080fd5b50565b6135fd8161346b565b811461360857600080fd5b5056fe455243313135353a20696e73756666696369656e742062616c616e636520666f72207472616e73666572a2646970667358221220f5ebad17873e732526a4b1bfee89afb8c8a89e5f453aa21587df59779fb612af64736f6c634300060c0033",
  "immutableReferences": {},
  "source": "// SPDX-License-Identifier: MIT\npragma solidity >=0.6.0 <0.8.0;\npragma experimental ABIEncoderV2;\n\nimport \"@openzeppelin/contracts/token/ERC20/ERC20.sol\";\nimport \"@openzeppelin/contracts/math/Math.sol\";\nimport \"@openzeppelin/contracts/math/SafeMath.sol\";\nimport \"@openzeppelin/contracts/token/ERC20/SafeERC20.sol\";\n\nimport \"../yield/yDaiYieldProvider.sol\";\nimport \"../kuko_v1/KukoV1.sol\";\n\ncontract KukoEthPrice10000BlocksDaiHF is yDaiYieldProvider, KukoV1 {\n    using SafeERC20 for IERC20;\n    using Address for address;\n    using SafeMath for uint256;\n\n    ///@notice Hi test\n    ///@param name Name of the contract\n    constructor(\n      string memory name,\n      address inputToken,\n      address vaultAddress\n      )\n        public\n        yDaiYieldProvider(\n          inputToken,\n          vaultAddress\n        )\n        KukoV1(\n          \"https://uri.com\"\n        )\n    {\n        _setName(name);\n\n        _setOwner(msg.sender);\n        _setLauncher(msg.sender);\n\n        _setOwnerShare(20000);\n        _setLauncherShare(3300);\n        _setRunnerShare(3300);\n        _setCloserShare(3300);\n        _setLoserShare(200000);\n\n        _setFundingPhaseBlockLength(20000);\n        _setRunningPhaseBlockLength(200000);\n        _setPostFundingPhaseBlockLength(180000);\n\n        _setToken(inputToken);\n\n    }\n\n    function _onStart() internal override {\n\n    }\n\n    function _onClose() internal override {\n\n    }\n\n    function deposit(uint256 amount) public override {\n\n    }\n\n    function withdraw(uint256 amount) public override {\n\n    }\n\n    // How to you list outputs in a generic manner\n}\n",
  "sourcePath": "/Users/mortimr/projects/kuko-finance/contracts/contracts/kuko_instances/KukoEthPrice10000BlocksDaiHF.sol",
  "compiler": {
    "name": "solc",
    "version": "0.6.12+commit.27d51765.Emscripten.clang"
  },
  "schemaVersion": "3.3.3",
  "updatedAt": "2021-02-02T21:40:34.729Z",
  "devdoc": {
    "kind": "dev",
    "methods": {
      "balanceOf(address,uint256)": {
        "details": "See {IERC1155-balanceOf}. Requirements: - `account` cannot be the zero address."
      },
      "balanceOfBatch(address[],uint256[])": {
        "details": "See {IERC1155-balanceOfBatch}. Requirements: - `accounts` and `ids` must have the same length."
      },
      "constructor": {
        "params": {
          "name": "Name of the contract"
        }
      },
      "getOptions()": {
        "returns": {
          "_0": "Serialized options"
        }
      },
      "isApprovedForAll(address,address)": {
        "details": "See {IERC1155-isApprovedForAll}."
      },
      "safeBatchTransferFrom(address,address,uint256[],uint256[],bytes)": {
        "details": "See {IERC1155-safeBatchTransferFrom}."
      },
      "safeTransferFrom(address,address,uint256,uint256,bytes)": {
        "details": "See {IERC1155-safeTransferFrom}."
      },
      "setApprovalForAll(address,bool)": {
        "details": "See {IERC1155-setApprovalForAll}."
      },
      "supportsInterface(bytes4)": {
        "details": "See {IERC165-supportsInterface}. Time complexity O(1), guaranteed to always use less than 30 000 gas."
      },
      "uri(uint256)": {
        "details": "See {IERC1155MetadataURI-uri}. This implementation returns the same URI for *all* token types. It relies on the token type ID substitution mechanism https://eips.ethereum.org/EIPS/eip-1155#metadata[defined in the EIP]. Clients calling this function must replace the `\\{id\\}` substring with the actual token type ID."
      }
    },
    "version": 1
  },
  "userdoc": {
    "kind": "user",
    "methods": {
      "constructor": "Hi test"
    },
    "version": 1
  }
}