{
  "contractName": "KukoEthPriceGamble",
  "abi": [
    {
      "inputs": [
        {
          "internalType": "string",
          "name": "name",
          "type": "string"
        },
        {
          "internalType": "address",
          "name": "inputToken",
          "type": "address"
        },
        {
          "internalType": "address",
          "name": "vaultAddress",
          "type": "address"
        },
        {
          "internalType": "address",
          "name": "uniswapPairAddress",
          "type": "address"
        },
        {
          "internalType": "uint256",
          "name": "fundingPeriod",
          "type": "uint256"
        },
        {
          "internalType": "uint256",
          "name": "runningPeriod",
          "type": "uint256"
        },
        {
          "internalType": "uint256",
          "name": "weightedFundingPeriod",
          "type": "uint256"
        }
      ],
      "stateMutability": "nonpayable",
      "type": "constructor"
    },
    {
      "anonymous": false,
      "inputs": [
        {
          "indexed": true,
          "internalType": "address",
          "name": "account",
          "type": "address"
        },
        {
          "indexed": true,
          "internalType": "address",
          "name": "operator",
          "type": "address"
        },
        {
          "indexed": false,
          "internalType": "bool",
          "name": "approved",
          "type": "bool"
        }
      ],
      "name": "ApprovalForAll",
      "type": "event"
    },
    {
      "anonymous": false,
      "inputs": [
        {
          "indexed": true,
          "internalType": "address",
          "name": "operator",
          "type": "address"
        },
        {
          "indexed": true,
          "internalType": "address",
          "name": "from",
          "type": "address"
        },
        {
          "indexed": true,
          "internalType": "address",
          "name": "to",
          "type": "address"
        },
        {
          "indexed": false,
          "internalType": "uint256[]",
          "name": "ids",
          "type": "uint256[]"
        },
        {
          "indexed": false,
          "internalType": "uint256[]",
          "name": "values",
          "type": "uint256[]"
        }
      ],
      "name": "TransferBatch",
      "type": "event"
    },
    {
      "anonymous": false,
      "inputs": [
        {
          "indexed": true,
          "internalType": "address",
          "name": "operator",
          "type": "address"
        },
        {
          "indexed": true,
          "internalType": "address",
          "name": "from",
          "type": "address"
        },
        {
          "indexed": true,
          "internalType": "address",
          "name": "to",
          "type": "address"
        },
        {
          "indexed": false,
          "internalType": "uint256",
          "name": "id",
          "type": "uint256"
        },
        {
          "indexed": false,
          "internalType": "uint256",
          "name": "value",
          "type": "uint256"
        }
      ],
      "name": "TransferSingle",
      "type": "event"
    },
    {
      "anonymous": false,
      "inputs": [
        {
          "indexed": false,
          "internalType": "string",
          "name": "value",
          "type": "string"
        },
        {
          "indexed": true,
          "internalType": "uint256",
          "name": "id",
          "type": "uint256"
        }
      ],
      "name": "URI",
      "type": "event"
    },
    {
      "inputs": [],
      "name": "HIGHER_BID_ID",
      "outputs": [
        {
          "internalType": "uint256",
          "name": "",
          "type": "uint256"
        }
      ],
      "stateMutability": "view",
      "type": "function"
    },
    {
      "inputs": [],
      "name": "LOWER_BID_ID",
      "outputs": [
        {
          "internalType": "uint256",
          "name": "",
          "type": "uint256"
        }
      ],
      "stateMutability": "view",
      "type": "function"
    },
    {
      "inputs": [],
      "name": "asset",
      "outputs": [
        {
          "internalType": "uint8",
          "name": "",
          "type": "uint8"
        }
      ],
      "stateMutability": "view",
      "type": "function"
    },
    {
      "inputs": [
        {
          "internalType": "address",
          "name": "account",
          "type": "address"
        },
        {
          "internalType": "uint256",
          "name": "id",
          "type": "uint256"
        }
      ],
      "name": "balanceOf",
      "outputs": [
        {
          "internalType": "uint256",
          "name": "",
          "type": "uint256"
        }
      ],
      "stateMutability": "view",
      "type": "function"
    },
    {
      "inputs": [
        {
          "internalType": "address[]",
          "name": "accounts",
          "type": "address[]"
        },
        {
          "internalType": "uint256[]",
          "name": "ids",
          "type": "uint256[]"
        }
      ],
      "name": "balanceOfBatch",
      "outputs": [
        {
          "internalType": "uint256[]",
          "name": "",
          "type": "uint256[]"
        }
      ],
      "stateMutability": "view",
      "type": "function"
    },
    {
      "inputs": [],
      "name": "cancel",
      "outputs": [],
      "stateMutability": "nonpayable",
      "type": "function"
    },
    {
      "inputs": [],
      "name": "cancelled",
      "outputs": [
        {
          "internalType": "bool",
          "name": "",
          "type": "bool"
        }
      ],
      "stateMutability": "view",
      "type": "function"
    },
    {
      "inputs": [],
      "name": "close",
      "outputs": [],
      "stateMutability": "nonpayable",
      "type": "function"
    },
    {
      "inputs": [],
      "name": "closePrice",
      "outputs": [
        {
          "internalType": "uint256",
          "name": "",
          "type": "uint256"
        }
      ],
      "stateMutability": "view",
      "type": "function"
    },
    {
      "inputs": [],
      "name": "closed",
      "outputs": [
        {
          "internalType": "bool",
          "name": "",
          "type": "bool"
        }
      ],
      "stateMutability": "view",
      "type": "function"
    },
    {
      "inputs": [],
      "name": "closer",
      "outputs": [
        {
          "internalType": "address",
          "name": "",
          "type": "address"
        }
      ],
      "stateMutability": "view",
      "type": "function"
    },
    {
      "inputs": [],
      "name": "closerShare",
      "outputs": [
        {
          "internalType": "uint256",
          "name": "",
          "type": "uint256"
        }
      ],
      "stateMutability": "view",
      "type": "function"
    },
    {
      "inputs": [],
      "name": "fundingPhaseBlockLength",
      "outputs": [
        {
          "internalType": "uint256",
          "name": "",
          "type": "uint256"
        }
      ],
      "stateMutability": "view",
      "type": "function"
    },
    {
      "inputs": [],
      "name": "getInputToken",
      "outputs": [
        {
          "internalType": "address",
          "name": "",
          "type": "address"
        }
      ],
      "stateMutability": "view",
      "type": "function"
    },
    {
      "inputs": [],
      "name": "getOptions",
      "outputs": [
        {
          "internalType": "uint256[]",
          "name": "",
          "type": "uint256[]"
        },
        {
          "internalType": "string[]",
          "name": "",
          "type": "string[]"
        },
        {
          "internalType": "uint256[]",
          "name": "",
          "type": "uint256[]"
        },
        {
          "internalType": "int8[]",
          "name": "",
          "type": "int8[]"
        },
        {
          "internalType": "uint256[]",
          "name": "",
          "type": "uint256[]"
        }
      ],
      "stateMutability": "view",
      "type": "function"
    },
    {
      "inputs": [],
      "name": "getOutputTokens",
      "outputs": [
        {
          "internalType": "address[]",
          "name": "",
          "type": "address[]"
        }
      ],
      "stateMutability": "view",
      "type": "function"
    },
    {
      "inputs": [],
      "name": "getYieldTokens",
      "outputs": [
        {
          "internalType": "address[]",
          "name": "",
          "type": "address[]"
        }
      ],
      "stateMutability": "view",
      "type": "function"
    },
    {
      "inputs": [],
      "name": "higherRealId",
      "outputs": [
        {
          "internalType": "uint256",
          "name": "",
          "type": "uint256"
        }
      ],
      "stateMutability": "view",
      "type": "function"
    },
    {
      "inputs": [
        {
          "internalType": "address",
          "name": "account",
          "type": "address"
        },
        {
          "internalType": "address",
          "name": "operator",
          "type": "address"
        }
      ],
      "name": "isApprovedForAll",
      "outputs": [
        {
          "internalType": "bool",
          "name": "",
          "type": "bool"
        }
      ],
      "stateMutability": "view",
      "type": "function"
    },
    {
      "inputs": [],
      "name": "launcher",
      "outputs": [
        {
          "internalType": "address",
          "name": "",
          "type": "address"
        }
      ],
      "stateMutability": "view",
      "type": "function"
    },
    {
      "inputs": [],
      "name": "launcherShare",
      "outputs": [
        {
          "internalType": "uint256",
          "name": "",
          "type": "uint256"
        }
      ],
      "stateMutability": "view",
      "type": "function"
    },
    {
      "inputs": [],
      "name": "loserShare",
      "outputs": [
        {
          "internalType": "uint256",
          "name": "",
          "type": "uint256"
        }
      ],
      "stateMutability": "view",
      "type": "function"
    },
    {
      "inputs": [],
      "name": "lowerRealId",
      "outputs": [
        {
          "internalType": "uint256",
          "name": "",
          "type": "uint256"
        }
      ],
      "stateMutability": "view",
      "type": "function"
    },
    {
      "inputs": [],
      "name": "name",
      "outputs": [
        {
          "internalType": "string",
          "name": "",
          "type": "string"
        }
      ],
      "stateMutability": "view",
      "type": "function"
    },
    {
      "inputs": [],
      "name": "owner",
      "outputs": [
        {
          "internalType": "address",
          "name": "",
          "type": "address"
        }
      ],
      "stateMutability": "view",
      "type": "function"
    },
    {
      "inputs": [],
      "name": "ownerShare",
      "outputs": [
        {
          "internalType": "uint256",
          "name": "",
          "type": "uint256"
        }
      ],
      "stateMutability": "view",
      "type": "function"
    },
    {
      "inputs": [],
      "name": "postFundingPhaseBlockLength",
      "outputs": [
        {
          "internalType": "uint256",
          "name": "",
          "type": "uint256"
        }
      ],
      "stateMutability": "view",
      "type": "function"
    },
    {
      "inputs": [],
      "name": "resolved",
      "outputs": [
        {
          "internalType": "bool",
          "name": "",
          "type": "bool"
        }
      ],
      "stateMutability": "view",
      "type": "function"
    },
    {
      "inputs": [],
      "name": "runBlock",
      "outputs": [
        {
          "internalType": "uint256",
          "name": "",
          "type": "uint256"
        }
      ],
      "stateMutability": "view",
      "type": "function"
    },
    {
      "inputs": [],
      "name": "runner",
      "outputs": [
        {
          "internalType": "address",
          "name": "",
          "type": "address"
        }
      ],
      "stateMutability": "view",
      "type": "function"
    },
    {
      "inputs": [],
      "name": "runnerShare",
      "outputs": [
        {
          "internalType": "uint256",
          "name": "",
          "type": "uint256"
        }
      ],
      "stateMutability": "view",
      "type": "function"
    },
    {
      "inputs": [],
      "name": "running",
      "outputs": [
        {
          "internalType": "bool",
          "name": "",
          "type": "bool"
        }
      ],
      "stateMutability": "view",
      "type": "function"
    },
    {
      "inputs": [],
      "name": "runningPhaseBlockLength",
      "outputs": [
        {
          "internalType": "uint256",
          "name": "",
          "type": "uint256"
        }
      ],
      "stateMutability": "view",
      "type": "function"
    },
    {
      "inputs": [
        {
          "internalType": "address",
          "name": "from",
          "type": "address"
        },
        {
          "internalType": "address",
          "name": "to",
          "type": "address"
        },
        {
          "internalType": "uint256[]",
          "name": "ids",
          "type": "uint256[]"
        },
        {
          "internalType": "uint256[]",
          "name": "amounts",
          "type": "uint256[]"
        },
        {
          "internalType": "bytes",
          "name": "data",
          "type": "bytes"
        }
      ],
      "name": "safeBatchTransferFrom",
      "outputs": [],
      "stateMutability": "nonpayable",
      "type": "function"
    },
    {
      "inputs": [
        {
          "internalType": "address",
          "name": "from",
          "type": "address"
        },
        {
          "internalType": "address",
          "name": "to",
          "type": "address"
        },
        {
          "internalType": "uint256",
          "name": "id",
          "type": "uint256"
        },
        {
          "internalType": "uint256",
          "name": "amount",
          "type": "uint256"
        },
        {
          "internalType": "bytes",
          "name": "data",
          "type": "bytes"
        }
      ],
      "name": "safeTransferFrom",
      "outputs": [],
      "stateMutability": "nonpayable",
      "type": "function"
    },
    {
      "inputs": [
        {
          "internalType": "address",
          "name": "operator",
          "type": "address"
        },
        {
          "internalType": "bool",
          "name": "approved",
          "type": "bool"
        }
      ],
      "name": "setApprovalForAll",
      "outputs": [],
      "stateMutability": "nonpayable",
      "type": "function"
    },
    {
      "inputs": [],
      "name": "start",
      "outputs": [],
      "stateMutability": "nonpayable",
      "type": "function"
    },
    {
      "inputs": [],
      "name": "startBlock",
      "outputs": [
        {
          "internalType": "uint256",
          "name": "",
          "type": "uint256"
        }
      ],
      "stateMutability": "view",
      "type": "function"
    },
    {
      "inputs": [
        {
          "internalType": "bytes4",
          "name": "interfaceId",
          "type": "bytes4"
        }
      ],
      "name": "supportsInterface",
      "outputs": [
        {
          "internalType": "bool",
          "name": "",
          "type": "bool"
        }
      ],
      "stateMutability": "view",
      "type": "function"
    },
    {
      "inputs": [],
      "name": "token",
      "outputs": [
        {
          "internalType": "contract IERC20",
          "name": "",
          "type": "address"
        }
      ],
      "stateMutability": "view",
      "type": "function"
    },
    {
      "inputs": [
        {
          "internalType": "uint256",
          "name": "",
          "type": "uint256"
        }
      ],
      "name": "uri",
      "outputs": [
        {
          "internalType": "string",
          "name": "",
          "type": "string"
        }
      ],
      "stateMutability": "view",
      "type": "function"
    },
    {
      "inputs": [
        {
          "internalType": "uint256",
          "name": "_option",
          "type": "uint256"
        },
        {
          "internalType": "uint256",
          "name": "_amount",
          "type": "uint256"
        }
      ],
      "name": "deposit",
      "outputs": [],
      "stateMutability": "nonpayable",
      "type": "function"
    },
    {
      "inputs": [
        {
          "internalType": "uint256",
          "name": "_option",
          "type": "uint256"
        },
        {
          "internalType": "uint256",
          "name": "amount",
          "type": "uint256"
        }
      ],
      "name": "withdraw",
      "outputs": [],
      "stateMutability": "nonpayable",
      "type": "function"
    },
    {
      "inputs": [
        {
          "internalType": "uint256[]",
          "name": "options",
          "type": "uint256[]"
        },
        {
          "internalType": "bool",
          "name": "withDeposit",
          "type": "bool"
        }
      ],
      "name": "withdrawBatch",
      "outputs": [],
      "stateMutability": "nonpayable",
      "type": "function"
    },
    {
      "inputs": [
        {
          "internalType": "uint256",
          "name": "amount",
          "type": "uint256"
        }
      ],
      "name": "withdrawDeposit",
      "outputs": [],
      "stateMutability": "nonpayable",
      "type": "function"
    },
    {
      "inputs": [
        {
          "internalType": "address",
          "name": "owner",
          "type": "address"
        }
      ],
      "name": "depositOf",
      "outputs": [
        {
          "internalType": "uint256",
          "name": "",
          "type": "uint256"
        }
      ],
      "stateMutability": "view",
      "type": "function"
    },
    {
      "inputs": [
        {
          "internalType": "address",
          "name": "owner",
          "type": "address"
        }
      ],
      "name": "sharesOf",
      "outputs": [
        {
          "internalType": "uint256",
          "name": "",
          "type": "uint256"
        }
      ],
      "stateMutability": "view",
      "type": "function"
    },
    {
      "inputs": [],
      "name": "totalDeposit",
      "outputs": [
        {
          "internalType": "uint256",
          "name": "",
          "type": "uint256"
        }
      ],
      "stateMutability": "view",
      "type": "function"
    },
    {
      "inputs": [],
      "name": "totalFunds",
      "outputs": [
        {
          "internalType": "uint256",
          "name": "",
          "type": "uint256"
        }
      ],
      "stateMutability": "view",
      "type": "function"
    }
  ],
  "bytecode": "0x60806040526000600760006101000a81548160ff0219169083151502179055506000601960006101000a81548160ff0219169083151502179055506000601960016101000a81548160ff0219169083151502179055506000601960026101000a81548160ff0219169083151502179055503480156200007d57600080fd5b5060405162007290380380620072908339818101604052810190620000a3919062000e4d565b6040518060400160405280600f81526020017f68747470733a2f2f7572692e636f6d0000000000000000000000000000000000815250808560018989620000f0826200054660201b60201c565b62000101816200058960201b60201c565b6200011282620005ef60201b60201c565b80600360006101000a81548173ffffffffffffffffffffffffffffffffffffffff021916908373ffffffffffffffffffffffffffffffffffffffff16021790555081600460006101000a81548173ffffffffffffffffffffffffffffffffffffffff021916908373ffffffffffffffffffffffffffffffffffffffff160217905550505060028160ff1610620001df576040517f08c379a0000000000000000000000000000000000000000000000000000000008152600401620001d6906200119b565b60405180910390fd5b81600560006101000a81548173ffffffffffffffffffffffffffffffffffffffff021916908373ffffffffffffffffffffffffffffffffffffffff16021790555080600560146101000a81548160ff021916908360ff1602179055505050436013819055506200025c6301ffc9a760e01b6200065560201b60201c565b6200026d816200072e60201b60201c565b6200028563d9b67a2660e01b6200065560201b60201c565b6200029d630e89341c60e01b6200065560201b60201c565b5050620002b0876200074a60201b60201c565b620002c1336200076660201b60201c565b620002d233620007aa60201b60201c565b620002e5614e20620007ee60201b60201c565b620002f8610ce46200084060201b60201c565b6200030b610ce46200089260201b60201c565b6200031e610ce4620008e460201b60201c565b6200033262030d406200093660201b60201c565b62000343836200098860201b60201c565b62000354826200099260201b60201c565b62000365816200099c60201b60201c565b6200037686620009ed60201b60201c565b60606200038a600062000a3160201b60201c565b9050601a816000815181106200039c57fe5b60200260200101519080600181540180825580915050600190039060005260206000209060050201600090919091909150600082015181600001556020820151816001019080519060200190620003f592919062000cbe565b506040820151816002015560608201518160030160006101000a81548160ff021916908360000b60ff1602179055506080820151816004015550506001601b6000836000815181106200044457fe5b602002602001015160000151815260200190815260200160002081905550601a816001815181106200047257fe5b60200260200101519080600181540180825580915050600190039060005260206000209060050201600090919091909150600082015181600001556020820151816001019080519060200190620004cb92919062000cbe565b506040820151816002015560608201518160030160006101000a81548160ff021916908360000b60ff1602179055506080820151816004015550506002601b6000836001815181106200051a57fe5b6020026020010151600001518152602001908152602001600020819055505050505050505050620013fb565b806000806101000a81548173ffffffffffffffffffffffffffffffffffffffff021916908373ffffffffffffffffffffffffffffffffffffffff16021790555050565b6001819080600181540180825580915050600190039060005260206000200160009091909190916101000a81548173ffffffffffffffffffffffffffffffffffffffff021916908373ffffffffffffffffffffffffffffffffffffffff16021790555050565b6001819080600181540180825580915050600190039060005260206000200160009091909190916101000a81548173ffffffffffffffffffffffffffffffffffffffff021916908373ffffffffffffffffffffffffffffffffffffffff16021790555050565b63ffffffff60e01b817bffffffffffffffffffffffffffffffffffffffffffffffffffffffff19161415620006c1576040517f08c379a0000000000000000000000000000000000000000000000000000000008152600401620006b890620011df565b60405180910390fd5b600160186000837bffffffffffffffffffffffffffffffffffffffffffffffffffffffff19167bffffffffffffffffffffffffffffffffffffffffffffffffffffffff1916815260200190815260200160002060006101000a81548160ff02191690831515021790555050565b80601e90805190602001906200074692919062000cbe565b5050565b80601f90805190602001906200076292919062000cbe565b5050565b80600d60006101000a81548173ffffffffffffffffffffffffffffffffffffffff021916908373ffffffffffffffffffffffffffffffffffffffff16021790555050565b80600a60006101000a81548173ffffffffffffffffffffffffffffffffffffffff021916908373ffffffffffffffffffffffffffffffffffffffff16021790555050565b620f4240811062000836576040517f08c379a00000000000000000000000000000000000000000000000000000000081526004016200082d9062001267565b60405180910390fd5b8060118190555050565b620f4240811062000888576040517f08c379a00000000000000000000000000000000000000000000000000000000081526004016200087f9062001245565b60405180910390fd5b80600e8190555050565b620f42408110620008da576040517f08c379a0000000000000000000000000000000000000000000000000000000008152600401620008d19062001223565b60405180910390fd5b80600f8190555050565b620f424081106200092c576040517f08c379a00000000000000000000000000000000000000000000000000000000081526004016200092390620011bd565b60405180910390fd5b8060108190555050565b620f424081106200097e576040517f08c379a0000000000000000000000000000000000000000000000000000000008152600401620009759062001179565b60405180910390fd5b8060108190555050565b8060158190555050565b8060168190555050565b6016548110620009e3576040517f08c379a0000000000000000000000000000000000000000000000000000000008152600401620009da9062001201565b60405180910390fd5b8060178190555050565b80602060006101000a81548173ffffffffffffffffffffffffffffffffffffffff021916908373ffffffffffffffffffffffffffffffffffffffff16021790555050565b6060600080600560009054906101000a900473ffffffffffffffffffffffffffffffffffffffff1673ffffffffffffffffffffffffffffffffffffffff16630902f1ac6040518163ffffffff1660e01b815260040160606040518083038186803b15801562000a9f57600080fd5b505afa15801562000ab4573d6000803e3d6000fd5b505050506040513d601f19601f8201168201806040525081019062000ada919062000f13565b50915091506000826dffffffffffffffffffffffffffff16826dffffffffffffffffffffffffffff168162000b0b57fe5b046dffffffffffffffffffffffffffff1690506060600267ffffffffffffffff8111801562000b3957600080fd5b5060405190808252806020026020018201604052801562000b7757816020015b62000b6362000d45565b81526020019060019003908162000b595790505b5090506040518060a001604052806000880181526020016040518060400160405280600a81526020017f6869676865725f6269640000000000000000000000000000000000000000000081525081526020018381526020016000800b815260200160008152508160008151811062000beb57fe5b60200260200101819052508060008151811062000c0457fe5b6020026020010151600001516008819055506040518060a001604052806001880181526020016040518060400160405280600981526020017f6c6f7765725f626964000000000000000000000000000000000000000000000081525081526020018381526020016000800b815260200160008152508160018151811062000c8757fe5b60200260200101819052508060008151811062000ca057fe5b60200260200101516000015160098190555080945050505050919050565b828054600181600116156101000203166002900490600052602060002090601f016020900481019282601f1062000d0157805160ff191683800117855562000d32565b8280016001018555821562000d32579182015b8281111562000d3157825182559160200191906001019062000d14565b5b50905062000d41919062000d76565b5090565b6040518060a001604052806000815260200160608152602001600081526020016000800b8152602001600081525090565b5b8082111562000d9157600081600090555060010162000d77565b5090565b60008151905062000da68162001393565b92915050565b600082601f83011262000dbe57600080fd5b815162000dd562000dcf82620012b7565b62001289565b9150808252602083016020830185838301111562000df257600080fd5b62000dff8382846200135d565b50505092915050565b60008151905062000e1981620013ad565b92915050565b60008151905062000e3081620013c7565b92915050565b60008151905062000e4781620013e1565b92915050565b600080600080600080600060e0888a03121562000e6957600080fd5b600088015167ffffffffffffffff81111562000e8457600080fd5b62000e928a828b0162000dac565b975050602062000ea58a828b0162000d95565b965050604062000eb88a828b0162000d95565b955050606062000ecb8a828b0162000d95565b945050608062000ede8a828b0162000e1f565b93505060a062000ef18a828b0162000e1f565b92505060c062000f048a828b0162000e1f565b91505092959891949750929550565b60008060006060848603121562000f2957600080fd5b600062000f398682870162000e08565b935050602062000f4c8682870162000e08565b925050604062000f5f8682870162000e36565b9150509250925092565b600062000f78601483620012e4565b91507f6c6f7365725f73686172655f746f6f5f686967680000000000000000000000006000830152602082019050919050565b600062000fba601683620012e4565b91507f696e76616c69645f61737365745f706f736974696f6e000000000000000000006000830152602082019050919050565b600062000ffc601583620012e4565b91507f636c6f7365725f73686172655f746f6f5f6869676800000000000000000000006000830152602082019050919050565b60006200103e601c83620012e4565b91507f4552433136353a20696e76616c696420696e74657266616365206964000000006000830152602082019050919050565b600062001080601c83620012e4565b91507f706f73745f66756e64696e675f657863656564735f72756e74696d65000000006000830152602082019050919050565b6000620010c2601583620012e4565b91507f72756e6e65725f73686172655f746f6f5f6869676800000000000000000000006000830152602082019050919050565b600062001104601783620012e4565b91507f6c61756e636865725f73686172655f746f6f5f686967680000000000000000006000830152602082019050919050565b600062001146601483620012e4565b91507f6f776e65725f73686172655f746f6f5f686967680000000000000000000000006000830152602082019050919050565b60006020820190508181036000830152620011948162000f69565b9050919050565b60006020820190508181036000830152620011b68162000fab565b9050919050565b60006020820190508181036000830152620011d88162000fed565b9050919050565b60006020820190508181036000830152620011fa816200102f565b9050919050565b600060208201905081810360008301526200121c8162001071565b9050919050565b600060208201905081810360008301526200123e81620010b3565b9050919050565b600060208201905081810360008301526200126081620010f5565b9050919050565b60006020820190508181036000830152620012828162001137565b9050919050565b6000604051905081810181811067ffffffffffffffff82111715620012ad57600080fd5b8060405250919050565b600067ffffffffffffffff821115620012cf57600080fd5b601f19601f8301169050602081019050919050565b600082825260208201905092915050565b6000620013028262001323565b9050919050565b60006dffffffffffffffffffffffffffff82169050919050565b600073ffffffffffffffffffffffffffffffffffffffff82169050919050565b6000819050919050565b600063ffffffff82169050919050565b60005b838110156200137d57808201518184015260208101905062001360565b838111156200138d576000848401525b50505050565b6200139e81620012f5565b8114620013aa57600080fd5b50565b620013b88162001309565b8114620013c457600080fd5b50565b620013d28162001343565b8114620013de57600080fd5b50565b620013ec816200134d565b8114620013f857600080fd5b50565b615e85806200140b6000396000f3fe608060405234801561001057600080fd5b50600436106102ba5760003560e01c8063709df63c11610182578063ccdf4299116100e9578063ea8a1af0116100a2578063f6153ccd1161007c578063f6153ccd1461083d578063f68ec35f1461085b578063fc0c546a14610879578063fc21291314610897576102ba565b8063ea8a1af0146107e7578063f242432a146107f1578063f5eb42dc1461080d576102ba565b8063ccdf429914610723578063cfa9285814610741578063d85bd5261461075f578063e2bbb1581461077d578063e52e43da14610799578063e985e9c5146107b7576102ba565b80639a82a09a1161013b5780639a82a09a14610681578063a22cb4651461069f578063b30e26f7146106bb578063be9a6555146106d9578063cc2ee196146106e3578063ccd5ce4b14610705576102ba565b8063709df63c146105cd5780637a8ca615146105eb57806389006dc0146106095780638da5cb5b146106275780638f1c315114610645578063968ed60014610663576102ba565b806333d9453511610226578063454dcb45116101df578063454dcb451461050757806348cd4cb1146105255780634e1273f414610543578063597e1fb51461057357806369208dcb146105915780637044f282146105af576102ba565b806333d945351461046957806338d52e0f146104875780633e7954f9146104a55780633f6fa655146104c357806343d726d6146104e1578063441a3e70146104eb576102ba565b806316eebd1e1161027857806316eebd1e146103a957806323e3fbd5146103c75780632bf732df146103f75780632eb2c2d61461041357806330b55c5a1461042f57806333289a461461044d576102ba565b8062fdd58e146102bf57806301ffc9a7146102ef57806306fdde031461031f5780630b01f25c1461033d5780630e89341c1461035b5780631456bed11461038b575b600080fd5b6102d960048036038101906102d491906144dc565b6108b5565b6040516102e69190615969565b60405180910390f35b61030960048036038101906103049190614601565b61097f565b60405161031691906155b1565b60405180910390f35b6103276109e7565b60405161033491906155e7565b60405180910390f35b610345610a85565b6040516103529190615969565b60405180910390f35b610375600480360381019061037091906146a2565b610a8b565b60405161038291906155e7565b60405180910390f35b610393610b2f565b6040516103a09190615969565b60405180910390f35b6103b1610b34565b6040516103be919061535a565b60405180910390f35b6103e160048036038101906103dc91906142ed565b610b5a565b6040516103ee9190615969565b60405180910390f35b610411600480360381019061040c9190614584565b610ba3565b005b61042d60048036038101906104289190614352565b610c98565b005b610437611059565b6040516104449190615969565b60405180910390f35b610467600480360381019061046291906146a2565b61105f565b005b610471611239565b60405161047e9190615969565b60405180910390f35b61048f61123f565b60405161049c91906159ad565b60405180910390f35b6104ad611252565b6040516104ba9190615969565b60405180910390f35b6104cb611258565b6040516104d891906155b1565b60405180910390f35b6104e961126b565b005b610505600480360381019061050091906146f4565b61137d565b005b61050f6117cc565b60405161051c91906154c0565b60405180910390f35b61052d61185a565b60405161053a9190615969565b60405180910390f35b61055d60048036038101906105589190614518565b611860565b60405161056a91906154e2565b60405180910390f35b61057b611a26565b60405161058891906155b1565b60405180910390f35b610599611a39565b6040516105a69190615969565b60405180910390f35b6105b7611a3f565b6040516105c4919061535a565b60405180910390f35b6105d5611a65565b6040516105e291906154c0565b60405180910390f35b6105f3611af3565b604051610600919061535a565b60405180910390f35b610611611b19565b60405161061e9190615969565b60405180910390f35b61062f611b1f565b60405161063c919061535a565b60405180910390f35b61064d611b45565b60405161065a9190615969565b60405180910390f35b61066b611b4b565b6040516106789190615969565b60405180910390f35b610689611b5a565b60405161069691906155b1565b60405180910390f35b6106b960048036038101906106b491906144a0565b611b6d565b005b6106c3611cee565b6040516106d09190615969565b60405180910390f35b6106e1611cf4565b005b6106eb611d6f565b6040516106fc959493929190615504565b60405180910390f35b61070d6120ef565b60405161071a9190615969565b60405180910390f35b61072b6120f4565b6040516107389190615969565b60405180910390f35b6107496120fa565b6040516107569190615969565b60405180910390f35b610767612100565b60405161077491906155b1565b60405180910390f35b610797600480360381019061079291906146f4565b612113565b005b6107a1612364565b6040516107ae919061535a565b60405180910390f35b6107d160048036038101906107cc9190614316565b61238d565b6040516107de91906155b1565b60405180910390f35b6107ef612421565b005b61080b60048036038101906108069190614411565b6124bd565b005b610827600480360381019061082291906142ed565b612800565b6040516108349190615969565b60405180910390f35b610845612858565b6040516108529190615969565b60405180910390f35b610863612862565b6040516108709190615969565b60405180910390f35b610881612868565b60405161088e91906155cc565b60405180910390f35b61089f61288e565b6040516108ac9190615969565b60405180910390f35b60008073ffffffffffffffffffffffffffffffffffffffff168373ffffffffffffffffffffffffffffffffffffffff161415610926576040517f08c379a000000000000000000000000000000000000000000000000000000000815260040161091d906156a9565b60405180910390fd5b601c600083815260200190815260200160002060008473ffffffffffffffffffffffffffffffffffffffff1673ffffffffffffffffffffffffffffffffffffffff16815260200190815260200160002054905092915050565b600060186000837bffffffffffffffffffffffffffffffffffffffffffffffffffffffff19167bffffffffffffffffffffffffffffffffffffffffffffffffffffffff1916815260200190815260200160002060009054906101000a900460ff169050919050565b601f8054600181600116156101000203166002900480601f016020809104026020016040519081016040528092919081815260200182805460018160011615610100020316600290048015610a7d5780601f10610a5257610100808354040283529160200191610a7d565b820191906000526020600020905b815481529060010190602001808311610a6057829003601f168201915b505050505081565b600f5481565b6060601e8054600181600116156101000203166002900480601f016020809104026020016040519081016040528092919081815260200182805460018160011615610100020316600290048015610b235780601f10610af857610100808354040283529160200191610b23565b820191906000526020600020905b815481529060010190602001808311610b0657829003601f168201915b50505050509050919050565b600181565b600a60009054906101000a900473ffffffffffffffffffffffffffffffffffffffff1681565b6000602160008373ffffffffffffffffffffffffffffffffffffffff1673ffffffffffffffffffffffffffffffffffffffff168152602001908152602001600020549050919050565b60005b8251811015610bf9576000610bce33858481518110610bc157fe5b60200260200101516108b5565b9050610bed848381518110610bdf57fe5b60200260200101518261137d565b50806001019050610ba6565b50808015610c4657506000602160003373ffffffffffffffffffffffffffffffffffffffff1673ffffffffffffffffffffffffffffffffffffffff16815260200190815260200160002054115b15610c9457610c93602160003373ffffffffffffffffffffffffffffffffffffffff1673ffffffffffffffffffffffffffffffffffffffff1681526020019081526020016000205461105f565b5b5050565b8151835114610cdc576040517f08c379a0000000000000000000000000000000000000000000000000000000008152600401610cd3906158e9565b60405180910390fd5b600073ffffffffffffffffffffffffffffffffffffffff168473ffffffffffffffffffffffffffffffffffffffff161415610d4c576040517f08c379a0000000000000000000000000000000000000000000000000000000008152600401610d43906157c9565b60405180910390fd5b610d54612894565b73ffffffffffffffffffffffffffffffffffffffff168573ffffffffffffffffffffffffffffffffffffffff161480610d9a5750610d9985610d94612894565b61238d565b5b610dd9576040517f08c379a0000000000000000000000000000000000000000000000000000000008152600401610dd0906157e9565b60405180910390fd5b6000610de3612894565b9050610df381878787878761289c565b60005b8451811015610fc4576000858281518110610e0d57fe5b602002602001015190506000858381518110610e2557fe5b60200260200101519050610eac816040518060600160405280602a8152602001615e26602a9139601c600086815260200190815260200160002060008d73ffffffffffffffffffffffffffffffffffffffff1673ffffffffffffffffffffffffffffffffffffffff168152602001908152602001600020546128a49092919063ffffffff16565b601c600084815260200190815260200160002060008b73ffffffffffffffffffffffffffffffffffffffff1673ffffffffffffffffffffffffffffffffffffffff16815260200190815260200160002081905550610f6381601c600085815260200190815260200160002060008b73ffffffffffffffffffffffffffffffffffffffff1673ffffffffffffffffffffffffffffffffffffffff168152602001908152602001600020546128ff90919063ffffffff16565b601c600084815260200190815260200160002060008a73ffffffffffffffffffffffffffffffffffffffff1673ffffffffffffffffffffffffffffffffffffffff168152602001908152602001600020819055505050806001019050610df6565b508473ffffffffffffffffffffffffffffffffffffffff168673ffffffffffffffffffffffffffffffffffffffff168273ffffffffffffffffffffffffffffffffffffffff167f4a39dc06d4c0dbc64b70af90fd698a233a518aa5d07e595d983b8c0526c8f7fb878760405161103b92919061557a565b60405180910390a4611051818787878787612954565b505050505050565b60125481565b60011515601960019054906101000a900460ff161515146110b5576040517f08c379a00000000000000000000000000000000000000000000000000000000081526004016110ac90615809565b60405180910390fd5b600081116110f8576040517f08c379a00000000000000000000000000000000000000000000000000000000081526004016110ef90615609565b60405180910390fd5b80602160003373ffffffffffffffffffffffffffffffffffffffff1673ffffffffffffffffffffffffffffffffffffffff16815260200190815260200160002054101561117a576040517f08c379a0000000000000000000000000000000000000000000000000000000008152600401611171906156e9565b60405180910390fd5b6111e933602254602354101561119f57826022546023548161119857fe5b04026111a1565b825b602060009054906101000a900473ffffffffffffffffffffffffffffffffffffffff1673ffffffffffffffffffffffffffffffffffffffff16612b249092919063ffffffff16565b80602160003373ffffffffffffffffffffffffffffffffffffffff1673ffffffffffffffffffffffffffffffffffffffff1681526020019081526020016000206000828254039250508190555050565b60155481565b600560149054906101000a900460ff1681565b60145481565b600760009054906101000a900460ff1681565b60011515601960009054906101000a900460ff161515146112c1576040517f08c379a00000000000000000000000000000000000000000000000000000000081526004016112b890615949565b60405180910390fd5b60001515601960019054906101000a900460ff16151514611317576040517f08c379a000000000000000000000000000000000000000000000000000000000815260040161130e90615809565b60405180910390fd5b60165460145401431015611360576040517f08c379a000000000000000000000000000000000000000000000000000000000815260040161135790615749565b60405180910390fd5b61136933612baa565b6113736001612bee565b61137b612c0b565b565b60011515601960019054906101000a900460ff161515146113d3576040517f08c379a00000000000000000000000000000000000000000000000000000000081526004016113ca90615809565b60405180910390fd5b60225460235411611419576040517f08c379a0000000000000000000000000000000000000000000000000000000008152600401611410906157a9565b60405180910390fd5b6000601b6000848152602001908152602001600020541415611470576040517f08c379a000000000000000000000000000000000000000000000000000000000815260040161146790615829565b60405180910390fd5b8061147b33846108b5565b10156114bc576040517f08c379a00000000000000000000000000000000000000000000000000000000081526004016114b390615709565b60405180910390fd5b6114c46140a5565b601a6001601b60008681526020019081526020016000205403815481106114e757fe5b90600052602060002090600502016040518060a001604052908160008201548152602001600182018054600181600116156101000203166002900480601f0160208091040260200160405190810160405280929190818152602001828054600181600116156101000203166002900480156115a35780601f10611578576101008083540402835291602001916115a3565b820191906000526020600020905b81548152906001019060200180831161158657829003601f168201915b50505050508152602001600282015481526020016003820160009054906101000a900460000b60000b60000b815260200160048201548152505090506000816060015160000b141561162a576040517f08c379a000000000000000000000000000000000000000000000000000000000815260040161162190615669565b60405180910390fd5b6001816060015160000b1415611707576000602454602554016025548161164d57fe5b04602254602354030290506000620f4240601254620f4240038161166d57fe5b04602454858161167957fe5b0483020290506000602454602554016024548161169257fe5b0460225460235403029050600060245486816116aa57fe5b04820290506116fe33848301602060009054906101000a900473ffffffffffffffffffffffffffffffffffffffff1673ffffffffffffffffffffffffffffffffffffffff16612b249092919063ffffffff16565b505050506117c7565b7fffffffffffffffffffffffffffffffffffffffffffffffffffffffffffffffff816060015160000b14156117c6576000602454602554016025548161174957fe5b04602254602354030290506000620f42406012548161176457fe5b04602554858161177057fe5b0483020290506117c33382602060009054906101000a900473ffffffffffffffffffffffffffffffffffffffff1673ffffffffffffffffffffffffffffffffffffffff16612b249092919063ffffffff16565b50505b5b505050565b6060600280548060200260200160405190810160405280929190818152602001828054801561185057602002820191906000526020600020905b8160009054906101000a900473ffffffffffffffffffffffffffffffffffffffff1673ffffffffffffffffffffffffffffffffffffffff1681526020019060010190808311611806575b5050505050905090565b60135481565b606081518351146118a6576040517f08c379a000000000000000000000000000000000000000000000000000000000815260040161189d906158c9565b60405180910390fd5b6060835167ffffffffffffffff811180156118c057600080fd5b506040519080825280602002602001820160405280156118ef5781602001602082028036833780820191505090505b50905060005b8451811015611a1b57600073ffffffffffffffffffffffffffffffffffffffff1685828151811061192257fe5b602002602001015173ffffffffffffffffffffffffffffffffffffffff161415611981576040517f08c379a0000000000000000000000000000000000000000000000000000000008152600401611978906156c9565b60405180910390fd5b601c600085838151811061199157fe5b6020026020010151815260200190815260200160002060008683815181106119b557fe5b602002602001015173ffffffffffffffffffffffffffffffffffffffff1673ffffffffffffffffffffffffffffffffffffffff16815260200190815260200160002054828281518110611a0457fe5b6020026020010181815250508060010190506118f5565b508091505092915050565b601960019054906101000a900460ff1681565b60105481565b600c60009054906101000a900473ffffffffffffffffffffffffffffffffffffffff1681565b60606001805480602002602001604051908101604052809291908181526020018280548015611ae957602002820191906000526020600020905b8160009054906101000a900473ffffffffffffffffffffffffffffffffffffffff1673ffffffffffffffffffffffffffffffffffffffff1681526020019060010190808311611a9f575b5050505050905090565b600b60009054906101000a900473ffffffffffffffffffffffffffffffffffffffff1681565b60165481565b600d60009054906101000a900473ffffffffffffffffffffffffffffffffffffffff1681565b60115481565b6000611b5561313a565b905090565b601960029054906101000a900460ff1681565b8173ffffffffffffffffffffffffffffffffffffffff16611b8c612894565b73ffffffffffffffffffffffffffffffffffffffff161415611be3576040517f08c379a0000000000000000000000000000000000000000000000000000000008152600401611bda90615889565b60405180910390fd5b80601d6000611bf0612894565b73ffffffffffffffffffffffffffffffffffffffff1673ffffffffffffffffffffffffffffffffffffffff16815260200190815260200160002060008473ffffffffffffffffffffffffffffffffffffffff1673ffffffffffffffffffffffffffffffffffffffff16815260200190815260200160002060006101000a81548160ff0219169083151502179055508173ffffffffffffffffffffffffffffffffffffffff16611c9d612894565b73ffffffffffffffffffffffffffffffffffffffff167f17307eab39ab6107e8899845ad3d59bd9653f200f220920489ca2b5937696c3183604051611ce291906155b1565b60405180910390a35050565b60175481565b60001515601960009054906101000a900460ff16151514611d4a576040517f08c379a0000000000000000000000000000000000000000000000000000000008152600401611d4190615949565b60405180910390fd5b611d54600161328d565b611d5d336132aa565b611d656132ee565b611d6d6132f7565b565b60608060608060606000601a80549050905060608167ffffffffffffffff81118015611d9a57600080fd5b50604051908082528060200260200182016040528015611dc95781602001602082028036833780820191505090505b50905060608267ffffffffffffffff81118015611de557600080fd5b50604051908082528060200260200182016040528015611e1957816020015b6060815260200190600190039081611e045790505b50905060608367ffffffffffffffff81118015611e3557600080fd5b50604051908082528060200260200182016040528015611e645781602001602082028036833780820191505090505b50905060608467ffffffffffffffff81118015611e8057600080fd5b50604051908082528060200260200182016040528015611eaf5781602001602082028036833780820191505090505b50905060608567ffffffffffffffff81118015611ecb57600080fd5b50604051908082528060200260200182016040528015611efa5781602001602082028036833780820191505090505b50905060005b868110156120d257601a8181548110611f1557fe5b906000526020600020906005020160000154868281518110611f3357fe5b602002602001018181525050601a8181548110611f4c57fe5b90600052602060002090600502016001018054600181600116156101000203166002900480601f016020809104026020016040519081016040528092919081815260200182805460018160011615610100020316600290048015611ff15780601f10611fc657610100808354040283529160200191611ff1565b820191906000526020600020905b815481529060010190602001808311611fd457829003601f168201915b505050505085828151811061200257fe5b6020026020010181905250601a818154811061201a57fe5b90600052602060002090600502016002015484828151811061203857fe5b602002602001018181525050601a818154811061205157fe5b906000526020600020906005020160030160009054906101000a900460000b83828151811061207c57fe5b602002602001019060000b908160000b81525050601a818154811061209d57fe5b9060005260206000209060050201600401548282815181106120bb57fe5b602002602001018181525050806001019050611f00565b5084848484849a509a509a509a509a505050505050509091929394565b600081565b60065481565b600e5481565b601960009054906101000a900460ff1681565b60175460145401431061215b576040517f08c379a000000000000000000000000000000000000000000000000000000000815260040161215290615689565b60405180910390fd5b6000601b60008481526020019081526020016000205414156121b2576040517f08c379a00000000000000000000000000000000000000000000000000000000081526004016121a990615829565b60405180910390fd5b612201333083602060009054906101000a900473ffffffffffffffffffffffffffffffffffffffff1673ffffffffffffffffffffffffffffffffffffffff16613301909392919063ffffffff16565b601960009054906101000a900460ff16156122a55761221e61338a565b60006014544303905061225133846016548486028161223957fe5b04850360405180602001604052806000815250613538565b6016548183028161225e57fe5b048203601a601b6000868152602001908152602001600020548154811061228157fe5b90600052602060002090600502016004016000828254019250508190555050612303565b6122c033838360405180602001604052806000815250613538565b80601a6001601b60008681526020019081526020016000205403815481106122e457fe5b9060005260206000209060050201600401600082825401925050819055505b80602160003373ffffffffffffffffffffffffffffffffffffffff1673ffffffffffffffffffffffffffffffffffffffff16815260200190815260200160002060008282540192505081905550806022600082825401925050819055505050565b60008060009054906101000a900473ffffffffffffffffffffffffffffffffffffffff16905090565b6000601d60008473ffffffffffffffffffffffffffffffffffffffff1673ffffffffffffffffffffffffffffffffffffffff16815260200190815260200160002060008373ffffffffffffffffffffffffffffffffffffffff1673ffffffffffffffffffffffffffffffffffffffff16815260200190815260200160002060009054906101000a900460ff16905092915050565b600d60009054906101000a900473ffffffffffffffffffffffffffffffffffffffff1673ffffffffffffffffffffffffffffffffffffffff163373ffffffffffffffffffffffffffffffffffffffff16146124b1576040517f08c379a00000000000000000000000000000000000000000000000000000000081526004016124a890615869565b60405180910390fd5b6124bb600161371f565b565b600073ffffffffffffffffffffffffffffffffffffffff168473ffffffffffffffffffffffffffffffffffffffff16141561252d576040517f08c379a0000000000000000000000000000000000000000000000000000000008152600401612524906157c9565b60405180910390fd5b612535612894565b73ffffffffffffffffffffffffffffffffffffffff168573ffffffffffffffffffffffffffffffffffffffff16148061257b575061257a85612575612894565b61238d565b5b6125ba576040517f08c379a00000000000000000000000000000000000000000000000000000000081526004016125b190615769565b60405180910390fd5b60006125c4612894565b90506125e48187876125d58861373c565b6125de8861373c565b8761289c565b612661836040518060600160405280602a8152602001615e26602a9139601c600088815260200190815260200160002060008a73ffffffffffffffffffffffffffffffffffffffff1673ffffffffffffffffffffffffffffffffffffffff168152602001908152602001600020546128a49092919063ffffffff16565b601c600086815260200190815260200160002060008873ffffffffffffffffffffffffffffffffffffffff1673ffffffffffffffffffffffffffffffffffffffff1681526020019081526020016000208190555061271883601c600087815260200190815260200160002060008873ffffffffffffffffffffffffffffffffffffffff1673ffffffffffffffffffffffffffffffffffffffff168152602001908152602001600020546128ff90919063ffffffff16565b601c600086815260200190815260200160002060008773ffffffffffffffffffffffffffffffffffffffff1673ffffffffffffffffffffffffffffffffffffffff168152602001908152602001600020819055508473ffffffffffffffffffffffffffffffffffffffff168673ffffffffffffffffffffffffffffffffffffffff168273ffffffffffffffffffffffffffffffffffffffff167fc3d58168c5ae7397731d063d5bbf3d657854427343f4c083240f7aacaa2d0f6287876040516127e2929190615984565b60405180910390a46127f88187878787876137ac565b505050505050565b6000806000905060005b601a8054905081101561284e5761283f84601a838154811061282857fe5b9060005260206000209060050201600001546108b5565b8201915080600101905061280a565b5080915050919050565b6000602254905090565b60095481565b602060009054906101000a900473ffffffffffffffffffffffffffffffffffffffff1681565b60085481565b600033905090565b505050505050565b60008383111582906128ec576040517f08c379a00000000000000000000000000000000000000000000000000000000081526004016128e391906155e7565b60405180910390fd5b5060008385039050809150509392505050565b60008082840190508381101561294a576040517f08c379a000000000000000000000000000000000000000000000000000000000815260040161294190615729565b60405180910390fd5b8091505092915050565b6129738473ffffffffffffffffffffffffffffffffffffffff1661397c565b15612b1c578373ffffffffffffffffffffffffffffffffffffffff1663bc197c8187878686866040518663ffffffff1660e01b81526004016129b995949392919061539e565b602060405180830381600087803b1580156129d357600080fd5b505af1925050508015612a0457506040513d601f19601f82011682018060405250810190612a01919061462a565b60015b612a9357612a10615ce5565b80612a1b5750612a58565b806040517f08c379a0000000000000000000000000000000000000000000000000000000008152600401612a4f91906155e7565b60405180910390fd5b6040517f08c379a0000000000000000000000000000000000000000000000000000000008152600401612a8a90615629565b60405180910390fd5b63bc197c8160e01b7bffffffffffffffffffffffffffffffffffffffffffffffffffffffff1916817bffffffffffffffffffffffffffffffffffffffffffffffffffffffff191614612b1a576040517f08c379a0000000000000000000000000000000000000000000000000000000008152600401612b1190615649565b60405180910390fd5b505b505050505050565b612ba58363a9059cbb60e01b8484604051602401612b43929190615497565b604051602081830303815290604052907bffffffffffffffffffffffffffffffffffffffffffffffffffffffff19166020820180517bffffffffffffffffffffffffffffffffffffffffffffffffffffffff838183161783525050505061398f565b505050565b80600c60006101000a81548173ffffffffffffffffffffffffffffffffffffffff021916908373ffffffffffffffffffffffffffffffffffffffff16021790555050565b80601960016101000a81548160ff02191690831515021790555050565b612c13613a56565b602060009054906101000a900473ffffffffffffffffffffffffffffffffffffffff1673ffffffffffffffffffffffffffffffffffffffff166370a08231306040518263ffffffff1660e01b8152600401612c6e919061535a565b60206040518083038186803b158015612c8657600080fd5b505afa158015612c9a573d6000803e3d6000fd5b505050506040513d601f19601f82011682018060405250810190612cbe91906146cb565b602381905550612dd0601a600081548110612cd557fe5b90600052602060002090600502016040518060a001604052908160008201548152602001600182018054600181600116156101000203166002900480601f016020809104026020016040519081016040528092919081815260200182805460018160011615610100020316600290048015612d915780601f10612d6657610100808354040283529160200191612d91565b820191906000526020600020905b815481529060010190602001808311612d7457829003601f168201915b50505050508152602001600282015481526020016003820160009054906101000a900460000b60000b60000b8152602001600482015481525050613b95565b601a600081548110612dde57fe5b906000526020600020906005020160030160006101000a81548160ff021916908360000b60ff160217905550612f16601a600181548110612e1b57fe5b90600052602060002090600502016040518060a001604052908160008201548152602001600182018054600181600116156101000203166002900480601f016020809104026020016040519081016040528092919081815260200182805460018160011615610100020316600290048015612ed75780601f10612eac57610100808354040283529160200191612ed7565b820191906000526020600020905b815481529060010190602001808311612eba57829003601f168201915b50505050508152602001600282015481526020016003820160009054906101000a900460000b60000b60000b8152602001600482015481525050613b95565b601a600181548110612f2457fe5b906000526020600020906005020160030160006101000a81548160ff021916908360000b60ff1602179055506001601a600081548110612f6057fe5b906000526020600020906005020160030160009054906101000a900460000b60000b1415612fbc57601a600081548110612f9657fe5b906000526020600020906005020160040154602460008282540192505081905550613044565b7fffffffffffffffffffffffffffffffffffffffffffffffffffffffffffffffff601a600081548110612feb57fe5b906000526020600020906005020160030160009054906101000a900460000b60000b141561304357601a60008154811061302157fe5b9060005260206000209060050201600401546025600082825401925050819055505b5b6001601a60018154811061305457fe5b906000526020600020906005020160030160009054906101000a900460000b60000b14156130b057601a60018154811061308a57fe5b906000526020600020906005020160040154602460008282540192505081905550613138565b7fffffffffffffffffffffffffffffffffffffffffffffffffffffffffffffffff601a6001815481106130df57fe5b906000526020600020906005020160030160009054906101000a900460000b60000b141561313757601a60018154811061311557fe5b9060005260206000209060050201600401546025600082825401925050819055505b5b565b6000600360009054906101000a900473ffffffffffffffffffffffffffffffffffffffff1673ffffffffffffffffffffffffffffffffffffffff166377c7b8fc6040518163ffffffff1660e01b815260040160206040518083038186803b1580156131a457600080fd5b505afa1580156131b8573d6000803e3d6000fd5b505050506040513d601f19601f820116820180604052508101906131dc91906146cb565b600360009054906101000a900473ffffffffffffffffffffffffffffffffffffffff1673ffffffffffffffffffffffffffffffffffffffff166370a08231306040518263ffffffff1660e01b8152600401613237919061535a565b60206040518083038186803b15801561324f57600080fd5b505afa158015613263573d6000803e3d6000fd5b505050506040513d601f19601f8201168201806040525081019061328791906146cb565b02905090565b80601960006101000a81548160ff02191690831515021790555050565b80600b60006101000a81548173ffffffffffffffffffffffffffffffffffffffff021916908373ffffffffffffffffffffffffffffffffffffffff16021790555050565b43601481905550565b6132ff61338a565b565b613384846323b872dd60e01b85858560405160240161332293929190615406565b604051602081830303815290604052907bffffffffffffffffffffffffffffffffffffffffffffffffffffffff19166020820180517bffffffffffffffffffffffffffffffffffffffffffffffffffffffff838183161783525050505061398f565b50505050565b6000600460009054906101000a900473ffffffffffffffffffffffffffffffffffffffff1673ffffffffffffffffffffffffffffffffffffffff166370a08231306040518263ffffffff1660e01b81526004016133e7919061535a565b60206040518083038186803b1580156133ff57600080fd5b505afa158015613413573d6000803e3d6000fd5b505050506040513d601f19601f8201168201806040525081019061343791906146cb565b90506134a8600360009054906101000a900473ffffffffffffffffffffffffffffffffffffffff1682600460009054906101000a900473ffffffffffffffffffffffffffffffffffffffff1673ffffffffffffffffffffffffffffffffffffffff16613db39092919063ffffffff16565b600360009054906101000a900473ffffffffffffffffffffffffffffffffffffffff1673ffffffffffffffffffffffffffffffffffffffff1663b6b55f25826040518263ffffffff1660e01b81526004016135039190615969565b600060405180830381600087803b15801561351d57600080fd5b505af1158015613531573d6000803e3d6000fd5b5050505050565b600073ffffffffffffffffffffffffffffffffffffffff168473ffffffffffffffffffffffffffffffffffffffff1614156135a8576040517f08c379a000000000000000000000000000000000000000000000000000000000815260040161359f90615909565b60405180910390fd5b60006135b2612894565b90506135d3816000876135c48861373c565b6135cd8861373c565b8761289c565b61363683601c600087815260200190815260200160002060008873ffffffffffffffffffffffffffffffffffffffff1673ffffffffffffffffffffffffffffffffffffffff168152602001908152602001600020546128ff90919063ffffffff16565b601c600086815260200190815260200160002060008773ffffffffffffffffffffffffffffffffffffffff1673ffffffffffffffffffffffffffffffffffffffff168152602001908152602001600020819055508473ffffffffffffffffffffffffffffffffffffffff16600073ffffffffffffffffffffffffffffffffffffffff168273ffffffffffffffffffffffffffffffffffffffff167fc3d58168c5ae7397731d063d5bbf3d657854427343f4c083240f7aacaa2d0f628787604051613701929190615984565b60405180910390a4613718816000878787876137ac565b5050505050565b80601960026101000a81548160ff02191690831515021790555050565b606080600167ffffffffffffffff8111801561375757600080fd5b506040519080825280602002602001820160405280156137865781602001602082028036833780820191505090505b509050828160008151811061379757fe5b60200260200101818152505080915050919050565b6137cb8473ffffffffffffffffffffffffffffffffffffffff1661397c565b15613974578373ffffffffffffffffffffffffffffffffffffffff1663f23a6e6187878686866040518663ffffffff1660e01b815260040161381195949392919061543d565b602060405180830381600087803b15801561382b57600080fd5b505af192505050801561385c57506040513d601f19601f82011682018060405250810190613859919061462a565b60015b6138eb57613868615ce5565b8061387357506138b0565b806040517f08c379a00000000000000000000000000000000000000000000000000000000081526004016138a791906155e7565b60405180910390fd5b6040517f08c379a00000000000000000000000000000000000000000000000000000000081526004016138e290615629565b60405180910390fd5b63f23a6e6160e01b7bffffffffffffffffffffffffffffffffffffffffffffffffffffffff1916817bffffffffffffffffffffffffffffffffffffffffffffffffffffffff191614613972576040517f08c379a000000000000000000000000000000000000000000000000000000000815260040161396990615649565b60405180910390fd5b505b505050505050565b600080823b905060008111915050919050565b60606139f1826040518060400160405280602081526020017f5361666545524332303a206c6f772d6c6576656c2063616c6c206661696c65648152508573ffffffffffffffffffffffffffffffffffffffff16613f119092919063ffffffff16565b9050600081511115613a515780806020019051810190613a1191906145d8565b613a50576040517f08c379a0000000000000000000000000000000000000000000000000000000008152600401613a47906158a9565b60405180910390fd5b5b505050565b6000600360009054906101000a900473ffffffffffffffffffffffffffffffffffffffff1673ffffffffffffffffffffffffffffffffffffffff166370a08231306040518263ffffffff1660e01b8152600401613ab3919061535a565b60206040518083038186803b158015613acb57600080fd5b505afa158015613adf573d6000803e3d6000fd5b505050506040513d601f19601f82011682018060405250810190613b0391906146cb565b9050600360009054906101000a900473ffffffffffffffffffffffffffffffffffffffff1673ffffffffffffffffffffffffffffffffffffffff16632e1a7d4d826040518263ffffffff1660e01b8152600401613b609190615969565b600060405180830381600087803b158015613b7a57600080fd5b505af1158015613b8e573d6000803e3d6000fd5b5050505050565b6000600760009054906101000a900460ff16613d1257600080600560009054906101000a900473ffffffffffffffffffffffffffffffffffffffff1673ffffffffffffffffffffffffffffffffffffffff16630902f1ac6040518163ffffffff1660e01b815260040160606040518083038186803b158015613c1657600080fd5b505afa158015613c2a573d6000803e3d6000fd5b505050506040513d601f19601f82011682018060405250810190613c4e9190614653565b50915091506000600560149054906101000a900460ff1660ff161415613cb357816dffffffffffffffffffffffffffff16816dffffffffffffffffffffffffffff1681613c9757fe5b046dffffffffffffffffffffffffffff16600681905550613cf4565b806dffffffffffffffffffffffffffff16826dffffffffffffffffffffffffffff1681613cdc57fe5b046dffffffffffffffffffffffffffff166006819055505b6001600760006101000a81548160ff02191690831515021790555050505b60095482600001511415613d5d57600654826040015111613d53577fffffffffffffffffffffffffffffffffffffffffffffffffffffffffffffffff613d56565b60015b9050613dae565b60085482600001511415613da95760065482604001511115613d9f577fffffffffffffffffffffffffffffffffffffffffffffffffffffffffffffffff613da2565b60015b9050613dae565b600090505b919050565b6000811480613e4c575060008373ffffffffffffffffffffffffffffffffffffffff1663dd62ed3e30856040518363ffffffff1660e01b8152600401613dfa929190615375565b60206040518083038186803b158015613e1257600080fd5b505afa158015613e26573d6000803e3d6000fd5b505050506040513d601f19601f82011682018060405250810190613e4a91906146cb565b145b613e8b576040517f08c379a0000000000000000000000000000000000000000000000000000000008152600401613e8290615929565b60405180910390fd5b613f0c8363095ea7b360e01b8484604051602401613eaa929190615497565b604051602081830303815290604052907bffffffffffffffffffffffffffffffffffffffffffffffffffffffff19166020820180517bffffffffffffffffffffffffffffffffffffffffffffffffffffffff838183161783525050505061398f565b505050565b6060613f208484600085613f29565b90509392505050565b606082471015613f6e576040517f08c379a0000000000000000000000000000000000000000000000000000000008152600401613f6590615789565b60405180910390fd5b613f778561397c565b613fb6576040517f08c379a0000000000000000000000000000000000000000000000000000000008152600401613fad90615849565b60405180910390fd5b600060608673ffffffffffffffffffffffffffffffffffffffff168587604051613fe09190615343565b60006040518083038185875af1925050503d806000811461401d576040519150601f19603f3d011682016040523d82523d6000602084013e614022565b606091505b509150915061403282828661403e565b92505050949350505050565b6060831561404e5782905061409e565b6000835111156140615782518084602001fd5b816040517f08c379a000000000000000000000000000000000000000000000000000000000815260040161409591906155e7565b60405180910390fd5b9392505050565b6040518060a001604052806000815260200160608152602001600081526020016000800b8152602001600081525090565b6000813590506140e581615d9b565b92915050565b600082601f8301126140fc57600080fd5b813561410f61410a826159f5565b6159c8565b9150818183526020840193506020810190508385602084028201111561413457600080fd5b60005b83811015614164578161414a88826140d6565b845260208401935060208301925050600181019050614137565b5050505092915050565b600082601f83011261417f57600080fd5b813561419261418d82615a1d565b6159c8565b915081818352602084019350602081019050838560208402820111156141b757600080fd5b60005b838110156141e757816141cd88826142ae565b8452602084019350602083019250506001810190506141ba565b5050505092915050565b60008135905061420081615db2565b92915050565b60008151905061421581615db2565b92915050565b60008135905061422a81615dc9565b92915050565b60008151905061423f81615dc9565b92915050565b600082601f83011261425657600080fd5b813561426961426482615a45565b6159c8565b9150808252602083016020830185838301111561428557600080fd5b614290838284615c85565b50505092915050565b6000815190506142a881615de0565b92915050565b6000813590506142bd81615df7565b92915050565b6000815190506142d281615df7565b92915050565b6000815190506142e781615e0e565b92915050565b6000602082840312156142ff57600080fd5b600061430d848285016140d6565b91505092915050565b6000806040838503121561432957600080fd5b6000614337858286016140d6565b9250506020614348858286016140d6565b9150509250929050565b600080600080600060a0868803121561436a57600080fd5b6000614378888289016140d6565b9550506020614389888289016140d6565b945050604086013567ffffffffffffffff8111156143a657600080fd5b6143b28882890161416e565b935050606086013567ffffffffffffffff8111156143cf57600080fd5b6143db8882890161416e565b925050608086013567ffffffffffffffff8111156143f857600080fd5b61440488828901614245565b9150509295509295909350565b600080600080600060a0868803121561442957600080fd5b6000614437888289016140d6565b9550506020614448888289016140d6565b9450506040614459888289016142ae565b935050606061446a888289016142ae565b925050608086013567ffffffffffffffff81111561448757600080fd5b61449388828901614245565b9150509295509295909350565b600080604083850312156144b357600080fd5b60006144c1858286016140d6565b92505060206144d2858286016141f1565b9150509250929050565b600080604083850312156144ef57600080fd5b60006144fd858286016140d6565b925050602061450e858286016142ae565b9150509250929050565b6000806040838503121561452b57600080fd5b600083013567ffffffffffffffff81111561454557600080fd5b614551858286016140eb565b925050602083013567ffffffffffffffff81111561456e57600080fd5b61457a8582860161416e565b9150509250929050565b6000806040838503121561459757600080fd5b600083013567ffffffffffffffff8111156145b157600080fd5b6145bd8582860161416e565b92505060206145ce858286016141f1565b9150509250929050565b6000602082840312156145ea57600080fd5b60006145f884828501614206565b91505092915050565b60006020828403121561461357600080fd5b60006146218482850161421b565b91505092915050565b60006020828403121561463c57600080fd5b600061464a84828501614230565b91505092915050565b60008060006060848603121561466857600080fd5b600061467686828701614299565b935050602061468786828701614299565b9250506040614698868287016142d8565b9150509250925092565b6000602082840312156146b457600080fd5b60006146c2848285016142ae565b91505092915050565b6000602082840312156146dd57600080fd5b60006146eb848285016142c3565b91505092915050565b6000806040838503121561470757600080fd5b6000614715858286016142ae565b9250506020614726858286016142ae565b9150509250929050565b600061473c838361478c565b60208301905092915050565b600061475483836149c1565b60208301905092915050565b600061476c83836149d0565b905092915050565b60006147808383615316565b60208301905092915050565b61479581615ba9565b82525050565b6147a481615ba9565b82525050565b60006147b582615ab1565b6147bf8185615b27565b93506147ca83615a71565b8060005b838110156147fb5781516147e28882614730565b97506147ed83615af3565b9250506001810190506147ce565b5085935050505092915050565b600061481382615abc565b61481d8185615b38565b935061482883615a81565b8060005b838110156148595781516148408882614748565b975061484b83615b00565b92505060018101905061482c565b5085935050505092915050565b600061487182615ac7565b61487b8185615b49565b93508360208202850161488d85615a91565b8060005b858110156148c957848403895281516148aa8582614760565b94506148b583615b0d565b925060208a01995050600181019050614891565b50829750879550505050505092915050565b60006148e682615ad2565b6148f08185615b5a565b93506148fb83615aa1565b8060005b8381101561492c5781516149138882614774565b975061491e83615b1a565b9250506001810190506148ff565b5085935050505092915050565b61494281615bbb565b82525050565b600061495382615add565b61495d8185615b6b565b935061496d818560208601615c94565b61497681615cc7565b840191505092915050565b600061498c82615add565b6149968185615b7c565b93506149a6818560208601615c94565b80840191505092915050565b6149bb81615c61565b82525050565b6149ca81615bf3565b82525050565b60006149db82615ae8565b6149e58185615b87565b93506149f5818560208601615c94565b6149fe81615cc7565b840191505092915050565b6000614a1482615ae8565b614a1e8185615b98565b9350614a2e818560208601615c94565b614a3781615cc7565b840191505092915050565b6000614a4f601583615b98565b91507f7573656c6573735f7a65726f5f776974686472617700000000000000000000006000830152602082019050919050565b6000614a8f603483615b98565b91507f455243313135353a207472616e7366657220746f206e6f6e204552433131353560008301527f526563656976657220696d706c656d656e7465720000000000000000000000006020830152604082019050919050565b6000614af5602883615b98565b91507f455243313135353a204552433131353552656365697665722072656a6563746560008301527f6420746f6b656e730000000000000000000000000000000000000000000000006020830152604082019050919050565b6000614b5b601483615b98565b91507f6f7074696f6e5f6e6f745f66696e616c697a65640000000000000000000000006000830152602082019050919050565b6000614b9b601483615b98565b91507f63616e6e6f745f66756e645f636f6e74726163740000000000000000000000006000830152602082019050919050565b6000614bdb602b83615b98565b91507f455243313135353a2062616c616e636520717565727920666f7220746865207a60008301527f65726f20616464726573730000000000000000000000000000000000000000006020830152604082019050919050565b6000614c41603183615b98565b91507f455243313135353a2062617463682062616c616e636520717565727920666f7260008301527f20746865207a65726f20616464726573730000000000000000000000000000006020830152604082019050919050565b6000614ca7601a83615b98565b91507f616d6f756e745f6869676865725f7468616e5f6465706f7369740000000000006000830152602082019050919050565b6000614ce7601683615b98565b91507f6f7074696f6e5f62616c616e63655f746f6f5f6c6f77000000000000000000006000830152602082019050919050565b6000614d27601b83615b98565b91507f536166654d6174683a206164646974696f6e206f766572666c6f7700000000006000830152602082019050919050565b6000614d67601583615b98565b91507f63616e6e6f745f636c6f73655f636f6e747261637400000000000000000000006000830152602082019050919050565b6000614da7602983615b98565b91507f455243313135353a2063616c6c6572206973206e6f74206f776e6572206e6f7260008301527f20617070726f76656400000000000000000000000000000000000000000000006020830152604082019050919050565b6000614e0d602683615b98565b91507f416464726573733a20696e73756666696369656e742062616c616e636520666f60008301527f722063616c6c00000000000000000000000000000000000000000000000000006020830152604082019050919050565b6000614e73600b83615b98565b91507f6e6f5f6561726e696e67730000000000000000000000000000000000000000006000830152602082019050919050565b6000614eb3602583615b98565b91507f455243313135353a207472616e7366657220746f20746865207a65726f20616460008301527f64726573730000000000000000000000000000000000000000000000000000006020830152604082019050919050565b6000614f19603283615b98565b91507f455243313135353a207472616e736665722063616c6c6572206973206e6f742060008301527f6f776e6572206e6f7220617070726f76656400000000000000000000000000006020830152604082019050919050565b6000614f7f601083615b98565b91507f726f756e645f6e6f745f636c6f736564000000000000000000000000000000006000830152602082019050919050565b6000614fbf600e83615b98565b91507f756e6b6e6f776e5f6f7074696f6e0000000000000000000000000000000000006000830152602082019050919050565b6000614fff601d83615b98565b91507f416464726573733a2063616c6c20746f206e6f6e2d636f6e74726163740000006000830152602082019050919050565b600061503f600983615b98565b91507f6e6f745f6f776e657200000000000000000000000000000000000000000000006000830152602082019050919050565b600061507f602983615b98565b91507f455243313135353a2073657474696e6720617070726f76616c2073746174757360008301527f20666f722073656c6600000000000000000000000000000000000000000000006020830152604082019050919050565b60006150e5602a83615b98565b91507f5361666545524332303a204552433230206f7065726174696f6e20646964206e60008301527f6f742073756363656564000000000000000000000000000000000000000000006020830152604082019050919050565b600061514b602983615b98565b91507f455243313135353a206163636f756e747320616e6420696473206c656e67746860008301527f206d69736d6174636800000000000000000000000000000000000000000000006020830152604082019050919050565b60006151b1602883615b98565b91507f455243313135353a2069647320616e6420616d6f756e7473206c656e6774682060008301527f6d69736d617463680000000000000000000000000000000000000000000000006020830152604082019050919050565b6000615217602183615b98565b91507f455243313135353a206d696e7420746f20746865207a65726f2061646472657360008301527f73000000000000000000000000000000000000000000000000000000000000006020830152604082019050919050565b600061527d603683615b98565b91507f5361666545524332303a20617070726f76652066726f6d206e6f6e2d7a65726f60008301527f20746f206e6f6e2d7a65726f20616c6c6f77616e6365000000000000000000006020830152604082019050919050565b60006152e3601183615b98565b91507f726f756e645f6e6f745f737461727465640000000000000000000000000000006000830152602082019050919050565b61531f81615c3a565b82525050565b61532e81615c3a565b82525050565b61533d81615c54565b82525050565b600061534f8284614981565b915081905092915050565b600060208201905061536f600083018461479b565b92915050565b600060408201905061538a600083018561479b565b615397602083018461479b565b9392505050565b600060a0820190506153b3600083018861479b565b6153c0602083018761479b565b81810360408301526153d281866148db565b905081810360608301526153e681856148db565b905081810360808301526153fa8184614948565b90509695505050505050565b600060608201905061541b600083018661479b565b615428602083018561479b565b6154356040830184615325565b949350505050565b600060a082019050615452600083018861479b565b61545f602083018761479b565b61546c6040830186615325565b6154796060830185615325565b818103608083015261548b8184614948565b90509695505050505050565b60006040820190506154ac600083018561479b565b6154b96020830184615325565b9392505050565b600060208201905081810360008301526154da81846147aa565b905092915050565b600060208201905081810360008301526154fc81846148db565b905092915050565b600060a082019050818103600083015261551e81886148db565b905081810360208301526155328187614866565b9050818103604083015261554681866148db565b9050818103606083015261555a8185614808565b9050818103608083015261556e81846148db565b90509695505050505050565b6000604082019050818103600083015261559481856148db565b905081810360208301526155a881846148db565b90509392505050565b60006020820190506155c66000830184614939565b92915050565b60006020820190506155e160008301846149b2565b92915050565b600060208201905081810360008301526156018184614a09565b905092915050565b6000602082019050818103600083015261562281614a42565b9050919050565b6000602082019050818103600083015261564281614a82565b9050919050565b6000602082019050818103600083015261566281614ae8565b9050919050565b6000602082019050818103600083015261568281614b4e565b9050919050565b600060208201905081810360008301526156a281614b8e565b9050919050565b600060208201905081810360008301526156c281614bce565b9050919050565b600060208201905081810360008301526156e281614c34565b9050919050565b6000602082019050818103600083015261570281614c9a565b9050919050565b6000602082019050818103600083015261572281614cda565b9050919050565b6000602082019050818103600083015261574281614d1a565b9050919050565b6000602082019050818103600083015261576281614d5a565b9050919050565b6000602082019050818103600083015261578281614d9a565b9050919050565b600060208201905081810360008301526157a281614e00565b9050919050565b600060208201905081810360008301526157c281614e66565b9050919050565b600060208201905081810360008301526157e281614ea6565b9050919050565b6000602082019050818103600083015261580281614f0c565b9050919050565b6000602082019050818103600083015261582281614f72565b9050919050565b6000602082019050818103600083015261584281614fb2565b9050919050565b6000602082019050818103600083015261586281614ff2565b9050919050565b6000602082019050818103600083015261588281615032565b9050919050565b600060208201905081810360008301526158a281615072565b9050919050565b600060208201905081810360008301526158c2816150d8565b9050919050565b600060208201905081810360008301526158e28161513e565b9050919050565b60006020820190508181036000830152615902816151a4565b9050919050565b600060208201905081810360008301526159228161520a565b9050919050565b6000602082019050818103600083015261594281615270565b9050919050565b60006020820190508181036000830152615962816152d6565b9050919050565b600060208201905061597e6000830184615325565b92915050565b60006040820190506159996000830185615325565b6159a66020830184615325565b9392505050565b60006020820190506159c26000830184615334565b92915050565b6000604051905081810181811067ffffffffffffffff821117156159eb57600080fd5b8060405250919050565b600067ffffffffffffffff821115615a0c57600080fd5b602082029050602081019050919050565b600067ffffffffffffffff821115615a3457600080fd5b602082029050602081019050919050565b600067ffffffffffffffff821115615a5c57600080fd5b601f19601f8301169050602081019050919050565b6000819050602082019050919050565b6000819050602082019050919050565b6000819050602082019050919050565b6000819050602082019050919050565b600081519050919050565b600081519050919050565b600081519050919050565b600081519050919050565b600081519050919050565b600081519050919050565b6000602082019050919050565b6000602082019050919050565b6000602082019050919050565b6000602082019050919050565b600082825260208201905092915050565b600082825260208201905092915050565b600082825260208201905092915050565b600082825260208201905092915050565b600082825260208201905092915050565b600081905092915050565b600082825260208201905092915050565b600082825260208201905092915050565b6000615bb482615c1a565b9050919050565b60008115159050919050565b60007fffffffff0000000000000000000000000000000000000000000000000000000082169050919050565b60008160000b9050919050565b60006dffffffffffffffffffffffffffff82169050919050565b600073ffffffffffffffffffffffffffffffffffffffff82169050919050565b6000819050919050565b600063ffffffff82169050919050565b600060ff82169050919050565b6000615c6c82615c73565b9050919050565b6000615c7e82615c1a565b9050919050565b82818337600083830152505050565b60005b83811015615cb2578082015181840152602081019050615c97565b83811115615cc1576000848401525b50505050565b6000601f19601f8301169050919050565b60008160e01c9050919050565b600060443d1015615cf557615d98565b60046000803e615d06600051615cd8565b6308c379a08114615d175750615d98565b60405160043d036004823e80513d602482011167ffffffffffffffff82111715615d4357505050615d98565b808201805167ffffffffffffffff811115615d62575050505050615d98565b8060208301013d8501811115615d7d57505050505050615d98565b615d8682615cc7565b60208401016040528296505050505050505b90565b615da481615ba9565b8114615daf57600080fd5b50565b615dbb81615bbb565b8114615dc657600080fd5b50565b615dd281615bc7565b8114615ddd57600080fd5b50565b615de981615c00565b8114615df457600080fd5b50565b615e0081615c3a565b8114615e0b57600080fd5b50565b615e1781615c44565b8114615e2257600080fd5b5056fe455243313135353a20696e73756666696369656e742062616c616e636520666f72207472616e73666572a26469706673582212208d1b0858b8aed0740a90a510669fd1fe9e7b3b67706c8a5030cea36cf6bf514064736f6c634300060c0033",
  "immutableReferences": {},
  "source": "// SPDX-License-Identifier: MIT\npragma solidity >=0.6.0 <0.8.0;\npragma experimental ABIEncoderV2;\n\nimport \"@openzeppelin/contracts/token/ERC20/ERC20.sol\";\nimport \"@openzeppelin/contracts/math/Math.sol\";\nimport \"@openzeppelin/contracts/math/SafeMath.sol\";\nimport \"@openzeppelin/contracts/token/ERC20/SafeERC20.sol\";\n\nimport \"../yield/YDaiYieldProvider.sol\";\nimport \"../result/BinaryUniswapPrice.sol\";\nimport \"../kuko_v1/KukoV1.sol\";\n\ncontract KukoEthPriceGamble is YDaiYieldProvider, BinaryUniswapPrice, KukoV1 {\n    using SafeERC20 for IERC20;\n    using Address for address;\n    using SafeMath for uint256;\n\n    ///@notice Hi test\n    ///@param name Name of the contract\n    constructor(\n        string memory name,\n        address inputToken,\n        address vaultAddress,\n        address uniswapPairAddress,\n        uint256 fundingPeriod,\n        uint256 runningPeriod,\n        uint256 weightedFundingPeriod\n    )\n        public\n        YDaiYieldProvider(inputToken, vaultAddress)\n        BinaryUniswapPrice(uniswapPairAddress, 1)\n        KukoV1(\"https://uri.com\")\n    {\n        _setName(name);\n\n        _setOwner(msg.sender);\n        _setLauncher(msg.sender);\n\n        _setOwnerShare(20000);\n        _setLauncherShare(3300);\n        _setRunnerShare(3300);\n        _setCloserShare(3300);\n        _setLoserShare(200000);\n\n        _setFundingPhaseBlockLength(fundingPeriod);\n        _setRunningPhaseBlockLength(runningPeriod);\n        _setPostFundingPhaseBlockLength(weightedFundingPeriod);\n\n        _setToken(inputToken);\n\n        KukoOptionV1[] memory generatedOptions = _initialize(0);\n        options.push(generatedOptions[0]);\n        optionIds[generatedOptions[0].id] = 1;\n        options.push(generatedOptions[1]);\n        optionIds[generatedOptions[1].id] = 2;\n    }\n\n    function _onStart() internal override {\n        _invest();\n    }\n\n    function _onClose() internal override {\n        _retrieve();\n        finalEarnings = token.balanceOf(address(this));\n\n        options[0].finalized = _resolve(options[0]);\n        options[1].finalized = _resolve(options[1]);\n\n        if (options[0].finalized == 1) {\n            winnerShares += options[0].shares;\n        } else if (options[0].finalized == -1) {\n            loserShares += options[0].shares;\n        }\n\n        if (options[1].finalized == 1) {\n            winnerShares += options[1].shares;\n        } else if (options[1].finalized == -1) {\n            loserShares += options[1].shares;\n        }\n    }\n\n    mapping(address => uint256) private deposits;\n    uint256 private totalDeposits;\n    uint256 private finalEarnings;\n    uint256 private winnerShares;\n    uint256 private loserShares;\n\n    function deposit(uint256 _option, uint256 _amount) public override isDepositable {\n        require(optionIds[_option] != 0, \"unknown_option\");\n        token.safeTransferFrom(msg.sender, address(this), _amount);\n        if (running) {\n            _invest();\n            uint256 progress = block.number - runBlock;\n            _mint(msg.sender, _option, _amount - ((_amount * progress) / runningPhaseBlockLength), \"\");\n            options[optionIds[_option]].shares += _amount - ((_amount * progress) / runningPhaseBlockLength);\n        } else {\n            _mint(msg.sender, _option, _amount, \"\");\n            options[optionIds[_option] - 1].shares += _amount;\n        }\n        deposits[msg.sender] += _amount;\n        totalDeposits += _amount;\n    }\n\n    function withdraw(uint256 _option, uint256 amount) public override isClosed {\n        require(finalEarnings > totalDeposits, \"no_earnings\");\n        require(optionIds[_option] != 0, \"unknown_option\");\n        require(balanceOf(msg.sender, _option) >= amount, \"option_balance_too_low\");\n        KukoOptionV1 memory option = options[optionIds[_option] - 1];\n        require(option.finalized != 0, \"option_not_finalized\");\n\n        if (option.finalized == 1) {\n            uint256 loserBenefits = (finalEarnings - totalDeposits) * (loserShares / (loserShares + winnerShares));\n            uint256 loserTax = loserBenefits * (amount / winnerShares) * ((1000000 - loserShare) / 1000000);\n\n            uint256 benefits = (finalEarnings - totalDeposits) * (winnerShares / (loserShares + winnerShares));\n            uint256 winnerCut = benefits * (amount / winnerShares);\n            token.safeTransfer(msg.sender, winnerCut + loserTax);\n        } else if (option.finalized == -1) {\n            uint256 benefits = (finalEarnings - totalDeposits) * (loserShares / (loserShares + winnerShares));\n            uint256 withdrawAmount = benefits * (amount / loserShares) * (loserShare / 1000000);\n            token.safeTransfer(msg.sender, withdrawAmount);\n        }\n    }\n\n    function withdrawBatch(uint256[] memory options, bool withDeposit) public override {\n        for (uint256 idx = 0; idx < options.length; ++idx) {\n            uint256 optionBalance = balanceOf(msg.sender, options[idx]);\n            withdraw(options[idx], optionBalance);\n        }\n        if (withDeposit && deposits[msg.sender] > 0) {\n            withdrawDeposit(deposits[msg.sender]);\n        }\n    }\n\n    function withdrawDeposit(uint256 amount) public override isClosed {\n        require(amount > 0, \"useless_zero_withdraw\");\n        require(deposits[msg.sender] >= amount, \"amount_higher_than_deposit\");\n        token.safeTransfer(\n            msg.sender,\n            finalEarnings >= totalDeposits ? amount : (finalEarnings / totalDeposits) * amount\n        );\n        deposits[msg.sender] -= amount;\n    }\n\n    function depositOf(address owner) external view override returns (uint256) {\n        return deposits[owner];\n    }\n\n    function sharesOf(address owner) external view override returns (uint256) {\n        uint256 sharesCount = 0;\n        for (uint256 idx = 0; idx < options.length; ++idx) {\n            sharesCount += balanceOf(owner, options[idx].id);\n        }\n        return sharesCount;\n    }\n\n    function totalDeposit() external view override returns (uint256) {\n        return totalDeposits;\n    }\n\n    function totalFunds() external view override returns (uint256) {\n        return _totalFunds();\n    }\n\n    // How to you list outputs in a generic manner\n}\n",
  "sourcePath": "/Users/mortimr/projects/kuko-finance/contracts/contracts/kuko_instances/KukoEthPriceGamble.sol",
  "compiler": {
    "name": "solc",
    "version": "0.6.12+commit.27d51765.Emscripten.clang"
  },
  "schemaVersion": "3.3.3",
  "updatedAt": "2021-02-06T19:32:46.457Z",
  "devdoc": {
    "kind": "dev",
    "methods": {
      "balanceOf(address,uint256)": {
        "details": "See {IERC1155-balanceOf}. Requirements: - `account` cannot be the zero address."
      },
      "balanceOfBatch(address[],uint256[])": {
        "details": "See {IERC1155-balanceOfBatch}. Requirements: - `accounts` and `ids` must have the same length."
      },
      "constructor": {
        "params": {
          "name": "Name of the contract"
        }
      },
      "getOptions()": {
        "returns": {
          "_0": "Serialized options"
        }
      },
      "isApprovedForAll(address,address)": {
        "details": "See {IERC1155-isApprovedForAll}."
      },
      "safeBatchTransferFrom(address,address,uint256[],uint256[],bytes)": {
        "details": "See {IERC1155-safeBatchTransferFrom}."
      },
      "safeTransferFrom(address,address,uint256,uint256,bytes)": {
        "details": "See {IERC1155-safeTransferFrom}."
      },
      "setApprovalForAll(address,bool)": {
        "details": "See {IERC1155-setApprovalForAll}."
      },
      "supportsInterface(bytes4)": {
        "details": "See {IERC165-supportsInterface}. Time complexity O(1), guaranteed to always use less than 30 000 gas."
      },
      "uri(uint256)": {
        "details": "See {IERC1155MetadataURI-uri}. This implementation returns the same URI for *all* token types. It relies on the token type ID substitution mechanism https://eips.ethereum.org/EIPS/eip-1155#metadata[defined in the EIP]. Clients calling this function must replace the `\\{id\\}` substring with the actual token type ID."
      }
    },
    "version": 1
  },
  "userdoc": {
    "kind": "user",
    "methods": {
      "constructor": "Hi test"
    },
    "version": 1
  }
}