{
  "contractName": "KukoEthPriceGamble",
  "abi": [
    {
      "anonymous": false,
      "inputs": [
        {
          "indexed": true,
          "internalType": "address",
          "name": "account",
          "type": "address"
        },
        {
          "indexed": true,
          "internalType": "address",
          "name": "operator",
          "type": "address"
        },
        {
          "indexed": false,
          "internalType": "bool",
          "name": "approved",
          "type": "bool"
        }
      ],
      "name": "ApprovalForAll",
      "type": "event"
    },
    {
      "anonymous": false,
      "inputs": [
        {
          "indexed": true,
          "internalType": "address",
          "name": "operator",
          "type": "address"
        },
        {
          "indexed": true,
          "internalType": "address",
          "name": "from",
          "type": "address"
        },
        {
          "indexed": true,
          "internalType": "address",
          "name": "to",
          "type": "address"
        },
        {
          "indexed": false,
          "internalType": "uint256[]",
          "name": "ids",
          "type": "uint256[]"
        },
        {
          "indexed": false,
          "internalType": "uint256[]",
          "name": "values",
          "type": "uint256[]"
        }
      ],
      "name": "TransferBatch",
      "type": "event"
    },
    {
      "anonymous": false,
      "inputs": [
        {
          "indexed": true,
          "internalType": "address",
          "name": "operator",
          "type": "address"
        },
        {
          "indexed": true,
          "internalType": "address",
          "name": "from",
          "type": "address"
        },
        {
          "indexed": true,
          "internalType": "address",
          "name": "to",
          "type": "address"
        },
        {
          "indexed": false,
          "internalType": "uint256",
          "name": "id",
          "type": "uint256"
        },
        {
          "indexed": false,
          "internalType": "uint256",
          "name": "value",
          "type": "uint256"
        }
      ],
      "name": "TransferSingle",
      "type": "event"
    },
    {
      "anonymous": false,
      "inputs": [
        {
          "indexed": false,
          "internalType": "string",
          "name": "value",
          "type": "string"
        },
        {
          "indexed": true,
          "internalType": "uint256",
          "name": "id",
          "type": "uint256"
        }
      ],
      "name": "URI",
      "type": "event"
    },
    {
      "inputs": [],
      "name": "HIGHER_BID_ID",
      "outputs": [
        {
          "internalType": "uint256",
          "name": "",
          "type": "uint256"
        }
      ],
      "stateMutability": "view",
      "type": "function",
      "constant": true
    },
    {
      "inputs": [],
      "name": "LOWER_BID_ID",
      "outputs": [
        {
          "internalType": "uint256",
          "name": "",
          "type": "uint256"
        }
      ],
      "stateMutability": "view",
      "type": "function",
      "constant": true
    },
    {
      "inputs": [],
      "name": "asset",
      "outputs": [
        {
          "internalType": "uint8",
          "name": "",
          "type": "uint8"
        }
      ],
      "stateMutability": "view",
      "type": "function",
      "constant": true
    },
    {
      "inputs": [
        {
          "internalType": "address",
          "name": "account",
          "type": "address"
        },
        {
          "internalType": "uint256",
          "name": "id",
          "type": "uint256"
        }
      ],
      "name": "balanceOf",
      "outputs": [
        {
          "internalType": "uint256",
          "name": "",
          "type": "uint256"
        }
      ],
      "stateMutability": "view",
      "type": "function",
      "constant": true
    },
    {
      "inputs": [
        {
          "internalType": "address[]",
          "name": "accounts",
          "type": "address[]"
        },
        {
          "internalType": "uint256[]",
          "name": "ids",
          "type": "uint256[]"
        }
      ],
      "name": "balanceOfBatch",
      "outputs": [
        {
          "internalType": "uint256[]",
          "name": "",
          "type": "uint256[]"
        }
      ],
      "stateMutability": "view",
      "type": "function",
      "constant": true
    },
    {
      "inputs": [],
      "name": "cancel",
      "outputs": [],
      "stateMutability": "nonpayable",
      "type": "function"
    },
    {
      "inputs": [],
      "name": "cancelled",
      "outputs": [
        {
          "internalType": "bool",
          "name": "",
          "type": "bool"
        }
      ],
      "stateMutability": "view",
      "type": "function",
      "constant": true
    },
    {
      "inputs": [],
      "name": "close",
      "outputs": [],
      "stateMutability": "nonpayable",
      "type": "function"
    },
    {
      "inputs": [],
      "name": "closePrice",
      "outputs": [
        {
          "internalType": "uint256",
          "name": "",
          "type": "uint256"
        }
      ],
      "stateMutability": "view",
      "type": "function",
      "constant": true
    },
    {
      "inputs": [],
      "name": "closed",
      "outputs": [
        {
          "internalType": "bool",
          "name": "",
          "type": "bool"
        }
      ],
      "stateMutability": "view",
      "type": "function",
      "constant": true
    },
    {
      "inputs": [],
      "name": "closer",
      "outputs": [
        {
          "internalType": "address",
          "name": "",
          "type": "address"
        }
      ],
      "stateMutability": "view",
      "type": "function",
      "constant": true
    },
    {
      "inputs": [],
      "name": "closerShare",
      "outputs": [
        {
          "internalType": "uint256",
          "name": "",
          "type": "uint256"
        }
      ],
      "stateMutability": "view",
      "type": "function",
      "constant": true
    },
    {
      "inputs": [],
      "name": "fundingPhaseBlockLength",
      "outputs": [
        {
          "internalType": "uint256",
          "name": "",
          "type": "uint256"
        }
      ],
      "stateMutability": "view",
      "type": "function",
      "constant": true
    },
    {
      "inputs": [],
      "name": "getInputToken",
      "outputs": [
        {
          "internalType": "address",
          "name": "",
          "type": "address"
        }
      ],
      "stateMutability": "view",
      "type": "function",
      "constant": true
    },
    {
      "inputs": [],
      "name": "getOptions",
      "outputs": [
        {
          "internalType": "uint256[]",
          "name": "",
          "type": "uint256[]"
        },
        {
          "internalType": "string[]",
          "name": "",
          "type": "string[]"
        },
        {
          "internalType": "uint256[]",
          "name": "",
          "type": "uint256[]"
        },
        {
          "internalType": "int8[]",
          "name": "",
          "type": "int8[]"
        },
        {
          "internalType": "uint256[]",
          "name": "",
          "type": "uint256[]"
        }
      ],
      "stateMutability": "view",
      "type": "function",
      "constant": true
    },
    {
      "inputs": [],
      "name": "getOutputTokens",
      "outputs": [
        {
          "internalType": "address[]",
          "name": "",
          "type": "address[]"
        }
      ],
      "stateMutability": "view",
      "type": "function",
      "constant": true
    },
    {
      "inputs": [],
      "name": "getYieldTokens",
      "outputs": [
        {
          "internalType": "address[]",
          "name": "",
          "type": "address[]"
        }
      ],
      "stateMutability": "view",
      "type": "function",
      "constant": true
    },
    {
      "inputs": [],
      "name": "higherRealId",
      "outputs": [
        {
          "internalType": "uint256",
          "name": "",
          "type": "uint256"
        }
      ],
      "stateMutability": "view",
      "type": "function",
      "constant": true
    },
    {
      "inputs": [
        {
          "internalType": "address",
          "name": "account",
          "type": "address"
        },
        {
          "internalType": "address",
          "name": "operator",
          "type": "address"
        }
      ],
      "name": "isApprovedForAll",
      "outputs": [
        {
          "internalType": "bool",
          "name": "",
          "type": "bool"
        }
      ],
      "stateMutability": "view",
      "type": "function",
      "constant": true
    },
    {
      "inputs": [],
      "name": "launcher",
      "outputs": [
        {
          "internalType": "address",
          "name": "",
          "type": "address"
        }
      ],
      "stateMutability": "view",
      "type": "function",
      "constant": true
    },
    {
      "inputs": [],
      "name": "launcherShare",
      "outputs": [
        {
          "internalType": "uint256",
          "name": "",
          "type": "uint256"
        }
      ],
      "stateMutability": "view",
      "type": "function",
      "constant": true
    },
    {
      "inputs": [],
      "name": "loserShare",
      "outputs": [
        {
          "internalType": "uint256",
          "name": "",
          "type": "uint256"
        }
      ],
      "stateMutability": "view",
      "type": "function",
      "constant": true
    },
    {
      "inputs": [],
      "name": "lowerRealId",
      "outputs": [
        {
          "internalType": "uint256",
          "name": "",
          "type": "uint256"
        }
      ],
      "stateMutability": "view",
      "type": "function",
      "constant": true
    },
    {
      "inputs": [],
      "name": "name",
      "outputs": [
        {
          "internalType": "string",
          "name": "",
          "type": "string"
        }
      ],
      "stateMutability": "view",
      "type": "function",
      "constant": true
    },
    {
      "inputs": [
        {
          "internalType": "uint256",
          "name": "",
          "type": "uint256"
        }
      ],
      "name": "options",
      "outputs": [
        {
          "internalType": "uint256",
          "name": "id",
          "type": "uint256"
        },
        {
          "internalType": "string",
          "name": "name",
          "type": "string"
        },
        {
          "internalType": "uint256",
          "name": "keyValue",
          "type": "uint256"
        },
        {
          "internalType": "int8",
          "name": "finalized",
          "type": "int8"
        },
        {
          "internalType": "uint256",
          "name": "shares",
          "type": "uint256"
        }
      ],
      "stateMutability": "view",
      "type": "function",
      "constant": true
    },
    {
      "inputs": [],
      "name": "owner",
      "outputs": [
        {
          "internalType": "address",
          "name": "",
          "type": "address"
        }
      ],
      "stateMutability": "view",
      "type": "function",
      "constant": true
    },
    {
      "inputs": [],
      "name": "ownerShare",
      "outputs": [
        {
          "internalType": "uint256",
          "name": "",
          "type": "uint256"
        }
      ],
      "stateMutability": "view",
      "type": "function",
      "constant": true
    },
    {
      "inputs": [],
      "name": "postFundingPhaseBlockLength",
      "outputs": [
        {
          "internalType": "uint256",
          "name": "",
          "type": "uint256"
        }
      ],
      "stateMutability": "view",
      "type": "function",
      "constant": true
    },
    {
      "inputs": [],
      "name": "resolved",
      "outputs": [
        {
          "internalType": "bool",
          "name": "",
          "type": "bool"
        }
      ],
      "stateMutability": "view",
      "type": "function",
      "constant": true
    },
    {
      "inputs": [],
      "name": "runBlock",
      "outputs": [
        {
          "internalType": "uint256",
          "name": "",
          "type": "uint256"
        }
      ],
      "stateMutability": "view",
      "type": "function",
      "constant": true
    },
    {
      "inputs": [],
      "name": "runner",
      "outputs": [
        {
          "internalType": "address",
          "name": "",
          "type": "address"
        }
      ],
      "stateMutability": "view",
      "type": "function",
      "constant": true
    },
    {
      "inputs": [],
      "name": "runnerShare",
      "outputs": [
        {
          "internalType": "uint256",
          "name": "",
          "type": "uint256"
        }
      ],
      "stateMutability": "view",
      "type": "function",
      "constant": true
    },
    {
      "inputs": [],
      "name": "running",
      "outputs": [
        {
          "internalType": "bool",
          "name": "",
          "type": "bool"
        }
      ],
      "stateMutability": "view",
      "type": "function",
      "constant": true
    },
    {
      "inputs": [],
      "name": "runningPhaseBlockLength",
      "outputs": [
        {
          "internalType": "uint256",
          "name": "",
          "type": "uint256"
        }
      ],
      "stateMutability": "view",
      "type": "function",
      "constant": true
    },
    {
      "inputs": [
        {
          "internalType": "address",
          "name": "from",
          "type": "address"
        },
        {
          "internalType": "address",
          "name": "to",
          "type": "address"
        },
        {
          "internalType": "uint256[]",
          "name": "ids",
          "type": "uint256[]"
        },
        {
          "internalType": "uint256[]",
          "name": "amounts",
          "type": "uint256[]"
        },
        {
          "internalType": "bytes",
          "name": "data",
          "type": "bytes"
        }
      ],
      "name": "safeBatchTransferFrom",
      "outputs": [],
      "stateMutability": "nonpayable",
      "type": "function"
    },
    {
      "inputs": [
        {
          "internalType": "address",
          "name": "from",
          "type": "address"
        },
        {
          "internalType": "address",
          "name": "to",
          "type": "address"
        },
        {
          "internalType": "uint256",
          "name": "id",
          "type": "uint256"
        },
        {
          "internalType": "uint256",
          "name": "amount",
          "type": "uint256"
        },
        {
          "internalType": "bytes",
          "name": "data",
          "type": "bytes"
        }
      ],
      "name": "safeTransferFrom",
      "outputs": [],
      "stateMutability": "nonpayable",
      "type": "function"
    },
    {
      "inputs": [
        {
          "internalType": "address",
          "name": "operator",
          "type": "address"
        },
        {
          "internalType": "bool",
          "name": "approved",
          "type": "bool"
        }
      ],
      "name": "setApprovalForAll",
      "outputs": [],
      "stateMutability": "nonpayable",
      "type": "function"
    },
    {
      "inputs": [],
      "name": "start",
      "outputs": [],
      "stateMutability": "nonpayable",
      "type": "function"
    },
    {
      "inputs": [],
      "name": "startBlock",
      "outputs": [
        {
          "internalType": "uint256",
          "name": "",
          "type": "uint256"
        }
      ],
      "stateMutability": "view",
      "type": "function",
      "constant": true
    },
    {
      "inputs": [
        {
          "internalType": "bytes4",
          "name": "interfaceId",
          "type": "bytes4"
        }
      ],
      "name": "supportsInterface",
      "outputs": [
        {
          "internalType": "bool",
          "name": "",
          "type": "bool"
        }
      ],
      "stateMutability": "view",
      "type": "function",
      "constant": true
    },
    {
      "inputs": [],
      "name": "token",
      "outputs": [
        {
          "internalType": "contract IERC20",
          "name": "",
          "type": "address"
        }
      ],
      "stateMutability": "view",
      "type": "function",
      "constant": true
    },
    {
      "inputs": [
        {
          "internalType": "uint256",
          "name": "",
          "type": "uint256"
        }
      ],
      "name": "uri",
      "outputs": [
        {
          "internalType": "string",
          "name": "",
          "type": "string"
        }
      ],
      "stateMutability": "view",
      "type": "function",
      "constant": true
    },
    {
      "inputs": [
        {
          "internalType": "string",
          "name": "name",
          "type": "string"
        },
        {
          "internalType": "address",
          "name": "inputToken",
          "type": "address"
        },
        {
          "internalType": "address",
          "name": "vaultAddress",
          "type": "address"
        },
        {
          "internalType": "address",
          "name": "uniswapPairAddress",
          "type": "address"
        },
        {
          "internalType": "uint256",
          "name": "fundingPeriod",
          "type": "uint256"
        },
        {
          "internalType": "uint256",
          "name": "runningPeriod",
          "type": "uint256"
        },
        {
          "internalType": "uint256",
          "name": "weightedFundingPeriod",
          "type": "uint256"
        }
      ],
      "name": "__KukoEthPriceGamble__init",
      "outputs": [],
      "stateMutability": "nonpayable",
      "type": "function"
    },
    {
      "inputs": [
        {
          "internalType": "uint256",
          "name": "_option",
          "type": "uint256"
        },
        {
          "internalType": "uint256",
          "name": "_amount",
          "type": "uint256"
        }
      ],
      "name": "deposit",
      "outputs": [],
      "stateMutability": "nonpayable",
      "type": "function"
    },
    {
      "inputs": [
        {
          "internalType": "uint256",
          "name": "_option",
          "type": "uint256"
        },
        {
          "internalType": "uint256",
          "name": "amount",
          "type": "uint256"
        }
      ],
      "name": "withdraw",
      "outputs": [],
      "stateMutability": "nonpayable",
      "type": "function"
    },
    {
      "inputs": [
        {
          "internalType": "uint256[]",
          "name": "options",
          "type": "uint256[]"
        },
        {
          "internalType": "bool",
          "name": "withDeposit",
          "type": "bool"
        }
      ],
      "name": "withdrawBatch",
      "outputs": [],
      "stateMutability": "nonpayable",
      "type": "function"
    },
    {
      "inputs": [
        {
          "internalType": "uint256",
          "name": "amount",
          "type": "uint256"
        }
      ],
      "name": "withdrawDeposit",
      "outputs": [],
      "stateMutability": "nonpayable",
      "type": "function"
    },
    {
      "inputs": [
        {
          "internalType": "address",
          "name": "owner",
          "type": "address"
        }
      ],
      "name": "depositOf",
      "outputs": [
        {
          "internalType": "uint256",
          "name": "",
          "type": "uint256"
        }
      ],
      "stateMutability": "view",
      "type": "function",
      "constant": true
    },
    {
      "inputs": [
        {
          "internalType": "address",
          "name": "owner",
          "type": "address"
        }
      ],
      "name": "sharesOf",
      "outputs": [
        {
          "internalType": "uint256",
          "name": "",
          "type": "uint256"
        }
      ],
      "stateMutability": "view",
      "type": "function",
      "constant": true
    },
    {
      "inputs": [],
      "name": "totalDeposit",
      "outputs": [
        {
          "internalType": "uint256",
          "name": "",
          "type": "uint256"
        }
      ],
      "stateMutability": "view",
      "type": "function",
      "constant": true
    },
    {
      "inputs": [],
      "name": "totalFunds",
      "outputs": [
        {
          "internalType": "uint256",
          "name": "",
          "type": "uint256"
        }
      ],
      "stateMutability": "view",
      "type": "function",
      "constant": true
    },
    {
      "inputs": [],
      "name": "totalShares",
      "outputs": [
        {
          "internalType": "uint256",
          "name": "",
          "type": "uint256"
        }
      ],
      "stateMutability": "view",
      "type": "function",
      "constant": true
    }
  ],
  "bytecode": "0x60806040526007805460ff1916905534801561001a57600080fd5b50614d298061002a6000396000f3fe608060405234801561001057600080fd5b506004361061030f5760003560e060020a90048063709df63c116101a1578063cfa92858116100ed578063f242432a116100a6578063f68ec35f11610080578063f68ec35f146105c1578063f799f5e3146105c9578063fc0c546a146105dc578063fc212913146105e45761030f565b8063f242432a14610593578063f5eb42dc146105a6578063f6153ccd146105b95761030f565b8063cfa928581461054d578063d85bd52614610555578063e2bbb1581461055d578063e52e43da14610570578063e985e9c514610578578063ea8a1af01461058b5761030f565b80639a82a09a1161015a578063be9a655511610134578063be9a65551461051c578063cc2ee19614610524578063ccd5ce4b1461053d578063ccdf4299146105455761030f565b80639a82a09a146104f9578063a22cb46514610501578063b30e26f7146105145761030f565b8063709df63c146104c95780637a8ca615146104d157806389006dc0146104d95780638da5cb5b146104e15780638f1c3151146104e9578063968ed600146104f15761030f565b806338d52e0f11610260578063441a3e70116102195780634e1273f4116101f35780634e1273f414610491578063597e1fb5146104b157806369208dcb146104b95780637044f282146104c15761030f565b8063441a3e7014610461578063454dcb451461047457806348cd4cb1146104895761030f565b806338d52e0f146104085780633a98ef391461041d5780633e7954f9146104255780633f6fa6551461042d578063409e22051461043557806343d726d6146104595761030f565b806316eebd1e116102cd5780632eb2c2d6116102a75780632eb2c2d6146103d257806330b55c5a146103e557806333289a46146103ed57806333d94535146104005761030f565b806316eebd1e1461039557806323e3fbd5146103aa5780632bf732df146103bd5761030f565b8062fdd58e1461031457806301ffc9a71461033d57806306fdde031461035d5780630b01f25c146103725780630e89341c1461037a5780631456bed11461038d575b600080fd5b610327610322366004613ba4565b6105ec565b6040516103349190614af4565b60405180910390f35b61035061034b366004613cf1565b61064b565b604051610334919061413d565b61036561066e565b6040516103349190614148565b6103276106fc565b610365610388366004613e08565b610702565b61032761079a565b61039d61079f565b6040516103349190613f0c565b6103276103b8366004613a0f565b6107ae565b6103d06103cb366004613c90565b6107c9565b005b6103d06103e0366004613a5e565b61085a565b610327610a82565b6103d06103fb366004613e08565b610a88565b610327610b60565b610410610b66565b6040516103349190614b44565b610327610b87565b610327610b8e565b610350610b94565b610448610443366004613e08565b610b9d565b604051610334959493929190614afd565b6103d0610c7f565b6103d061046f366004613e38565b610d1a565b61047c611025565b604051610334919061400d565b610327611087565b6104a461049f366004613bce565b61108d565b604051610334919061405a565b610350611150565b61032761115e565b61039d611164565b61047c611173565b61039d6111d3565b6103276111e2565b61039d6111e8565b6103276111f7565b6103276111fd565b61035061120c565b6103d061050f366004613b6d565b61121b565b6103276112ec565b6103d06112f2565b61052c61133b565b60405161033495949392919061406d565b61032761168d565b610327611692565b610327611698565b61035061169e565b6103d061056b366004613e38565b6116a7565b61039d611848565b610350610586366004613a2a565b611857565b6103d0611885565b6103d06105a1366004613b08565b6118c6565b6103276105b4366004613a0f565b611a60565b610327611aaa565b610327611ab0565b6103d06105d7366004613d29565b611ab6565b61039d611d8d565b610327611d9c565b6000600160a060020a0383166106205760405160e560020a62461bcd028152600401610617906142f1565b60405180910390fd5b506000818152606e60209081526040808320600160a060020a03861684529091529020545b92915050565b600160e060020a031981166000908152603c602052604090205460ff165b919050565b60b1805460408051602060026001851615610100026000190190941693909304601f810184900484028201840190925281815292918301828280156106f45780601f106106c9576101008083540402835291602001916106f4565b820191906000526020600020905b8154815290600101906020018083116106d757829003601f168201915b505050505081565b60a55481565b60708054604080516020601f600260001961010060018816150201909516949094049384018190048102820181019092528281526060939092909183018282801561078e5780601f106107635761010080835404028352916020019161078e565b820191906000526020600020905b81548152906001019060200180831161077157829003601f168201915b50505050509050919050565b600181565b60a054600160a060020a031681565b600160a060020a0316600090815260b3602052604090205490565b60005b825181101561081c5760006107f4338584815181106107e757fe5b60200260200101516105ec565b905061081384838151811061080557fe5b602002602001015182610d1a565b506001016107cc565b50808015610838575033600090815260b3602052604090205415155b156108565733600090815260b3602052604090205461085690610a88565b5050565b815183511461087e5760405160e560020a62461bcd028152600401610617906149a6565b600160a060020a0384166108a75760405160e560020a62461bcd028152600401610617906145c0565b6108af611da2565b600160a060020a031685600160a060020a031614806108d557506108d585610586611da2565b6108f45760405160e560020a62461bcd0281526004016106179061461d565b60006108fe611da2565b905061090e818787878787610a7a565b60005b8451811015610a1457600085828151811061092857fe5b60200260200101519050600085838151811061094057fe5b602002602001015190506109ad816040518060600160405280602a8152602001614cca602a9139606e600086815260200190815260200160002060008d600160a060020a0316600160a060020a0316815260200190815260200160002054611da69092919063ffffffff16565b6000838152606e60209081526040808320600160a060020a038e811685529252808320939093558a16815220546109e49082611dda565b6000928352606e60209081526040808520600160a060020a038c1686529091529092209190915550600101610911565b5084600160a060020a031686600160a060020a031682600160a060020a03167f4a39dc06d4c0dbc64b70af90fd698a233a518aa5d07e595d983b8c0526c8f7fb8787604051610a6492919061410f565b60405180910390a4610a7a818787878787611e02565b505050505050565b60a85481565b60ae5460ff610100909104161515600114610ab85760405160e560020a62461bcd0281526004016106179061467a565b60008111610adb5760405160e560020a62461bcd0281526004016106179061415b565b33600090815260b36020526040902054811115610b0d5760405160e560020a62461bcd028152600401610617906143f3565b610b473360b45460b5541015610b32578260b45460b55481610b2b57fe5b0402610b34565b825b60b254600160a060020a03169190611f54565b33600090815260b3602052604090208054919091039055565b60ab5481565b60055474010000000000000000000000000000000000000000900460ff1681565b60b8545b90565b60aa5481565b60075460ff1681565b60af8181548110610baa57fe5b9060005260206000209060050201600091509050806000015490806001018054600181600116156101000203166002900480601f016020809104026020016040519081016040528092919081815260200182805460018160011615610100020316600290048015610c5c5780601f10610c3157610100808354040283529160200191610c5c565b820191906000526020600020905b815481529060010190602001808311610c3f57829003601f168201915b50505050600283015460038401546004909401549293909260009190910b915085565b60ae5460ff161515600114610ca95760405160e560020a62461bcd02815260040161061790614abd565b60ae54610100900460ff1615610cd45760405160e560020a62461bcd0281526004016106179061467a565b60ac5460aa5401431015610cfd5760405160e560020a62461bcd02815260040161061790614498565b610d0633611fc2565b610d106001611fe4565b610d18611ffe565b565b60ae5460ff610100909104161515600114610d4a5760405160e560020a62461bcd0281526004016106179061467a565b60b45460b55411610d705760405160e560020a62461bcd02815260040161061790614589565b600082815260b06020526040902054610d9e5760405160e560020a62461bcd0281526004016106179061470e565b80610da933846105ec565b1015610dca5760405160e560020a62461bcd0281526004016106179061442a565b610dd261385d565b600083815260b0602052604090205460af8054909160001901908110610df457fe5b90600052602060002090600502016040518060a001604052908160008201548152602001600182018054600181600116156101000203166002900480601f016020809104026020016040519081016040528092919081815260200182805460018160011615610100020316600290048015610eb05780601f10610e8557610100808354040283529160200191610eb0565b820191906000526020600020905b815481529060010190602001808311610e9357829003601f168201915b5050509183525050600282015460208201526003820154600090810b810b810b60408301526004909201546060918201528201519192500b610f075760405160e560020a62461bcd0281526004016106179061424c565b806060015160000b60011415610fb057600060b65460b7540160b75481610f2a57fe5b0460b45460b554030290506000620f424060a854620f42400381610f4a57fe5b0460b6548581610f5657fe5b048302029050600060b65460b7540160b65481610f6f57fe5b0460b45460b55403029050600060b6548681610f8757fe5b60b25491900483029150610fa790600160a060020a031633858401611f54565b50505050611020565b806060015160000b600019141561102057600060b65460b7540160b75481610fd457fe5b0460b45460b554030290506000620f424060a85481610fef57fe5b0460b7548581610ffb57fe5b60b254919004840291909102915061101d90600160a060020a03163383611f54565b50505b505050565b6060600280548060200260200160405190810160405280929190818152602001828054801561107d57602002820191906000526020600020905b8154600160a060020a0316815260019091019060200180831161105f575b5050505050905090565b60a95481565b606081518351146110b35760405160e560020a62461bcd02815260040161061790614912565b6060835167ffffffffffffffff811180156110cd57600080fd5b506040519080825280602002602001820160405280156110f7578160200160208202803683370190505b50905060005b84518110156111485761112985828151811061111557fe5b60200260200101518583815181106107e757fe5b82828151811061113557fe5b60209081029190910101526001016110fd565b509392505050565b60ae54610100900460ff1681565b60a65481565b60a254600160a060020a031681565b6060600180548060200260200160405190810160405280929190818152602001828054801561107d57602002820191906000526020600020908154600160a060020a0316815260019091019060200180831161105f575050505050905090565b60a154600160a060020a031681565b60ac5481565b60a354600160a060020a031681565b60a75481565b6000611207612388565b905090565b60ae5462010000900460ff1681565b81600160a060020a031661122d611da2565b600160a060020a031614156112575760405160e560020a62461bcd02815260040161061790614858565b80606f6000611264611da2565b600160a060020a03908116825260208083019390935260409182016000908120918716808252919093529120805460ff1916921515929092179091556112a8611da2565b600160a060020a03167f17307eab39ab6107e8899845ad3d59bd9653f200f220920489ca2b5937696c31836040516112e0919061413d565b60405180910390a35050565b60ad5481565b60ae5460ff16156113185760405160e560020a62461bcd02815260040161061790614abd565b61132260016124a1565b61132b336124b4565b6113336124d6565b610d186124dc565b60af546060908190819081908190818167ffffffffffffffff8111801561136157600080fd5b5060405190808252806020026020018201604052801561138b578160200160208202803683370190505b50905060608267ffffffffffffffff811180156113a757600080fd5b506040519080825280602002602001820160405280156113db57816020015b60608152602001906001900390816113c65790505b50905060608367ffffffffffffffff811180156113f757600080fd5b50604051908082528060200260200182016040528015611421578160200160208202803683370190505b50905060608467ffffffffffffffff8111801561143d57600080fd5b50604051908082528060200260200182016040528015611467578160200160208202803683370190505b50905060608567ffffffffffffffff8111801561148357600080fd5b506040519080825280602002602001820160405280156114ad578160200160208202803683370190505b50905060005b8681101561167a5760af81815481106114c857fe5b9060005260206000209060050201600001548682815181106114e657fe5b60200260200101818152505060af81815481106114ff57fe5b90600052602060002090600502016001018054600181600116156101000203166002900480601f0160208091040260200160405190810160405280929190818152602001828054600181600116156101000203166002900480156115a45780601f10611579576101008083540402835291602001916115a4565b820191906000526020600020905b81548152906001019060200180831161158757829003601f168201915b50505050508582815181106115b557fe5b602002602001018190525060af81815481106115cd57fe5b9060005260206000209060050201600201548482815181106115eb57fe5b60200260200101818152505060af818154811061160457fe5b600091825260208220600360059092020101548451910b9084908390811061162857fe5b602002602001019060000b908160000b8152505060af818154811061164957fe5b90600052602060002090600502016004015482828151811061166757fe5b60209081029190910101526001016114b3565b50939a9299509097509550909350915050565b600081565b60065481565b60a45481565b60ae5460ff1681565b60ad5460aa540143106116cf5760405160e560020a62461bcd02815260040161061790614283565b600082815260b060205260409020546116fd5760405160e560020a62461bcd0281526004016106179061470e565b60b25461171590600160a060020a03163330846124e4565b60ae5460ff16156117c75761172861250e565b600060aa544303905061175b338460ac548486028161174357fe5b04850360405180602001604052806000815250612635565b60ac548183028161176857fe5b04820360af60b06000868152602001908152602001600020548154811061178b57fe5b600091825260209091206004600590920201018054909101905560ac54828202816117b257fe5b60b88054929091048403909101905550611827565b6117e233838360405180602001604052806000815250612635565b600082815260b0602052604090205460af805483926000190190811061180457fe5b600091825260209091206004600590920201018054909101905560b88054820190555b33600090815260b36020526040902080548201905560b48054909101905550565b600054600160a060020a031690565b600160a060020a039182166000908152606f6020908152604080832093909416825291909152205460ff1690565b60a354600160a060020a031633146118b25760405160e560020a62461bcd028152600401610617906147ea565b6118bc600161271c565b610d186001611fe4565b600160a060020a0384166118ef5760405160e560020a62461bcd028152600401610617906145c0565b6118f7611da2565b600160a060020a031685600160a060020a0316148061191d575061191d85610586611da2565b61193c5760405160e560020a62461bcd028152600401610617906144cf565b6000611946611da2565b905061196681878761195788612738565b61196088612738565b87610a7a565b6119ad836040518060600160405280602a8152602001614cca602a91396000878152606e60209081526040808320600160a060020a038d1684529091529020549190611da6565b6000858152606e60209081526040808320600160a060020a038b811685529252808320939093558716815220546119e49084611dda565b6000858152606e60209081526040808320600160a060020a03808b168086529190935292819020939093559151909188811691908416907fc3d58168c5ae7397731d063d5bbf3d657854427343f4c083240f7aacaa2d0f6290611a4a9089908990614b36565b60405180910390a4610a7a81878787878761277c565b600080805b60af54811015611aa357611a978460af8381548110611a8057fe5b9060005260206000209060050201600001546105ec565b90910190600101611a65565b5092915050565b60b45490565b60095481565b600354610100900460ff1680611acf5750611acf612882565b80611add575060035460ff16155b611afc5760405160e560020a62461bcd028152600401610617906146b1565b600354610100900460ff16158015611b27576003805460ff1961ff0019909116610100171660011790555b611b32856001612893565b611b3c878761298f565b611b7a6040518060400160405280600f81526020017f68747470733a2f2f7572692e636f6d0000000000000000000000000000000000815250612a7f565b611b8388612b1e565b611b8c33612b31565b611b9533612b53565b611ba0614e20612b75565b611bab610ce4612b9f565b611bb6610ce4612bc9565b611bc1610ce4612bf3565b611bcd62030d40612c1d565b611bd684612c42565b611bdf83612c47565b611be882612c4c565b611bf187612c75565b6060611bfd6000612c97565b905060af81600081518110611c0e57fe5b602090810291909101810151825460018181018555600094855293839020825160059092020190815581830151805192949193611c51939285019291019061388e565b5060408201516002820155606082015160038201805460ff191660ff600093840b16179055608090920151600490910155815160019160b09184908290611c9457fe5b60200260200101516000015181526020019081526020016000208190555060af81600181518110611cc157fe5b602090810291909101810151825460018181018555600094855293839020825160059092020190815581830151805192949193611d04939285019291019061388e565b506040820151816002015560608201518160030160006101000a81548160ff021916908360000b60ff160217905550608082015181600401555050600260b0600083600181518110611d5257fe5b602002602001015160000151815260200190815260200160002081905550508015611d83576003805461ff00191690555b5050505050505050565b60b254600160a060020a031681565b60085481565b3390565b60008184841115611dcd5760405160e560020a62461bcd0281526004016106179190614148565b50508183035b9392505050565b600082820183811015611dd35760405160e560020a62461bcd02815260040161061790614461565b611e1484600160a060020a0316612ee2565b15610a7a576040517fbc197c81000000000000000000000000000000000000000000000000000000008152600160a060020a0385169063bc197c8190611e669089908990889088908890600401613f3a565b602060405180830381600087803b158015611e8057600080fd5b505af1925050508015611eb0575060408051601f3d908101601f19168201909252611ead91810190613d0d565b60015b611eff57611ebc614bcf565b80611ec75750611ee4565b8060405160e560020a62461bcd0281526004016106179190614148565b60405160e560020a62461bcd02815260040161061790614192565b600160e060020a031981167fbc197c810000000000000000000000000000000000000000000000000000000014611f4b5760405160e560020a62461bcd028152600401610617906141ef565b50505050505050565b6110208363a9059cbb60e060020a028484604051602401611f76929190613ff4565b60408051601f198184030181529190526020810180517bffffffffffffffffffffffffffffffffffffffffffffffffffffffff16600160e060020a031990931692909217909152612ee8565b60a28054600160a060020a031916600160a060020a0392909216919091179055565b60ae80549115156101000261ff0019909216919091179055565b612006612f7a565b60b25460405160e060020a6370a08231028152600160a060020a03909116906370a0823190612039903090600401613f0c565b60206040518083038186803b15801561205157600080fd5b505afa158015612065573d6000803e3d6000fd5b505050506040513d601f19601f820116820180604052508101906120899190613e20565b60b58190555061219260af6000815481106120a057fe5b90600052602060002090600502016040518060a001604052908160008201548152602001600182018054600181600116156101000203166002900480601f01602080910402602001604051908101604052809291908181526020018280546001816001161561010002031660029004801561215c5780601f106121315761010080835404028352916020019161215c565b820191906000526020600020905b81548152906001019060200180831161213f57829003601f168201915b5050509183525050600282015460208201526003820154600090810b810b900b6040820152600490910154606090910152613054565b60af6000815481106121a057fe5b906000526020600020906005020160030160006101000a81548160ff021916908360000b60ff1602179055506121dd60af6001815481106120a057fe5b60af6001815481106121eb57fe5b906000526020600020906005020160030160006101000a81548160ff021916908360000b60ff16021790555060af60008154811061222557fe5b60009182526020822060036005909202010154810b900b600114156122745760af60008154811061225257fe5b600091825260209091206004600590920201015460b6805490910190556122cf565b60af60008154811061228257fe5b6000918252602082206005919091020160030154810b900b60001914156122cf5760af6000815481106122b157fe5b600091825260209091206004600590920201015460b7805490910190555b60af6001815481106122dd57fe5b60009182526020822060036005909202010154810b900b6001141561232c5760af60018154811061230a57fe5b600091825260209091206004600590920201015460b680549091019055610d18565b60af60018154811061233a57fe5b6000918252602082206005919091020160030154810b900b6000191415610d185760af60018154811061236957fe5b600091825260209091206004600590920201015460b780549091019055565b6000600360029054906101000a9004600160a060020a0316600160a060020a03166377c7b8fc6040518163ffffffff1660e060020a02815260040160206040518083038186803b1580156123db57600080fd5b505afa1580156123ef573d6000803e3d6000fd5b505050506040513d601f19601f820116820180604052508101906124139190613e20565b60035460405160e060020a6370a0823102815262010000909104600160a060020a0316906370a082319061244b903090600401613f0c565b60206040518083038186803b15801561246357600080fd5b505afa158015612477573d6000803e3d6000fd5b505050506040513d601f19601f8201168201806040525081019061249b9190613e20565b02905090565b60ae805460ff1916911515919091179055565b60a18054600160a060020a031916600160a060020a0392909216919091179055565b4360aa55565b610d1861250e565b612508846323b872dd60e060020a02858585604051602401611f7693929190613f98565b50505050565b6004805460405160e060020a6370a08231028152600092600160a060020a03909216916370a082319161254391309101613f0c565b60206040518083038186803b15801561255b57600080fd5b505afa15801561256f573d6000803e3d6000fd5b505050506040513d601f19601f820116820180604052508101906125939190613e20565b6003546004549192506125b991600160a060020a039081169162010000900416836131f8565b6003546040517fb6b55f2500000000000000000000000000000000000000000000000000000000815262010000909104600160a060020a03169063b6b55f2590612607908490600401614af4565b600060405180830381600087803b15801561262157600080fd5b505af115801561101d573d6000803e3d6000fd5b600160a060020a03841661265e5760405160e560020a62461bcd02815260040161061790614a03565b6000612668611da2565b905061267a8160008761195788612738565b6000848152606e60209081526040808320600160a060020a03891684529091529020546126a79084611dda565b6000858152606e60209081526040808320600160a060020a03808b16808652919093528184209490945551908416907fc3d58168c5ae7397731d063d5bbf3d657854427343f4c083240f7aacaa2d0f62906127059089908990614b36565b60405180910390a461101d8160008787878761277c565b60ae8054911515620100000262ff000019909216919091179055565b60408051600180825281830190925260609182919060208083019080368337019050509050828160008151811061276b57fe5b602090810291909101015292915050565b61278e84600160a060020a0316612ee2565b15610a7a576040517ff23a6e61000000000000000000000000000000000000000000000000000000008152600160a060020a0385169063f23a6e61906127e09089908990889088908890600401613fbc565b602060405180830381600087803b1580156127fa57600080fd5b505af192505050801561282a575060408051601f3d908101601f1916820190925261282791810190613d0d565b60015b61283657611ebc614bcf565b600160e060020a031981167ff23a6e610000000000000000000000000000000000000000000000000000000014611f4b5760405160e560020a62461bcd028152600401610617906141ef565b600061288d30612ee2565b15905090565b600354610100900460ff16806128ac57506128ac612882565b806128ba575060035460ff16155b6128d95760405160e560020a62461bcd028152600401610617906146b1565b600354610100900460ff16158015612904576003805460ff1961ff0019909116610100171660011790555b60028260ff161061292a5760405160e560020a62461bcd0281526004016106179061434e565b60058054600160a060020a031916600160a060020a0385161774ff000000000000000000000000000000000000000019167401000000000000000000000000000000000000000060ff8516021790558015611020576003805461ff0019169055505050565b600354610100900460ff16806129a857506129a8612882565b806129b6575060035460ff16155b6129d55760405160e560020a62461bcd028152600401610617906146b1565b600354610100900460ff16158015612a00576003805460ff1961ff0019909116610100171660011790555b612a09836132da565b612a12826132fc565b612a1b836132fc565b6003805475ffffffffffffffffffffffffffffffffffffffff0000191662010000600160a060020a03858116919091029190911790915560048054600160a060020a0319169185169190911790558015611020576003805461ff0019169055505050565b600354610100900460ff1680612a985750612a98612882565b80612aa6575060035460ff16155b612ac55760405160e560020a62461bcd028152600401610617906146b1565b600354610100900460ff16158015612af0576003805460ff1961ff0019909116610100171660011790555b612af98261334d565b612b016133d7565b612b09613461565b8015610856576003805461ff00191690555050565b80516108569060b190602084019061388e565b60a38054600160a060020a031916600160a060020a0392909216919091179055565b60a08054600160a060020a031916600160a060020a0392909216919091179055565b620f42408110612b9a5760405160e560020a62461bcd0281526004016106179061496f565b60a755565b620f42408110612bc45760405160e560020a62461bcd02815260040161061790614821565b60a455565b620f42408110612bee5760405160e560020a62461bcd028152600401610617906147b3565b60a555565b620f42408110612c185760405160e560020a62461bcd02815260040161061790614385565b60a655565b620f42408110612c185760405160e560020a62461bcd028152600401610617906142ba565b60ab55565b60ac55565b60ac548110612c705760405160e560020a62461bcd02815260040161061790614745565b60ad55565b60b28054600160a060020a031916600160a060020a0392909216919091179055565b6060600080600560009054906101000a9004600160a060020a0316600160a060020a0316630902f1ac6040518163ffffffff1660e060020a02815260040160606040518083038186803b158015612ced57600080fd5b505afa158015612d01573d6000803e3d6000fd5b505050506040513d601f19601f82011682018060405250810190612d259190613db4565b50915091506000826dffffffffffffffffffffffffffff16826dffffffffffffffffffffffffffff1681612d5557fe5b046dffffffffffffffffffffffffffff16905060606002604051908082528060200260200182016040528015612da557816020015b612d9261385d565b815260200190600190039081612d8a5790505b5090506040518060a001604052806000880181526020016040518060400160405280600a81526020017f6869676865725f6269640000000000000000000000000000000000000000000081525081526020018381526020016000800b8152602001600081525081600081518110612e1857fe5b602002602001018190525080600081518110612e3057fe5b6020026020010151600001516008819055506040518060a001604052806001880181526020016040518060400160405280600981526020017f6c6f7765725f626964000000000000000000000000000000000000000000000081525081526020018381526020016000800b8152602001600081525081600181518110612eb257fe5b602002602001018190525080600081518110612eca57fe5b60209081029190910101515160095595945050505050565b3b151590565b6060612f3d826040518060400160405280602081526020017f5361666545524332303a206c6f772d6c6576656c2063616c6c206661696c656481525085600160a060020a03166134f29092919063ffffffff16565b8051909150156110205780806020019051810190612f5b9190613cd5565b6110205760405160e560020a62461bcd028152600401610617906148b5565b60035460405160e060020a6370a08231028152600091620100009004600160a060020a0316906370a0823190612fb4903090600401613f0c565b60206040518083038186803b158015612fcc57600080fd5b505afa158015612fe0573d6000803e3d6000fd5b505050506040513d601f19601f820116820180604052508101906130049190613e20565b6003546040517f2e1a7d4d000000000000000000000000000000000000000000000000000000008152919250620100009004600160a060020a031690632e1a7d4d90612607908490600401614af4565b60075460009060ff166131a557600080600560009054906101000a9004600160a060020a0316600160a060020a0316630902f1ac6040518163ffffffff1660e060020a02815260040160606040518083038186803b1580156130b557600080fd5b505afa1580156130c9573d6000803e3d6000fd5b505050506040513d601f19601f820116820180604052508101906130ed9190613db4565b50600554919350915074010000000000000000000000000000000000000000900460ff1661315757816dffffffffffffffffffffffffffff16816dffffffffffffffffffffffffffff168161313e57fe5b046dffffffffffffffffffffffffffff16600655613195565b806dffffffffffffffffffffffffffff16826dffffffffffffffffffffffffffff168161318057fe5b046dffffffffffffffffffffffffffff166006555b50506007805460ff191660011790555b600954825114156131cf576006548260400151116131c5576000196131c8565b60015b9050610669565b600854825114156131f057600654826040015111156131c5576000196131c8565b506000919050565b80158061329957506040517fdd62ed3e000000000000000000000000000000000000000000000000000000008152600160a060020a0384169063dd62ed3e906132479030908690600401613f20565b60206040518083038186803b15801561325f57600080fd5b505afa158015613273573d6000803e3d6000fd5b505050506040513d601f19601f820116820180604052508101906132979190613e20565b155b6132b85760405160e560020a62461bcd02815260040161061790614a60565b6110208363095ea7b360e060020a028484604051602401611f76929190613ff4565b60008054600160a060020a031916600160a060020a0392909216919091179055565b6001805480820182556000919091527fb10e2d527612073b26eecdfd717e6a320cf44b4afac2b0732d9fcbe2b7fa0cf6018054600160a060020a031916600160a060020a0392909216919091179055565b600354610100900460ff16806133665750613366612882565b80613374575060035460ff16155b6133935760405160e560020a62461bcd028152600401610617906146b1565b600354610100900460ff161580156133be576003805460ff1961ff0019909116610100171660011790555b6133c6613509565b6133ce61358e565b612b0982613628565b600354610100900460ff16806133f057506133f0612882565b806133fe575060035460ff16155b61341d5760405160e560020a62461bcd028152600401610617906146b1565b600354610100900460ff16158015613448576003805460ff1961ff0019909116610100171660011790555b4360a955801561345e576003805461ff00191690555b50565b600354610100900460ff168061347a575061347a612882565b80613488575060035460ff16155b6134a75760405160e560020a62461bcd028152600401610617906146b1565b600354610100900460ff161580156134d2576003805460ff1961ff0019909116610100171660011790555b60ae805462ffffff19169055801561345e576003805461ff001916905550565b606061350184846000856136f4565b949350505050565b600354610100900460ff16806135225750613522612882565b80613530575060035460ff16155b61354f5760405160e560020a62461bcd028152600401610617906146b1565b600354610100900460ff1615801561357a576003805460ff1961ff0019909116610100171660011790555b801561345e576003805461ff001916905550565b600354610100900460ff16806135a757506135a7612882565b806135b5575060035460ff16155b6135d45760405160e560020a62461bcd028152600401610617906146b1565b600354610100900460ff161580156135ff576003805460ff1961ff0019909116610100171660011790555b61357a7f01ffc9a7000000000000000000000000000000000000000000000000000000006137bc565b600354610100900460ff16806136415750613641612882565b8061364f575060035460ff16155b61366e5760405160e560020a62461bcd028152600401610617906146b1565b600354610100900460ff16158015613699576003805460ff1961ff0019909116610100171660011790555b6136a28261380e565b6136cb7fd9b67a26000000000000000000000000000000000000000000000000000000006137bc565b612b097f0e89341c000000000000000000000000000000000000000000000000000000006137bc565b6060303183111561371a5760405160e560020a62461bcd0281526004016106179061452c565b61372385612ee2565b6137425760405160e560020a62461bcd0281526004016106179061477c565b6000606086600160a060020a0316858760405161375f9190613ef0565b60006040518083038185875af1925050503d806000811461379c576040519150601f19603f3d011682016040523d82523d6000602084013e6137a1565b606091505b50915091506137b1828286613821565b979650505050505050565b600160e060020a031980821614156137e95760405160e560020a62461bcd028152600401610617906143bc565b600160e060020a0319166000908152603c60205260409020805460ff19166001179055565b805161085690607090602084019061388e565b60608315613830575081611dd3565b8251156138405782518084602001fd5b8160405160e560020a62461bcd0281526004016106179190614148565b6040518060a001604052806000815260200160608152602001600081526020016000800b8152602001600081525090565b828054600181600116156101000203166002900490600052602060002090601f016020900481019282601f106138cf57805160ff19168380011785556138fc565b828001600101855582156138fc579182015b828111156138fc5782518255916020019190600101906138e1565b5061390892915061390c565b5090565b5b80821115613908576000815560010161390d565b8035600160a060020a038116811461064557600080fd5b600082601f830112613948578081fd5b813561395b61395682614b79565b614b52565b81815291506020808301908481018184028601820187101561397c57600080fd5b60005b8481101561399b5781358452928201929082019060010161397f565b505050505092915050565b600082601f8301126139b6578081fd5b813567ffffffffffffffff8111156139cc578182fd5b6139df601f8201601f1916602001614b52565b91508082528360208285010111156139f657600080fd5b8060208401602084013760009082016020015292915050565b600060208284031215613a20578081fd5b611dd38383613921565b60008060408385031215613a3c578081fd5b613a468484613921565b9150613a558460208501613921565b90509250929050565b600080600080600060a08688031215613a75578081fd5b8535613a8081614c74565b94506020860135613a9081614c74565b9350604086013567ffffffffffffffff80821115613aac578283fd5b613ab889838a01613938565b94506060880135915080821115613acd578283fd5b613ad989838a01613938565b93506080880135915080821115613aee578283fd5b50613afb888289016139a6565b9150509295509295909350565b600080600080600060a08688031215613b1f578081fd5b613b298787613921565b9450613b388760208801613921565b93506040860135925060608601359150608086013567ffffffffffffffff811115613b61578182fd5b613afb888289016139a6565b60008060408385031215613b7f578182fd5b613b898484613921565b91506020830135613b9981614c89565b809150509250929050565b60008060408385031215613bb6578182fd5b613bc08484613921565b946020939093013593505050565b60008060408385031215613be0578182fd5b823567ffffffffffffffff80821115613bf7578384fd5b818501915085601f830112613c0a578384fd5b8135613c1861395682614b79565b80828252602080830192508086018a828387028901011115613c38578889fd5b8896505b84871015613c6257613c4e8b82613921565b845260019690960195928101928101613c3c565b509096508701359350505080821115613c79578283fd5b50613c8685828601613938565b9150509250929050565b60008060408385031215613ca2578182fd5b823567ffffffffffffffff811115613cb8578283fd5b613cc485828601613938565b9250506020830135613b9981614c89565b600060208284031215613ce6578081fd5b8151611dd381614c89565b600060208284031215613d02578081fd5b8135611dd381614c97565b600060208284031215613d1e578081fd5b8151611dd381614c97565b600080600080600080600060e0888a031215613d43578485fd5b873567ffffffffffffffff811115613d59578586fd5b613d658a828b016139a6565b975050613d758960208a01613921565b9550613d848960408a01613921565b9450613d938960608a01613921565b9699959850939660808101359560a0820135955060c0909101359350915050565b600080600060608486031215613dc8578081fd5b8351613dd381614cad565b6020850151909350613de481614cad565b604085015190925063ffffffff81168114613dfd578182fd5b809150509250925092565b600060208284031215613e19578081fd5b5035919050565b600060208284031215613e31578081fd5b5051919050565b60008060408385031215613e4a578182fd5b50508035926020909101359150565b6000815180845260208085019450808401835b83811015613e8a578151850b87529582019590820190600101613e6c565b509495945050505050565b6000815180845260208085019450808401835b83811015613e8a57815187529582019590820190600101613ea8565b60008151808452613edc816020860160208601614b99565b601f01601f19169290920160200192915050565b60008251613f02818460208701614b99565b9190910192915050565b600160a060020a0391909116815260200190565b600160a060020a0392831681529116602082015260400190565b6000600160a060020a03808816835280871660208401525060a06040830152613f6660a0830186613e95565b8281036060840152613f788186613e95565b90508281036080840152613f8c8185613ec4565b98975050505050505050565b600160a060020a039384168152919092166020820152604081019190915260600190565b6000600160a060020a03808816835280871660208401525084604083015283606083015260a060808301526137b160a0830184613ec4565b600160a060020a03929092168252602082015260400190565b6020808252825182820181905260009190848201906040850190845b8181101561404e578351600160a060020a031683529284019291840191600101614029565b50909695505050505050565b600060208252611dd36020830184613e95565b600060a0825261408060a0830188613e95565b6020838203818501528188516140968185614af4565b91508193508281028201838b01865b838110156140cf5786830385526140bd838351613ec4565b948601949250908501906001016140a5565b505086810360408801526140e3818b613e95565b94505050505082810360608401526140fb8186613e59565b90508281036080840152613f8c8185613e95565b6000604082526141226040830185613e95565b82810360208401526141348185613e95565b95945050505050565b901515815260200190565b600060208252611dd36020830184613ec4565b60208082526015908201527f7573656c6573735f7a65726f5f77697468647261770000000000000000000000604082015260600190565b60208082526034908201527f455243313135353a207472616e7366657220746f206e6f6e204552433131353560408201527f526563656976657220696d706c656d656e746572000000000000000000000000606082015260800190565b60208082526028908201527f455243313135353a204552433131353552656365697665722072656a6563746560408201527f6420746f6b656e73000000000000000000000000000000000000000000000000606082015260800190565b60208082526014908201527f6f7074696f6e5f6e6f745f66696e616c697a6564000000000000000000000000604082015260600190565b60208082526014908201527f63616e6e6f745f66756e645f636f6e7472616374000000000000000000000000604082015260600190565b60208082526014908201527f6c6f7365725f73686172655f746f6f5f68696768000000000000000000000000604082015260600190565b6020808252602b908201527f455243313135353a2062616c616e636520717565727920666f7220746865207a60408201527f65726f2061646472657373000000000000000000000000000000000000000000606082015260800190565b60208082526016908201527f696e76616c69645f61737365745f706f736974696f6e00000000000000000000604082015260600190565b60208082526015908201527f636c6f7365725f73686172655f746f6f5f686967680000000000000000000000604082015260600190565b6020808252601c908201527f4552433136353a20696e76616c696420696e7465726661636520696400000000604082015260600190565b6020808252601a908201527f616d6f756e745f6869676865725f7468616e5f6465706f736974000000000000604082015260600190565b60208082526016908201527f6f7074696f6e5f62616c616e63655f746f6f5f6c6f7700000000000000000000604082015260600190565b6020808252601b908201527f536166654d6174683a206164646974696f6e206f766572666c6f770000000000604082015260600190565b60208082526015908201527f63616e6e6f745f636c6f73655f636f6e74726163740000000000000000000000604082015260600190565b60208082526029908201527f455243313135353a2063616c6c6572206973206e6f74206f776e6572206e6f7260408201527f20617070726f7665640000000000000000000000000000000000000000000000606082015260800190565b60208082526026908201527f416464726573733a20696e73756666696369656e742062616c616e636520666f60408201527f722063616c6c0000000000000000000000000000000000000000000000000000606082015260800190565b6020808252600b908201527f6e6f5f6561726e696e6773000000000000000000000000000000000000000000604082015260600190565b60208082526025908201527f455243313135353a207472616e7366657220746f20746865207a65726f20616460408201527f6472657373000000000000000000000000000000000000000000000000000000606082015260800190565b60208082526032908201527f455243313135353a207472616e736665722063616c6c6572206973206e6f742060408201527f6f776e6572206e6f7220617070726f7665640000000000000000000000000000606082015260800190565b60208082526010908201527f726f756e645f6e6f745f636c6f73656400000000000000000000000000000000604082015260600190565b6020808252602e908201527f496e697469616c697a61626c653a20636f6e747261637420697320616c72656160408201527f647920696e697469616c697a6564000000000000000000000000000000000000606082015260800190565b6020808252600e908201527f756e6b6e6f776e5f6f7074696f6e000000000000000000000000000000000000604082015260600190565b6020808252601c908201527f706f73745f66756e64696e675f657863656564735f72756e74696d6500000000604082015260600190565b6020808252601d908201527f416464726573733a2063616c6c20746f206e6f6e2d636f6e7472616374000000604082015260600190565b60208082526015908201527f72756e6e65725f73686172655f746f6f5f686967680000000000000000000000604082015260600190565b60208082526009908201527f6e6f745f6f776e65720000000000000000000000000000000000000000000000604082015260600190565b60208082526017908201527f6c61756e636865725f73686172655f746f6f5f68696768000000000000000000604082015260600190565b60208082526029908201527f455243313135353a2073657474696e6720617070726f76616c2073746174757360408201527f20666f722073656c660000000000000000000000000000000000000000000000606082015260800190565b6020808252602a908201527f5361666545524332303a204552433230206f7065726174696f6e20646964206e60408201527f6f74207375636365656400000000000000000000000000000000000000000000606082015260800190565b60208082526029908201527f455243313135353a206163636f756e747320616e6420696473206c656e67746860408201527f206d69736d617463680000000000000000000000000000000000000000000000606082015260800190565b60208082526014908201527f6f776e65725f73686172655f746f6f5f68696768000000000000000000000000604082015260600190565b60208082526028908201527f455243313135353a2069647320616e6420616d6f756e7473206c656e6774682060408201527f6d69736d61746368000000000000000000000000000000000000000000000000606082015260800190565b60208082526021908201527f455243313135353a206d696e7420746f20746865207a65726f2061646472657360408201527f7300000000000000000000000000000000000000000000000000000000000000606082015260800190565b60208082526036908201527f5361666545524332303a20617070726f76652066726f6d206e6f6e2d7a65726f60408201527f20746f206e6f6e2d7a65726f20616c6c6f77616e636500000000000000000000606082015260800190565b60208082526011908201527f726f756e645f6e6f745f73746172746564000000000000000000000000000000604082015260600190565b90815260200190565b600086825260a06020830152614b1660a0830187613ec4565b60408301959095525060009290920b606083015260809091015292915050565b918252602082015260400190565b60ff91909116815260200190565b60405181810167ffffffffffffffff81118282101715614b7157600080fd5b604052919050565b600067ffffffffffffffff821115614b8f578081fd5b5060209081020190565b60005b83811015614bb4578181015183820152602001614b9c565b838111156125085750506000910152565b60e060020a900490565b600060443d1015614bdf57610b8b565b600481823e6308c379a0614bf38251614bc5565b14614bfd57610b8b565b6040513d600319016004823e80513d67ffffffffffffffff8160248401118184111715614c2d5750505050610b8b565b82840192508251915080821115614c475750505050610b8b565b503d83016020828401011115614c5f57505050610b8b565b601f01601f1916810160200160405291505090565b600160a060020a038116811461345e57600080fd5b801515811461345e57600080fd5b600160e060020a03198116811461345e57600080fd5b6dffffffffffffffffffffffffffff8116811461345e57600080fdfe455243313135353a20696e73756666696369656e742062616c616e636520666f72207472616e73666572a2646970667358221220a22357f43bfa8615a4263b4bb9c47a1926096ca1a65204a3695d241df62b3e1e64736f6c634300060c0033",
  "immutableReferences": {},
  "source": "// SPDX-License-Identifier: MIT\npragma solidity >=0.6.0 <0.8.0;\npragma experimental ABIEncoderV2;\n\nimport \"@openzeppelin/contracts/token/ERC20/ERC20.sol\";\nimport \"@openzeppelin/contracts/math/Math.sol\";\nimport \"@openzeppelin/contracts/math/SafeMath.sol\";\nimport \"@openzeppelin/contracts/token/ERC20/SafeERC20.sol\";\nimport \"@openzeppelin/contracts-upgradeable/proxy/Initializable.sol\";\n\nimport \"../yield/YDaiYieldProvider.sol\";\nimport \"../result/BinaryUniswapPrice.sol\";\nimport \"../kuko_v1/KukoV1.sol\";\n\ncontract KukoEthPriceGamble is Initializable, YDaiYieldProvider, BinaryUniswapPrice, KukoV1 {\n    using SafeERC20 for IERC20;\n    using Address for address;\n    using SafeMath for uint256;\n\n    mapping(address => uint256) private deposits;\n    uint256 private totalDeposits;\n    uint256 private finalEarnings;\n    uint256 private winnerShares;\n    uint256 private loserShares;\n    uint256 private _totalShares;\n\n    ///@notice Hi test\n    ///@param name Name of the contract\n    // solhint-disable-next-line\n    function __KukoEthPriceGamble__init(\n        string memory name,\n        address inputToken,\n        address vaultAddress,\n        address uniswapPairAddress,\n        uint256 fundingPeriod,\n        uint256 runningPeriod,\n        uint256 weightedFundingPeriod\n    ) public initializer {\n        __BinaryUniswapPrice__init(uniswapPairAddress, 1);\n        __YDaiYieldProvider__init(inputToken, vaultAddress);\n        __KukoV1_init(\"https://uri.com\");\n        _setName(name);\n\n        _setOwner(msg.sender);\n        _setLauncher(msg.sender);\n\n        _setOwnerShare(20000);\n        _setLauncherShare(3300);\n        _setRunnerShare(3300);\n        _setCloserShare(3300);\n        _setLoserShare(200000);\n\n        _setFundingPhaseBlockLength(fundingPeriod);\n        _setRunningPhaseBlockLength(runningPeriod);\n        _setPostFundingPhaseBlockLength(weightedFundingPeriod);\n\n        _setToken(inputToken);\n\n        KukoOptionV1[] memory generatedOptions = _initialize(0);\n        options.push(generatedOptions[0]);\n        optionIds[generatedOptions[0].id] = 1;\n        options.push(generatedOptions[1]);\n        optionIds[generatedOptions[1].id] = 2;\n    }\n\n    function _onStart() internal override {\n        _invest();\n    }\n\n    function _onClose() internal override {\n        _retrieve();\n        finalEarnings = token.balanceOf(address(this));\n\n        options[0].finalized = _resolve(options[0]);\n        options[1].finalized = _resolve(options[1]);\n\n        if (options[0].finalized == 1) {\n            winnerShares += options[0].shares;\n        } else if (options[0].finalized == -1) {\n            loserShares += options[0].shares;\n        }\n\n        if (options[1].finalized == 1) {\n            winnerShares += options[1].shares;\n        } else if (options[1].finalized == -1) {\n            loserShares += options[1].shares;\n        }\n    }\n\n    function deposit(uint256 _option, uint256 _amount) public override isDepositable {\n        require(optionIds[_option] != 0, \"unknown_option\");\n        token.safeTransferFrom(msg.sender, address(this), _amount);\n        if (running) {\n            _invest();\n            uint256 progress = block.number - runBlock;\n            _mint(msg.sender, _option, _amount - ((_amount * progress) / runningPhaseBlockLength), \"\");\n            options[optionIds[_option]].shares += _amount - ((_amount * progress) / runningPhaseBlockLength);\n            _totalShares += _amount - ((_amount * progress) / runningPhaseBlockLength);\n        } else {\n            _mint(msg.sender, _option, _amount, \"\");\n            options[optionIds[_option] - 1].shares += _amount;\n            _totalShares += _amount;\n        }\n        deposits[msg.sender] += _amount;\n        totalDeposits += _amount;\n    }\n\n    function withdraw(uint256 _option, uint256 amount) public override isClosed {\n        require(finalEarnings > totalDeposits, \"no_earnings\");\n        require(optionIds[_option] != 0, \"unknown_option\");\n        require(balanceOf(msg.sender, _option) >= amount, \"option_balance_too_low\");\n        KukoOptionV1 memory option = options[optionIds[_option] - 1];\n        require(option.finalized != 0, \"option_not_finalized\");\n\n        if (option.finalized == 1) {\n            uint256 loserBenefits = (finalEarnings - totalDeposits) * (loserShares / (loserShares + winnerShares));\n            uint256 loserTax = loserBenefits * (amount / winnerShares) * ((1000000 - loserShare) / 1000000);\n\n            uint256 benefits = (finalEarnings - totalDeposits) * (winnerShares / (loserShares + winnerShares));\n            uint256 winnerCut = benefits * (amount / winnerShares);\n            token.safeTransfer(msg.sender, winnerCut + loserTax);\n        } else if (option.finalized == -1) {\n            uint256 benefits = (finalEarnings - totalDeposits) * (loserShares / (loserShares + winnerShares));\n            uint256 withdrawAmount = benefits * (amount / loserShares) * (loserShare / 1000000);\n            token.safeTransfer(msg.sender, withdrawAmount);\n        }\n    }\n\n    function withdrawBatch(uint256[] memory options, bool withDeposit) public override {\n        for (uint256 idx = 0; idx < options.length; ++idx) {\n            uint256 optionBalance = balanceOf(msg.sender, options[idx]);\n            withdraw(options[idx], optionBalance);\n        }\n        if (withDeposit && deposits[msg.sender] > 0) {\n            withdrawDeposit(deposits[msg.sender]);\n        }\n    }\n\n    function withdrawDeposit(uint256 amount) public override isClosed {\n        require(amount > 0, \"useless_zero_withdraw\");\n        require(deposits[msg.sender] >= amount, \"amount_higher_than_deposit\");\n        token.safeTransfer(\n            msg.sender,\n            finalEarnings >= totalDeposits ? amount : (finalEarnings / totalDeposits) * amount\n        );\n        deposits[msg.sender] -= amount;\n    }\n\n    function depositOf(address owner) external view override returns (uint256) {\n        return deposits[owner];\n    }\n\n    function sharesOf(address owner) external view override returns (uint256) {\n        uint256 sharesCount = 0;\n        for (uint256 idx = 0; idx < options.length; ++idx) {\n            sharesCount += balanceOf(owner, options[idx].id);\n        }\n        return sharesCount;\n    }\n\n    function totalDeposit() external view override returns (uint256) {\n        return totalDeposits;\n    }\n\n    function totalFunds() external view override returns (uint256) {\n        return _totalFunds();\n    }\n\n    function totalShares() external view override returns (uint256) {\n        return _totalShares;\n    }\n\n}\n",
  "sourcePath": "/Users/mortimr/projects/kuko-finance/contracts/contracts/kuko_instances/KukoEthPriceGamble.sol",
  "compiler": {
    "name": "solc",
    "version": "0.6.12+commit.27d51765.Emscripten.clang"
  },
  "schemaVersion": "3.3.3",
  "updatedAt": "2021-02-07T17:31:13.636Z",
  "networkType": "ethereum",
  "devdoc": {
    "kind": "dev",
    "methods": {
      "__KukoEthPriceGamble__init(string,address,address,address,uint256,uint256,uint256)": {
        "params": {
          "name": "Name of the contract"
        }
      },
      "balanceOf(address,uint256)": {
        "details": "See {IERC1155-balanceOf}. Requirements: - `account` cannot be the zero address."
      },
      "balanceOfBatch(address[],uint256[])": {
        "details": "See {IERC1155-balanceOfBatch}. Requirements: - `accounts` and `ids` must have the same length."
      },
      "getOptions()": {
        "returns": {
          "_0": "Serialized options"
        }
      },
      "isApprovedForAll(address,address)": {
        "details": "See {IERC1155-isApprovedForAll}."
      },
      "safeBatchTransferFrom(address,address,uint256[],uint256[],bytes)": {
        "details": "See {IERC1155-safeBatchTransferFrom}."
      },
      "safeTransferFrom(address,address,uint256,uint256,bytes)": {
        "details": "See {IERC1155-safeTransferFrom}."
      },
      "setApprovalForAll(address,bool)": {
        "details": "See {IERC1155-setApprovalForAll}."
      },
      "supportsInterface(bytes4)": {
        "details": "See {IERC165-supportsInterface}. Time complexity O(1), guaranteed to always use less than 30 000 gas."
      },
      "uri(uint256)": {
        "details": "See {IERC1155MetadataURI-uri}. This implementation returns the same URI for *all* token types. It relies on the token type ID substitution mechanism https://eips.ethereum.org/EIPS/eip-1155#metadata[defined in the EIP]. Clients calling this function must replace the `\\{id\\}` substring with the actual token type ID."
      }
    },
    "version": 1
  },
  "userdoc": {
    "kind": "user",
    "methods": {
      "__KukoEthPriceGamble__init(string,address,address,address,uint256,uint256,uint256)": {
        "notice": "Hi test"
      },
      "getInputToken()": {
        "notice": "Retrieve input token address"
      },
      "getOutputTokens()": {
        "notice": "Retrieve output token addresses"
      },
      "getYieldTokens()": {
        "notice": "Retrieve yield token addresses"
      }
    },
    "version": 1
  }
}