{
  "contractName": "TBDEthPrice10000BlocksDaiHF",
  "abi": [
    {
      "inputs": [
        {
          "internalType": "string",
          "name": "name",
          "type": "string"
        },
        {
          "internalType": "address",
          "name": "inputToken",
          "type": "address"
        }
      ],
      "stateMutability": "nonpayable",
      "type": "constructor"
    },
    {
      "anonymous": false,
      "inputs": [
        {
          "indexed": true,
          "internalType": "address",
          "name": "account",
          "type": "address"
        },
        {
          "indexed": true,
          "internalType": "address",
          "name": "operator",
          "type": "address"
        },
        {
          "indexed": false,
          "internalType": "bool",
          "name": "approved",
          "type": "bool"
        }
      ],
      "name": "ApprovalForAll",
      "type": "event"
    },
    {
      "anonymous": false,
      "inputs": [
        {
          "indexed": true,
          "internalType": "address",
          "name": "operator",
          "type": "address"
        },
        {
          "indexed": true,
          "internalType": "address",
          "name": "from",
          "type": "address"
        },
        {
          "indexed": true,
          "internalType": "address",
          "name": "to",
          "type": "address"
        },
        {
          "indexed": false,
          "internalType": "uint256[]",
          "name": "ids",
          "type": "uint256[]"
        },
        {
          "indexed": false,
          "internalType": "uint256[]",
          "name": "values",
          "type": "uint256[]"
        }
      ],
      "name": "TransferBatch",
      "type": "event"
    },
    {
      "anonymous": false,
      "inputs": [
        {
          "indexed": true,
          "internalType": "address",
          "name": "operator",
          "type": "address"
        },
        {
          "indexed": true,
          "internalType": "address",
          "name": "from",
          "type": "address"
        },
        {
          "indexed": true,
          "internalType": "address",
          "name": "to",
          "type": "address"
        },
        {
          "indexed": false,
          "internalType": "uint256",
          "name": "id",
          "type": "uint256"
        },
        {
          "indexed": false,
          "internalType": "uint256",
          "name": "value",
          "type": "uint256"
        }
      ],
      "name": "TransferSingle",
      "type": "event"
    },
    {
      "anonymous": false,
      "inputs": [
        {
          "indexed": false,
          "internalType": "string",
          "name": "value",
          "type": "string"
        },
        {
          "indexed": true,
          "internalType": "uint256",
          "name": "id",
          "type": "uint256"
        }
      ],
      "name": "URI",
      "type": "event"
    },
    {
      "inputs": [
        {
          "internalType": "address",
          "name": "account",
          "type": "address"
        },
        {
          "internalType": "uint256",
          "name": "id",
          "type": "uint256"
        }
      ],
      "name": "balanceOf",
      "outputs": [
        {
          "internalType": "uint256",
          "name": "",
          "type": "uint256"
        }
      ],
      "stateMutability": "view",
      "type": "function",
      "constant": true
    },
    {
      "inputs": [
        {
          "internalType": "address[]",
          "name": "accounts",
          "type": "address[]"
        },
        {
          "internalType": "uint256[]",
          "name": "ids",
          "type": "uint256[]"
        }
      ],
      "name": "balanceOfBatch",
      "outputs": [
        {
          "internalType": "uint256[]",
          "name": "",
          "type": "uint256[]"
        }
      ],
      "stateMutability": "view",
      "type": "function",
      "constant": true
    },
    {
      "inputs": [],
      "name": "cancelled",
      "outputs": [
        {
          "internalType": "bool",
          "name": "",
          "type": "bool"
        }
      ],
      "stateMutability": "view",
      "type": "function",
      "constant": true
    },
    {
      "inputs": [],
      "name": "closed",
      "outputs": [
        {
          "internalType": "bool",
          "name": "",
          "type": "bool"
        }
      ],
      "stateMutability": "view",
      "type": "function",
      "constant": true
    },
    {
      "inputs": [],
      "name": "closer",
      "outputs": [
        {
          "internalType": "address",
          "name": "",
          "type": "address"
        }
      ],
      "stateMutability": "view",
      "type": "function",
      "constant": true
    },
    {
      "inputs": [],
      "name": "closerShare",
      "outputs": [
        {
          "internalType": "uint256",
          "name": "",
          "type": "uint256"
        }
      ],
      "stateMutability": "view",
      "type": "function",
      "constant": true
    },
    {
      "inputs": [],
      "name": "getOptions",
      "outputs": [
        {
          "internalType": "uint256[]",
          "name": "",
          "type": "uint256[]"
        },
        {
          "internalType": "string[]",
          "name": "",
          "type": "string[]"
        },
        {
          "internalType": "string[]",
          "name": "",
          "type": "string[]"
        },
        {
          "internalType": "uint256[]",
          "name": "",
          "type": "uint256[]"
        },
        {
          "internalType": "int8[]",
          "name": "",
          "type": "int8[]"
        },
        {
          "internalType": "uint256[]",
          "name": "",
          "type": "uint256[]"
        }
      ],
      "stateMutability": "view",
      "type": "function",
      "constant": true
    },
    {
      "inputs": [
        {
          "internalType": "address",
          "name": "account",
          "type": "address"
        },
        {
          "internalType": "address",
          "name": "operator",
          "type": "address"
        }
      ],
      "name": "isApprovedForAll",
      "outputs": [
        {
          "internalType": "bool",
          "name": "",
          "type": "bool"
        }
      ],
      "stateMutability": "view",
      "type": "function",
      "constant": true
    },
    {
      "inputs": [],
      "name": "launcher",
      "outputs": [
        {
          "internalType": "address",
          "name": "",
          "type": "address"
        }
      ],
      "stateMutability": "view",
      "type": "function",
      "constant": true
    },
    {
      "inputs": [],
      "name": "launcherShare",
      "outputs": [
        {
          "internalType": "uint256",
          "name": "",
          "type": "uint256"
        }
      ],
      "stateMutability": "view",
      "type": "function",
      "constant": true
    },
    {
      "inputs": [],
      "name": "name",
      "outputs": [
        {
          "internalType": "string",
          "name": "",
          "type": "string"
        }
      ],
      "stateMutability": "view",
      "type": "function",
      "constant": true
    },
    {
      "inputs": [],
      "name": "runner",
      "outputs": [
        {
          "internalType": "address",
          "name": "",
          "type": "address"
        }
      ],
      "stateMutability": "view",
      "type": "function",
      "constant": true
    },
    {
      "inputs": [],
      "name": "runnerShare",
      "outputs": [
        {
          "internalType": "uint256",
          "name": "",
          "type": "uint256"
        }
      ],
      "stateMutability": "view",
      "type": "function",
      "constant": true
    },
    {
      "inputs": [],
      "name": "running",
      "outputs": [
        {
          "internalType": "bool",
          "name": "",
          "type": "bool"
        }
      ],
      "stateMutability": "view",
      "type": "function",
      "constant": true
    },
    {
      "inputs": [
        {
          "internalType": "address",
          "name": "from",
          "type": "address"
        },
        {
          "internalType": "address",
          "name": "to",
          "type": "address"
        },
        {
          "internalType": "uint256[]",
          "name": "ids",
          "type": "uint256[]"
        },
        {
          "internalType": "uint256[]",
          "name": "amounts",
          "type": "uint256[]"
        },
        {
          "internalType": "bytes",
          "name": "data",
          "type": "bytes"
        }
      ],
      "name": "safeBatchTransferFrom",
      "outputs": [],
      "stateMutability": "nonpayable",
      "type": "function"
    },
    {
      "inputs": [
        {
          "internalType": "address",
          "name": "from",
          "type": "address"
        },
        {
          "internalType": "address",
          "name": "to",
          "type": "address"
        },
        {
          "internalType": "uint256",
          "name": "id",
          "type": "uint256"
        },
        {
          "internalType": "uint256",
          "name": "amount",
          "type": "uint256"
        },
        {
          "internalType": "bytes",
          "name": "data",
          "type": "bytes"
        }
      ],
      "name": "safeTransferFrom",
      "outputs": [],
      "stateMutability": "nonpayable",
      "type": "function"
    },
    {
      "inputs": [
        {
          "internalType": "address",
          "name": "operator",
          "type": "address"
        },
        {
          "internalType": "bool",
          "name": "approved",
          "type": "bool"
        }
      ],
      "name": "setApprovalForAll",
      "outputs": [],
      "stateMutability": "nonpayable",
      "type": "function"
    },
    {
      "inputs": [
        {
          "internalType": "bytes4",
          "name": "interfaceId",
          "type": "bytes4"
        }
      ],
      "name": "supportsInterface",
      "outputs": [
        {
          "internalType": "bool",
          "name": "",
          "type": "bool"
        }
      ],
      "stateMutability": "view",
      "type": "function",
      "constant": true
    },
    {
      "inputs": [],
      "name": "token",
      "outputs": [
        {
          "internalType": "contract IERC20",
          "name": "",
          "type": "address"
        }
      ],
      "stateMutability": "view",
      "type": "function",
      "constant": true
    },
    {
      "inputs": [
        {
          "internalType": "uint256",
          "name": "",
          "type": "uint256"
        }
      ],
      "name": "uri",
      "outputs": [
        {
          "internalType": "string",
          "name": "",
          "type": "string"
        }
      ],
      "stateMutability": "view",
      "type": "function",
      "constant": true
    }
  ],
  "bytecode": "0x60806040526000600460006101000a81548160ff0219169083151502179055506000600460016101000a81548160ff0219169083151502179055506000600460026101000a81548160ff0219169083151502179055503480156200006257600080fd5b506040516200374238038062003742833981810160405281019062000088919062000664565b81610ce480610ce46040518060400160405280601c81526020017f68747470733a2f2f6c65746f6b656e2e66692f7b69647d2e6a736f6e00000000815250620000de6301ffc9a760e01b6200043a60201b60201c565b620000ef816200051260201b60201c565b6200010763d9b67a2660e01b6200043a60201b60201c565b6200011f630e89341c60e01b6200043a60201b60201c565b5083600a9080519060200190620001389291906200054b565b508260078190555081600881905550806009819055505050505080600b60006101000a81548173ffffffffffffffffffffffffffffffffffffffff021916908373ffffffffffffffffffffffffffffffffffffffff160217905550600c6040518060c00160405280600081526020016040518060400160405280600581526020017f41626f766500000000000000000000000000000000000000000000000000000081525081526020016040518060600160405280602881526020016200371a602891398152602001600181526020016000800b815260200160008152509080600181540180825580915050600190039060005260206000209060060201600090919091909150600082015181600001556020820151816001019080519060200190620002679291906200054b565b506040820151816002019080519060200190620002869291906200054b565b506060820151816003015560808201518160040160006101000a81548160ff021916908360000b60ff16021790555060a0820151816005015550506000600d600080815260200190815260200160002081905550600c6040518060c00160405280600181526020016040518060400160405280600581526020017f556e6465720000000000000000000000000000000000000000000000000000008152508152602001604051806060016040528060288152602001620036f2602891398152602001600181526020016000800b815260200160008152509080600181540180825580915050600190039060005260206000209060060201600090919091909150600082015181600001556020820151816001019080519060200190620003ae9291906200054b565b506040820151816002019080519060200190620003cd9291906200054b565b506060820151816003015560808201518160040160006101000a81548160ff021916908360000b60ff16021790555060a0820151816005015550506001600d60006001815260200190815260200160002081905550620004326200052e60201b60201c565b505062000812565b63ffffffff60e01b817bffffffffffffffffffffffffffffffffffffffffffffffffffffffff19161415620004a6576040517f08c379a00000000000000000000000000000000000000000000000000000000081526004016200049d9062000700565b60405180910390fd5b6001600080837bffffffffffffffffffffffffffffffffffffffffffffffffffffffff19167bffffffffffffffffffffffffffffffffffffffffffffffffffffffff1916815260200190815260200160002060006101000a81548160ff02191690831515021790555050565b80600390805190602001906200052a9291906200054b565b5050565b6001600460006101000a81548160ff021916908315150217905550565b828054600181600116156101000203166002900490600052602060002090601f016020900481019282601f106200058e57805160ff1916838001178555620005bf565b82800160010185558215620005bf579182015b82811115620005be578251825591602001919060010190620005a1565b5b509050620005ce9190620005d2565b5090565b5b80821115620005ed576000816000905550600101620005d3565b5090565b6000815190506200060281620007f8565b92915050565b600082601f8301126200061a57600080fd5b8151620006316200062b8262000750565b62000722565b915080825260208301602083018583830111156200064e57600080fd5b6200065b838284620007c2565b50505092915050565b600080604083850312156200067857600080fd5b600083015167ffffffffffffffff8111156200069357600080fd5b620006a18582860162000608565b9250506020620006b485828601620005f1565b9150509250929050565b6000620006cd601c836200077d565b91507f4552433136353a20696e76616c696420696e74657266616365206964000000006000830152602082019050919050565b600060208201905081810360008301526200071b81620006be565b9050919050565b6000604051905081810181811067ffffffffffffffff821117156200074657600080fd5b8060405250919050565b600067ffffffffffffffff8211156200076857600080fd5b601f19601f8301169050602081019050919050565b600082825260208201905092915050565b60006200079b82620007a2565b9050919050565b600073ffffffffffffffffffffffffffffffffffffffff82169050919050565b60005b83811015620007e2578082015181840152602081019050620007c5565b83811115620007f2576000848401525b50505050565b62000803816200078e565b81146200080f57600080fd5b50565b612ed080620008226000396000f3fe608060405234801561001057600080fd5b506004361061012b5760003560e01c80637044f282116100ad578063cfa9285811610071578063cfa928581461033b578063d85bd52614610359578063e985e9c514610377578063f242432a146103a7578063fc0c546a146103c35761012b565b80637044f282146102a25780637a8ca615146102c05780639a82a09a146102de578063a22cb465146102fc578063cc2ee196146103185761012b565b806316eebd1e116100f457806316eebd1e146101fc5780632eb2c2d61461021a5780634e1273f414610236578063597e1fb51461026657806369208dcb146102845761012b565b8062fdd58e1461013057806301ffc9a71461016057806306fdde03146101905780630b01f25c146101ae5780630e89341c146101cc575b600080fd5b61014a60048036038101906101459190611f26565b6103e1565b6040516101579190612a78565b60405180910390f35b61017a60048036038101906101759190611fce565b6104ab565b60405161018791906128c0565b60405180910390f35b610198610512565b6040516101a591906128f6565b60405180910390f35b6101b66105b0565b6040516101c39190612a78565b60405180910390f35b6101e660048036038101906101e19190612020565b6105b6565b6040516101f391906128f6565b60405180910390f35b61020461065a565b60405161021191906126ff565b60405180910390f35b610234600480360381019061022f9190611d9c565b610680565b005b610250600480360381019061024b9190611f62565b610a41565b60405161025d91906127dc565b60405180910390f35b61026e610c07565b60405161027b91906128c0565b60405180910390f35b61028c610c1a565b6040516102999190612a78565b60405180910390f35b6102aa610c20565b6040516102b791906126ff565b60405180910390f35b6102c8610c46565b6040516102d591906126ff565b60405180910390f35b6102e6610c6c565b6040516102f391906128c0565b60405180910390f35b61031660048036038101906103119190611eea565b610c7f565b005b610320610e00565b604051610332969594939291906127fe565b60405180910390f35b6103436112a4565b6040516103509190612a78565b60405180910390f35b6103616112aa565b60405161036e91906128c0565b60405180910390f35b610391600480360381019061038c9190611d60565b6112bd565b60405161039e91906128c0565b60405180910390f35b6103c160048036038101906103bc9190611e5b565b611351565b005b6103cb611694565b6040516103d891906128db565b60405180910390f35b60008073ffffffffffffffffffffffffffffffffffffffff168373ffffffffffffffffffffffffffffffffffffffff161415610452576040517f08c379a000000000000000000000000000000000000000000000000000000000815260040161044990612958565b60405180910390fd5b6001600083815260200190815260200160002060008473ffffffffffffffffffffffffffffffffffffffff1673ffffffffffffffffffffffffffffffffffffffff16815260200190815260200160002054905092915050565b6000806000837bffffffffffffffffffffffffffffffffffffffffffffffffffffffff19167bffffffffffffffffffffffffffffffffffffffffffffffffffffffff1916815260200190815260200160002060009054906101000a900460ff169050919050565b600a8054600181600116156101000203166002900480601f0160208091040260200160405190810160405280929190818152602001828054600181600116156101000203166002900480156105a85780601f1061057d576101008083540402835291602001916105a8565b820191906000526020600020905b81548152906001019060200180831161058b57829003601f168201915b505050505081565b60085481565b606060038054600181600116156101000203166002900480601f01602080910402602001604051908101604052809291908181526020018280546001816001161561010002031660029004801561064e5780601f106106235761010080835404028352916020019161064e565b820191906000526020600020905b81548152906001019060200180831161063157829003601f168201915b50505050509050919050565b600460039054906101000a900473ffffffffffffffffffffffffffffffffffffffff1681565b81518351146106c4576040517f08c379a00000000000000000000000000000000000000000000000000000000081526004016106bb90612a58565b60405180910390fd5b600073ffffffffffffffffffffffffffffffffffffffff168473ffffffffffffffffffffffffffffffffffffffff161415610734576040517f08c379a000000000000000000000000000000000000000000000000000000000815260040161072b906129d8565b60405180910390fd5b61073c6116ba565b73ffffffffffffffffffffffffffffffffffffffff168573ffffffffffffffffffffffffffffffffffffffff16148061078257506107818561077c6116ba565b6112bd565b5b6107c1576040517f08c379a00000000000000000000000000000000000000000000000000000000081526004016107b8906129f8565b60405180910390fd5b60006107cb6116ba565b90506107db8187878787876116c2565b60005b84518110156109ac5760008582815181106107f557fe5b60200260200101519050600085838151811061080d57fe5b60200260200101519050610894816040518060600160405280602a8152602001612e71602a91396001600086815260200190815260200160002060008d73ffffffffffffffffffffffffffffffffffffffff1673ffffffffffffffffffffffffffffffffffffffff168152602001908152602001600020546116ca9092919063ffffffff16565b6001600084815260200190815260200160002060008b73ffffffffffffffffffffffffffffffffffffffff1673ffffffffffffffffffffffffffffffffffffffff1681526020019081526020016000208190555061094b816001600085815260200190815260200160002060008b73ffffffffffffffffffffffffffffffffffffffff1673ffffffffffffffffffffffffffffffffffffffff1681526020019081526020016000205461172590919063ffffffff16565b6001600084815260200190815260200160002060008a73ffffffffffffffffffffffffffffffffffffffff1673ffffffffffffffffffffffffffffffffffffffff1681526020019081526020016000208190555050508060010190506107de565b508473ffffffffffffffffffffffffffffffffffffffff168673ffffffffffffffffffffffffffffffffffffffff168273ffffffffffffffffffffffffffffffffffffffff167f4a39dc06d4c0dbc64b70af90fd698a233a518aa5d07e595d983b8c0526c8f7fb8787604051610a23929190612889565b60405180910390a4610a3981878787878761177a565b505050505050565b60608151835114610a87576040517f08c379a0000000000000000000000000000000000000000000000000000000008152600401610a7e90612a38565b60405180910390fd5b6060835167ffffffffffffffff81118015610aa157600080fd5b50604051908082528060200260200182016040528015610ad05781602001602082028036833780820191505090505b50905060005b8451811015610bfc57600073ffffffffffffffffffffffffffffffffffffffff16858281518110610b0357fe5b602002602001015173ffffffffffffffffffffffffffffffffffffffff161415610b62576040517f08c379a0000000000000000000000000000000000000000000000000000000008152600401610b5990612978565b60405180910390fd5b60016000858381518110610b7257fe5b602002602001015181526020019081526020016000206000868381518110610b9657fe5b602002602001015173ffffffffffffffffffffffffffffffffffffffff1673ffffffffffffffffffffffffffffffffffffffff16815260200190815260200160002054828281518110610be557fe5b602002602001018181525050806001019050610ad6565b508091505092915050565b600460019054906101000a900460ff1681565b60095481565b600660009054906101000a900473ffffffffffffffffffffffffffffffffffffffff1681565b600560009054906101000a900473ffffffffffffffffffffffffffffffffffffffff1681565b600460029054906101000a900460ff1681565b8173ffffffffffffffffffffffffffffffffffffffff16610c9e6116ba565b73ffffffffffffffffffffffffffffffffffffffff161415610cf5576040517f08c379a0000000000000000000000000000000000000000000000000000000008152600401610cec90612a18565b60405180910390fd5b8060026000610d026116ba565b73ffffffffffffffffffffffffffffffffffffffff1673ffffffffffffffffffffffffffffffffffffffff16815260200190815260200160002060008473ffffffffffffffffffffffffffffffffffffffff1673ffffffffffffffffffffffffffffffffffffffff16815260200190815260200160002060006101000a81548160ff0219169083151502179055508173ffffffffffffffffffffffffffffffffffffffff16610daf6116ba565b73ffffffffffffffffffffffffffffffffffffffff167f17307eab39ab6107e8899845ad3d59bd9653f200f220920489ca2b5937696c3183604051610df491906128c0565b60405180910390a35050565b6060806060806060806000600c80549050905060608167ffffffffffffffff81118015610e2c57600080fd5b50604051908082528060200260200182016040528015610e5b5781602001602082028036833780820191505090505b50905060608267ffffffffffffffff81118015610e7757600080fd5b50604051908082528060200260200182016040528015610eab57816020015b6060815260200190600190039081610e965790505b50905060608367ffffffffffffffff81118015610ec757600080fd5b50604051908082528060200260200182016040528015610efb57816020015b6060815260200190600190039081610ee65790505b50905060608467ffffffffffffffff81118015610f1757600080fd5b50604051908082528060200260200182016040528015610f465781602001602082028036833780820191505090505b50905060608567ffffffffffffffff81118015610f6257600080fd5b50604051908082528060200260200182016040528015610f915781602001602082028036833780820191505090505b50905060608667ffffffffffffffff81118015610fad57600080fd5b50604051908082528060200260200182016040528015610fdc5781602001602082028036833780820191505090505b50905060005b8781101561128257600c8181548110610ff757fe5b90600052602060002090600602016000015487828151811061101557fe5b602002602001018181525050600c818154811061102e57fe5b90600052602060002090600602016001018054600181600116156101000203166002900480601f0160208091040260200160405190810160405280929190818152602001828054600181600116156101000203166002900480156110d35780601f106110a8576101008083540402835291602001916110d3565b820191906000526020600020905b8154815290600101906020018083116110b657829003601f168201915b50505050508682815181106110e457fe5b6020026020010181905250600c81815481106110fc57fe5b90600052602060002090600602016002018054600181600116156101000203166002900480601f0160208091040260200160405190810160405280929190818152602001828054600181600116156101000203166002900480156111a15780601f10611176576101008083540402835291602001916111a1565b820191906000526020600020905b81548152906001019060200180831161118457829003601f168201915b50505050508582815181106111b257fe5b6020026020010181905250600c81815481106111ca57fe5b9060005260206000209060060201600301548482815181106111e857fe5b602002602001018181525050600c818154811061120157fe5b906000526020600020906006020160040160009054906101000a900460000b83828151811061122c57fe5b602002602001019060000b908160000b81525050600c818154811061124d57fe5b90600052602060002090600602016005015482828151811061126b57fe5b602002602001018181525050806001019050610fe2565b508585858585859c509c509c509c509c509c5050505050505050909192939495565b60075481565b600460009054906101000a900460ff1681565b6000600260008473ffffffffffffffffffffffffffffffffffffffff1673ffffffffffffffffffffffffffffffffffffffff16815260200190815260200160002060008373ffffffffffffffffffffffffffffffffffffffff1673ffffffffffffffffffffffffffffffffffffffff16815260200190815260200160002060009054906101000a900460ff16905092915050565b600073ffffffffffffffffffffffffffffffffffffffff168473ffffffffffffffffffffffffffffffffffffffff1614156113c1576040517f08c379a00000000000000000000000000000000000000000000000000000000081526004016113b8906129d8565b60405180910390fd5b6113c96116ba565b73ffffffffffffffffffffffffffffffffffffffff168573ffffffffffffffffffffffffffffffffffffffff16148061140f575061140e856114096116ba565b6112bd565b5b61144e576040517f08c379a0000000000000000000000000000000000000000000000000000000008152600401611445906129b8565b60405180910390fd5b60006114586116ba565b90506114788187876114698861194a565b6114728861194a565b876116c2565b6114f5836040518060600160405280602a8152602001612e71602a91396001600088815260200190815260200160002060008a73ffffffffffffffffffffffffffffffffffffffff1673ffffffffffffffffffffffffffffffffffffffff168152602001908152602001600020546116ca9092919063ffffffff16565b6001600086815260200190815260200160002060008873ffffffffffffffffffffffffffffffffffffffff1673ffffffffffffffffffffffffffffffffffffffff168152602001908152602001600020819055506115ac836001600087815260200190815260200160002060008873ffffffffffffffffffffffffffffffffffffffff1673ffffffffffffffffffffffffffffffffffffffff1681526020019081526020016000205461172590919063ffffffff16565b6001600086815260200190815260200160002060008773ffffffffffffffffffffffffffffffffffffffff1673ffffffffffffffffffffffffffffffffffffffff168152602001908152602001600020819055508473ffffffffffffffffffffffffffffffffffffffff168673ffffffffffffffffffffffffffffffffffffffff168273ffffffffffffffffffffffffffffffffffffffff167fc3d58168c5ae7397731d063d5bbf3d657854427343f4c083240f7aacaa2d0f628787604051611676929190612a93565b60405180910390a461168c8187878787876119ba565b505050505050565b600b60009054906101000a900473ffffffffffffffffffffffffffffffffffffffff1681565b600033905090565b505050505050565b6000838311158290611712576040517f08c379a000000000000000000000000000000000000000000000000000000000815260040161170991906128f6565b60405180910390fd5b5060008385039050809150509392505050565b600080828401905083811015611770576040517f08c379a000000000000000000000000000000000000000000000000000000000815260040161176790612998565b60405180910390fd5b8091505092915050565b6117998473ffffffffffffffffffffffffffffffffffffffff16611b8a565b15611942578373ffffffffffffffffffffffffffffffffffffffff1663bc197c8187878686866040518663ffffffff1660e01b81526004016117df95949392919061271a565b602060405180830381600087803b1580156117f957600080fd5b505af192505050801561182a57506040513d601f19601f820116820180604052508101906118279190611ff7565b60015b6118b957611836612d5e565b80611841575061187e565b806040517f08c379a000000000000000000000000000000000000000000000000000000000815260040161187591906128f6565b60405180910390fd5b6040517f08c379a00000000000000000000000000000000000000000000000000000000081526004016118b090612918565b60405180910390fd5b63bc197c8160e01b7bffffffffffffffffffffffffffffffffffffffffffffffffffffffff1916817bffffffffffffffffffffffffffffffffffffffffffffffffffffffff191614611940576040517f08c379a000000000000000000000000000000000000000000000000000000000815260040161193790612938565b60405180910390fd5b505b505050505050565b606080600167ffffffffffffffff8111801561196557600080fd5b506040519080825280602002602001820160405280156119945781602001602082028036833780820191505090505b50905082816000815181106119a557fe5b60200260200101818152505080915050919050565b6119d98473ffffffffffffffffffffffffffffffffffffffff16611b8a565b15611b82578373ffffffffffffffffffffffffffffffffffffffff1663f23a6e6187878686866040518663ffffffff1660e01b8152600401611a1f959493929190612782565b602060405180830381600087803b158015611a3957600080fd5b505af1925050508015611a6a57506040513d601f19601f82011682018060405250810190611a679190611ff7565b60015b611af957611a76612d5e565b80611a815750611abe565b806040517f08c379a0000000000000000000000000000000000000000000000000000000008152600401611ab591906128f6565b60405180910390fd5b6040517f08c379a0000000000000000000000000000000000000000000000000000000008152600401611af090612918565b60405180910390fd5b63f23a6e6160e01b7bffffffffffffffffffffffffffffffffffffffffffffffffffffffff1916817bffffffffffffffffffffffffffffffffffffffffffffffffffffffff191614611b80576040517f08c379a0000000000000000000000000000000000000000000000000000000008152600401611b7790612938565b60405180910390fd5b505b505050505050565b600080823b905060008111915050919050565b600081359050611bac81612e14565b92915050565b600082601f830112611bc357600080fd5b8135611bd6611bd182612ae9565b612abc565b91508181835260208401935060208101905083856020840282011115611bfb57600080fd5b60005b83811015611c2b5781611c118882611b9d565b845260208401935060208301925050600181019050611bfe565b5050505092915050565b600082601f830112611c4657600080fd5b8135611c59611c5482612b11565b612abc565b91508181835260208401935060208101905083856020840282011115611c7e57600080fd5b60005b83811015611cae5781611c948882611d4b565b845260208401935060208301925050600181019050611c81565b5050505092915050565b600081359050611cc781612e2b565b92915050565b600081359050611cdc81612e42565b92915050565b600081519050611cf181612e42565b92915050565b600082601f830112611d0857600080fd5b8135611d1b611d1682612b39565b612abc565b91508082526020830160208301858383011115611d3757600080fd5b611d42838284612cfe565b50505092915050565b600081359050611d5a81612e59565b92915050565b60008060408385031215611d7357600080fd5b6000611d8185828601611b9d565b9250506020611d9285828601611b9d565b9150509250929050565b600080600080600060a08688031215611db457600080fd5b6000611dc288828901611b9d565b9550506020611dd388828901611b9d565b945050604086013567ffffffffffffffff811115611df057600080fd5b611dfc88828901611c35565b935050606086013567ffffffffffffffff811115611e1957600080fd5b611e2588828901611c35565b925050608086013567ffffffffffffffff811115611e4257600080fd5b611e4e88828901611cf7565b9150509295509295909350565b600080600080600060a08688031215611e7357600080fd5b6000611e8188828901611b9d565b9550506020611e9288828901611b9d565b9450506040611ea388828901611d4b565b9350506060611eb488828901611d4b565b925050608086013567ffffffffffffffff811115611ed157600080fd5b611edd88828901611cf7565b9150509295509295909350565b60008060408385031215611efd57600080fd5b6000611f0b85828601611b9d565b9250506020611f1c85828601611cb8565b9150509250929050565b60008060408385031215611f3957600080fd5b6000611f4785828601611b9d565b9250506020611f5885828601611d4b565b9150509250929050565b60008060408385031215611f7557600080fd5b600083013567ffffffffffffffff811115611f8f57600080fd5b611f9b85828601611bb2565b925050602083013567ffffffffffffffff811115611fb857600080fd5b611fc485828601611c35565b9150509250929050565b600060208284031215611fe057600080fd5b6000611fee84828501611ccd565b91505092915050565b60006020828403121561200957600080fd5b600061201784828501611ce2565b91505092915050565b60006020828403121561203257600080fd5b600061204084828501611d4b565b91505092915050565b60006120558383612224565b60208301905092915050565b600061206d8383612233565b905092915050565b600061208183836126e1565b60208301905092915050565b61209681612c59565b82525050565b60006120a782612b95565b6120b18185612bf3565b93506120bc83612b65565b8060005b838110156120ed5781516120d48882612049565b97506120df83612bcc565b9250506001810190506120c0565b5085935050505092915050565b600061210582612ba0565b61210f8185612c04565b93508360208202850161212185612b75565b8060005b8581101561215d578484038952815161213e8582612061565b945061214983612bd9565b925060208a01995050600181019050612125565b50829750879550505050505092915050565b600061217a82612bab565b6121848185612c15565b935061218f83612b85565b8060005b838110156121c05781516121a78882612075565b97506121b283612be6565b925050600181019050612193565b5085935050505092915050565b6121d681612c6b565b82525050565b60006121e782612bb6565b6121f18185612c26565b9350612201818560208601612d0d565b61220a81612d40565b840191505092915050565b61221e81612cda565b82525050565b61222d81612ca3565b82525050565b600061223e82612bc1565b6122488185612c37565b9350612258818560208601612d0d565b61226181612d40565b840191505092915050565b600061227782612bc1565b6122818185612c48565b9350612291818560208601612d0d565b61229a81612d40565b840191505092915050565b60006122b2603483612c48565b91507f455243313135353a207472616e7366657220746f206e6f6e204552433131353560008301527f526563656976657220696d706c656d656e7465720000000000000000000000006020830152604082019050919050565b6000612318602883612c48565b91507f455243313135353a204552433131353552656365697665722072656a6563746560008301527f6420746f6b656e730000000000000000000000000000000000000000000000006020830152604082019050919050565b600061237e602b83612c48565b91507f455243313135353a2062616c616e636520717565727920666f7220746865207a60008301527f65726f20616464726573730000000000000000000000000000000000000000006020830152604082019050919050565b60006123e4603183612c48565b91507f455243313135353a2062617463682062616c616e636520717565727920666f7260008301527f20746865207a65726f20616464726573730000000000000000000000000000006020830152604082019050919050565b600061244a601b83612c48565b91507f536166654d6174683a206164646974696f6e206f766572666c6f7700000000006000830152602082019050919050565b600061248a602983612c48565b91507f455243313135353a2063616c6c6572206973206e6f74206f776e6572206e6f7260008301527f20617070726f76656400000000000000000000000000000000000000000000006020830152604082019050919050565b60006124f0602583612c48565b91507f455243313135353a207472616e7366657220746f20746865207a65726f20616460008301527f64726573730000000000000000000000000000000000000000000000000000006020830152604082019050919050565b6000612556603283612c48565b91507f455243313135353a207472616e736665722063616c6c6572206973206e6f742060008301527f6f776e6572206e6f7220617070726f76656400000000000000000000000000006020830152604082019050919050565b60006125bc602983612c48565b91507f455243313135353a2073657474696e6720617070726f76616c2073746174757360008301527f20666f722073656c6600000000000000000000000000000000000000000000006020830152604082019050919050565b6000612622602983612c48565b91507f455243313135353a206163636f756e747320616e6420696473206c656e67746860008301527f206d69736d6174636800000000000000000000000000000000000000000000006020830152604082019050919050565b6000612688602883612c48565b91507f455243313135353a2069647320616e6420616d6f756e7473206c656e6774682060008301527f6d69736d617463680000000000000000000000000000000000000000000000006020830152604082019050919050565b6126ea81612cd0565b82525050565b6126f981612cd0565b82525050565b6000602082019050612714600083018461208d565b92915050565b600060a08201905061272f600083018861208d565b61273c602083018761208d565b818103604083015261274e818661216f565b90508181036060830152612762818561216f565b9050818103608083015261277681846121dc565b90509695505050505050565b600060a082019050612797600083018861208d565b6127a4602083018761208d565b6127b160408301866126f0565b6127be60608301856126f0565b81810360808301526127d081846121dc565b90509695505050505050565b600060208201905081810360008301526127f6818461216f565b905092915050565b600060c0820190508181036000830152612818818961216f565b9050818103602083015261282c81886120fa565b9050818103604083015261284081876120fa565b90508181036060830152612854818661216f565b90508181036080830152612868818561209c565b905081810360a083015261287c818461216f565b9050979650505050505050565b600060408201905081810360008301526128a3818561216f565b905081810360208301526128b7818461216f565b90509392505050565b60006020820190506128d560008301846121cd565b92915050565b60006020820190506128f06000830184612215565b92915050565b60006020820190508181036000830152612910818461226c565b905092915050565b60006020820190508181036000830152612931816122a5565b9050919050565b600060208201905081810360008301526129518161230b565b9050919050565b6000602082019050818103600083015261297181612371565b9050919050565b60006020820190508181036000830152612991816123d7565b9050919050565b600060208201905081810360008301526129b18161243d565b9050919050565b600060208201905081810360008301526129d18161247d565b9050919050565b600060208201905081810360008301526129f1816124e3565b9050919050565b60006020820190508181036000830152612a1181612549565b9050919050565b60006020820190508181036000830152612a31816125af565b9050919050565b60006020820190508181036000830152612a5181612615565b9050919050565b60006020820190508181036000830152612a718161267b565b9050919050565b6000602082019050612a8d60008301846126f0565b92915050565b6000604082019050612aa860008301856126f0565b612ab560208301846126f0565b9392505050565b6000604051905081810181811067ffffffffffffffff82111715612adf57600080fd5b8060405250919050565b600067ffffffffffffffff821115612b0057600080fd5b602082029050602081019050919050565b600067ffffffffffffffff821115612b2857600080fd5b602082029050602081019050919050565b600067ffffffffffffffff821115612b5057600080fd5b601f19601f8301169050602081019050919050565b6000819050602082019050919050565b6000819050602082019050919050565b6000819050602082019050919050565b600081519050919050565b600081519050919050565b600081519050919050565b600081519050919050565b600081519050919050565b6000602082019050919050565b6000602082019050919050565b6000602082019050919050565b600082825260208201905092915050565b600082825260208201905092915050565b600082825260208201905092915050565b600082825260208201905092915050565b600082825260208201905092915050565b600082825260208201905092915050565b6000612c6482612cb0565b9050919050565b60008115159050919050565b60007fffffffff0000000000000000000000000000000000000000000000000000000082169050919050565b60008160000b9050919050565b600073ffffffffffffffffffffffffffffffffffffffff82169050919050565b6000819050919050565b6000612ce582612cec565b9050919050565b6000612cf782612cb0565b9050919050565b82818337600083830152505050565b60005b83811015612d2b578082015181840152602081019050612d10565b83811115612d3a576000848401525b50505050565b6000601f19601f8301169050919050565b60008160e01c9050919050565b600060443d1015612d6e57612e11565b60046000803e612d7f600051612d51565b6308c379a08114612d905750612e11565b60405160043d036004823e80513d602482011167ffffffffffffffff82111715612dbc57505050612e11565b808201805167ffffffffffffffff811115612ddb575050505050612e11565b8060208301013d8501811115612df657505050505050612e11565b612dff82612d40565b60208401016040528296505050505050505b90565b612e1d81612c59565b8114612e2857600080fd5b50565b612e3481612c6b565b8114612e3f57600080fd5b50565b612e4b81612c77565b8114612e5657600080fd5b50565b612e6281612cd0565b8114612e6d57600080fd5b5056fe455243313135353a20696e73756666696369656e742062616c616e636520666f72207472616e73666572a26469706673582212202cb15c6c4acc5ac9b59bcbb0e468859d0c276557c6794c4e21470c7f6f76778164736f6c634300060c0033546865207072696365206f66204554482077696c6c20626520756e646572204b65792056616c7565546865207072696365206f66204554482077696c6c2062652061626f7665204b65792056616c7565",
  "immutableReferences": {},
  "source": "// SPDX-License-Identifier: MIT\npragma solidity >=0.6.0 <0.8.0;\npragma experimental ABIEncoderV2;\n\nimport \"@openzeppelin/contracts/token/ERC20/ERC20.sol\";\nimport \"@openzeppelin/contracts/math/Math.sol\";\nimport \"@openzeppelin/contracts/math/SafeMath.sol\";\nimport \"@openzeppelin/contracts/token/ERC20/SafeERC20.sol\";\nimport \"@openzeppelin/contracts/token/ERC1155/IERC1155.sol\";\nimport \"@openzeppelin/contracts/token/ERC1155/ERC1155.sol\";\n\nimport \"../yield/DaiHFYieldProvider.sol\";\nimport \"./TBD.sol\";\n\ncontract TBDEthPrice10000BlocksDaiHF is ERC1155, DaiHFYieldProvider, TBDv1 {\n    using SafeERC20 for IERC20;\n    using Address for address;\n    using SafeMath for uint256;\n\n\n    ///@notice Hi test\n    ///@param name Name of the contract\n    constructor(string memory name, address inputToken)\n        public\n        ERC1155(\"https://letoken.fi/{id}.json\")\n        TBDv1(name, 3300, 3300, 3300)\n    {\n        token = IERC20(inputToken);\n\n        options.push(\n            Option({\n                id: 0,\n                name: \"Above\",\n                description: \"The price of ETH will be above Key Value\",\n                keyValue: 1,\n                finalized: 0,\n                shares: 0\n            })\n        );\n\n        optionIds[0] = 0;\n\n        options.push(\n            Option({\n                id: 1,\n                name: \"Under\",\n                description: \"The price of ETH will be under Key Value\",\n                keyValue: 1,\n                finalized: 0,\n                shares: 0\n            })\n        );\n\n        optionIds[1] = 1;\n\n        _start();\n    }\n\n    // How to you list outputs in a generic manner\n}\n",
  "sourcePath": "/Users/mortimr/projects/tbd-poc/contracts/tbd/TBDEthPrice10000BlocksDaiHF.sol",
  "compiler": {
    "name": "solc",
    "version": "0.6.12+commit.27d51765.Emscripten.clang"
  },
  "schemaVersion": "3.3.3",
  "updatedAt": "2021-02-01T15:25:13.295Z",
  "networkType": "ethereum",
  "devdoc": {
    "kind": "dev",
    "methods": {
      "balanceOf(address,uint256)": {
        "details": "See {IERC1155-balanceOf}. Requirements: - `account` cannot be the zero address."
      },
      "balanceOfBatch(address[],uint256[])": {
        "details": "See {IERC1155-balanceOfBatch}. Requirements: - `accounts` and `ids` must have the same length."
      },
      "constructor": {
        "params": {
          "name": "Name of the contract"
        }
      },
      "getOptions()": {
        "returns": {
          "_0": "Serialized options"
        }
      },
      "isApprovedForAll(address,address)": {
        "details": "See {IERC1155-isApprovedForAll}."
      },
      "safeBatchTransferFrom(address,address,uint256[],uint256[],bytes)": {
        "details": "See {IERC1155-safeBatchTransferFrom}."
      },
      "safeTransferFrom(address,address,uint256,uint256,bytes)": {
        "details": "See {IERC1155-safeTransferFrom}."
      },
      "setApprovalForAll(address,bool)": {
        "details": "See {IERC1155-setApprovalForAll}."
      },
      "supportsInterface(bytes4)": {
        "details": "See {IERC165-supportsInterface}. Time complexity O(1), guaranteed to always use less than 30 000 gas."
      },
      "uri(uint256)": {
        "details": "See {IERC1155MetadataURI-uri}. This implementation returns the same URI for *all* token types. It relies on the token type ID substitution mechanism https://eips.ethereum.org/EIPS/eip-1155#metadata[defined in the EIP]. Clients calling this function must replace the `\\{id\\}` substring with the actual token type ID."
      }
    },
    "version": 1
  },
  "userdoc": {
    "kind": "user",
    "methods": {
      "constructor": "Hi test",
      "running()": {
        "notice": "Defines wether the contract finished fund gathering phase. The strategy to adopt afterwards depends         on individual implementations"
      }
    },
    "version": 1
  }
}