{
  "contractName": "UniswapETHDAIPoolMock",
  "abi": [
    {
      "anonymous": false,
      "inputs": [
        {
          "indexed": true,
          "internalType": "address",
          "name": "owner",
          "type": "address"
        },
        {
          "indexed": true,
          "internalType": "address",
          "name": "spender",
          "type": "address"
        },
        {
          "indexed": false,
          "internalType": "uint256",
          "name": "value",
          "type": "uint256"
        }
      ],
      "name": "Approval",
      "type": "event"
    },
    {
      "anonymous": false,
      "inputs": [
        {
          "indexed": true,
          "internalType": "address",
          "name": "from",
          "type": "address"
        },
        {
          "indexed": true,
          "internalType": "address",
          "name": "to",
          "type": "address"
        },
        {
          "indexed": false,
          "internalType": "uint256",
          "name": "value",
          "type": "uint256"
        }
      ],
      "name": "Transfer",
      "type": "event"
    },
    {
      "inputs": [
        {
          "internalType": "address",
          "name": "owner",
          "type": "address"
        },
        {
          "internalType": "address",
          "name": "spender",
          "type": "address"
        }
      ],
      "name": "allowance",
      "outputs": [
        {
          "internalType": "uint256",
          "name": "",
          "type": "uint256"
        }
      ],
      "stateMutability": "view",
      "type": "function",
      "constant": true
    },
    {
      "inputs": [
        {
          "internalType": "address",
          "name": "spender",
          "type": "address"
        },
        {
          "internalType": "uint256",
          "name": "amount",
          "type": "uint256"
        }
      ],
      "name": "approve",
      "outputs": [
        {
          "internalType": "bool",
          "name": "",
          "type": "bool"
        }
      ],
      "stateMutability": "nonpayable",
      "type": "function"
    },
    {
      "inputs": [
        {
          "internalType": "address",
          "name": "account",
          "type": "address"
        }
      ],
      "name": "balanceOf",
      "outputs": [
        {
          "internalType": "uint256",
          "name": "",
          "type": "uint256"
        }
      ],
      "stateMutability": "view",
      "type": "function",
      "constant": true
    },
    {
      "inputs": [],
      "name": "decimals",
      "outputs": [
        {
          "internalType": "uint8",
          "name": "",
          "type": "uint8"
        }
      ],
      "stateMutability": "view",
      "type": "function",
      "constant": true
    },
    {
      "inputs": [
        {
          "internalType": "address",
          "name": "spender",
          "type": "address"
        },
        {
          "internalType": "uint256",
          "name": "subtractedValue",
          "type": "uint256"
        }
      ],
      "name": "decreaseAllowance",
      "outputs": [
        {
          "internalType": "bool",
          "name": "",
          "type": "bool"
        }
      ],
      "stateMutability": "nonpayable",
      "type": "function"
    },
    {
      "inputs": [
        {
          "internalType": "address",
          "name": "spender",
          "type": "address"
        },
        {
          "internalType": "uint256",
          "name": "addedValue",
          "type": "uint256"
        }
      ],
      "name": "increaseAllowance",
      "outputs": [
        {
          "internalType": "bool",
          "name": "",
          "type": "bool"
        }
      ],
      "stateMutability": "nonpayable",
      "type": "function"
    },
    {
      "inputs": [],
      "name": "name",
      "outputs": [
        {
          "internalType": "string",
          "name": "",
          "type": "string"
        }
      ],
      "stateMutability": "view",
      "type": "function",
      "constant": true
    },
    {
      "inputs": [],
      "name": "symbol",
      "outputs": [
        {
          "internalType": "string",
          "name": "",
          "type": "string"
        }
      ],
      "stateMutability": "view",
      "type": "function",
      "constant": true
    },
    {
      "inputs": [],
      "name": "totalSupply",
      "outputs": [
        {
          "internalType": "uint256",
          "name": "",
          "type": "uint256"
        }
      ],
      "stateMutability": "view",
      "type": "function",
      "constant": true
    },
    {
      "inputs": [
        {
          "internalType": "address",
          "name": "recipient",
          "type": "address"
        },
        {
          "internalType": "uint256",
          "name": "amount",
          "type": "uint256"
        }
      ],
      "name": "transfer",
      "outputs": [
        {
          "internalType": "bool",
          "name": "",
          "type": "bool"
        }
      ],
      "stateMutability": "nonpayable",
      "type": "function"
    },
    {
      "inputs": [
        {
          "internalType": "address",
          "name": "sender",
          "type": "address"
        },
        {
          "internalType": "address",
          "name": "recipient",
          "type": "address"
        },
        {
          "internalType": "uint256",
          "name": "amount",
          "type": "uint256"
        }
      ],
      "name": "transferFrom",
      "outputs": [
        {
          "internalType": "bool",
          "name": "",
          "type": "bool"
        }
      ],
      "stateMutability": "nonpayable",
      "type": "function"
    },
    {
      "inputs": [],
      "name": "getReserves",
      "outputs": [
        {
          "internalType": "uint112",
          "name": "_reserve0",
          "type": "uint112"
        },
        {
          "internalType": "uint112",
          "name": "_reserve1",
          "type": "uint112"
        },
        {
          "internalType": "uint32",
          "name": "_blockTimestampLast",
          "type": "uint32"
        }
      ],
      "stateMutability": "view",
      "type": "function",
      "constant": true
    }
  ],
  "bytecode": "0x60806040524360065534801561001457600080fd5b506040518060400160405280600381526020017f44414900000000000000000000000000000000000000000000000000000000008152506040518060400160405280600381526020017f444149000000000000000000000000000000000000000000000000000000000081525081600390805190602001906100979291906100c0565b5080516100ab9060049060208401906100c0565b50506005805460ff1916601217905550610153565b828054600181600116156101000203166002900490600052602060002090601f016020900481019282601f1061010157805160ff191683800117855561012e565b8280016001018555821561012e579182015b8281111561012e578251825591602001919060010190610113565b5061013a92915061013e565b5090565b5b8082111561013a576000815560010161013f565b610a85806101626000396000f3fe608060405234801561001057600080fd5b50600436106100d1576000357c010000000000000000000000000000000000000000000000000000000090048063395093511161008e578063395093511461024057806370a082311461026c57806395d89b4114610292578063a457c2d71461029a578063a9059cbb146102c6578063dd62ed3e146102f2576100d1565b806306fdde03146100d65780630902f1ac14610153578063095ea7b31461019257806318160ddd146101d257806323b872dd146101ec578063313ce56714610222575b600080fd5b6100de610320565b6040805160208082528351818301528351919283929083019185019080838360005b83811015610118578181015183820152602001610100565b50505050905090810190601f1680156101455780820380516001836020036101000a031916815260200191505b509250505060405180910390f35b61015b6103b6565b604080516dffffffffffffffffffffffffffff948516815292909316602083015263ffffffff168183015290519081900360600190f35b6101be600480360360408110156101a857600080fd5b50600160a060020a0381351690602001356103d0565b604080519115158252519081900360200190f35b6101da6103ed565b60408051918252519081900360200190f35b6101be6004803603606081101561020257600080fd5b50600160a060020a038135811691602081013590911690604001356103f3565b61022a61047a565b6040805160ff9092168252519081900360200190f35b6101be6004803603604081101561025657600080fd5b50600160a060020a038135169060200135610483565b6101da6004803603602081101561028257600080fd5b5035600160a060020a03166104d1565b6100de6104ec565b6101be600480360360408110156102b057600080fd5b50600160a060020a03813516906020013561054d565b6101be600480360360408110156102dc57600080fd5b50600160a060020a0381351690602001356105b5565b6101da6004803603604081101561030857600080fd5b50600160a060020a03813581169160200135166105c9565b60038054604080516020601f60026000196101006001881615020190951694909404938401819004810282018101909252828152606093909290918301828280156103ac5780601f10610381576101008083540402835291602001916103ac565b820191906000526020600020905b81548152906001019060200180831161038f57829003601f168201915b5050505050905090565b60065443036103e802633b9aca000190620f424090600090565b60006103e46103dd6105f4565b84846105f8565b50600192915050565b60025490565b60006104008484846106ea565b6104708461040c6105f4565b61046b856040518060600160405280602881526020016109ba60289139600160a060020a038a1660009081526001602052604081209061044a6105f4565b600160a060020a03168152602081019190915260400160002054919061084b565b6105f8565b5060019392505050565b60055460ff1690565b60006103e46104906105f4565b8461046b85600160006104a16105f4565b600160a060020a03908116825260208083019390935260409182016000908120918c1681529252902054906108e5565b600160a060020a031660009081526020819052604090205490565b60048054604080516020601f60026000196101006001881615020190951694909404938401819004810282018101909252828152606093909290918301828280156103ac5780601f10610381576101008083540402835291602001916103ac565b60006103e461055a6105f4565b8461046b85604051806060016040528060258152602001610a2b60259139600160006105846105f4565b600160a060020a03908116825260208083019390935260409182016000908120918d1681529252902054919061084b565b60006103e46105c26105f4565b84846106ea565b600160a060020a03918216600090815260016020908152604080832093909416825291909152205490565b3390565b600160a060020a0383166106405760405160e560020a62461bcd028152600401808060200182810382526024815260200180610a076024913960400191505060405180910390fd5b600160a060020a0382166106885760405160e560020a62461bcd0281526004018080602001828103825260228152602001806109726022913960400191505060405180910390fd5b600160a060020a03808416600081815260016020908152604080832094871680845294825291829020859055815185815291517f8c5be1e5ebec7d5bd14f71427d1e84f3dd0314c0f7b2291e5b200ac8c7c3b9259281900390910190a3505050565b600160a060020a0383166107325760405160e560020a62461bcd0281526004018080602001828103825260258152602001806109e26025913960400191505060405180910390fd5b600160a060020a03821661077a5760405160e560020a62461bcd02815260040180806020018281038252602381526020018061094f6023913960400191505060405180910390fd5b610785838383610949565b6107c28160405180606001604052806026815260200161099460269139600160a060020a038616600090815260208190526040902054919061084b565b600160a060020a0380851660009081526020819052604080822093909355908416815220546107f190826108e5565b600160a060020a038084166000818152602081815260409182902094909455805185815290519193928716927fddf252ad1be2c89b69c2b068fc378daa952ba7f163c4a11628f55a4df523b3ef92918290030190a3505050565b600081848411156108dd5760405160e560020a62461bcd0281526004018080602001828103825283818151815260200191508051906020019080838360005b838110156108a257818101518382015260200161088a565b50505050905090810190601f1680156108cf5780820380516001836020036101000a031916815260200191505b509250505060405180910390fd5b505050900390565b600082820183811015610942576040805160e560020a62461bcd02815260206004820152601b60248201527f536166654d6174683a206164646974696f6e206f766572666c6f770000000000604482015290519081900360640190fd5b9392505050565b50505056fe45524332303a207472616e7366657220746f20746865207a65726f206164647265737345524332303a20617070726f766520746f20746865207a65726f206164647265737345524332303a207472616e7366657220616d6f756e7420657863656564732062616c616e636545524332303a207472616e7366657220616d6f756e74206578636565647320616c6c6f77616e636545524332303a207472616e736665722066726f6d20746865207a65726f206164647265737345524332303a20617070726f76652066726f6d20746865207a65726f206164647265737345524332303a2064656372656173656420616c6c6f77616e63652062656c6f77207a65726fa264697066735822122061156feb9ca4f52c85f701a57a28547515f895e69fdf2446fe356b409389399d64736f6c634300060c0033",
  "immutableReferences": {},
  "source": "// SPDX-License-Identifier: MIT\npragma solidity >=0.6.0 <0.8.0;\n\nimport \"@openzeppelin/contracts/token/ERC20/ERC20.sol\";\n\n// https://etherscan.io/address/0xa478c2975ab1ea89e8196811f51a7b7ade33eb11#readContract\ncontract UniswapETHDAIPoolMock is ERC20(\"DAI\", \"DAI\") {\n    uint256 private initBlock = block.number;\n\n    // DAI / ETH\n    function getReserves()\n        public\n        view\n        returns (\n            uint112 _reserve0,\n            uint112 _reserve1,\n            uint32 _blockTimestampLast\n        )\n    {\n        return (1000000000 + uint112((block.number - initBlock) * 1000), 1000000, 0);\n    }\n}\n",
  "sourcePath": "/Users/mortimr/projects/kuko-finance/contracts/contracts/testing/UniswapETHDAIPoolMock.sol",
  "compiler": {
    "name": "solc",
    "version": "0.6.12+commit.27d51765.Emscripten.clang"
  },
  "schemaVersion": "3.3.3",
  "updatedAt": "2021-02-06T22:10:59.637Z",
  "networkType": "ethereum",
  "devdoc": {
    "kind": "dev",
    "methods": {
      "allowance(address,address)": {
        "details": "See {IERC20-allowance}."
      },
      "approve(address,uint256)": {
        "details": "See {IERC20-approve}. Requirements: - `spender` cannot be the zero address."
      },
      "balanceOf(address)": {
        "details": "See {IERC20-balanceOf}."
      },
      "decimals()": {
        "details": "Returns the number of decimals used to get its user representation. For example, if `decimals` equals `2`, a balance of `505` tokens should be displayed to a user as `5,05` (`505 / 10 ** 2`). Tokens usually opt for a value of 18, imitating the relationship between Ether and Wei. This is the value {ERC20} uses, unless {_setupDecimals} is called. NOTE: This information is only used for _display_ purposes: it in no way affects any of the arithmetic of the contract, including {IERC20-balanceOf} and {IERC20-transfer}."
      },
      "decreaseAllowance(address,uint256)": {
        "details": "Atomically decreases the allowance granted to `spender` by the caller. This is an alternative to {approve} that can be used as a mitigation for problems described in {IERC20-approve}. Emits an {Approval} event indicating the updated allowance. Requirements: - `spender` cannot be the zero address. - `spender` must have allowance for the caller of at least `subtractedValue`."
      },
      "increaseAllowance(address,uint256)": {
        "details": "Atomically increases the allowance granted to `spender` by the caller. This is an alternative to {approve} that can be used as a mitigation for problems described in {IERC20-approve}. Emits an {Approval} event indicating the updated allowance. Requirements: - `spender` cannot be the zero address."
      },
      "name()": {
        "details": "Returns the name of the token."
      },
      "symbol()": {
        "details": "Returns the symbol of the token, usually a shorter version of the name."
      },
      "totalSupply()": {
        "details": "See {IERC20-totalSupply}."
      },
      "transfer(address,uint256)": {
        "details": "See {IERC20-transfer}. Requirements: - `recipient` cannot be the zero address. - the caller must have a balance of at least `amount`."
      },
      "transferFrom(address,address,uint256)": {
        "details": "See {IERC20-transferFrom}. Emits an {Approval} event indicating the updated allowance. This is not required by the EIP. See the note at the beginning of {ERC20}. Requirements: - `sender` and `recipient` cannot be the zero address. - `sender` must have a balance of at least `amount`. - the caller must have allowance for ``sender``'s tokens of at least `amount`."
      }
    },
    "version": 1
  },
  "userdoc": {
    "kind": "user",
    "methods": {},
    "version": 1
  }
}