{
  "contractName": "YDaiYieldProvider",
  "abi": [
    {
      "inputs": [
        {
          "internalType": "address",
          "name": "daiToken",
          "type": "address"
        },
        {
          "internalType": "address",
          "name": "yDaiVault",
          "type": "address"
        }
      ],
      "stateMutability": "nonpayable",
      "type": "constructor"
    },
    {
      "inputs": [],
      "name": "getInputToken",
      "outputs": [
        {
          "internalType": "address",
          "name": "",
          "type": "address"
        }
      ],
      "stateMutability": "view",
      "type": "function"
    },
    {
      "inputs": [],
      "name": "getOutputTokens",
      "outputs": [
        {
          "internalType": "address[]",
          "name": "",
          "type": "address[]"
        }
      ],
      "stateMutability": "view",
      "type": "function"
    },
    {
      "inputs": [],
      "name": "getYieldTokens",
      "outputs": [
        {
          "internalType": "address[]",
          "name": "",
          "type": "address[]"
        }
      ],
      "stateMutability": "view",
      "type": "function"
    }
  ],
  "bytecode": "0x608060405234801561001057600080fd5b506040516104d53803806104d58339818101604052604081101561003357600080fd5b81019080805190602001909291908051906020019092919050505061005d8261010460201b60201c565b61006c8161014760201b60201c565b61007b826101ad60201b60201c565b80600360006101000a81548173ffffffffffffffffffffffffffffffffffffffff021916908373ffffffffffffffffffffffffffffffffffffffff16021790555081600460006101000a81548173ffffffffffffffffffffffffffffffffffffffff021916908373ffffffffffffffffffffffffffffffffffffffff1602179055505050610213565b806000806101000a81548173ffffffffffffffffffffffffffffffffffffffff021916908373ffffffffffffffffffffffffffffffffffffffff16021790555050565b6001819080600181540180825580915050600190039060005260206000200160009091909190916101000a81548173ffffffffffffffffffffffffffffffffffffffff021916908373ffffffffffffffffffffffffffffffffffffffff16021790555050565b6001819080600181540180825580915050600190039060005260206000200160009091909190916101000a81548173ffffffffffffffffffffffffffffffffffffffff021916908373ffffffffffffffffffffffffffffffffffffffff16021790555050565b6102b3806102226000396000f3fe608060405234801561001057600080fd5b50600436106100415760003560e01c8063454dcb4514610046578063709df63c146100a5578063e52e43da14610104575b600080fd5b61004e610138565b6040518080602001828103825283818151815260200191508051906020019060200280838360005b83811015610091578082015181840152602081019050610076565b505050509050019250505060405180910390f35b6100ad6101c6565b6040518080602001828103825283818151815260200191508051906020019060200280838360005b838110156100f05780820151818401526020810190506100d5565b505050509050019250505060405180910390f35b61010c610254565b604051808273ffffffffffffffffffffffffffffffffffffffff16815260200191505060405180910390f35b606060028054806020026020016040519081016040528092919081815260200182805480156101bc57602002820191906000526020600020905b8160009054906101000a900473ffffffffffffffffffffffffffffffffffffffff1673ffffffffffffffffffffffffffffffffffffffff1681526020019060010190808311610172575b5050505050905090565b6060600180548060200260200160405190810160405280929190818152602001828054801561024a57602002820191906000526020600020905b8160009054906101000a900473ffffffffffffffffffffffffffffffffffffffff1673ffffffffffffffffffffffffffffffffffffffff1681526020019060010190808311610200575b5050505050905090565b60008060009054906101000a900473ffffffffffffffffffffffffffffffffffffffff1690509056fea264697066735822122022d1c68c2ecfafde698e5b29557af45e19f2f7151e13df6bacad05d75c68052864736f6c634300060c0033",
  "immutableReferences": {},
  "source": "// SPDX-License-Identifier: MIT\npragma solidity >=0.6.0 <0.8.0;\n\nimport \"../kuko_v1/KukoYieldManagerV1.sol\";\nimport \"@openzeppelin/contracts/token/ERC20/SafeERC20.sol\";\nimport \"@openzeppelin/contracts/token/ERC20/IERC20.sol\";\nimport \"../interfaces/YearnVault.sol\";\n\n// Here we need to take Dai and convert it to Harvest Finance\n\ncontract YDaiYieldProvider is KukoYieldManagerV1 {\n    using SafeERC20 for IERC20;\n\n    YearnVault private vault;\n    IERC20 private token;\n\n    constructor(address daiToken, address yDaiVault) public {\n        _setInputToken(daiToken);\n        _addYieldToken(yDaiVault);\n        _addOutputToken(daiToken);\n\n        vault = YearnVault(yDaiVault);\n        token = IERC20(daiToken);\n    }\n\n    function _invest() internal override {\n        uint256 currentDaiBalance = token.balanceOf(address(this));\n        token.safeApprove(address(vault), currentDaiBalance);\n        vault.deposit(currentDaiBalance);\n    }\n\n    function _retrieve() internal override {\n        uint256 currentShareBalance = vault.balanceOf(address(this));\n        vault.withdraw(currentShareBalance);\n    }\n\n    function _totalFunds() internal view override returns (uint256) {\n        return vault.balanceOf(address(this)) * vault.getPricePerFullShare();\n    }\n}\n",
  "sourcePath": "/Users/mortimr/projects/kuko-finance/contracts/contracts/yield/YDaiYieldProvider.sol",
  "compiler": {
    "name": "solc",
    "version": "0.6.12+commit.27d51765.Emscripten.clang"
  },
  "schemaVersion": "3.3.3",
  "updatedAt": "2021-02-06T19:32:46.504Z",
  "devdoc": {
    "kind": "dev",
    "methods": {},
    "version": 1
  },
  "userdoc": {
    "kind": "user",
    "methods": {},
    "version": 1
  }
}