{
  "contractName": "yDaiYieldProvider",
  "abi": [
    {
      "inputs": [
        {
          "internalType": "address",
          "name": "daiToken",
          "type": "address"
        },
        {
          "internalType": "address",
          "name": "yDaiVault",
          "type": "address"
        }
      ],
      "stateMutability": "nonpayable",
      "type": "constructor"
    },
    {
      "inputs": [],
      "name": "getInputTokens",
      "outputs": [
        {
          "internalType": "address[]",
          "name": "",
          "type": "address[]"
        }
      ],
      "stateMutability": "view",
      "type": "function"
    },
    {
      "inputs": [],
      "name": "getOutputTokens",
      "outputs": [
        {
          "internalType": "address[]",
          "name": "",
          "type": "address[]"
        }
      ],
      "stateMutability": "view",
      "type": "function"
    },
    {
      "inputs": [],
      "name": "getYieldTokens",
      "outputs": [
        {
          "internalType": "address[]",
          "name": "",
          "type": "address[]"
        }
      ],
      "stateMutability": "view",
      "type": "function"
    }
  ],
  "bytecode": "0x608060405234801561001057600080fd5b506040516105063803806105068339818101604052604081101561003357600080fd5b81019080805190602001909291908051906020019092919050505061005d8261008260201b60201c565b61006c816100e860201b60201c565b61007b8261014e60201b60201c565b50506101b4565b6000819080600181540180825580915050600190039060005260206000200160009091909190916101000a81548173ffffffffffffffffffffffffffffffffffffffff021916908373ffffffffffffffffffffffffffffffffffffffff16021790555050565b6001819080600181540180825580915050600190039060005260206000200160009091909190916101000a81548173ffffffffffffffffffffffffffffffffffffffff021916908373ffffffffffffffffffffffffffffffffffffffff16021790555050565b6001819080600181540180825580915050600190039060005260206000200160009091909190916101000a81548173ffffffffffffffffffffffffffffffffffffffff021916908373ffffffffffffffffffffffffffffffffffffffff16021790555050565b610343806101c36000396000f3fe608060405234801561001057600080fd5b50600436106100415760003560e01c8063454dcb4514610046578063709df63c146100a5578063db11e47214610104575b600080fd5b61004e610163565b6040518080602001828103825283818151815260200191508051906020019060200280838360005b83811015610091578082015181840152602081019050610076565b505050509050019250505060405180910390f35b6100ad6101f1565b6040518080602001828103825283818151815260200191508051906020019060200280838360005b838110156100f05780820151818401526020810190506100d5565b505050509050019250505060405180910390f35b61010c61027f565b6040518080602001828103825283818151815260200191508051906020019060200280838360005b8381101561014f578082015181840152602081019050610134565b505050509050019250505060405180910390f35b606060028054806020026020016040519081016040528092919081815260200182805480156101e757602002820191906000526020600020905b8160009054906101000a900473ffffffffffffffffffffffffffffffffffffffff1673ffffffffffffffffffffffffffffffffffffffff168152602001906001019080831161019d575b5050505050905090565b6060600180548060200260200160405190810160405280929190818152602001828054801561027557602002820191906000526020600020905b8160009054906101000a900473ffffffffffffffffffffffffffffffffffffffff1673ffffffffffffffffffffffffffffffffffffffff168152602001906001019080831161022b575b5050505050905090565b6060600080548060200260200160405190810160405280929190818152602001828054801561030357602002820191906000526020600020905b8160009054906101000a900473ffffffffffffffffffffffffffffffffffffffff1673ffffffffffffffffffffffffffffffffffffffff16815260200190600101908083116102b9575b505050505090509056fea26469706673582212200cdc4aa399d98c1ac07b278d1da0677355d3713c30a6738b3e0970c464ac755464736f6c634300060c0033",
  "immutableReferences": {},
  "source": "// SPDX-License-Identifier: MIT\npragma solidity >=0.6.0 <0.8.0;\n\nimport \"./IKukoYieldProviderV1.sol\";\n\n// Here we need to take Dai and convert it to Harvest Finance\n\ncontract yDaiYieldProvider is IKukoYieldProviderV1 {\n\n  constructor(\n      address daiToken,\n      address yDaiVault\n  ) public {\n    _addInputToken(daiToken);\n    _addYieldToken(yDaiVault);\n    _addOutputToken(daiToken);\n  }\n\n    function invest() internal override {\n      // Check current dai balance\n      //\n    }\n\n    function retrieve() internal override {\n\n    }\n}\n",
  "sourcePath": "/Users/mortimr/projects/kuko-finance/contracts/contracts/yield/yDaiYieldProvider.sol",
  "compiler": {
    "name": "solc",
    "version": "0.6.12+commit.27d51765.Emscripten.clang"
  },
  "schemaVersion": "3.3.3",
  "updatedAt": "2021-02-02T21:37:30.590Z",
  "devdoc": {
    "kind": "dev",
    "methods": {},
    "version": 1
  },
  "userdoc": {
    "kind": "user",
    "methods": {},
    "version": 1
  }
}