{
  "contractName": "YDaiVaultMock",
  "abi": [
    {
      "inputs": [
        {
          "internalType": "address",
          "name": "_tokenAddress",
          "type": "address"
        }
      ],
      "stateMutability": "nonpayable",
      "type": "constructor"
    },
    {
      "anonymous": false,
      "inputs": [
        {
          "indexed": true,
          "internalType": "address",
          "name": "owner",
          "type": "address"
        },
        {
          "indexed": true,
          "internalType": "address",
          "name": "spender",
          "type": "address"
        },
        {
          "indexed": false,
          "internalType": "uint256",
          "name": "value",
          "type": "uint256"
        }
      ],
      "name": "Approval",
      "type": "event"
    },
    {
      "anonymous": false,
      "inputs": [
        {
          "indexed": true,
          "internalType": "address",
          "name": "from",
          "type": "address"
        },
        {
          "indexed": true,
          "internalType": "address",
          "name": "to",
          "type": "address"
        },
        {
          "indexed": false,
          "internalType": "uint256",
          "name": "value",
          "type": "uint256"
        }
      ],
      "name": "Transfer",
      "type": "event"
    },
    {
      "inputs": [
        {
          "internalType": "address",
          "name": "owner",
          "type": "address"
        },
        {
          "internalType": "address",
          "name": "spender",
          "type": "address"
        }
      ],
      "name": "allowance",
      "outputs": [
        {
          "internalType": "uint256",
          "name": "",
          "type": "uint256"
        }
      ],
      "stateMutability": "view",
      "type": "function",
      "constant": true
    },
    {
      "inputs": [
        {
          "internalType": "address",
          "name": "spender",
          "type": "address"
        },
        {
          "internalType": "uint256",
          "name": "amount",
          "type": "uint256"
        }
      ],
      "name": "approve",
      "outputs": [
        {
          "internalType": "bool",
          "name": "",
          "type": "bool"
        }
      ],
      "stateMutability": "nonpayable",
      "type": "function"
    },
    {
      "inputs": [
        {
          "internalType": "address",
          "name": "account",
          "type": "address"
        }
      ],
      "name": "balanceOf",
      "outputs": [
        {
          "internalType": "uint256",
          "name": "",
          "type": "uint256"
        }
      ],
      "stateMutability": "view",
      "type": "function",
      "constant": true
    },
    {
      "inputs": [],
      "name": "decimals",
      "outputs": [
        {
          "internalType": "uint8",
          "name": "",
          "type": "uint8"
        }
      ],
      "stateMutability": "view",
      "type": "function",
      "constant": true
    },
    {
      "inputs": [
        {
          "internalType": "address",
          "name": "spender",
          "type": "address"
        },
        {
          "internalType": "uint256",
          "name": "subtractedValue",
          "type": "uint256"
        }
      ],
      "name": "decreaseAllowance",
      "outputs": [
        {
          "internalType": "bool",
          "name": "",
          "type": "bool"
        }
      ],
      "stateMutability": "nonpayable",
      "type": "function"
    },
    {
      "inputs": [
        {
          "internalType": "address",
          "name": "spender",
          "type": "address"
        },
        {
          "internalType": "uint256",
          "name": "addedValue",
          "type": "uint256"
        }
      ],
      "name": "increaseAllowance",
      "outputs": [
        {
          "internalType": "bool",
          "name": "",
          "type": "bool"
        }
      ],
      "stateMutability": "nonpayable",
      "type": "function"
    },
    {
      "inputs": [],
      "name": "name",
      "outputs": [
        {
          "internalType": "string",
          "name": "",
          "type": "string"
        }
      ],
      "stateMutability": "view",
      "type": "function",
      "constant": true
    },
    {
      "inputs": [],
      "name": "symbol",
      "outputs": [
        {
          "internalType": "string",
          "name": "",
          "type": "string"
        }
      ],
      "stateMutability": "view",
      "type": "function",
      "constant": true
    },
    {
      "inputs": [],
      "name": "totalSupply",
      "outputs": [
        {
          "internalType": "uint256",
          "name": "",
          "type": "uint256"
        }
      ],
      "stateMutability": "view",
      "type": "function",
      "constant": true
    },
    {
      "inputs": [
        {
          "internalType": "address",
          "name": "recipient",
          "type": "address"
        },
        {
          "internalType": "uint256",
          "name": "amount",
          "type": "uint256"
        }
      ],
      "name": "transfer",
      "outputs": [
        {
          "internalType": "bool",
          "name": "",
          "type": "bool"
        }
      ],
      "stateMutability": "nonpayable",
      "type": "function"
    },
    {
      "inputs": [
        {
          "internalType": "address",
          "name": "sender",
          "type": "address"
        },
        {
          "internalType": "address",
          "name": "recipient",
          "type": "address"
        },
        {
          "internalType": "uint256",
          "name": "amount",
          "type": "uint256"
        }
      ],
      "name": "transferFrom",
      "outputs": [
        {
          "internalType": "bool",
          "name": "",
          "type": "bool"
        }
      ],
      "stateMutability": "nonpayable",
      "type": "function"
    },
    {
      "inputs": [
        {
          "internalType": "uint256",
          "name": "_amount",
          "type": "uint256"
        }
      ],
      "name": "deposit",
      "outputs": [],
      "stateMutability": "nonpayable",
      "type": "function"
    },
    {
      "inputs": [
        {
          "internalType": "uint256",
          "name": "_amount",
          "type": "uint256"
        }
      ],
      "name": "withdraw",
      "outputs": [],
      "stateMutability": "nonpayable",
      "type": "function"
    },
    {
      "inputs": [],
      "name": "getPricePerFullShare",
      "outputs": [
        {
          "internalType": "uint256",
          "name": "",
          "type": "uint256"
        }
      ],
      "stateMutability": "view",
      "type": "function",
      "constant": true
    }
  ],
  "bytecode": "0x60806040524360065534801561001457600080fd5b506040516200122a3803806200122a8339818101604052602081101561003957600080fd5b5051604080518082018252600481527f794441490000000000000000000000000000000000000000000000000000000060208281019182528351808501909452600e84527f796561726e20446169204d6f636b0000000000000000000000000000000000009084015281519192916100b391600391610100565b5080516100c7906004906020840190610100565b505060058054600160a060020a039093166101000261010060a860020a031960ff19909416601217939093169290921790915550610193565b828054600181600116156101000203166002900490600052602060002090601f016020900481019282601f1061014157805160ff191683800117855561016e565b8280016001018555821561016e579182015b8281111561016e578251825591602001919060010190610153565b5061017a92915061017e565b5090565b5b8082111561017a576000815560010161017f565b61108780620001a36000396000f3fe608060405234801561001057600080fd5b50600436106100bd5760e060020a600035046306fdde0381146100c2578063095ea7b31461013f57806318160ddd1461017f57806323b872dd146101995780632e1a7d4d146101cf578063313ce567146101ee578063395093511461020c57806370a082311461023857806377c7b8fc1461025e57806395d89b4114610266578063a457c2d71461026e578063a9059cbb1461029a578063b6b55f25146102c6578063dd62ed3e146102e3575b600080fd5b6100ca610311565b6040805160208082528351818301528351919283929083019185019080838360005b838110156101045781810151838201526020016100ec565b50505050905090810190601f1680156101315780820380516001836020036101000a031916815260200191505b509250505060405180910390f35b61016b6004803603604081101561015557600080fd5b50600160a060020a0381351690602001356103a7565b604080519115158252519081900360200190f35b6101876103c4565b60408051918252519081900360200190f35b61016b600480360360608110156101af57600080fd5b50600160a060020a038135811691602081013590911690604001356103ca565b6101ec600480360360208110156101e557600080fd5b5035610452565b005b6101f6610596565b6040805160ff9092168252519081900360200190f35b61016b6004803603604081101561022257600080fd5b50600160a060020a03813516906020013561059f565b6101876004803603602081101561024e57600080fd5b5035600160a060020a03166105ed565b610187610608565b6100ca610626565b61016b6004803603604081101561028457600080fd5b50600160a060020a038135169060200135610687565b61016b600480360360408110156102b057600080fd5b50600160a060020a0381351690602001356106ef565b6101ec600480360360208110156102dc57600080fd5b5035610703565b610187600480360360408110156102f957600080fd5b50600160a060020a0381358116916020013516610743565b60038054604080516020601f600260001961010060018816150201909516949094049384018190048102820181019092528281526060939092909183018282801561039d5780601f106103725761010080835404028352916020019161039d565b820191906000526020600020905b81548152906001019060200180831161038057829003601f168201915b5050505050905090565b60006103bb6103b461076e565b8484610772565b50600192915050565b60025490565b60006103d7848484610864565b610447846103e361076e565b61044285604051806060016040528060288152602001610f7260289139600160a060020a038a1660009081526001602052604081209061042161076e565b600160a060020a0316815260208101919091526040016000205491906109b3565b610772565b5060015b9392505050565b600061045c610608565b820290506000600560019054906101000a9004600160a060020a0316600160a060020a03166370a08231306040518263ffffffff1660e060020a0281526004018082600160a060020a0316815260200191505060206040518083038186803b1580156104c757600080fd5b505afa1580156104db573d6000803e3d6000fd5b505050506040513d60208110156104f157600080fd5b5051905081811015610575576005546040805160e660020a630209fccb02815230600482015283850360248201819052915191926101009004600160a060020a03169163827f32c09160448082019260009290919082900301818387803b15801561055b57600080fd5b505af115801561056f573d6000803e3d6000fd5b50505050505b600554610591906101009004600160a060020a03163384610a4d565b505050565b60055460ff1690565b60006103bb6105ac61076e565b8461044285600160006105bd61076e565b600160a060020a03908116825260208083019390935260409182016000908120918c168152925290205490610aa2565b600160a060020a031660009081526020819052604090205490565b60006006544303655af3107a400002670ebf33dfd318347401905090565b60048054604080516020601f600260001961010060018816150201909516949094049384018190048102820181019092528281526060939092909183018282801561039d5780601f106103725761010080835404028352916020019161039d565b60006103bb61069461076e565b846104428560405180606001604052806025815260200161102d60259139600160006106be61076e565b600160a060020a03908116825260208083019390935260409182016000908120918d168152925290205491906109b3565b60006103bb6106fc61076e565b8484610864565b600061070d610608565b828161071557fe5b0490506107223382610aff565b60055461073f906101009004600160a060020a0316333085610be0565b5050565b600160a060020a03918216600090815260016020908152604080832093909416825291909152205490565b3390565b600160a060020a0383166107ba5760405160e560020a62461bcd028152600401808060200182810382526024815260200180610fdf6024913960400191505060405180910390fd5b600160a060020a0382166108025760405160e560020a62461bcd028152600401808060200182810382526022815260200180610f046022913960400191505060405180910390fd5b600160a060020a03808416600081815260016020908152604080832094871680845294825291829020859055815185815291517f8c5be1e5ebec7d5bd14f71427d1e84f3dd0314c0f7b2291e5b200ac8c7c3b9259281900390910190a3505050565b600160a060020a0383166108ac5760405160e560020a62461bcd028152600401808060200182810382526025815260200180610fba6025913960400191505060405180910390fd5b600160a060020a0382166108f45760405160e560020a62461bcd028152600401808060200182810382526023815260200180610ee16023913960400191505060405180910390fd5b6108ff838383610591565b61093c81604051806060016040528060268152602001610f2660269139600160a060020a03861660009081526020819052604090205491906109b3565b600160a060020a03808516600090815260208190526040808220939093559084168152205461096b9082610aa2565b600160a060020a03808416600081815260208181526040918290209490945580518581529051919392871692600080516020610f9a83398151915292918290030190a3505050565b60008184841115610a455760405160e560020a62461bcd0281526004018080602001828103825283818151815260200191508051906020019080838360005b83811015610a0a5781810151838201526020016109f2565b50505050905090810190601f168015610a375780820380516001836020036101000a031916815260200191505b509250505060405180910390fd5b505050900390565b60408051600160a060020a03841660248201526044808201849052825180830390910181526064909101909152602081018051600160e060020a031660e060020a63a9059cbb02179052610591908490610c43565b60008282018381101561044b576040805160e560020a62461bcd02815260206004820152601b60248201527f536166654d6174683a206164646974696f6e206f766572666c6f770000000000604482015290519081900360640190fd5b600160a060020a038216610b5d576040805160e560020a62461bcd02815260206004820152601f60248201527f45524332303a206d696e7420746f20746865207a65726f206164647265737300604482015290519081900360640190fd5b610b6960008383610591565b600254610b769082610aa2565b600255600160a060020a038216600090815260208190526040902054610b9c9082610aa2565b600160a060020a038316600081815260208181526040808320949094558351858152935192939192600080516020610f9a8339815191529281900390910190a35050565b60408051600160a060020a038086166024830152841660448201526064808201849052825180830390910181526084909101909152602081018051600160e060020a031660e060020a6323b872dd02179052610c3d908590610c43565b50505050565b6060610c98826040518060400160405280602081526020017f5361666545524332303a206c6f772d6c6576656c2063616c6c206661696c656481525085600160a060020a0316610cf79092919063ffffffff16565b80519091501561059157808060200190516020811015610cb757600080fd5b50516105915760405160e560020a62461bcd02815260040180806020018281038252602a815260200180611003602a913960400191505060405180910390fd5b6060610d068484600085610d0e565b949350505050565b60603031831115610d535760405160e560020a62461bcd028152600401808060200182810382526026815260200180610f4c6026913960400191505060405180910390fd5b610d5c85610e71565b610db0576040805160e560020a62461bcd02815260206004820152601d60248201527f416464726573733a2063616c6c20746f206e6f6e2d636f6e7472616374000000604482015290519081900360640190fd5b6000606086600160a060020a031685876040518082805190602001908083835b60208310610def5780518252601f199092019160209182019101610dd0565b6001836020036101000a03801982511681845116808217855250505050505090500191505060006040518083038185875af1925050503d8060008114610e51576040519150601f19603f3d011682016040523d82523d6000602084013e610e56565b606091505b5091509150610e66828286610e77565b979650505050505050565b3b151590565b60608315610e8657508161044b565b825115610e965782518084602001fd5b60405160e560020a62461bcd028152602060048201818152845160248401528451859391928392604401919085019080838360008315610a0a5781810151838201526020016109f256fe45524332303a207472616e7366657220746f20746865207a65726f206164647265737345524332303a20617070726f766520746f20746865207a65726f206164647265737345524332303a207472616e7366657220616d6f756e7420657863656564732062616c616e6365416464726573733a20696e73756666696369656e742062616c616e636520666f722063616c6c45524332303a207472616e7366657220616d6f756e74206578636565647320616c6c6f77616e6365ddf252ad1be2c89b69c2b068fc378daa952ba7f163c4a11628f55a4df523b3ef45524332303a207472616e736665722066726f6d20746865207a65726f206164647265737345524332303a20617070726f76652066726f6d20746865207a65726f20616464726573735361666545524332303a204552433230206f7065726174696f6e20646964206e6f74207375636365656445524332303a2064656372656173656420616c6c6f77616e63652062656c6f77207a65726fa264697066735822122045d61a0909bd6f7ba66877592aac0ceb1e2003ed78e09c3a45f8a7a79c82da9d64736f6c634300060c0033",
  "immutableReferences": {},
  "source": "// SPDX-License-Identifier: MIT\npragma solidity >=0.6.0 <0.8.0;\n\nimport \"@openzeppelin/contracts/token/ERC20/ERC20.sol\";\nimport \"@openzeppelin/contracts/token/ERC20/SafeERC20.sol\";\nimport \"@openzeppelin/contracts/token/ERC20/IERC20.sol\";\nimport \"./DaiMock.sol\";\n\ncontract YDaiVaultMock is ERC20 {\n    using SafeERC20 for IERC20;\n\n    IERC20 private token;\n    uint256 private initBlock = block.number;\n\n    constructor(address _tokenAddress) public ERC20(\"yDAI\", \"yearn Dai Mock\") {\n        token = IERC20(_tokenAddress);\n    }\n\n    function deposit(uint256 _amount) public {\n        uint256 amountToMint = _amount / getPricePerFullShare();\n        _mint(msg.sender, amountToMint);\n        token.safeTransferFrom(msg.sender, address(this), _amount);\n    }\n\n    function withdraw(uint256 _amount) public {\n        uint256 amountToWithdraw = _amount * getPricePerFullShare();\n        uint256 contractBalance = token.balanceOf(address(this));\n\n        if (contractBalance < amountToWithdraw) {\n            uint256 amountToMint = amountToWithdraw - contractBalance;\n            ERC20Mock(address(token)).generateTokens(address(this), amountToMint);\n        }\n\n        token.safeTransfer(msg.sender, amountToWithdraw);\n    }\n\n    function getPricePerFullShare() public view returns (uint256) {\n        return 1062625073495028852 + (100000000000000 * (block.number - initBlock));\n    }\n\n    // https://etherscan.io/token/0x16de59092dae5ccf4a1e6439d611fd0653f0bd01#readContract this to get amount of dai etc\n}\n",
  "sourcePath": "/Users/mortimr/projects/kuko-finance/contracts/contracts/testing/YDaiVaultMock.sol",
  "compiler": {
    "name": "solc",
    "version": "0.6.12+commit.27d51765.Emscripten.clang"
  },
  "schemaVersion": "3.3.3",
  "updatedAt": "2021-02-09T17:09:51.050Z",
  "networkType": "ethereum",
  "devdoc": {
    "kind": "dev",
    "methods": {
      "allowance(address,address)": {
        "details": "See {IERC20-allowance}."
      },
      "approve(address,uint256)": {
        "details": "See {IERC20-approve}. Requirements: - `spender` cannot be the zero address."
      },
      "balanceOf(address)": {
        "details": "See {IERC20-balanceOf}."
      },
      "decimals()": {
        "details": "Returns the number of decimals used to get its user representation. For example, if `decimals` equals `2`, a balance of `505` tokens should be displayed to a user as `5,05` (`505 / 10 ** 2`). Tokens usually opt for a value of 18, imitating the relationship between Ether and Wei. This is the value {ERC20} uses, unless {_setupDecimals} is called. NOTE: This information is only used for _display_ purposes: it in no way affects any of the arithmetic of the contract, including {IERC20-balanceOf} and {IERC20-transfer}."
      },
      "decreaseAllowance(address,uint256)": {
        "details": "Atomically decreases the allowance granted to `spender` by the caller. This is an alternative to {approve} that can be used as a mitigation for problems described in {IERC20-approve}. Emits an {Approval} event indicating the updated allowance. Requirements: - `spender` cannot be the zero address. - `spender` must have allowance for the caller of at least `subtractedValue`."
      },
      "increaseAllowance(address,uint256)": {
        "details": "Atomically increases the allowance granted to `spender` by the caller. This is an alternative to {approve} that can be used as a mitigation for problems described in {IERC20-approve}. Emits an {Approval} event indicating the updated allowance. Requirements: - `spender` cannot be the zero address."
      },
      "name()": {
        "details": "Returns the name of the token."
      },
      "symbol()": {
        "details": "Returns the symbol of the token, usually a shorter version of the name."
      },
      "totalSupply()": {
        "details": "See {IERC20-totalSupply}."
      },
      "transfer(address,uint256)": {
        "details": "See {IERC20-transfer}. Requirements: - `recipient` cannot be the zero address. - the caller must have a balance of at least `amount`."
      },
      "transferFrom(address,address,uint256)": {
        "details": "See {IERC20-transferFrom}. Emits an {Approval} event indicating the updated allowance. This is not required by the EIP. See the note at the beginning of {ERC20}. Requirements: - `sender` and `recipient` cannot be the zero address. - `sender` must have a balance of at least `amount`. - the caller must have allowance for ``sender``'s tokens of at least `amount`."
      }
    },
    "version": 1
  },
  "userdoc": {
    "kind": "user",
    "methods": {},
    "version": 1
  }
}