{
  "contractName": "YDaiVaultMock",
  "abi": [
    {
      "inputs": [
        {
          "internalType": "address",
          "name": "_tokenAddress",
          "type": "address"
        }
      ],
      "stateMutability": "nonpayable",
      "type": "constructor"
    },
    {
      "anonymous": false,
      "inputs": [
        {
          "indexed": true,
          "internalType": "address",
          "name": "owner",
          "type": "address"
        },
        {
          "indexed": true,
          "internalType": "address",
          "name": "spender",
          "type": "address"
        },
        {
          "indexed": false,
          "internalType": "uint256",
          "name": "value",
          "type": "uint256"
        }
      ],
      "name": "Approval",
      "type": "event"
    },
    {
      "anonymous": false,
      "inputs": [
        {
          "indexed": true,
          "internalType": "address",
          "name": "from",
          "type": "address"
        },
        {
          "indexed": true,
          "internalType": "address",
          "name": "to",
          "type": "address"
        },
        {
          "indexed": false,
          "internalType": "uint256",
          "name": "value",
          "type": "uint256"
        }
      ],
      "name": "Transfer",
      "type": "event"
    },
    {
      "inputs": [
        {
          "internalType": "address",
          "name": "owner",
          "type": "address"
        },
        {
          "internalType": "address",
          "name": "spender",
          "type": "address"
        }
      ],
      "name": "allowance",
      "outputs": [
        {
          "internalType": "uint256",
          "name": "",
          "type": "uint256"
        }
      ],
      "stateMutability": "view",
      "type": "function",
      "constant": true
    },
    {
      "inputs": [
        {
          "internalType": "address",
          "name": "spender",
          "type": "address"
        },
        {
          "internalType": "uint256",
          "name": "amount",
          "type": "uint256"
        }
      ],
      "name": "approve",
      "outputs": [
        {
          "internalType": "bool",
          "name": "",
          "type": "bool"
        }
      ],
      "stateMutability": "nonpayable",
      "type": "function"
    },
    {
      "inputs": [
        {
          "internalType": "address",
          "name": "account",
          "type": "address"
        }
      ],
      "name": "balanceOf",
      "outputs": [
        {
          "internalType": "uint256",
          "name": "",
          "type": "uint256"
        }
      ],
      "stateMutability": "view",
      "type": "function",
      "constant": true
    },
    {
      "inputs": [],
      "name": "decimals",
      "outputs": [
        {
          "internalType": "uint8",
          "name": "",
          "type": "uint8"
        }
      ],
      "stateMutability": "view",
      "type": "function",
      "constant": true
    },
    {
      "inputs": [
        {
          "internalType": "address",
          "name": "spender",
          "type": "address"
        },
        {
          "internalType": "uint256",
          "name": "subtractedValue",
          "type": "uint256"
        }
      ],
      "name": "decreaseAllowance",
      "outputs": [
        {
          "internalType": "bool",
          "name": "",
          "type": "bool"
        }
      ],
      "stateMutability": "nonpayable",
      "type": "function"
    },
    {
      "inputs": [
        {
          "internalType": "address",
          "name": "spender",
          "type": "address"
        },
        {
          "internalType": "uint256",
          "name": "addedValue",
          "type": "uint256"
        }
      ],
      "name": "increaseAllowance",
      "outputs": [
        {
          "internalType": "bool",
          "name": "",
          "type": "bool"
        }
      ],
      "stateMutability": "nonpayable",
      "type": "function"
    },
    {
      "inputs": [],
      "name": "name",
      "outputs": [
        {
          "internalType": "string",
          "name": "",
          "type": "string"
        }
      ],
      "stateMutability": "view",
      "type": "function",
      "constant": true
    },
    {
      "inputs": [],
      "name": "symbol",
      "outputs": [
        {
          "internalType": "string",
          "name": "",
          "type": "string"
        }
      ],
      "stateMutability": "view",
      "type": "function",
      "constant": true
    },
    {
      "inputs": [],
      "name": "totalSupply",
      "outputs": [
        {
          "internalType": "uint256",
          "name": "",
          "type": "uint256"
        }
      ],
      "stateMutability": "view",
      "type": "function",
      "constant": true
    },
    {
      "inputs": [
        {
          "internalType": "address",
          "name": "recipient",
          "type": "address"
        },
        {
          "internalType": "uint256",
          "name": "amount",
          "type": "uint256"
        }
      ],
      "name": "transfer",
      "outputs": [
        {
          "internalType": "bool",
          "name": "",
          "type": "bool"
        }
      ],
      "stateMutability": "nonpayable",
      "type": "function"
    },
    {
      "inputs": [
        {
          "internalType": "address",
          "name": "sender",
          "type": "address"
        },
        {
          "internalType": "address",
          "name": "recipient",
          "type": "address"
        },
        {
          "internalType": "uint256",
          "name": "amount",
          "type": "uint256"
        }
      ],
      "name": "transferFrom",
      "outputs": [
        {
          "internalType": "bool",
          "name": "",
          "type": "bool"
        }
      ],
      "stateMutability": "nonpayable",
      "type": "function"
    },
    {
      "inputs": [
        {
          "internalType": "uint256",
          "name": "_amount",
          "type": "uint256"
        }
      ],
      "name": "deposit",
      "outputs": [],
      "stateMutability": "nonpayable",
      "type": "function"
    },
    {
      "inputs": [
        {
          "internalType": "uint256",
          "name": "_amount",
          "type": "uint256"
        }
      ],
      "name": "withdraw",
      "outputs": [],
      "stateMutability": "nonpayable",
      "type": "function"
    },
    {
      "inputs": [],
      "name": "getPricePerFullShare",
      "outputs": [
        {
          "internalType": "uint256",
          "name": "",
          "type": "uint256"
        }
      ],
      "stateMutability": "view",
      "type": "function",
      "constant": true
    }
  ],
  "bytecode": "0x6080604052436006553480156200001557600080fd5b506040516200130d3803806200130d833981810160405260208110156200003b57600080fd5b5051604080518082018252600481527f794441490000000000000000000000000000000000000000000000000000000060208281019182528351808501909452600e84527f796561726e20446169204d6f636b000000000000000000000000000000000000908401528151919291620000b79160039162000107565b508051620000cd90600490602084019062000107565b505060058054600160a060020a039093166101000261010060a860020a031960ff19909416601217939093169290921790915550620001a3565b828054600181600116156101000203166002900490600052602060002090601f016020900481019282601f106200014a57805160ff19168380011785556200017a565b828001600101855582156200017a579182015b828111156200017a5782518255916020019190600101906200015d565b50620001889291506200018c565b5090565b5b808211156200018857600081556001016200018d565b61115a80620001b36000396000f3fe608060405234801561001057600080fd5b5060043610610107576000357c01000000000000000000000000000000000000000000000000000000009004806370a08231116100a9578063a457c2d711610083578063a457c2d7146102b8578063a9059cbb146102e4578063b6b55f2514610310578063dd62ed3e1461032d57610107565b806370a082311461028257806377c7b8fc146102a857806395d89b41146102b057610107565b806323b872dd116100e557806323b872dd146101e35780632e1a7d4d14610219578063313ce56714610238578063395093511461025657610107565b806306fdde031461010c578063095ea7b31461018957806318160ddd146101c9575b600080fd5b61011461035b565b6040805160208082528351818301528351919283929083019185019080838360005b8381101561014e578181015183820152602001610136565b50505050905090810190601f16801561017b5780820380516001836020036101000a031916815260200191505b509250505060405180910390f35b6101b56004803603604081101561019f57600080fd5b50600160a060020a0381351690602001356103f1565b604080519115158252519081900360200190f35b6101d161040e565b60408051918252519081900360200190f35b6101b5600480360360608110156101f957600080fd5b50600160a060020a03813581169160208101359091169060400135610414565b6102366004803603602081101561022f57600080fd5b503561049c565b005b61024061060f565b6040805160ff9092168252519081900360200190f35b6101b56004803603604081101561026c57600080fd5b50600160a060020a038135169060200135610618565b6101d16004803603602081101561029857600080fd5b5035600160a060020a0316610666565b6101d1610681565b61011461069f565b6101b5600480360360408110156102ce57600080fd5b50600160a060020a038135169060200135610700565b6101b5600480360360408110156102fa57600080fd5b50600160a060020a038135169060200135610768565b6102366004803603602081101561032657600080fd5b503561077c565b6101d16004803603604081101561034357600080fd5b50600160a060020a03813581169160200135166107bc565b60038054604080516020601f60026000196101006001881615020190951694909404938401819004810282018101909252828152606093909290918301828280156103e75780601f106103bc576101008083540402835291602001916103e7565b820191906000526020600020905b8154815290600101906020018083116103ca57829003601f168201915b5050505050905090565b60006104056103fe6107e7565b84846107eb565b50600192915050565b60025490565b60006104218484846108dd565b6104918461042d6107e7565b61048c8560405180606001604052806028815260200161106560289139600160a060020a038a1660009081526001602052604081209061046b6107e7565b600160a060020a031681526020810191909152604001600020549190610a3e565b6107eb565b5060015b9392505050565b60006104a6610681565b820290506000600560019054906101000a9004600160a060020a0316600160a060020a03166370a08231306040518263ffffffff167c01000000000000000000000000000000000000000000000000000000000281526004018082600160a060020a0316815260200191505060206040518083038186803b15801561052a57600080fd5b505afa15801561053e573d6000803e3d6000fd5b505050506040513d602081101561055457600080fd5b50519050818110156105ee57600554604080517f827f32c000000000000000000000000000000000000000000000000000000000815230600482015283850360248201819052915191926101009004600160a060020a03169163827f32c09160448082019260009290919082900301818387803b1580156105d457600080fd5b505af11580156105e8573d6000803e3d6000fd5b50505050505b60055461060a906101009004600160a060020a03163384610ad8565b505050565b60055460ff1690565b60006104056106256107e7565b8461048c85600160006106366107e7565b600160a060020a03908116825260208083019390935260409182016000908120918c168152925290205490610b58565b600160a060020a031660009081526020819052604090205490565b60006006544303655af3107a400002670ebf33dfd318347401905090565b60048054604080516020601f60026000196101006001881615020190951694909404938401819004810282018101909252828152606093909290918301828280156103e75780601f106103bc576101008083540402835291602001916103e7565b600061040561070d6107e7565b8461048c8560405180606001604052806025815260200161110060259139600160006107376107e7565b600160a060020a03908116825260208083019390935260409182016000908120918d16815292529020549190610a3e565b60006104056107756107e7565b84846108dd565b6000610786610681565b828161078e57fe5b04905061079b3382610bb5565b6005546107b8906101009004600160a060020a0316333085610ca8565b5050565b600160a060020a03918216600090815260016020908152604080832093909416825291909152205490565b3390565b600160a060020a0383166108335760405160e560020a62461bcd0281526004018080602001828103825260248152602001806110b26024913960400191505060405180910390fd5b600160a060020a03821661087b5760405160e560020a62461bcd028152600401808060200182810382526022815260200180610ff76022913960400191505060405180910390fd5b600160a060020a03808416600081815260016020908152604080832094871680845294825291829020859055815185815291517f8c5be1e5ebec7d5bd14f71427d1e84f3dd0314c0f7b2291e5b200ac8c7c3b9259281900390910190a3505050565b600160a060020a0383166109255760405160e560020a62461bcd02815260040180806020018281038252602581526020018061108d6025913960400191505060405180910390fd5b600160a060020a03821661096d5760405160e560020a62461bcd028152600401808060200182810382526023815260200180610fd46023913960400191505060405180910390fd5b61097883838361060a565b6109b58160405180606001604052806026815260200161101960269139600160a060020a0386166000908152602081905260409020549190610a3e565b600160a060020a0380851660009081526020819052604080822093909355908416815220546109e49082610b58565b600160a060020a038084166000818152602081815260409182902094909455805185815290519193928716927fddf252ad1be2c89b69c2b068fc378daa952ba7f163c4a11628f55a4df523b3ef92918290030190a3505050565b60008184841115610ad05760405160e560020a62461bcd0281526004018080602001828103825283818151815260200191508051906020019080838360005b83811015610a95578181015183820152602001610a7d565b50505050905090810190601f168015610ac25780820380516001836020036101000a031916815260200191505b509250505060405180910390fd5b505050900390565b60408051600160a060020a038416602482015260448082018490528251808303909101815260649091019091526020810180517bffffffffffffffffffffffffffffffffffffffffffffffffffffffff167fa9059cbb0000000000000000000000000000000000000000000000000000000017905261060a908490610d36565b600082820183811015610495576040805160e560020a62461bcd02815260206004820152601b60248201527f536166654d6174683a206164646974696f6e206f766572666c6f770000000000604482015290519081900360640190fd5b600160a060020a038216610c13576040805160e560020a62461bcd02815260206004820152601f60248201527f45524332303a206d696e7420746f20746865207a65726f206164647265737300604482015290519081900360640190fd5b610c1f6000838361060a565b600254610c2c9082610b58565b600255600160a060020a038216600090815260208190526040902054610c529082610b58565b600160a060020a0383166000818152602081815260408083209490945583518581529351929391927fddf252ad1be2c89b69c2b068fc378daa952ba7f163c4a11628f55a4df523b3ef9281900390910190a35050565b60408051600160a060020a0380861660248301528416604482015260648082018490528251808303909101815260849091019091526020810180517bffffffffffffffffffffffffffffffffffffffffffffffffffffffff167f23b872dd00000000000000000000000000000000000000000000000000000000179052610d30908590610d36565b50505050565b6060610d8b826040518060400160405280602081526020017f5361666545524332303a206c6f772d6c6576656c2063616c6c206661696c656481525085600160a060020a0316610dea9092919063ffffffff16565b80519091501561060a57808060200190516020811015610daa57600080fd5b505161060a5760405160e560020a62461bcd02815260040180806020018281038252602a8152602001806110d6602a913960400191505060405180910390fd5b6060610df98484600085610e01565b949350505050565b60603031831115610e465760405160e560020a62461bcd02815260040180806020018281038252602681526020018061103f6026913960400191505060405180910390fd5b610e4f85610f64565b610ea3576040805160e560020a62461bcd02815260206004820152601d60248201527f416464726573733a2063616c6c20746f206e6f6e2d636f6e7472616374000000604482015290519081900360640190fd5b6000606086600160a060020a031685876040518082805190602001908083835b60208310610ee25780518252601f199092019160209182019101610ec3565b6001836020036101000a03801982511681845116808217855250505050505090500191505060006040518083038185875af1925050503d8060008114610f44576040519150601f19603f3d011682016040523d82523d6000602084013e610f49565b606091505b5091509150610f59828286610f6a565b979650505050505050565b3b151590565b60608315610f79575081610495565b825115610f895782518084602001fd5b60405160e560020a62461bcd028152602060048201818152845160248401528451859391928392604401919085019080838360008315610a95578181015183820152602001610a7d56fe45524332303a207472616e7366657220746f20746865207a65726f206164647265737345524332303a20617070726f766520746f20746865207a65726f206164647265737345524332303a207472616e7366657220616d6f756e7420657863656564732062616c616e6365416464726573733a20696e73756666696369656e742062616c616e636520666f722063616c6c45524332303a207472616e7366657220616d6f756e74206578636565647320616c6c6f77616e636545524332303a207472616e736665722066726f6d20746865207a65726f206164647265737345524332303a20617070726f76652066726f6d20746865207a65726f20616464726573735361666545524332303a204552433230206f7065726174696f6e20646964206e6f74207375636365656445524332303a2064656372656173656420616c6c6f77616e63652062656c6f77207a65726fa2646970667358221220db9c4ffa2b7ee6737ae4d7be974f8c3bf5148f1586c68e5e75a28a203eb1078864736f6c634300060c0033",
  "immutableReferences": {},
  "source": "// SPDX-License-Identifier: MIT\npragma solidity >=0.6.0 <0.8.0;\n\nimport \"@openzeppelin/contracts/token/ERC20/ERC20.sol\";\nimport \"@openzeppelin/contracts/token/ERC20/SafeERC20.sol\";\nimport \"@openzeppelin/contracts/token/ERC20/IERC20.sol\";\nimport \"./DaiMock.sol\";\n\ncontract YDaiVaultMock is ERC20 {\n    using SafeERC20 for IERC20;\n\n    IERC20 private token;\n    uint256 private initBlock = block.number;\n\n    constructor(address _tokenAddress) public ERC20(\"yDAI\", \"yearn Dai Mock\") {\n        token = IERC20(_tokenAddress);\n    }\n\n    function deposit(uint256 _amount) public {\n        uint256 amountToMint = _amount / getPricePerFullShare();\n        _mint(msg.sender, amountToMint);\n        token.safeTransferFrom(msg.sender, address(this), _amount);\n    }\n\n    function withdraw(uint256 _amount) public {\n        uint256 amountToWithdraw = _amount * getPricePerFullShare();\n        uint256 contractBalance = token.balanceOf(address(this));\n\n        if (contractBalance < amountToWithdraw) {\n            uint256 amountToMint = amountToWithdraw - contractBalance;\n            ERC20Mock(address(token)).generateTokens(address(this), amountToMint);\n        }\n\n        token.safeTransfer(msg.sender, amountToWithdraw);\n    }\n\n    function getPricePerFullShare() public view returns (uint256) {\n        return 1062625073495028852 + (100000000000000 * (block.number - initBlock));\n    }\n\n    // https://etherscan.io/token/0x16de59092dae5ccf4a1e6439d611fd0653f0bd01#readContract this to get amount of dai etc\n}\n",
  "sourcePath": "/Users/mortimr/projects/kuko-finance/contracts/contracts/testing/YDaiVaultMock.sol",
  "compiler": {
    "name": "solc",
    "version": "0.6.12+commit.27d51765.Emscripten.clang"
  },
  "schemaVersion": "3.3.3",
  "updatedAt": "2021-02-07T17:31:13.621Z",
  "networkType": "ethereum",
  "devdoc": {
    "kind": "dev",
    "methods": {
      "allowance(address,address)": {
        "details": "See {IERC20-allowance}."
      },
      "approve(address,uint256)": {
        "details": "See {IERC20-approve}. Requirements: - `spender` cannot be the zero address."
      },
      "balanceOf(address)": {
        "details": "See {IERC20-balanceOf}."
      },
      "decimals()": {
        "details": "Returns the number of decimals used to get its user representation. For example, if `decimals` equals `2`, a balance of `505` tokens should be displayed to a user as `5,05` (`505 / 10 ** 2`). Tokens usually opt for a value of 18, imitating the relationship between Ether and Wei. This is the value {ERC20} uses, unless {_setupDecimals} is called. NOTE: This information is only used for _display_ purposes: it in no way affects any of the arithmetic of the contract, including {IERC20-balanceOf} and {IERC20-transfer}."
      },
      "decreaseAllowance(address,uint256)": {
        "details": "Atomically decreases the allowance granted to `spender` by the caller. This is an alternative to {approve} that can be used as a mitigation for problems described in {IERC20-approve}. Emits an {Approval} event indicating the updated allowance. Requirements: - `spender` cannot be the zero address. - `spender` must have allowance for the caller of at least `subtractedValue`."
      },
      "increaseAllowance(address,uint256)": {
        "details": "Atomically increases the allowance granted to `spender` by the caller. This is an alternative to {approve} that can be used as a mitigation for problems described in {IERC20-approve}. Emits an {Approval} event indicating the updated allowance. Requirements: - `spender` cannot be the zero address."
      },
      "name()": {
        "details": "Returns the name of the token."
      },
      "symbol()": {
        "details": "Returns the symbol of the token, usually a shorter version of the name."
      },
      "totalSupply()": {
        "details": "See {IERC20-totalSupply}."
      },
      "transfer(address,uint256)": {
        "details": "See {IERC20-transfer}. Requirements: - `recipient` cannot be the zero address. - the caller must have a balance of at least `amount`."
      },
      "transferFrom(address,address,uint256)": {
        "details": "See {IERC20-transferFrom}. Emits an {Approval} event indicating the updated allowance. This is not required by the EIP. See the note at the beginning of {ERC20}. Requirements: - `sender` and `recipient` cannot be the zero address. - `sender` must have a balance of at least `amount`. - the caller must have allowance for ``sender``'s tokens of at least `amount`."
      }
    },
    "version": 1
  },
  "userdoc": {
    "kind": "user",
    "methods": {},
    "version": 1
  }
}